00COTAHIST.2026BOVESPA 20260205                                                                                                                                                                                                                      
012026020502BSLI3       010BRB BANCO   ON           R$  000000000051000000000005200000000000414000000000046700000000004600000000000459000000000046000218000000000000055800000000000026113500000000000000009999123100000010000000000000BRBSLIACNOR5198
012026020502BSLI4       010BRB BANCO   PN           R$  000000000055000000000005650000000000517000000000053800000000005350000000000531000000000053500071000000000000011900000000000006404300000000000000009999123100000010000000000000BRBSLIACNPR2198
012026020502BHIA3       010CASAS BAHIA ON      NM   R$  000000000030500000000003080000000000298000000000030200000000002980000000000298000000000029904506000000000003733400000000001130609500000000000000009999123100000010000000000000BRBHIAACNOR1104
012026020502BIED3       010BIOMA EDUC  ON      MA   R$  000000000048300000000004880000000000461000000000046600000000004610000000000451000000000047500021000000000000008800000000000004105300000000000000009999123100000010000000000000BRBIEDACNOR2101
012026020502CVCB3       010CVC BRASIL  ON      NM   R$  000000000025700000000002650000000000245000000000025700000000002550000000000253000000000025515428000000000026197500000000006755294600000000000000009999123100000010000000000000BRCVCBACNOR1118
012026020502CEAB3       010CEA MODAS   ON      NM   R$  000000000125500000000013040000000001253000000000128600000000012660000000001266000000000127015736000000000008518000000000010956668600000000000000009999123100000010000000000000BRCEABACNOR1105
012026020502EMAE4       010EMAE        PN           R$  000000000470000000000047990000000004620000000000474100000000047990000000004725000000000480100030000000000000006900000000000032716200000000000000009999123100000010000000000000BREMAEACNPR1128
012026020502EMBJ3       010EMBRAER     ON      NM   R$  000000000925600000000092900000000008990000000000917700000000091800000000009175000000000918621024000000000005023500000000046105619700000000000000009999123100000010000000000000BREMBJACNOR1102
012026020502ALPA3       010ALPARGATAS  ON      N1   R$  000000000121000000000012800000000001182000000000123800000000012790000000001240000000000128000083000000000000027600000000000034177900000000000000009999123100000010000000000000BRALPAACNOR0234
012026020502ALPA4       010ALPARGATAS  PN      N1   R$  000000000147200000000015280000000001465000000000151300000000015240000000001523000000000152705404000000000002245900000000003400099800000000000000009999123100000010000000000000BRALPAACNPR7235
012026020502ALPK3       010ESTAPAR     ON      NM   R$  000000000045200000000004580000000000447000000000045200000000004510000000000450000000000045100441000000000000109500000000000049531100000000000000009999123100000010000000000000BRALPKACNOR9101
012026020502ALUP11      010ALUPAR      UNT     N2   R$  000000000340400000000034540000000003368000000000343500000000034370000000003424000000000343802278000000000000467700000000001606669800000000000000009999123100000010000000000000BRALUPCDAM15126
012026020502ALUP3       010ALUPAR      ON      N2   R$  000000000124900000000012770000000001249000000000126100000000012550000000001255000000000127700028000000000000005700000000000007193200000000000000009999123100000010000000000000BRALUPACNOR8126
012026020502CXSE3       010CAIXA SEGURION      NM   R$  000000000179800000000018210000000001789000000000181000000000018020000000001801000000000180209273000000000002503500000000004531674400000000000000009999123100000010000000000000BRCXSEACNOR7114
012026020502ENEV3       010ENEVA       ON      NM   R$  000000000213000000000021720000000002115000000000215300000000021580000000002152000000000215931554000000000021482100000000046266232200000000000000009999123100000010000000000000BRENEVACNOR8107
012026020502AXIA7       010AXIA ENERGIAPNC     N1   R$  000000000534400000000055650000000005329000000000549100000000054900000000005465000000000549011967000000000002780400000000015267617600000000000000009999123100000010000000000000BRAXIAACNPC9100
012026020502GOLL54      010GOL         PN *P   N2   R$  000000000113000000000011420000000001126000000000113800000000011390000000001135000000000114000260000000000138313000000000000157421079000000000000009999123100010000000000000000BRGOLLA01PR5100
012026020502GRND3       010GRENDENE    ON      NM   R$  000000000049400000000004990000000000490000000000049400000000004950000000000492000000000049504807000000000002911700000000001439676900000000000000009999123100000010000000000000BRGRNDACNOR3182
012026020502HAGA3       010HAGA S/A    ON           R$  000000000020300000000002040000000000190000000000019500000000001900000000000176000000000020000009000000000000001300000000000000253500000000000000009999123100000010000000000000BRHAGAACNOR7103
012026020502HAGA4       010HAGA S/A    PN           R$  000000000011300000000001260000000000113000000000012000000000001240000000000116000000000012400029000000000000037400000000000004522700000000000000009999123100000010000000000000BRHAGAACNPR4103
012026020502HAPV3       010HAPVIDA     ON      NM   R$  000000000124800000000012500000000001205000000000122500000000012050000000001205000000000120717532000000000007913500000000009694144400000000000000009999123100000010000000000000BRHAPVACNOR4119
012026020502ISAE3       010ISA ENERGIA ON  EJ  N1   R$  000000000337800000000035070000000003378000000000343100000000034020000000003379000000000342400014000000000000001900000000000006519500000000000000009999123100000010000000000000BRISAEACNOR2108
012026020502ISAE4       010ISA ENERGIA PN  EJ  N1   R$  000000000285000000000029150000000002835000000000289700000000029110000000002900000000000291109025000000000002242300000000006496727000000000000000009999123100000010000000000000BRISAEACNPR9108
012026020502ITSA3       010ITAUSA      ON      N1   R$  000000000135900000000014020000000001359000000000138700000000013980000000001392000000000139800947000000000000237000000000000328910300000000000000009999123100000010000000000000BRITSAACNOR0455
012026020502ITSA4       010ITAUSA      PN      N1   R$  000000000137100000000013950000000001363000000000138300000000013840000000001383000000000138525533000000000029143800000000040314140600000000000000009999123100000010000000000000BRITSAACNPR7455
012026020502GEPA4       010GER PARANAP PN           R$  000000000349700000000034970000000003497000000000349700000000034970000000003467000000000349700001000000000000000100000000000000349700000000000000009999123100000010000000000000BRGEPAACNPR9165
012026020502LAND3       010TERRASANTAPAON      NM   R$  000000000079300000000008100000000000781000000000079400000000007910000000000791000000000081200213000000000000035400000000000028138500000000000000009999123100000010000000000000BRLANDACNOR9104
012026020502LAVV3       010LAVVI       ON  ED  NM   R$  000000000168900000000017450000000001689000000000173000000000017300000000001717000000000173002749000000000000869700000000001505148700000000000000009999123100000010000000000000BRLAVVACNOR4120
012026020502LEVE3       010METAL LEVE  ON      NM   R$  000000000344300000000034560000000003415000000000343300000000034330000000003430000000000343301476000000000000235100000000000807198800000000000000009999123100000010000000000000BRLEVEACNOR2202
012026020502LJQQ3       010QUERO-QUERO ON      NM   R$  000000000024700000000002520000000000238000000000024500000000002380000000000238000000000024103275000000000001893000000000000464027400000000000000009999123100000010000000000000BRLJQQACNOR5105
012026020502LOGG3       010LOG COM PROPON      NM   R$  000000000280000000000028240000000002781000000000279900000000027840000000002784000000000279601490000000000000207600000000000581081800000000000000009999123100000010000000000000BRLOGGACNOR7112
012026020502LOGN3       010LOG-IN      ON      NM   R$  000000000322100000000032310000000003220000000000322300000000032200000000003220000000000324700023000000000000004200000000000013540500000000000000009999123100000010000000000000BRLOGNACNOR3105
012026020502LPSB3       010LOPES BRASILON      NM   R$  000000000018400000000001880000000000181000000000018300000000001810000000000181000000000018400238000000000000127900000000000023510400000000000000009999123100000010000000000000BRLPSBACNOR0116
012026020502LREN3       010LOJAS RENNERON      NM   R$  000000000152800000000015660000000001520000000000154100000000015200000000001520000000000152720681000000000009262400000000014280623800000000000000009999123100000010000000000000BRLRENACNOR1228
012026020502MTRE3       010MITRE REALTYON  ED  NM   R$  000000000039000000000003990000000000389000000000039300000000003890000000000389000000000039300693000000000000427700000000000168342900000000000000009999123100000010000000000000BRMTREACNOR6131
012026020502MTSA4       010METISA      PN           R$  000000000500500000000050940000000005005000000000504900000000050940000000004407000000000509500003000000000000000400000000000002019800000000000000009999123100000010000000000000BRMTSAACNPR9079
012026020502MULT3       010MULTIPLAN   ON      N2   R$  000000000330000000000033610000000003291000000000333000000000033030000000003303000000000331919154000000000004032400000000013429558000000000000000009999123100000010000000000000BRMULTACNOR5145
012026020502SBFG3       010GRUPO SBF   ON      NM   R$  000000000136200000000013850000000001352000000000136800000000013650000000001362000000000136807155000000000002591500000000003547505100000000000000009999123100000010000000000000BRSBFGACNOR1104
012026020502SBSP3       010SABESP      ON      NM   R$  000000001439400000000146990000000014394000000001455000000000145000000000014482000000001450313934000000000002504300000000036439844600000000000000009999123100000010000000000000BRSBSPACNOR5165
012026020502TASA3       010TAURUS ARMASON      N2   R$  000000000055800000000005580000000000536000000000054200000000005420000000000538000000000054300097000000000000023500000000000012752600000000000000009999123100000010000000000000BRTASAACNOR7106
012026020502TASA4       010TAURUS ARMASPN      N2   R$  000000000053800000000005380000000000523000000000053000000000005230000000000523000000000052500791000000000000287100000000000152263800000000000000009999123100000010000000000000BRTASAACNPR4106
012026020502TCSA3       010TECNISA     ON      NM   R$  000000000016100000000001610000000000158000000000015900000000001590000000000158000000000016000142000000000000041600000000000006639300000000000000009999123100000010000000000000BRTCSAACNOR3112
012026020502TECN3       010TECHNOS     ON      NM   R$  000000000082200000000008420000000000816000000000082900000000008290000000000822000000000082900199000000000000046200000000000038341000000000000000009999123100000010000000000000BRTECNACNOR6111
012026020502TELB3       010TELEBRAS    ON           R$  000000000112000000000011200000000001120000000000112000000000011200000000001115000000000116000002000000000000000200000000000000224000000000000000009999123100000010000000000000BRTELBACNOR2142
012026020502TELB4       010TELEBRAS    PN           R$  000000000078400000000008000000000000784000000000079300000000008000000000000788000000000080400008000000000000001600000000000001269600000000000000009999123100000010000000000000BRTELBACNPR9142
012026020502TEND3       010TENDA       ON      NM   R$  000000000282100000000029610000000002802000000000292500000000029100000000002907000000000291008234000000000001879500000000005498755500000000000000009999123100000010000000000000BRTENDACNOR4114
012026020502TFCO4       010TRACK FIELD PN      N2   R$  000000000157800000000016290000000001578000000000161000000000016100000000001610000000000161202334000000000000513700000000000827492000000000000000009999123100000010000000000000BRTFCOACNPR8121
012026020502TGMA3       010TEGMA       ON      NM   R$  000000000390200000000040160000000003902000000000399200000000039670000000003967000000000399100998000000000000119400000000000476706600000000000000009999123100000010000000000000BRTGMAACNOR7150
012026020502TIMS3       010TIM         ON      NM   R$  000000000249400000000025570000000002486000000000253800000000025540000000002548000000000255613837000000000005435700000000013800372000000000000000009999123100000010000000000000BRTIMSACNOR5129
012026020502GGPS3       010GPS         ON      NM   R$  000000000185800000000018960000000001814000000000185700000000018390000000001837000000000184908152000000000003303600000000006137976000000000000000009999123100000010000000000000BRGGPSACNOR9106
012026020502VALE3       010VALE        ON      NM   R$  000000000879900000000088930000000008624000000000874400000000086450000000008645000000000864670938000000000057049000000000498841649500000000000000009999123100000010000000000000BRVALEACNOR0218
012026020502UNIP6       010UNIPAR      PNB          R$  000000000635000000000064950000000006340000000000640900000000063790000000006379000000000638001594000000000000199000000000001275437500000000000000009999123100000010000000000000BRUNIPACNPB8210
012026020502USIM3       010USIMINAS    ON      N1   R$  000000000065800000000006580000000000632000000000064300000000006320000000000631000000000063200327000000000000193900000000000124785500000000000000009999123100000010000000000000BRUSIMACNOR3167
012026020502USIM5       010USIMINAS    PNA     N1   R$  000000000065500000000006570000000000636000000000064700000000006370000000000637000000000063808902000000000009096200000000005887096700000000000000009999123100000010000000000000BRUSIMACNPA6172
012026020502TTEN3       0103TENTOS     ON      NM   R$  000000000161500000000016340000000001603000000000161700000000016030000000001602000000000161506704000000000001327300000000002146893400000000000000009999123100000010000000000000BRTTENACNOR0105
012026020502TUPY3       010TUPY        ON      NM   R$  000000000119100000000012200000000001181000000000119700000000011840000000001184000000000118903513000000000000769600000000000921829400000000000000009999123100000010000000000000BRTUPYACNOR1185
012026020502CLSC4       010CELESC      PN      N2   R$  000000001413900000000142290000000014065000000001417500000000141500000000014038000000001421900031000000000000003300000000000046779800000000000000009999123100000010000000000000BRCLSCACNPR3138
012026020502CMIG3       010CEMIG       ON      N1   R$  000000000151900000000015310000000001508000000000152100000000015280000000001517000000000152800439000000000000094300000000000143447900000000000000009999123100000010000000000000BRCMIGACNOR6251
012026020502CMIG4       010CEMIG       PN      N1   R$  000000000115600000000011680000000001148000000000115700000000011530000000001151000000000115519246000000000011617000000000013447073300000000000000009999123100000010000000000000BRCMIGACNPR3252
012026020502CSNA3       010SID NACIONALON           R$  000000000102100000000010270000000000990000000000099800000000009900000000000990000000000099116611000000000012052200000000012033743000000000000000009999123100000010000000000000BRCSNAACNOR6263
012026020502ALUP4       010ALUPAR      PN      N2   R$  000000000107000000000010940000000001068000000000108300000000010840000000001081000000000109300043000000000000007700000000000008340600000000000000009999123100000010000000000000BRALUPACNPR5126
012026020502AMAR3       010LOJAS MARISAON      NM   R$  000000000009600000000000960000000000095000000000009500000000000960000000000095000000000009600243000000000000130800000000000012510900000000000000009999123100000010000000000000BRAMARACNOR4115
012026020502UCAS3       010UNICASA     ON      NM   R$  000000000013900000000001420000000000139000000000014000000000001420000000000139000000000014200053000000000000108900000000000015314600000000000000009999123100000010000000000000BRUCASACNOR1114
012026020502UGPA3       010ULTRAPAR    ON      NM   R$  000000000258500000000026230000000002552000000000260100000000026120000000002604000000000261425996000000000007538900000000019611898500000000000000009999123100000010000000000000BRUGPAACNOR8159
012026020502UNIP3       010UNIPAR      ON           R$  000000000606500000000061490000000006002000000000607900000000061170000000006036000000000611900045000000000000005000000000000030399600000000000000009999123100000010000000000000BRUNIPACNOR7210
012026020502VSTE3       010VESTE       ON      NM   R$  000000000036300000000003640000000000360000000000036200000000003600000000000359000000000036100041000000000000027200000000000009855700000000000000009999123100000010000000000000BRVSTEACNOR5104
012026020502VTRU3       010VITRUEDUCA  ON      NM   R$  000000000166100000000017100000000001591000000000166200000000015910000000001589000000000160002626000000000000758700000000001261078800000000000000009999123100000010000000000000BRVTRUACNOR3101
012026020502VULC3       010VULCABRAS   ON      NM   R$  000000000179500000000018180000000001762000000000178900000000017620000000001762000000000177006048000000000001998400000000003576235400000000000000009999123100000010000000000000BRVULCACNOR2181
012026020502VVEO3       010VIVEO       ON      NM   R$  000000000014000000000001430000000000136000000000013800000000001370000000000136000000000013700649000000000000771200000000000106901800000000000000009999123100000010000000000000BRVVEOACNOR0104
012026020502WDCN3       010WDC NETWORKSON      NM   R$  000000000026300000000002680000000000253000000000025800000000002590000000000257000000000025900080000000000000048700000000000012590900000000000000009999123100000010000000000000BRWDCNACNOR2100
012026020502WEGE3       010WEG         ON      NM   R$  000000000514500000000053270000000005143000000000525900000000052210000000005220000000000522224631000000000007437700000000039118689300000000000000009999123100000010000000000000BRWEGEACNOR0234
012026020502TPIS3       010TRIUNFO PARTON      NM   R$  000000000057500000000005850000000000561000000000057900000000005850000000000576000000000058500056000000000000019000000000000011009800000000000000009999123100000010000000000000BRTPISACNOR8120
012026020502TRAD3       010TC          ON      NM   R$  000000000030800000000003100000000000305000000000030800000000003050000000000305000000000030800029000000000000012200000000000003764000000000000000009999123100000010000000000000BRTRADACNOR3102
012026020502TRIS3       010TRISUL      ON      NM   R$  000000000068800000000007220000000000688000000000071100000000007100000000000706000000000071100649000000000000256200000000000182234200000000000000009999123100000010000000000000BRTRISACNOR4122
012026020502VIVR3       010VIVER       ON      NM   R$  000000000006300000000000640000000000059000000000006000000000000600000000000060000000000006100089000000000000081400000000000004945900000000000000009999123100000010000000000000BRVIVRACNOR4125
012026020502VIVT3       010TELEF BRASILON           R$  000000000381500000000039130000000003801000000000388400000000038810000000003881000000000388514891000000000004868800000000018913908100000000000000009999123100000010000000000000BRVIVTACNOR0199
012026020502VLID3       010VALID       ON      NM   R$  000000000215000000000021860000000002128000000000215600000000021360000000002134000000000213601717000000000000255700000000000551374900000000000000009999123100000010000000000000BRVLIDACNOR5148
012026020502VITT3       010VITTIA      ON      NM   R$  000000000043900000000004430000000000430000000000043500000000004300000000000430000000000043300723000000000000140000000000000060995200000000000000009999123100000010000000000000BRVITTACNOR4113
012026020502VIVA3       010VIVARA S.A. ON      NM   R$  000000000286000000000029760000000002860000000000293500000000029110000000002900000000000291215465000000000004344500000000012751370600000000000000009999123100000010000000000000BRVIVAACNOR0109
012026020502VBBR3       010VIBRA       ON      NM   R$  000000000303000000000030980000000003012000000000307500000000030890000000003080000000000308943290000000000019636200000000060399963600000000000000009999123100000010000000000000BRVBBRACNOR1114
012026020502VAMO3       010VAMOS       ON      NM   R$  000000000041300000000004460000000000410000000000043200000000004400000000000440000000000044118372000000000039569400000000017125287400000000000000009999123100000010000000000000BRVAMOACNOR7109
012026020502WHRL3       010WHIRLPOOL   ON           R$  000000000044000000000004500000000000437000000000044000000000004390000000000437000000000043900019000000000000003600000000000001587200000000000000009999123100000010000000000000BRWHRLACNOR5135
012026020502WHRL4       010WHIRLPOOL   PN           R$  000000000046200000000004690000000000462000000000046500000000004690000000000464000000000046900021000000000000004200000000000001953500000000000000009999123100000010000000000000BRWHRLACNPR2135
012026020502WIZC3       010WIZ CO      ON      NM   R$  000000000097500000000010070000000000958000000000099100000000009860000000000986000000000099302356000000000000582100000000000577239900000000000000009999123100000010000000000000BRWIZCACNOR5104
012026020502WLMM4       010WLM IND COM PN           R$  000000000243100000000024820000000002431000000000245700000000024820000000002431000000000247800005000000000000001200000000000002948600000000000000009999123100000010000000000000BRWLMMACNPR3125
012026020502DOTZ3       010DOTZ SA     ON      NM   R$  000000000035100000000003570000000000337000000000034600000000003440000000000338000000000034400041000000000000007900000000000002738700000000000000009999123100000010000000000000BRDOTZACNOR7101
012026020502DXCO3       010DEXCO       ON      NM   R$  000000000056200000000005720000000000560000000000056500000000005640000000000561000000000056402646000000000001133000000000000641054000000000000000009999123100000010000000000000BRDXCOACNOR8108
012026020502BPAC11      010BTGP BANCO  UNT     N2   R$  000000000586000000000059470000000005806000000000588600000000058980000000005880000000000589835425000000000015395500000000090624789800000000000000009999123100000010000000000000BRBPACUNT006128
012026020502BPAC3       010BTGP BANCO  ON      N2   R$  000000000417000000000044000000000004110000000000421900000000042100000000004132000000000420000054000000000000006100000000000025740300000000000000009999123100000010000000000000BRBPACACNOR7139
012026020502BPAC5       010BTGP BANCO  PNA     N2   R$  000000000111400000000011280000000001091000000000110900000000011280000000001096000000000112800033000000000000004200000000000004661300000000000000009999123100000010000000000000BRBPACACNPA0139
012026020502BRKM3       010BRASKEM     ON      N1   R$  000000000090300000000009350000000000876000000000089400000000008770000000000876000000000088800138000000000000029500000000000026400900000000000000009999123100000010000000000000BRBRKMACNOR1119
012026020502BRKM5       010BRASKEM     PNA ATZ N1   R$  000000000094300000000009560000000000900000000000091600000000009000000000000900000000000090106887000000000003508800000000003217117000000000000000009999123100000010000000000000BRBRKMACNPA4123
012026020502DMVF3       010D1000VFARMA ON      NM   R$  000000000068100000000006820000000000669000000000067200000000006750000000000669000000000067500175000000000000025400000000000017079400000000000000009999123100000010000000000000BRDMVFACNOR9100
012026020502DOHL4       010DOHLER      PN           R$  000000000038500000000003970000000000385000000000038500000000003850000000000384000000000039700007000000000000002000000000000000771300000000000000009999123100000010000000000000BRDOHLACNPR9067
012026020502FESA4       010FERBASA     PN      N1   R$  000000000083400000000008400000000000813000000000082600000000008210000000000821000000000082501867000000000000659000000000000544967900000000000000009999123100000010000000000000BRFESAACNPR5090
012026020502FHER3       010FER HERINGERON      NM   R$  000000000046300000000004650000000000449000000000045100000000004490000000000449000000000045800016000000000000004300000000000001940400000000000000009999123100000010000000000000BRFHERACNOR5103
012026020502FICT3       010FICTORALIMENON           R$  000000000006900000000000700000000000060000000000006500000000000700000000000070000000000007100311000000000000348600000000000022903900000000000000009999123100000010000000000000BRFICTACNOR3101
012026020502FIQE3       010UNIFIQUE    ON      NM   R$  000000000049800000000005100000000000498000000000050300000000005060000000000505000000000050600839000000000000487400000000000245433800000000000000009999123100000010000000000000BRFIQEACNOR5112
012026020502FLRY3       010FLEURY      ON      NM   R$  000000000166700000000016990000000001652000000000168600000000016840000000001677000000000168409718000000000002772000000000004676116900000000000000009999123100000010000000000000BRFLRYACNOR5143
012026020502BEEF3       010MINERVA     ON      NM   R$  000000000060800000000006150000000000602000000000061000000000006090000000000607000000000060909547000000000007220900000000004404901400000000000000009999123100000010000000000000BRBEEFACNOR6120
012026020502BEES3       010BANESTES    ON  EJ       R$  000000000082800000000008340000000000825000000000082800000000008290000000000825000000000083200060000000000000015400000000000012761300000000000000009999123100000010000000000000BRBEESACNOR9415
012026020502BALM4       010BAUMER      PN           R$  000000000197500000000019750000000001904000000000194600000000019750000000001904000000000196500005000000000000000500000000000000973300000000000000009999123100000010000000000000BRBALMACNPR2060
012026020502BAZA3       010AMAZONIA    ON           R$  000000000844000000000085990000000008440000000000851400000000085710000000008590000000000860000010000000000000001000000000000008514600000000000000009999123100000010000000000000BRBAZAACNOR0180
012026020502BBAS3       010BRASIL      ON      NM   R$  000000000251000000000025250000000002419000000000247300000000024440000000002443000000000244441345000000000038580000000000095437021200000000000000009999123100000010000000000000BRBBASACNOR3334
012026020502BRSR3       010BANRISUL    ON      N1   R$  000000000192800000000019320000000001887000000000191000000000019320000000001900000000000194900046000000000000006500000000000012418200000000000000009999123100000010000000000000BRBRSRACNOR3197
012026020502BRSR6       010BANRISUL    PNB     N1   R$  000000000184400000000018660000000001835000000000185400000000018540000000001847000000000185804480000000000001226400000000002274779800000000000000009999123100000010000000000000BRBRSRACNPB4200
012026020502BRST3       010BRISANET    ON      NM   R$  000000000031900000000003220000000000308000000000031600000000003100000000000309000000000031201865000000000000407100000000000128720900000000000000009999123100000010000000000000BRBRSTACNOR9102
012026020502CURY3       010CURY S/A    ON  ED  NM   R$  000000000353600000000037090000000003536000000000364900000000036790000000003676000000000368013210000000000003577600000000013055730600000000000000009999123100000010000000000000BRCURYACNOR3116
012026020502ATED3       010ATOM EDUC   ON           R$  000000000021100000000002150000000000210000000000021200000000002120000000000211000000000021300026000000000000009600000000000002036900000000000000009999123100000010000000000000BRATEDACNOR1100
012026020502AUAU3       010PETZCOBASI  ON      NM   R$  000000000032600000000003280000000000319000000000032200000000003200000000000319000000000032002507000000000003158500000000001017531000000000000000009999123100000010000000000000BRAUAUACNOR1100
012026020502AURE3       010AUREN       ON      NM   R$  000000000109600000000011100000000001090000000000110200000000010950000000001095000000000109607491000000000002742500000000003023601800000000000000009999123100000010000000000000BRAUREACNOR9105
012026020502AVLL3       010ALPHAVILLE  ON      NM   R$  000000000008500000000000850000000000083000000000008400000000000840000000000083000000000008500006000000000000001500000000000000126300000000000000009999123100000010000000000000BRAVLLACNOR5103
012026020502AXIA3       010AXIA ENERGIAON      N1   R$  000000000554300000000057490000000005522000000000568000000000056900000000005688000000000569947004000000000015101200000000085783181200000000000000009999123100000010000000000000BRAXIAACNOR0102
012026020502AXIA6       010AXIA ENERGIAPNB     N1   R$  000000000589900000000061150000000005892000000000604600000000060570000000006051000000000605707691000000000001420700000000008590371900000000000000009999123100000010000000000000BRAXIAACNPB1103
012026020502FESA3       010FERBASA     ON      N1   R$  000000000119800000000011980000000001198000000000119800000000011980000000001182000000000125400001000000000000000200000000000000239600000000000000009999123100000010000000000000BRFESAACNOR8194
012026020502CEBR3       010CEB         ON           R$  000000000302000000000032130000000003020000000000311000000000031200000000003120000000000320000008000000000000000900000000000002799200000000000000009999123100000010000000000000BRCEBRACNOR5129
012026020502CEBR5       010CEB         PNA          R$  000000000275100000000029390000000002751000000000283000000000029390000000002806000000000289700003000000000000000300000000000000849000000000000000009999123100000010000000000000BRCEBRACNPA8128
012026020502CEBR6       010CEB         PNB          R$  000000000302600000000030290000000003000000000000301400000000030000000000003000000000000302200005000000000000000500000000000001507400000000000000009999123100000010000000000000BRCEBRACNPB6128
012026020502CEEB3       010COELBA      ON           R$  000000000462500000000046250000000004595000000000461000000000045950000000004403000000000467900002000000000000000200000000000000922000000000000000009999123100000010000000000000BRCEEBACNOR3207
012026020502CGAS5       010COMGAS      PNA          R$  000000001320000000000133680000000013083000000001318900000000131900000000013190000000001334800008000000000000000800000000000010551500000000000000009999123100000010000000000000BRCGASACNPA3165
012026020502CGRA3       010GRAZZIOTIN  ON           R$  000000000282000000000028200000000002731000000000276000000000027970000000002750000000000283000033000000000000004500000000000012422800000000000000009999123100000010000000000000BRCGRAACNOR2088
012026020502CGRA4       010GRAZZIOTIN  PN           R$  000000000269900000000027290000000002651000000000269900000000026890000000002673000000000269900034000000000000004500000000000012146000000000000000009999123100000010000000000000BRCGRAACNPR9088
012026020502GFSA3       010GAFISA      ON      NM   R$  000000000039300000000003970000000000355000000000037500000000003630000000000363000000000036701185000000000001140800000000000428301100000000000000009999123100000010000000000000BRGFSAACNOR3127
012026020502GGBR3       010GERDAU      ON      N1   R$  000000000191700000000019170000000001864000000000187800000000018650000000001865000000000188100105000000000000017000000000000031938300000000000000009999123100000010000000000000BRGGBRACNOR1198
012026020502GGBR4       010GERDAU      PN      N1   R$  000000000223500000000022510000000002168000000000219700000000022010000000002199000000000220125949000000000014913800000000032774238100000000000000009999123100000010000000000000BRGGBRACNPR8198
012026020502AERI3       010AERIS       ON      NM   R$  000000000031000000000003130000000000300000000000030300000000003070000000000303000000000030800230000000000000135900000000000041197400000000000000009999123100000010000000000000BRAERIACNOR4102
012026020502MGEL4       010MANGELS INDLPN           R$  000000000066100000000006610000000000660000000000066000000000006610000000000659000000000068900003000000000000000300000000000000198200000000000000009999123100000010000000000000BRMGELACNPR3147
012026020502MGLU3       010MAGAZ LUIZA ON      NM   R$  000000000097800000000009940000000000965000000000097800000000009650000000000964000000000096614531000000000013183300000000012901906000000000000000009999123100000010000000000000BRMGLUACNOR2130
012026020502NUTR3       010NUTRIPLANT  ON      MA   R$  000000000025300000000002530000000000251000000000025200000000002510000000000251000000000025300012000000000000001200000000000000302600000000000000009999123100000010000000000000BRNUTRACNOR0104
012026020502OBTC3       010ORANJEBTC   ON           R$  000000000066700000000006790000000000644000000000066000000000006490000000000649000000000065605765000000000001522200000000001005274800000000000000009999123100000010000000000000BROBTCACNOR0100
012026020502ODPV3       010ODONTOPREV  ON      NM   R$  000000000119800000000012110000000001193000000000120000000000011930000000001191000000000119403861000000000001537400000000001845308400000000000000009999123100000010000000000000BRODPVACNOR4213
012026020502OFSA3       010OUROFINO S/AON      NM   R$  000000000242000000000024200000000002332000000000234600000000023350000000002335000000000236300024000000000000003200000000000007509800000000000000009999123100000010000000000000BROFSAACNOR7122
012026020502ONCO3       010ONCOCLINICASON      NM   R$  000000000025900000000002590000000000243000000000025000000000002500000000000244000000000025001983000000000002745400000000000686848300000000000000009999123100000010000000000000BRONCOACNOR6102
012026020502OPCT3       010OCEANPACT   ON      NM   R$  000000000093900000000009440000000000924000000000093400000000009280000000000923000000000092801505000000000000267200000000000249706700000000000000009999123100000010000000000000BROPCTACNOR0100
012026020502ORVR3       010ORIZON      ON      NM   R$  000000000731300000000073680000000007213000000000728600000000072350000000007225000000000725802002000000000000283300000000002064292200000000000000009999123100000010000000000000BRORVRACNOR0101
012026020502CYRE3       010CYRELA REALTON      NM   R$  000000000306900000000031490000000003069000000000311600000000031100000000003101000000000311016328000000000003829000000000011932407900000000000000009999123100000010000000000000BRCYREACNOR7143
012026020502CYRE4       010CYRELA REALTPN      NM   R$  000000000290500000000029870000000002905000000000294800000000029590000000002931000000000295902682000000000000595100000000001754871900000000000000009999123100000010000000000000BRCYREACNPR4114
012026020502AZEV3       010AZEVEDO     ON           R$  000000000002700000000000280000000000026000000000002600000000000270000000000026000000000002700141000000000000771200000000000020812400000000000000009999123100000010000000000000BRAZEVACNOR0123
012026020502AZEV4       010AZEVEDO     PN           R$  000000000001900000000000200000000000019000000000001900000000000200000000000019000000000002000333000000000001364700000000000026690800000000000000009999123100000010000000000000BRAZEVACNPR7123
012026020502AZTE3       010AZT ENERGIA ON           R$  000000000003200000000000330000000000031000000000003100000000000310000000000031000000000003200312000000000001715900000000000053975300000000000000009999123100000010000000000000BRAZTEACNOR4101
012026020502AZZA3       010AZZAS 2154  ON      NM   R$  000000000253600000000025550000000002460000000000249000000000024710000000002470000000000247413621000000000004184200000000010421338500000000000000009999123100000010000000000000BRAZZAACNOR9104
012026020502BBDC3       010BRADESCO    ON  EJ  N1   R$  000000000181800000000018300000000001769000000000180500000000018170000000001815000000000181711406000000000005803300000000010475177400000000000000009999123100000010000000000000BRBBDCACNOR1797
012026020502BBDC4       010BRADESCO    PN  EJ  N1   R$  000000000211000000000021270000000002045000000000209000000000021150000000002112000000000211552704000000000061032100000000127593196000000000000000009999123100000010000000000000BRBBDCACNPR8797
012026020502RCSL3       010RECRUSUL    ON           R$  000000000029000000000002950000000000286000000000028900000000002860000000000286000000000028900128000000000000054100000000000015651200000000000000009999123100000010000000000000BRRCSLACNOR4134
012026020502RCSL4       010RECRUSUL    PN           R$  000000000078600000000008250000000000743000000000078800000000007710000000000770000000000077107054000000000004579500000000003609225400000000000000009999123100000010000000000000BRRCSLACNPR1134
012026020502RDOR3       010REDE D OR   ON      NM   R$  000000000418500000000042450000000004161000000000419800000000041610000000004161000000000418517824000000000004556500000000019128958700000000000000009999123100000010000000000000BRRDORACNOR8119
012026020502SLCE3       010SLC AGRICOLAON      NM   R$  000000000157400000000015840000000001559000000000156900000000015590000000001559000000000156705684000000000001845100000000002896413200000000000000009999123100000010000000000000BRSLCEACNOR2128
012026020502MWET4       010WETZEL S/A  PN           R$  000000000102200000000010220000000001022000000000102200000000010220000000000972000000000109900001000000000000000100000000000000102200000000000000009999123100000010000000000000BRMWETACNPR3118
012026020502MYPK3       010IOCHP-MAXIONON      NM   R$  000000000107500000000010770000000001048000000000105400000000010490000000001048000000000105203689000000000001430500000000001508276200000000000000009999123100000010000000000000BRMYPKACNOR7158
012026020502NATU3       010NATURA      ON      NM   R$  000000000087200000000009070000000000871000000000089700000000008940000000000894000000000089512832000000000005907800000000005303033800000000000000009999123100000010000000000000BRNATUACNOR6137
012026020502PFRM3       010PROFARMA    ON      NM   R$  000000000086500000000008750000000000850000000000086100000000008500000000000850000000000085500625000000000000150700000000000129774700000000000000009999123100000010000000000000BRPFRMACNOR1122
012026020502PGMN3       010PAGUE MENOS ON      NM   R$  000000000066200000000006670000000000628000000000064400000000006350000000000632000000000063610724000000000006204400000000003998662200000000000000009999123100000010000000000000BRPGMNACNOR8106
012026020502PINE3       010PINE        ON      N2   R$  000000000119700000000012180000000001197000000000120100000000012140000000001198000000000121400024000000000000014400000000000017297400000000000000009999123100000010000000000000BRPINEACNOR1160
012026020502PINE4       010PINE        PN      N2   R$  000000000134400000000013750000000001326000000000135400000000013610000000001361000000000137400929000000000000266000000000000360199300000000000000009999123100000010000000000000BRPINEACNPR8160
012026020502PLAS3       010PLASCAR PARTON           R$  000000000048500000000004850000000000481000000000048300000000004810000000000458000000000048700002000000000000000300000000000000145100000000000000009999123100000010000000000000BRPLASACNOR2106
012026020502PLPL3       010PLANOEPLANO ON      NM   R$  000000000152500000000015610000000001513000000000153800000000015230000000001522000000000153907712000000000002594100000000003991950200000000000000009999123100000010000000000000BRPLPLACNOR5106
012026020502PNVL3       010DIMED       ON      NM   R$  000000000137600000000014330000000001375000000000141400000000014110000000001410000000000141302404000000000000597000000000000844290300000000000000009999123100000010000000000000BRPNVLACNOR9213
012026020502POMO3       010MARCOPOLO   ON      N2   R$  000000000058900000000005950000000000578000000000058400000000005820000000000582000000000058403752000000000001302800000000000762024600000000000000009999123100000010000000000000BRPOMOACNOR0105
012026020502POMO4       010MARCOPOLO   PN      N2   R$  000000000062300000000006340000000000615000000000062400000000006240000000000624000000000062517021000000000012119100000000007567519000000000000000009999123100000010000000000000BRPOMOACNPR7105
012026020502RAIL3       010RUMO S.A.   ON      NM   R$  000000000153100000000015400000000001510000000000152500000000015190000000001518000000000152016693000000000007913100000000012073311300000000000000009999123100000010000000000000BRRAILACNOR9106
012026020502RAIZ4       010RAIZEN      PN      N2   R$  000000000008600000000000870000000000082000000000008300000000000850000000000084000000000008519299000000000049490000000000004135356100000000000000009999123100000010000000000000BRRAIZACNPR6112
012026020502SCAR3       010SAO CARLOS  ON      NM   R$  000000000155100000000015510000000001497000000000151000000000015000000000001500000000000151000161000000000000034500000000000052107800000000000000009999123100000010000000000000BRSCARACNOR7133
012026020502SEER3       010SER EDUCA   ON      NM   R$  000000000118000000000012400000000001180000000000121500000000012210000000001220000000000122104850000000000001189900000000001445948600000000000000009999123100000010000000000000BRSEERACNOR5120
012026020502SEQL3       010SEQUOIA LOG ON      NM   R$  000000000012100000000001220000000000115000000000011800000000001170000000000117000000000011800623000000000000334300000000000039516700000000000000009999123100000010000000000000BRSEQLACNOR2108
012026020502SHOW3       010TIME FOR FUNON      NM   R$  000000000057400000000005760000000000561000000000056800000000005700000000000564000000000057100173000000000000020700000000000011761700000000000000009999123100000010000000000000BRSHOWACNOR7106
012026020502SHUL4       010SCHULZ      PN           R$  000000000053100000000005470000000000531000000000053900000000005360000000000536000000000054100751000000000000452200000000000243971200000000000000009999123100000010000000000000BRSHULACNPR4163
012026020502SIMH3       010SIMPAR      ON      NM   R$  000000000065800000000006790000000000653000000000066900000000006700000000000669000000000067307514000000000004825700000000003230704000000000000000009999123100000010000000000000BRSIMHACNOR0109
012026020502TOKY3       010GRUPO TOKY  ON      NM   R$  000000000006200000000000630000000000060000000000006100000000000620000000000062000000000006300170000000000000467200000000000028841200000000000000009999123100000010000000000000BRTOKYACNOR5101
012026020502TOTS3       010TOTVS       ON      NM   R$  000000000382100000000038720000000003685000000000377500000000037470000000003747000000000374836262000000000011896900000000044915755900000000000000009999123100000010000000000000BRTOTSACNOR8150
012026020502MOTV3       010MOTIVA SA   ON      NM   R$  000000000168400000000017060000000001672000000000169600000000016930000000001693000000000169410228000000000004945000000000008387167400000000000000009999123100000010000000000000BRMOTVACNOR7102
012026020502MOVI3       010MOVIDA      ON      NM   R$  000000000128500000000013430000000001285000000000131600000000012970000000001297000000000129809564000000000004329100000000005699032300000000000000009999123100000010000000000000BRMOVIACNOR0126
012026020502PRNR3       010PRINER      ON      NM   R$  000000000186900000000019670000000001869000000000194100000000019410000000001941000000000194705649000000000000915700000000001778086600000000000000009999123100000010000000000000BRPRNRACNOR4111
012026020502PSSA3       010PORTO SEGUROON      NM   R$  000000000528000000000053090000000005000000000000509000000000050570000000005055000000000507018194000000000004849500000000024686824500000000000000009999123100000010000000000000BRPSSAACNOR7161
012026020502RPAD5       010ALFA HOLDINGPNA          R$  000000000064500000000006450000000000581000000000058900000000006150000000000510000000000063000015000000000000003000000000000001767300000000000000009999123100000010000000000000BRRPADACNPA4222
012026020502RSUL4       010RIOSULENSE  PN           R$  000000000636700000000064180000000006310000000000633700000000063190000000006288000000000633000029000000000000003000000000000019013300000000000000009999123100000010000000000000BRRSULACNPR3116
012026020502RVEE3       010REVEE       ON      NM   R$  000000000022800000000002280000000000228000000000022800000000002280000000000170000000000019900002000000000000000300000000000000068400000000000000009999123100000010000000000000BRRVEEACNOR9102
012026020502SANB11      010SANTANDER BRUNT          R$  000000000349800000000035270000000003432000000000346500000000034550000000003441000000000345518983000000000004523000000000015673379300000000000000009999123100000010000000000000BRSANBCDAM13172
012026020502SANB3       010SANTANDER BRON           R$  000000000171700000000017430000000001699000000000171500000000016990000000001698000000000171400318000000000000061000000000000104630400000000000000009999123100000010000000000000BRSANBACNOR8179
012026020502SANB4       010SANTANDER BRPN           R$  000000000178400000000017980000000001722000000000174600000000017450000000001735000000000174500505000000000000119600000000000208905300000000000000009999123100000010000000000000BRSANBACNPR5179
012026020502RIAA3       010RIACHUELO   ON      NM   R$  000000000101600000000010380000000000951000000000097100000000009510000000000951000000000101101861000000000001398300000000001357970500000000000000009999123100000010000000000000BRRIAAACNOR2100
012026020502RNEW3       010RENOVA      ON      N2   R$  000000000010600000000001080000000000096000000000010000000000001000000000000100000000000010300168000000000000210500000000000021126200000000000000009999123100000010000000000000BRRNEWACNOR8113
012026020502RNEW4       010RENOVA      PN      N2   R$  000000000009100000000000930000000000089000000000009000000000000890000000000089000000000009000067000000000000079900000000000007212800000000000000009999123100000010000000000000BRRNEWACNPR5113
012026020502ROMI3       010ROMI        ON      NM   R$  000000000084800000000008480000000000808000000000082000000000008180000000000815000000000081801197000000000000520500000000000427180600000000000000009999123100000010000000000000BRROMIACNOR8201
012026020502SNSY5       010SANSUY      PNA          R$  000000000027900000000002800000000000261000000000027200000000002800000000000257000000000027900005000000000000002200000000000000598700000000000000009999123100000010000000000000BRSNSYACNPA5111
012026020502SOJA3       010BOA SAFRA   ON      NM   R$  000000000086200000000008710000000000849000000000085600000000008500000000000850000000000085202478000000000001189300000000001018141500000000000000009999123100000010000000000000BRSOJAACNOR9109
012026020502SOND5       010SONDOTECNICAPNA          R$  000000000700000000000070000000000007000000000000700000000000070000000000006455000000000750000001000000000000000200000000000001400000000000000000009999123100000010000000000000BRSONDACNPA8168
012026020502SOND6       010SONDOTECNICAPNB          R$  000000000680000000000068000000000006800000000000680000000000068000000000005100000000000680000002000000000000000200000000000001360000000000000000009999123100000010000000000000BRSONDACNPB6168
012026020502SUZB3       010SUZANO S.A. ON      NM   R$  000000000499800000000050900000000004964000000000505600000000050430000000005040000000000504324579000000000008133900000000041128535300000000000000009999123100000010000000000000BRSUZBACNOR0135
012026020502PDGR3       010PDG REALT   ON      NM   R$  000000000027900000000002850000000000273000000000028000000000002800000000000279000000000028000109000000000000042400000000000011887300000000000000009999123100000010000000000000BRPDGRACNOR8123
012026020502PDTC3       010PADTEC      ON      NM   R$  000000000016300000000001710000000000159000000000016300000000001620000000000159000000000016300140000000000000043300000000000007061200000000000000009999123100000010000000000000BRPDTCACNOR3101
012026020502PEAB4       010PAR AL BAHIAPN           R$  000000000381800000000038180000000003818000000000381800000000038180000000003820000000000418500001000000000000000200000000000000763600000000000000009999123100000010000000000000BRPEABACNPR0137
012026020502PETR3       010PETROBRAS   ON      N2   R$  000000000397800000000040080000000003912000000000395000000000039280000000003919000000000393017378000000000010896100000000043043359800000000000000009999123100000010000000000000BRPETRACNOR9212
012026020502PETR4       010PETROBRAS   PN      N2   R$  000000000374000000000037610000000003690000000000372400000000037000000000003699000000000370145655000000000035933100000000133817781300000000000000009999123100000010000000000000BRPETRACNPR6223
012026020502SMFT3       010SMART FIT   ON      NM   R$  000000000220700000000022520000000002189000000000222500000000021970000000002195000000000219814419000000000003634600000000008089226600000000000000009999123100000010000000000000BRSMFTACNOR1118
012026020502SMTO3       010SAO MARTINHOON      NM   R$  000000000149900000000015060000000001464000000000148000000000014640000000001464000000000148006795000000000003091500000000004576058600000000000000009999123100000010000000000000BRSMTOACNOR3129
012026020502PCAR3       010P.ACUCAR-CBDON      NM   R$  000000000038000000000003830000000000369000000000037500000000003690000000000369000000000037106335000000000006142400000000002305052200000000000000009999123100000010000000000000BRPCARACNOR3170
012026020502RECV3       010PETRORECSA  ON      NM   R$  000000000108200000000010910000000001061000000000107300000000010680000000001066000000000106807618000000000003203700000000003439508500000000000000009999123100000010000000000000BRRECVACNOR3110
012026020502REDE3       010REDE ENERGIAON           R$  000000000062800000000006330000000000628000000000062800000000006290000000000628000000000062900005000000000000000700000000000000440200000000000000009999123100000010000000000000BRREDEACNOR7134
012026020502RENT3       010LOCALIZA    ON      NM   R$  000000000500000000000051580000000004999000000000508700000000050070000000005006000000000500730586000000000009053200000000046053961500000000000000009999123100000010000000000000BRRENTACNOR4205
012026020502RENT4       010LOCALIZA    PN      NM   R$  000000000484700000000050210000000004830000000000494500000000048900000000004890000000000490601236000000000000188000000000000929667200000000000000009999123100000010000000000000BRRENTACNPR1100
012026020502ENGI11      010ENERGISA    UNT     N2   R$  000000000504100000000051190000000004983000000000503700000000050010000000005001000000000500708908000000000002227700000000011221970700000000000000009999123100000010000000000000BRENGICDAM16140
012026020502ENGI3       010ENERGISA    ON      N2   R$  000000000125200000000012520000000001229000000000123800000000012310000000001230000000000126200021000000000000002900000000000003592000000000000000009999123100000010000000000000BRENGIACNOR0150
012026020502MATD3       010MATER DEI   ON      NM   R$  000000000057900000000005890000000000569000000000057600000000005740000000000574000000000057800579000000000000115900000000000066824900000000000000009999123100000010000000000000BRMATDACNOR4106
012026020502MBRF3       010MARFRIG     ON      NM   R$  000000000189700000000019100000000001863000000000189000000000018880000000001885000000000188811272000000000004888900000000009241929600000000000000009999123100000010000000000000BRMBRFACNOR1100
012026020502NEOE3       010NEOENERGIA  ON      NM   R$  000000000324600000000032520000000003243000000000324700000000032480000000003245000000000324901704000000000001696700000000005510627600000000000000009999123100000010000000000000BRNEOEACNOR3127
012026020502NGRD3       010NEOGRID     ON      NM   R$  000000000267300000000026730000000002670000000000267100000000026710000000002670000000000270000011000000000000001600000000000004273600000000000000009999123100000010000000000000BRNGRDACNOR3106
012026020502POSI3       010POSITIVO TECON      NM   R$  000000000044200000000004420000000000429000000000043300000000004340000000000431000000000043503188000000000001720900000000000745312300000000000000009999123100000010000000000000BRPOSIACNOR9118
012026020502PRIO3       010PETRORIO    ON      NM   R$  000000000501400000000050440000000004877000000000492400000000049150000000004915000000000491637776000000000011831500000000058266365200000000000000009999123100000010000000000000BRPRIOACNOR1111
012026020502RANI3       010IRANI       ON      NM   R$  000000000090100000000009170000000000901000000000090900000000009100000000000904000000000091001577000000000000390700000000000355354900000000000000009999123100000010000000000000BRRANIACNOR5079
012026020502RAPT3       010RANDON PART ON      N1   R$  000000000063300000000006420000000000630000000000063200000000006300000000000626000000000063000052000000000000010900000000000006898400000000000000009999123100000010000000000000BRRAPTACNOR7166
012026020502RAPT4       010RANDON PART PN      N1   R$  000000000063100000000006370000000000624000000000062900000000006280000000000626000000000062811856000000000005577000000000003508829500000000000000009999123100000010000000000000BRRAPTACNPR4166
012026020502ASAI3       010ASSAI       ON      NM   R$  000000000086400000000008800000000000860000000000086900000000008700000000000862000000000087013349000000000007073000000000006148961700000000000000009999123100000010000000000000BRASAIACNOR0109
012026020502BBSE3       010BBSEGURIDADEON      NM   R$  000000000371900000000037700000000003701000000000374200000000037210000000003720000000000372811640000000000004113700000000015396791700000000000000009999123100000010000000000000BRBBSEACNOR5127
012026020502BGIP3       010BANESE      ON           R$  000000000510000000000051000000000005100000000000510000000000051000000000005100000000000525000001000000000000000100000000000000510000000000000000009999123100000010000000000000BRBGIPACNOR1215
012026020502BGIP4       010BANESE      PN           R$  000000000349500000000035190000000003421000000000349100000000035150000000003515000000000360800021000000000000003800000000000013269500000000000000009999123100000010000000000000BRBGIPACNPR8215
012026020502DASA3       010DASA        ON      NM   R$  000000000042000000000004260000000000401000000000041600000000004150000000000415000000000041602542000000000001343900000000000560191100000000000000009999123100000010000000000000BRDASAACNOR1123
012026020502BLAU3       010BLAU        ON      NM   R$  000000000102500000000010420000000001009000000000102900000000010300000000001030000000000103403341000000000000608300000000000626195800000000000000009999123100000010000000000000BRBLAUACNOR8120
012026020502BIOM3       010BIOMM       ON      MA   R$  000000000059900000000006070000000000594000000000059900000000005970000000000597000000000060400079000000000000019600000000000011742800000000000000009999123100000010000000000000BRBIOMACNOR2113
012026020502DESK3       010DESKTOP     ON      NM   R$  000000000146800000000016240000000001456000000000156400000000015950000000001595000000000159711211000000000002691300000000004210022600000000000000009999123100000010000000000000BRDESKACNOR2106
012026020502DEXP3       010DEXXOS PAR  ON      N1   R$  000000000073800000000007420000000000728000000000073400000000007280000000000728000000000073200783000000000000143700000000000105507900000000000000009999123100000010000000000000BRDEXPACNOR1109
012026020502DEXP4       010DEXXOS PAR  PN      N1   R$  000000000072800000000007350000000000727000000000072900000000007270000000000727000000000073700019000000000000006800000000000004961300000000000000009999123100000010000000000000BRDEXPACNPR8109
012026020502DIRR3       010DIRECIONAL  ON      NM   R$  000000000144500000000015020000000001445000000000148600000000014790000000001478000000000148113941000000000005721800000000008503465700000000000000009999123100000010000000000000BRDIRRACNOR0123
012026020502AGRO3       010BRASILAGRO  ON      NM   R$  000000000203500000000020470000000001993000000000200900000000020060000000001996000000000200601123000000000000168800000000000339124200000000000000009999123100000010000000000000BRAGROACNOR7116
012026020502ALLD3       010ALLIED      ON  EJ  NM   R$  000000000077900000000007900000000000772000000000078200000000007750000000000775000000000077701133000000000000421800000000000330103100000000000000009999123100000010000000000000BRALLDACNOR3110
012026020502ALOS3       010ALLOS       ON      NM   R$  000000000310100000000031980000000003097000000000316400000000031470000000003146000000000315416618000000000005576800000000017647165900000000000000009999123100000010000000000000BRALOSACNOR5118
012026020502BRBI11      010BR PARTNERS UNT     N2   R$  000000000206600000000020730000000002009000000000203200000000020220000000002010000000000202202758000000000000398700000000000810175300000000000000009999123100000010000000000000BRBRBICDAM10116
012026020502GMAT3       010GRUPO MATEUSON      NM   R$  000000000049200000000005030000000000492000000000049700000000004950000000000494000000000049504074000000000006285300000000003129205400000000000000009999123100000010000000000000BRGMATACNOR7109
012026020502GOAU3       010GERDAU MET  ON      N1   R$  000000000096200000000009660000000000944000000000095600000000009660000000000948000000000096600241000000000000066200000000000063302800000000000000009999123100000010000000000000BRGOAUACNOR1274
012026020502GOAU4       010GERDAU MET  PN      N1   R$  000000000100700000000010090000000000980000000000099000000000009850000000000985000000000099013878000000000009194400000000009103215500000000000000009999123100000010000000000000BRGOAUACNPR8275
012026020502IRBR3       010IRBBRASIL REON      NM   R$  000000000573500000000057990000000005670000000000571200000000056830000000005683000000000568903535000000000000571400000000003264163200000000000000009999123100000010000000000000BRIRBRACNOR4113
012026020502JSLG3       010JSL         ON      NM   R$  000000000076000000000008340000000000756000000000081500000000008300000000000818000000000083003954000000000001897900000000001547823900000000000000009999123100000010000000000000BRJSLGACNOR2123
012026020502KEPL3       010KEPLER WEBERON      NM   R$  000000000101800000000010200000000000999000000000101000000000010110000000001010000000000101303351000000000001906200000000001926307800000000000000009999123100000010000000000000BRKEPLACNOR1069
012026020502KLBN11      010KLABIN S/A  UNT     N2   R$  000000000193200000000019630000000001928000000000195100000000019430000000001941000000000194316711000000000004657000000000009090040900000000000000009999123100000010000000000000BRKLBNCDAM18151
012026020502KLBN3       010KLABIN S/A  ON      N2   R$  000000000038800000000003940000000000387000000000039000000000003910000000000389000000000039100667000000000000886600000000000346377100000000000000009999123100000010000000000000BRKLBNACNOR2179
012026020502KLBN4       010KLABIN S/A  PN      N2   R$  000000000038500000000003920000000000385000000000038900000000003890000000000388000000000038903210000000000002766700000000001077851000000000000000009999123100000010000000000000BRKLBNACNPR9179
012026020502MRVE3       010MRV         ON      NM   R$  000000000081800000000008790000000000815000000000086400000000008740000000000873000000000087518678000000000011355700000000009819895100000000000000009999123100000010000000000000BRMRVEACNOR2128
012026020502PTBL3       010PORTOBELLO  ON      NM   R$  000000000034800000000003480000000000323000000000033100000000003240000000000324000000000032500465000000000000389700000000000129211000000000000000009999123100000010000000000000BRPTBLACNOR8132
012026020502PTNT3       010PETTENATI   ON           R$  000000000083700000000008440000000000837000000000084000000000008420000000000838000000000084100004000000000000000400000000000000336200000000000000009999123100000010000000000000BRPTNTACNOR6044
012026020502PTNT4       010PETTENATI   PN           R$  000000000083800000000008380000000000830000000000083000000000008310000000000831000000000083500013000000000000004900000000000004071300000000000000009999123100000010000000000000BRPTNTACNPR3049
012026020502QUAL3       010QUALICORP   ON      NM   R$  000000000022000000000002230000000000215000000000022000000000002230000000000220000000000022302804000000000003195200000000000704520900000000000000009999123100000010000000000000BRQUALACNOR6122
012026020502RADL3       010RAIADROGASILON      NM   R$  000000000257900000000026780000000002567000000000263900000000026270000000002625000000000262736998000000000011133600000000029386538200000000000000009999123100000010000000000000BRRADLACNOR0165
012026020502SAPR11      010SANEPAR     UNT     N2   R$  000000000463100000000046940000000004622000000000465100000000046610000000004633000000000466202753000000000001006400000000004681474700000000000000009999123100000010000000000000BRSAPRCDAM13121
012026020502SAPR3       010SANEPAR     ON      N2   R$  000000000109100000000011270000000001090000000000111500000000011170000000001100000000000111700734000000000000236900000000000264265400000000000000009999123100000010000000000000BRSAPRACNOR9162
012026020502SAPR4       010SANEPAR     PN      N2   R$  000000000088200000000008920000000000879000000000088400000000008840000000000883000000000088401857000000000000824700000000000729785000000000000000009999123100000010000000000000BRSAPRACNPR6162
012026020502SYNE3       010SYN PROP TECON      NM   R$  000000000048900000000004950000000000486000000000048900000000004880000000000486000000000048900599000000000000255200000000000124902300000000000000009999123100000010000000000000BRSYNEACNOR2107
012026020502TAEE11      010TAESA       UNT     N2   R$  000000000415100000000042230000000004148000000000419500000000041700000000004170000000000417805557000000000001201000000000005038470900000000000000009999123100000010000000000000BRTAEECDAM10153
012026020502TAEE3       010TAESA       ON      N2   R$  000000000136900000000013950000000001368000000000138300000000013760000000001374000000000138800294000000000000049100000000000067950000000000000000009999123100000010000000000000BRTAEEACNOR9153
012026020502TAEE4       010TAESA       PN      N2   R$  000000000139700000000014140000000001389000000000140300000000013950000000001395000000000140700455000000000000103900000000000145787000000000000000009999123100000010000000000000BRTAEEACNPR6153
012026020502IFCM3       010INFRACOMM   ON      NM   R$  000000000006200000000000620000000000056000000000005800000000000570000000000056000000000005700639000000000000890300000000000051703900000000000000009999123100000010000000000000BRIFCMACNOR8109
012026020502IGTI11      010IGUATEMI S.AUNT     N1   R$  000000000280900000000028900000000002808000000000286600000000028590000000002859000000000286309047000000000001818000000000005211654600000000000000009999123100000010000000000000BRIGTICDAM16108
012026020502IGTI3       010IGUATEMI S.AON      N1   R$  000000000033500000000003350000000000327000000000033100000000003300000000000330000000000033300062000000000000032800000000000010857500000000000000009999123100000010000000000000BRIGTIACNOR8108
012026020502IGTI4       010IGUATEMI S.APN      N1   R$  000000000127000000000012750000000001270000000000127200000000012750000000001101000000000000000002000000000000000200000000000000254500000000000000009999123100000010000000000000BRIGTIACNPR5108
012026020502INEP3       010INEPAR      ON           R$  000000000016300000000001650000000000147000000000015000000000001500000000000150000000000015600084000000000000029900000000000004494700000000000000009999123100000010000000000000BRINEPACNOR1145
012026020502INEP4       010INEPAR      PN           R$  000000000012900000000001290000000000125000000000012600000000001290000000000124000000000012900074000000000000039500000000000004985900000000000000009999123100000010000000000000BRINEPACNPR8145
012026020502INTB3       010INTELBRAS   ON      NM   R$  000000000121000000000012350000000001200000000000121500000000012010000000001201000000000121302709000000000001213100000000001474286800000000000000009999123100000010000000000000BRINTBACNOR9115
012026020502JALL3       010JALLESMACHADON      NM   R$  000000000029500000000002990000000000291000000000029400000000002920000000000292000000000029300766000000000000693200000000000204274000000000000000009999123100000010000000000000BRJALLACNOR0106
012026020502JHSF3       010JHSF PART   ON  ED  NM   R$  000000000095000000000010000000000000948000000000097700000000009740000000000968000000000097507214000000000003475100000000003395226000000000000000009999123100000010000000000000BRJHSFACNOR2156
012026020502MILS3       010MILLS       ON      NM   R$  000000000151200000000015330000000001492000000000151300000000015030000000001502000000000151002269000000000000695700000000001053211800000000000000009999123100000010000000000000BRMILSACNOR2132
012026020502MLAS3       010MULTILASER  ON      NM   R$  000000000013700000000001380000000000133000000000013500000000001350000000000134000000000013500385000000000001096500000000000148288100000000000000009999123100000010000000000000BRMLASACNOR9102
012026020502MNDL3       010MUNDIAL     ON           R$  000000000170000000000017990000000001650000000000171300000000017100000000001710000000000178800075000000000000064400000000000110318200000000000000009999123100000010000000000000BRMNDLACNOR4109
012026020502MNPR3       010MINUPAR     ON           R$  000000000043800000000004470000000000422000000000043000000000004220000000000422000000000044100080000000000000030000000000000012925200000000000000009999123100000010000000000000BRMNPRACNOR5123
012026020502YDUQ3       010YDUQS PART  ON      NM   R$  000000000133800000000013820000000001338000000000135900000000013530000000001345000000000135309652000000000001967000000000002673500700000000000000009999123100000010000000000000BRYDUQACNOR3108
012026020502WEST3       010WESTWING    ON      NM   R$  000000000060000000000006070000000000600000000000060000000000006050000000000589000000000060500013000000000000014700000000000008821700000000000000009999123100000010000000000000BRWESTACNOR3101
012026020502CSED3       010CRUZEIRO EDUON      NM   R$  000000000065400000000006710000000000650000000000065800000000006590000000000653000000000065901621000000000000472500000000000311210500000000000000009999123100000010000000000000BRCSEDACNOR9107
012026020502CSMG3       010COPASA      ON      NM   R$  000000000534700000000054940000000005329000000000543300000000053780000000005375000000000538511457000000000002688400000000014606216400000000000000009999123100000010000000000000BRCSMGACNOR5183
012026020502EGIE3       010ENGIE BRASILON      NM   R$  000000000333100000000033790000000003313000000000334700000000033310000000003330000000000333907829000000000001435900000000004806690000000000000000009999123100000010000000000000BREGIEACNOR9132
012026020502EKTR4       010ELEKTRO     PN           R$  000000000392200000000039220000000003900000000000391300000000039000000000003901000000000392200002000000000000000800000000000003131000000000000000009999123100000010000000000000BREKTRACNPR7174
012026020502HYPE3       010HYPERA      ON      NM   R$  000000000233300000000023770000000002300000000000233400000000023360000000002334000000000233714527000000000004998500000000011668187700000000000000009999123100000010000000000000BRHYPEACNOR0149
012026020502ITUB3       010ITAUUNIBANCOON  EJ  N1   R$  000000000418700000000042820000000004185000000000424600000000042510000000004250000000000426003463000000000000988300000000004197146100000000000000009999123100000010000000000000BRITUBACNOR4365
012026020502ITUB4       010ITAUUNIBANCOPN  EJ  N1   R$  000000000452400000000045880000000004474000000000454600000000045520000000004551000000000455854411000000000036014400000000163747390400000000000000009999123100000010000000000000BRITUBACNPR1365
012026020502LUPA3       010LUPATECH    ON      NM   R$  000000000011300000000001170000000000113000000000011500000000001160000000000115000000000011600031000000000000021700000000000002505000000000000000009999123100000010000000000000BRLUPAACNOR8112
012026020502LUXM4       010TREVISA     PN           R$  000000000042100000000004510000000000421000000000043000000000004500000000000418000000000044800013000000000000001500000000000000646100000000000000009999123100000010000000000000BRLUXMACNPR4053
012026020502LWSA3       010LWSA        ON      NM   R$  000000000044000000000004490000000000434000000000044000000000004370000000000436000000000043808796000000000006682500000000002943255400000000000000009999123100000010000000000000BRLWSAACNOR8105
012026020502ENGI4       010ENERGISA    PN      N2   R$  000000000094200000000009670000000000939000000000095300000000009480000000000939000000000096000030000000000000004000000000000003815600000000000000009999123100000010000000000000BRENGIACNPR7146
012026020502ENJU3       010ENJOEI      ON      NM   R$  000000000010500000000001080000000000105000000000010700000000001080000000000106000000000010800109000000000000112900000000000012080600000000000000009999123100000010000000000000BRENJUACNOR9100
012026020502ENMT3       010ENERGISA MT ON           R$  000000000500000000000050000000000005000000000000500000000000050000000000004861000000000506300008000000000000000800000000000004000000000000000000009999123100000010000000000000BRENMTACNOR5125
012026020502EPAR3       010EMBPAR S/A  ON           R$  000000000037100000000003730000000000364000000000036800000000003670000000000365000000000037000028000000000000008400000000000003097500000000000000009999123100000010000000000000BREPARACNOR9107
012026020502EQMA3B      010EQTLMARANHAOON      MB   R$  000000000314900000000031490000000003149000000000314900000000031490000000003149000000000319900001000000000000000100000000000000314900000000000000009999123100000010000000000000BREQMAACNOR8109
012026020502EQPA3       010EQTL PARA   ON           R$  000000000063700000000006370000000000625000000000063000000000006260000000000626000000000063200020000000000000003300000000000002079600000000000000009999123100000010000000000000BREQPAACNOR1112
012026020502EQTL3       010EQUATORIAL  ON      NM   R$  000000000405500000000041260000000004038000000000407900000000040430000000004041000000000404518691000000000005608000000000022875483800000000000000009999123100000010000000000000BREQTLACNOR0135
012026020502HBOR3       010HELBOR      ON      NM   R$  000000000027100000000002840000000000269000000000027500000000002700000000000270000000000027201045000000000000880800000000000242466900000000000000009999123100000010000000000000BRHBORACNOR3120
012026020502HBRE3       010HBR REALTY  ON      NM   R$  000000000034200000000003550000000000337000000000034600000000003490000000000345000000000034901091000000000000855400000000000296588000000000000000009999123100000010000000000000BRHBREACNOR4101
012026020502HBSA3       010HIDROVIAS   ON      NM   R$  000000000040000000000004040000000000393000000000039700000000003960000000000393000000000039602426000000000001179200000000000469290400000000000000009999123100000010000000000000BRHBSAACNOR0102
012026020502FRAS3       010FRAS-LE     ON      N1   R$  000000000238100000000024140000000002372000000000238500000000023750000000002375000000000238700882000000000000147600000000000352140300000000000000009999123100000010000000000000BRFRASACNOR0163
012026020502AMOB3       010AUTOMOB     ON      NM   R$  000000000136900000000013850000000001329000000000134800000000013300000000001330000000000134600160000000000000022200000000000029944500000000000000009999123100000010000000000000BRAMOBACNOR9101
012026020502ANIM3       010ANIMA       ON      NM   R$  000000000047800000000004920000000000475000000000048100000000004780000000000477000000000047905121000000000004229300000000002037264900000000000000009999123100000010000000000000BRANIMACNOR6110
012026020502ARML3       010ARMAC       ON      NM   R$  000000000045800000000004640000000000447000000000045300000000004540000000000452000000000045602788000000000001072800000000000486834700000000000000009999123100000010000000000000BRARMLACNOR1117
012026020502ARND3       010ARANDU      ON      NM   R$  000000000008000000000000800000000000080000000000008000000000000800000000000079000000000008000003000000000000000400000000000000032000000000000000009999123100000010000000000000BRARNDACNOR6100
012026020502BRAP3       010BRADESPAR   ON      N1   R$  000000000215400000000021540000000002085000000000211800000000020950000000002090000000000209700358000000000000097100000000000205715700000000000000009999123100000010000000000000BRBRAPACNOR5153
012026020502BRAP4       010BRADESPAR   PN      N1   R$  000000000250500000000025130000000002446000000000247400000000024460000000002446000000000245009711000000000003595100000000008895366000000000000000009999123100000010000000000000BRBRAPACNPR2153
012026020502CMIN3       010CSNMINERACAOON      N2   R$  000000000060500000000006130000000000593000000000060300000000005950000000000595000000000059610923000000000006173500000000003728024500000000000000009999123100000010000000000000BRCMINACNOR2116
012026020502COCE5       010COELCE      PNA          R$  000000000315000000000031770000000002990000000000305800000000030550000000003055000000000308700396000000000000066700000000000203992500000000000000009999123100000010000000000000BRCOCEACNPA3150
012026020502COGN3       010COGNA ON    ON      NM   R$  000000000040700000000004070000000000391000000000039700000000003940000000000393000000000039418042000000000028103500000000011169594400000000000000009999123100000010000000000000BRCOGNACNOR2110
012026020502CSUD3       010CSU DIGITAL ON      NM   R$  000000000189200000000018940000000001855000000000186900000000018610000000001860000000000187000275000000000000041400000000000077412400000000000000009999123100000010000000000000BRCSUDACNOR5117
012026020502CTKA4       010KARSTEN     PN           R$  000000000453100000000046490000000004525000000000456100000000046470000000004525000000000465000005000000000000000700000000000003193200000000000000009999123100000010000000000000BRCTKAACNPR7043
012026020502CAMB3       010CAMBUCI     ON           R$  000000000091800000000009400000000000918000000000092900000000009360000000000936000000000094100069000000000000022100000000000020539300000000000000009999123100000010000000000000BRCAMBACNOR4136
012026020502CAML3       010CAMIL       ON      NM   R$  000000000067900000000006920000000000673000000000067700000000006760000000000676000000000067902483000000000001071500000000000726250000000000000000009999123100000010000000000000BRCAMLACNOR3134
012026020502CASH3       010MELIUZ      ON      NM   R$  000000000035500000000003560000000000336000000000034400000000003370000000000336000000000033704119000000000003239300000000001114488200000000000000009999123100000010000000000000BRCASHACNOR8107
012026020502CBAV3       010CBA         ON      NM   R$  000000000102400000000010260000000001017000000000102100000000010240000000001024000000000102505384000000000018802900000000019207715200000000000000009999123100000010000000000000BRCBAVACNOR5104
012026020502CBEE3       010AMPLA ENERG ON           R$  000000000095600000000010000000000000913000000000095500000000009130000000000913000000000099900006000000000000000600000000000000573500000000000000009999123100000010000000000000BRCBEEACNOR3163
012026020502IBOV11      010IBOVESPA    IBO/         R$  000001828760000000182876000000018287600000001828760000000182876000000000000000000000000000000034000000000000199330000000036452673080000000000000009999123100001000000000000000BRIBOVINDM18015
012026020502MDIA3       010M.DIASBRANCOON      NM   R$  000000000249700000000025100000000002481000000000249300000000024850000000002480000000000249002341000000000000438500000000001093374700000000000000009999123100000010000000000000BRMDIAACNOR7150
012026020502MDNE3       010MOURA DUBEUXON      NM   R$  000000000289000000000030120000000002880000000000296800000000029560000000002941000000000295707698000000000001789700000000005313445500000000000000009999123100000010000000000000BRMDNEACNOR9104
012026020502MEAL3       010IMC S/A     ON      NM   R$  000000000011500000000001150000000000112000000000011300000000001140000000000112000000000011400069000000000000132800000000000015014800000000000000009999123100000010000000000000BRMEALACNOR9105
012026020502MELK3       010MELNICK     ON      NM   R$  000000000039600000000003970000000000390000000000039300000000003900000000000390000000000039301033000000000000438200000000000172473400000000000000009999123100000010000000000000BRMELKACNOR8116
012026020502BEES4       010BANESTES    PN  EJ       R$  000000000083500000000008370000000000830000000000083200000000008330000000000833000000000083600025000000000000008100000000000006741300000000000000009999123100000010000000000000BRBEESACNPR6340
012026020502B3SA3       010B3          ON      NM   R$  000000000159000000000016280000000001582000000000161100000000016260000000001618000000000162639980000000000053976900000000087008959400000000000000009999123100000010000000000000BRB3SAACNOR6140
012026020502CPFE3       010CPFL ENERGIAON      NM   R$  000000000505000000000051400000000004999000000000505800000000050220000000005012000000000502606743000000000001325600000000006705807700000000000000009999123100000010000000000000BRCPFEACNOR0138
012026020502AALR3       010ALLIAR      ON      NM   R$  000000000041700000000004170000000000411000000000041300000000004140000000000411000000000041400054000000000000023700000000000009806200000000000000009999123100000010000000000000BRAALRACNOR6104
012026020502ABCB4       010ABC BRASIL  PN      N2   R$  000000000267100000000027010000000002640000000000267300000000026470000000002647000000000265704014000000000000891300000000002382856300000000000000009999123100000010000000000000BRABCBACNPR4150
012026020502ABEV3       010AMBEV S/A   ON           R$  000000000154000000000015520000000001518000000000154200000000015480000000001544000000000154824484000000000026311400000000040581336600000000000000009999123100000010000000000000BRABEVACNOR1134
012026020502CPLE3       010COPEL       ON      NM   R$  000000000132200000000013420000000001318000000000133200000000013340000000001333000000000133521128000000000015402000000000020526443600000000000000009999123100000010000000000000BRCPLEACNOR8153
012026020502CRPG5       010CRISTAL     PNA          R$  000000000191900000000019290000000001876000000000190600000000019290000000001861000000000190000006000000000000000600000000000001144100000000000000009999123100000010000000000000BRCRPGACNPA3119
012026020502CSAN3       010COSAN       ON      NM   R$  000000000058200000000005850000000000561000000000057100000000005640000000000564000000000056519887000000000033212000000000018977475100000000000000009999123100000010000000000000BRCSANACNOR6128
012026020502ESPA3       010ESPACOLASER ON      NM   R$  000000000008500000000000870000000000082000000000008400000000000870000000000084000000000008701772000000000001013200000000000086068800000000000000009999123100000010000000000000BRESPAACNOR7105
012026020502ETER3       010ETERNIT     ON      NM   R$  000000000040300000000004050000000000400000000000040200000000004040000000000401000000000040400345000000000000081100000000000032675300000000000000009999123100000010000000000000BRETERACNOR3246
012026020502EUCA4       010EUCATEX     PN      N1   R$  000000000202900000000020790000000001987000000000204500000000019870000000001987000000000200000531000000000000066100000000000135217800000000000000009999123100000010000000000000BREUCAACNPR8046
012026020502EVEN3       010EVEN        ON      NM   R$  000000000077700000000007990000000000770000000000078400000000007790000000000775000000000077902331000000000000672600000000000527457400000000000000009999123100000010000000000000BREVENACNOR8121
012026020502EZTC3       010EZTEC       ON      NM   R$  000000000153000000000016280000000001530000000000160000000000015800000000001580000000000159205795000000000002312700000000003700974200000000000000009999123100000010000000000000BREZTCACNOR0132
012026020502BMEB3       010MERCANTIL   ON      N1   R$  000000000615000000000063250000000006150000000000622900000000061500000000006054000000000620000005000000000000000500000000000003114500000000000000009999123100000010000000000000BRBMEBACNOR8210
012026020502BMEB4       010MERCANTIL   PN      N1   R$  000000000774600000000078720000000007501000000000763500000000075010000000007500000000000750100167000000000000026300000000000200803000000000000000009999123100000010000000000000BRBMEBACNPR5215
012026020502BMGB4       010BANCO BMG   PN  ES  N1   R$  000000000048800000000004960000000000484000000000048800000000004880000000000487000000000048801931000000000000697100000000000340765100000000000000009999123100000010000000000000BRBMGBACNPR0118
012026020502BMKS3       010BIC MONARK  ON           R$  000000003878300000000387830000000037700000000003778900000000379000000000037710000000003839900024000000000000000180000000000006802126000000000000009999123100000010000000000000BRBMKSACNOR9169
012026020502BMOB3       010BEMOBI TECH ON      NM   R$  000000000228600000000023150000000002262000000000228800000000022770000000002270000000000227701989000000000000276900000000000633770300000000000000009999123100000010000000000000BRBMOBACNOR7107
012026020502BNBR3       010NORD BRASIL ON           R$  000000001230000000000123000000000012300000000001230000000000123000000000011702000000001220000001000000000000000100000000000001230000000000000000009999123100000010000000000000BRBNBRACNOR8211
012026020502BRAV3       010BRAVA       ON      NM   R$  000000000179500000000018090000000001749000000000177100000000017590000000001758000000000176010484000000000004418100000000007825235300000000000000009999123100000010000000000000BRBRAVACNOR3103
012026020502EALT3       010ACO ALTONA  ON           R$  000000000142700000000014350000000001420000000000143300000000014200000000001400000000000142000007000000000000002100000000000003011100000000000000009999123100000010000000000000BREALTACNOR4140
012026020502EALT4       010ACO ALTONA  PN           R$  000000000147400000000014850000000001442000000000146900000000014500000000001444000000000145300051000000000000009400000000000013817700000000000000009999123100000010000000000000BREALTACNPR1140
012026020502ECOR3       010ECORODOVIAS ON      NM   R$  000000000107100000000011080000000001069000000000109400000000010910000000001090000000000109109665000000000005101600000000005584480700000000000000009999123100000010000000000000BRECORACNOR8122
012026020507TXRX4       010TEX RENAUX  PN           R$  000000000018600000000001860000000000157000000000016000000000001590000000000157000000000018000004000000000000002200000000000000352300000000000000009999123100000010000000000000BRTXRXACNPR0142
012026020507RIOS3       010RIO ALTO    ON           R$  000000000296000000000029600000000002960000000000296000000000029600000000000100000000000335000001000000000000000100000000000000296000000000000000009999123100000010000000000000BRRIOSACNOR5101
012026020508LIGT3       010LIGHT S/A   ON      NM   R$  000000000052000000000005250000000000510000000000051600000000005170000000000511000000000051702438000000000001192000000000000615261200000000000000009999123100000010000000000000BRLIGTACNOR2125
012026020508AMBP3       010AMBIPAR     ON      NM   R$  000000000002800000000000290000000000027000000000002700000000000280000000000027000000000002801863000000000009675800000000000269895200000000000000009999123100000010000000000000BRAMBPACNOR6105
012026020508BDLL4       010BARDELLA    PN           R$  000000000059000000000005900000000000590000000000059000000000005900000000000590000000000064000001000000000000000200000000000000118000000000000000009999123100000010000000000000BRBDLLACNPR8151
012026020508OIBR3       010OI          ON      N1   R$  000000000001800000000000180000000000018000000000001800000000000180000000000018000000000001900137000000000000448500000000000008073000000000000000009999123100000010000000000000BROIBRACNOR1112
012026020508OIBR4       010OI          PN      N1   R$  000000000012200000000001220000000000122000000000012200000000001220000000000122000000000012900006000000000000002100000000000000256200000000000000009999123100000010000000000000BROIBRACNPR8111
012026020508OSXB3       010OSX BRASIL  ON      NM   R$  000000000019200000000001920000000000192000000000019200000000001920000000000173000000000019200008000000000000001700000000000000326400000000000000009999123100000010000000000000BROSXBACNOR8109
012026020508PMAM3       010PARANAPANEMAON      NM   R$  000000000007300000000000740000000000071000000000007200000000000720000000000071000000000007200333000000000000796000000000000057548100000000000000009999123100000010000000000000BRPMAMACNOR3045
012026020508RSID3       010ROSSI RESID ON      NM   R$  000000000016500000000001650000000000165000000000016500000000001650000000000160000000000016500005000000000000000900000000000000148500000000000000009999123100000010000000000000BRRSIDACNOR8121
012026020508AGXY3       010AGROGALAXY  ON      NM   R$  000000000027000000000002750000000000270000000000027100000000002740000000000270000000000027400128000000000000033600000000000009114200000000000000009999123100000010000000000000BRAGXYACNOR4104
012026020508JFEN3       010JOAO FORTES ON           R$  000000000009900000000001010000000000099000000000009900000000000990000000000099000000000010000019000000000000014500000000000001445400000000000000009999123100000010000000000000BRJFENACNOR0061
012026020508HOOT4       010HOTEIS OTHONPN           R$  000000000071100000000007110000000000697000000000070000000000006970000000000696000000000069700012000000000000002800000000000001961300000000000000009999123100000010000000000000BRHOOTACNPR9015
012026020508AMER3       010AMERICANAS  ON      NM   R$  000000000054700000000005510000000000527000000000053900000000005350000000000534000000000053502668000000000001742700000000000940033400000000000000009999123100000010000000000000BRAMERACNOR6103
012026020508CTAX3       010CONTAX      ON           R$  000000000009200000000000920000000000092000000000009200000000000920000000000091000000000009200001000000000000000100000000000000009200000000000000009999123100000010000000000000BRCTAXACNOR3119
012026020508CTSA4       010SANTANENSE  PN           R$  000000000019900000000001990000000000199000000000019900000000001990000000000199000000000020600005000000000000001300000000000000258700000000000000009999123100000010000000000000BRCTSAACNPR0063
012026020508BOBR4       010BOMBRIL     PN           R$  000000000013800000000001380000000000138000000000013800000000001380000000000120000000000013800014000000000000022400000000000003091200000000000000009999123100000010000000000000BRBOBRACNPR3128
012026020510PGMN9       010PAGUE MENOS ON  REC NM   R$  000000000063600000000006360000000000610000000000062100000000006350000000000635000000000066000015000000000000003400000000000002113100000000000000009999123100000010000000000000BRPGMNR06OR2105
012026020510IFCM1       010INFRACOMM   DIR ORD NM   R$  000000000000100000000000010000000000001000000000000100000000000010000000000000000000000000100090000000000000102900000000000000102900000000000000009999123100000010000000000000BRIFCMD06OR2108
012026020510BMEB9       010MERCANTIL   ON  REC N1   R$  000000000610000000000062000000000006100000000000618300000000062000000000005903000000000629000003000000000000000600000000000003710000000000000000009999123100000010000000000000BRBMEBR04OR7209
012026020510BMGB2       010BANCO BMG   DIR PRE N1   R$  000000000006900000000000710000000000058000000000006400000000000580000000000058000000000006100438000000000000121400000000000007833700000000000000009999123100000010000000000000BRBMGBD02PR3117
012026020512BSLT11      010FII BSLT    CI           R$  000000000851100000000086520000000008511000000000858900000000086520000000008560000000000874100019000000000000000956000000000008211176000000000000009999123100000010000000000000BRBSLTCTF005100
012026020512BTAL11      010FII BTG AGROCI           R$  000000000877700000000088390000000008750000000000879100000000088050000000008805000000000881400791000000000000005920000000000052046463000000000000009999123100000010000000000000BRBTALCTF003159
012026020512BTCI11      010FII BTG CRI CI           R$  000000000093700000000009400000000000934000000000093700000000009370000000000937000000000093810471000000000000340819000000000319656093000000000000009999123100000010000000000000BRBTCICTF005139
012026020512BTHF11      010FII BTHF    CI           R$  000000000095800000000009590000000000932000000000094300000000009360000000000936000000000094309784000000000000946469000000000892854340000000000000009999123100000010000000000000BRBTHFCTF000115
012026020512BTHI11      010BTG HOTEL FICI  ER       R$  000000000450000000000045000000000004388000000000444700000000044510000000004370000000000445100031000000000000000208000000000000925012000000000000009999123100000010000000000000BRBTHICTF004129
012026020512BTLG11      010FII BTLG    CI           R$  000000001027100000000102790000000010242000000001026100000000102500000000010250000000001027215175000000000000122109000000001253081415000000000000009999123100000010000000000000BRBTLGCTF000184
012026020512CXAG11      010FII CAIXA AGCI  ER       R$  000000000785800000000078640000000007791000000000782100000000078250000000007791000000000782500085000000000000000723000000000005654747000000000000009999123100000010000000000000BRCXAGCTF003148
012026020512CXCE11      010FII CX CEDAECI  ER       R$  000000000419800000000041980000000004178000000000419200000000041790000000004175000000000417900024000000000000000236000000000000989483000000000000009999123100000010000000000000BRCXCECTF004289
012026020512CXCI11      010FII CAIXA CICI           R$  000000000737500000000073800000000007327000000000734600000000073300000000007328000000000733000062000000000000001894000000000013914929000000000000009999123100000010000000000000BRCXCICTF005146
012026020512CXCO11      010FII CEF CORPCI  ER       R$  000000000703900000000071130000000007033000000000704600000000070330000000007033000000000709500087000000000000001608000000000011330836000000000000009999123100000010000000000000BRCXCOCTF003158
012026020512PABY11      010FII PANAMBY CI           R$  000000000141400000000014140000000001345000000000136800000000013450000000001345000000000141000003000000000000000003000000000000004104000000000000009999123100000010000000000000BRPABYCTF012158
012026020512PATA11      010FII PATA    CI  ER       R$  000000000093200000000010350000000000932000000000100600000000010070000000000952000000000105000012000000000000016937000000000017054820000000000000009999123100000010000000000000BRPATACTF006118
012026020512CXRI11      010FII CX RBRAVCI  ER       R$  000000000672500000000068000000000006590000000000672500000000066620000000006592000000000680000032000000000000000280000000000001883033000000000000009999123100000010000000000000BRCXRICTF003248
012026020512EMET11      010FII EMET    CI           R$  000000000099300000000009930000000000907000000000097900000000009400000000000909000000000095000056000000000000000564000000000000552424000000000000009999123100000010000000000000BREMETCTF007107
012026020512BCIA11      010FII BCIA    CI  ER       R$  000000000947500000000094750000000009328000000000937900000000094000000000009381000000000940000516000000000000004726000000000044329300000000000000009999123100000010000000000000BRBCIACTF005230
012026020512BCRI11      010FII BEES CRICI  ER       R$  000000000670000000000067390000000006668000000000669700000000066700000000006670000000000671200522000000000000010454000000000070018821000000000000009999123100000010000000000000BRBCRICTF009235
012026020512GRUL11      010FII GRUL    CI  ER       R$  000000000087200000000009100000000000869000000000089500000000008810000000000880000000000090401559000000000000042293000000000037863886000000000000009999123100000010000000000000BRGRULCTF004116
012026020512GSFI11      010FII GENERAL CI           R$  000000000111000000000011100000000001092000000000109600000000011010000000001093000000000110100042000000000000002252000000000002468777000000000000009999123100000010000000000000BRGSFICTF009103
012026020512GSRF11      010FII GSRF    CI           R$  000000001059700000000105970000000010597000000001059700000000105970000000000000000000000000000001000000000000000158000000000001674326000000000000009999123100000010000000000000BRGSRFCTF000100
012026020512GTWR11      010FII G TOWERSCI  ER       R$  000000000830300000000083240000000008303000000000831600000000083200000000008315000000000832000473000000000000004185000000000034805167000000000000009999123100000010000000000000BRGTWRCTF003183
012026020512GZIT11      010FII GAZIT   CI           R$  000000000480800000000048720000000004789000000000482000000000048550000000004852000000000485502357000000000000015229000000000073404491000000000000009999123100000010000000000000BRGZITCTF005127
012026020512HAAA11      010FII HEDGEAAACI  ER       R$  000000000540100000000058990000000005401000000000547800000000058990000000005402000000000589900008000000000000000047000000000000257494000000000000009999123100000010000000000000BRHAAACTF003163
012026020512HABT11      010FII HABIT IICI  ER       R$  000000000759800000000076280000000007558000000000758000000000075730000000007565000000000757300820000000000000015559000000000117945021000000000000009999123100000010000000000000BRHABTCTF001180
012026020512IRIM11      010FII IRIM    CI           R$  000000000685300000000069080000000006833000000000687000000000068400000000006840000000000684905350000000000000213932000000001469863523000000000000009999123100000010000000000000BRIRIMCTF003155
012026020512ITIP11      010FII INTER IPCI  ER       R$  000000000658000000000066420000000006580000000000660600000000066420000000006629000000000664200061000000000000000770000000000005087274000000000000009999123100000010000000000000BRITIPCTF002149
012026020512ITIT11      010FII INTER ITCI  ER       R$  000000000731400000000073140000000007297000000000730800000000072970000000007297000000000731400069000000000000000464000000000003391348000000000000009999123100000010000000000000BRITITCTF004149
012026020512ITRI11      010FII ITRI    CI  ER       R$  000000000860400000000086910000000008457000000000852000000000085140000000008470000000000851500528000000000000017335000000000147707177000000000000009999123100000010000000000000BRITRICTF008122
012026020512KNCR11      010FII KINEA RICI  ER       R$  000000001056000000000105620000000010516000000001054000000000105420000000010540000000001054217571000000000000152785000000001610482279000000000000009999123100000010000000000000BRKNCRCTF000262
012026020512KNHF11      010FII KINEA HFCI  ER       R$  000000000979500000000098190000000009704000000000976000000000097430000000009743000000000976906675000000000000032823000000000320375980000000000000009999123100000010000000000000BRKNHFCTF004131
012026020512KNHY11      010FII KINEA HYCI  ER       R$  000000000986400000000099120000000009863000000000989000000000098760000000009876000000000991406130000000000000025006000000000247324719000000000000009999123100000010000000000000BRKNHYCTF005193
012026020512KNIP11      010FII KINEA IPCI  ER       R$  000000000903700000000090790000000009011000000000905400000000090720000000009052000000000907211453000000000000065128000000000589719509000000000000009999123100000010000000000000BRKNIPCTF001213
012026020512KNRE11      010FII KII REALCI           R$  000000000003400000000000340000000000033000000000003300000000000340000000000033000000000003400005000000000000000452000000000000015247000000000000009999123100000010000000000000BRKNRECTF006132
012026020512KNRI11      010FII KINEA   CI  ER       R$  000000001626800000000164220000000016170000000001632600000000163340000000016303000000001633405966000000000000049352000000000805759057000000000000009999123100000010000000000000BRKNRICTF007284
012026020512GAME11      010FII GUARD MUCI           R$  000000000092200000000009230000000000915000000000091700000000009210000000000915000000000092100222000000000000013093000000000012010948000000000000009999123100000010000000000000BRGAMECTF002151
012026020512GARE11      010FII GUARDIANCI  ER       R$  000000000086500000000008680000000000860000000000086300000000008630000000000862000000000086321636000000000001153755000000000996146030000000000000009999123100000010000000000000BRGARECTF001126
012026020512GCDL11      010FII GCDL    CI           R$  000000001177100000000117710000000011771000000001177100000000117710000000000000000000000000000001000000000000000040000000000000470840000000000000009999123100000010000000000000BRGCDLCTF002100
012026020512GCRI11      010FII GLPG CRICI           R$  000000000662200000000067190000000006581000000000661900000000066750000000006624000000000667500145000000000000001631000000000010796512000000000000009999123100000010000000000000BRGCRICTF008163
012026020512KNSC11      010FII KINEA SCCI  ER       R$  000000000090400000000009080000000000900000000000090200000000009020000000000901000000000090212693000000000000556154000000000502125107000000000000009999123100000010000000000000BRKNSCCTF008168
012026020512KNUQ11      010FII KINEA UNCI  ER       R$  000000001047100000000104870000000010425000000001045700000000104350000000010435000000001044602463000000000000024672000000000258007156000000000000009999123100000010000000000000BRKNUQCTF004134
012026020512KORE11      010FII KORE    CI  ER       R$  000000000725000000000073100000000007245000000000726900000000073000000000007273000000000730005018000000000000054554000000000396594844000000000000009999123100000010000000000000BRKORECTF012126
012026020512LASC11      010FII LEGATUS CI  ER       R$  000000001100800000000112740000000010305000000001101700000000112740000000010604000000001127500071000000000000002055000000000022641888000000000000009999123100000010000000000000BRLASCCTF003175
012026020512LIFE11      010FII LIFE    CI  ER       R$  000000000085000000000008670000000000850000000000085500000000008510000000000851000000000085502313000000000000084556000000000072371883000000000000009999123100000010000000000000BRLIFECTF017152
012026020512LMAI11      010LABINAFII   CI  ER       R$  000000000379000000000037900000000003652000000000375000000000037890000000003661000000000375000005000000000000000008000000000000030000000000000000009999123100000010000000000000BRLMAICTF003101
012026020512LPLP11      010FII LAGO PDRCI           R$  000000003400000000000340000000000034000000000003400000000000340000000000028000000000003400000001000000000000000002000000000000068000000000000000009999123100000010000000000000BRLPLPCTF008151
012026020512LRDI11      010FII LEBLON  CI           R$  000000001980000000000198000000000019800000000001980000000000198000000000010000000000001980000001000000000000000025000000000000495000000000000000009999123100000010000000000000BRLRDICTF006105
012026020512TELM11      010FII TELM    CI           R$  000000000100000000000010000000000001000000000000100000000000010000000000000999000000000100000013000000000000002784000000000002784000000000000000009999123100000010000000000000BRTELMCTF002116
012026020512TEPP11      010FII TEL PROPCI  ER       R$  000000000089200000000008940000000000885000000000088900000000008870000000000887000000000088905653000000000000215512000000000191715434000000000000009999123100000010000000000000BRTEPPCTF006171
012026020512TGAR11      010FII TG ATIVOCI  ER       R$  000000000771000000000078870000000007652000000000779100000000077990000000007798000000000784909248000000000000127586000000000994025576000000000000009999123100000010000000000000BRTGARCTF009211
012026020512GGRC11      010FII GGRCOVEPCI  ER       R$  000000000099700000000010000000000000996000000000099700000000009970000000000997000000000099832338000000000000905340000000000903375401000000000000009999123100000010000000000000BRGGRCCTF002217
012026020512GLCR11      010FII GLCR    CI           R$  000000001005400000000100540000000010054000000001005400000000100540000000000000000000000000000001000000000000000098000000000000985292000000000000009999123100000010000000000000BRGLCRCTF002109
012026020512URPR11      010FII URCA RENCI  ER       R$  000000000382800000000038600000000003775000000000380400000000038290000000003774000000000382801363000000000000029722000000000113086047000000000000009999123100000010000000000000BRURPRCTF002178
012026020512TRNT11      010FII TORRE NOCI           R$  000000000970400000000097040000000009703000000000970300000000097030000000009703000000001064900002000000000000000002000000000000019407000000000000009999123100000010000000000000BRTRNTCTF013341
012026020512TRPL11      010FII TRPL    CI           R$  000000000010500000000001050000000000105000000000010500000000001050000000000081000000000010500003000000000000000027000000000000002835000000000000009999123100000010000000000000BRTRPLCTF015100
012026020512TRUE11      010FII TRUEMULTCI           R$  000000000251000000000025110000000002461000000000250100000000025050000000002505000000000251000028000000000000001557000000000003895395000000000000009999123100000010000000000000BRTRUECTF002100
012026020512TRXB11      010FII TRX R IICI  ER       R$  000000001800000000000180010000000017900000000001799700000000180000000000017850000000001800000020000000000000000465000000000008368910000000000000009999123100000010000000000000BRTRXBCTF002173
