00COTAHIST.2026BOVESPA 20260105                                                                                                                                                                                                                      
012026010502ESPA3       010ESPACOLASER ON  ED  NM   R$  000000000010200000000001030000000000098000000000009900000000000990000000000098000000000010000245000000000000778600000000000077472500000000000000009999123100000010000000000000BRESPAACNOR7105
012026010502ESTR3       010ESTRELA     ON           R$  000000000030100000000003010000000000301000000000030100000000003010000000000301000000000070000001000000000000000100000000000000030100000000000000009999123100000010000000000000BRESTRACNOR3144
012026010502ETER3       010ETERNIT     ON      NM   R$  000000000040400000000004120000000000400000000000040500000000004060000000000406000000000040800258000000000000061400000000000024910800000000000000009999123100000010000000000000BRETERACNOR3246
012026010502EUCA3       010EUCATEX     ON  EJ  N1   R$  000000000225800000000022580000000002160000000000224100000000021600000000001800000000000224900007000000000000001200000000000002690100000000000000009999123100000010000000000000BREUCAACNOR1159
012026010502EUCA4       010EUCATEX     PN  EJ  N1   R$  000000000177500000000017870000000001727000000000176500000000017730000000001773000000000177400141000000000000018700000000000033010400000000000000009999123100000010000000000000BREUCAACNPR8046
012026010502EVEN3       010EVEN        ON      NM   R$  000000000075400000000007760000000000746000000000076600000000007620000000000762000000000077202336000000000000615500000000000471703400000000000000009999123100000010000000000000BREVENACNOR8121
012026010502EZTC3       010EZTEC       ON      NM   R$  000000000136600000000014100000000001345000000000138300000000013950000000001395000000000140005687000000000001911600000000002645364300000000000000009999123100000010000000000000BREZTCACNOR0132
012026010502CAMB3       010CAMBUCI     ON           R$  000000000098800000000010010000000000980000000000098800000000010010000000000990000000000100100037000000000000014100000000000013937300000000000000009999123100000010000000000000BRCAMBACNOR4136
012026010502CAML3       010CAMIL       ON      NM   R$  000000000055600000000005650000000000552000000000056000000000005600000000000559000000000056101591000000000000668100000000000374344100000000000000009999123100000010000000000000BRCAMLACNOR3134
012026010502AZEV3       010AZEVEDO     ON           R$  000000000002700000000000310000000000026000000000002900000000000290000000000027000000000002900665000000000001788400000000000051892500000000000000009999123100000010000000000000BRAZEVACNOR0123
012026010502AZEV4       010AZEVEDO     PN           R$  000000000002200000000000240000000000022000000000002200000000000220000000000022000000000002301056000000000017695900000000000396361400000000000000009999123100000010000000000000BRAZEVACNPR7123
012026010502AZTE3       010AZT ENERGIA ON           R$  000000000004200000000000430000000000041000000000004100000000000430000000000042000000000004300306000000000001568900000000000065672800000000000000009999123100000010000000000000BRAZTEACNOR4101
012026010502CASH3       010MELIUZ      ON      NM   R$  000000000038500000000004190000000000382000000000040500000000004130000000000412000000000041304136000000000003340900000000001354201100000000000000009999123100000010000000000000BRCASHACNOR8107
012026010502CBAV3       010CBA         ON      NM   R$  000000000070600000000007560000000000706000000000074300000000007470000000000745000000000074708812000000000006039800000000004489793400000000000000009999123100000010000000000000BRCBAVACNOR5104
012026010502CBEE3       010AMPLA ENERG ON  ES       R$  000000000101000000000010100000000001010000000000101000000000010100000000001010000000000109900002000000000000001000000000000001010000000000000000009999123100000010000000000000BRCBEEACNOR3163
012026010502CEAB3       010CEA MODAS   ON  EJ  NM   R$  000000000124200000000012840000000001034000000000111200000000010460000000001046000000000104742381000000000031666100000000035237671500000000000000009999123100000010000000000000BRCEABACNOR1105
012026010502CSNA3       010SID NACIONALON           R$  000000000087300000000009150000000000866000000000090100000000009050000000000905000000000090610208000000000006496100000000005854674900000000000000009999123100000010000000000000BRCSNAACNOR6263
012026010502AZZA3       010AZZAS 2154  ON  ED  NM   R$  000000000254500000000026180000000002478000000000253000000000025060000000002496000000000250614928000000000003525500000000008921579700000000000000009999123100000010000000000000BRAZZAACNOR9104
012026010502BPAN4       010BANCO PAN   PN      N1   R$  000000000111500000000011620000000001115000000000114400000000011430000000001142000000000115201641000000000000599600000000000685957300000000000000009999123100000010000000000000BRBPANACNPR1116
012026010502BRAP3       010BRADESPAR   ON      N1   R$  000000000181600000000018430000000001808000000000182400000000018180000000001818000000000182700191000000000000049600000000000090489100000000000000009999123100000010000000000000BRBRAPACNOR5153
012026010502BRAP4       010BRADESPAR   PN      N1   R$  000000000200900000000020380000000002000000000000202600000000020370000000002035000000000203808725000000000003554900000000007202691100000000000000009999123100000010000000000000BRBRAPACNPR2153
012026010502COCE5       010COELCE      PNA          R$  000000000335900000000034490000000003359000000000341800000000034240000000003396000000000342500047000000000000008100000000000027690300000000000000009999123100000010000000000000BRCOCEACNPA3150
012026010502COGN3       010COGNA ON    ON  EDB NM   R$  000000000031300000000003260000000000311000000000032000000000003230000000000321000000000032309885000000000017945600000000005752532900000000000000009999123100000010000000000000BRCOGNACNOR2110
012026010502GOAU3       010GERDAU MET  ON  EB  N1   R$  000000000086000000000008820000000000860000000000087000000000008710000000000870000000000087600299000000000000040500000000000035267600000000000000009999123100000010000000000000BRGOAUACNOR1274
012026010502GOAU4       010GERDAU MET  PN  EB  N1   R$  000000000089100000000009090000000000889000000000090100000000009060000000000901000000000090606395000000000005699500000000005137776700000000000000009999123100000010000000000000BRGOAUACNPR8275
012026010502GOLL54      010GOL         PN *P   N2   R$  000000000061100000000006170000000000595000000000061000000000006150000000000613000000000061600246000000000072562000000000000044290779000000000000009999123100010000000000000000BRGOLLA01PR5100
012026010502GRND3       010GRENDENE    ON  ED  NM   R$  000000000045400000000004640000000000452000000000046100000000004630000000000462000000000046410766000000000004626700000000002133466900000000000000009999123100000010000000000000BRGRNDACNOR3182
012026010502CYRE3       010CYRELA REALTON  EB  NM   R$  000000000239800000000025350000000002379000000000249300000000025270000000002526000000000253320054000000000006741700000000016809064300000000000000009999123100000010000000000000BRCYREACNOR7143
012026010502CYRE4       010CYRELA REALTPN      NM   R$  000000000241900000000024560000000002320000000000239200000000024010000000002401000000000243901701000000000000519500000000001242845300000000000000009999123100000010000000000000BRCYREACNPR4114
012026010502ENJU3       010ENJOEI      ON      NM   R$  000000000010600000000001060000000000103000000000010300000000001030000000000103000000000010400544000000000000148400000000000015394000000000000000009999123100000010000000000000BRENJUACNOR9100
012026010502EPAR3       010EMBPAR S/A  ON           R$  000000000040300000000004100000000000403000000000040400000000004040000000000404000000000040500028000000000000006200000000000002508300000000000000009999123100000010000000000000BREPARACNOR9107
012026010502EQPA3       010EQTL PARA   ON           R$  000000000061000000000006100000000000590000000000059800000000005900000000000597000000000060300026000000000000005300000000000003172200000000000000009999123100000010000000000000BREQPAACNOR1112
012026010502EQPA5       010EQTL PARA   PNA          R$  000000000170000000000017000000000001700000000000170000000000017000000000001200000000000170000001000000000000000500000000000000850000000000000000009999123100000010000000000000BREQPAACNPA4112
012026010502EQTL3       010EQUATORIAL  ON  EJ  NM   R$  000000000384000000000038640000000003799000000000384500000000038600000000003856000000000386414493000000000004763000000000018314611600000000000000009999123100000010000000000000BREQTLACNOR0135
012026010502HBOR3       010HELBOR      ON      NM   R$  000000000025500000000002590000000000244000000000025100000000002440000000000244000000000024703024000000000002598100000000000654278800000000000000009999123100000010000000000000BRHBORACNOR3119
012026010502HBRE3       010HBR REALTY  ON  ED  NM   R$  000000000035000000000003640000000000340000000000035400000000003610000000000360000000000036100798000000000000733300000000000260279000000000000000009999123100000010000000000000BRHBREACNOR4101
012026010502HBSA3       010HIDROVIAS   ON      NM   R$  000000000035600000000003750000000000356000000000037100000000003750000000000375000000000037603142000000000003186800000000001183425800000000000000009999123100000010000000000000BRHBSAACNOR0102
012026010502CVCB3       010CVC BRASIL  ON      NM   R$  000000000022300000000002330000000000217000000000022600000000002280000000000225000000000022809008000000000017155000000000003881710600000000000000009999123100000010000000000000BRCVCBACNOR1118
012026010502ENEV3       010ENEVA       ON      NM   R$  000000000200600000000020200000000001990000000000200400000000020100000000002010000000000201215105000000000006283100000000012597173400000000000000009999123100000010000000000000BRENEVACNOR8107
012026010502ALPK3       010ESTAPAR     ON      NM   R$  000000000046000000000004810000000000450000000000047300000000004740000000000470000000000047400298000000000000086300000000000040852600000000000000009999123100000010000000000000BRALPKACNOR9101
012026010502ALUP11      010ALUPAR      UNT ED  N2   R$  000000000320000000000032380000000003187000000000323000000000032340000000003218000000000323502148000000000001029100000000003324192600000000000000009999123100000010000000000000BRALUPCDAM15126
012026010502ALUP3       010ALUPAR      ON  ED  N2   R$  000000000116900000000012040000000001169000000000118900000000011760000000001170000000000119800075000000000000015200000000000018084300000000000000009999123100000010000000000000BRALUPACNOR8126
012026010502ALUP4       010ALUPAR      PN  ED  N2   R$  000000000101000000000010290000000001002000000000101300000000010290000000001029000000000103000067000000000000011700000000000011852100000000000000009999123100000010000000000000BRALUPACNPR5126
012026010502AMAR3       010LOJAS MARISAON      NM   R$  000000000010100000000001020000000000100000000000010000000000001020000000000101000000000010200344000000000000317700000000000031970000000000000000009999123100000010000000000000BRAMARACNOR4115
012026010502PTBL3       010PORTOBELLO  ON      NM   R$  000000000032200000000003290000000000322000000000032600000000003260000000000323000000000032600245000000000000098000000000000032044500000000000000009999123100000010000000000000BRPTBLACNOR8132
012026010502PTNT3       010PETTENATI   ON           R$  000000000085600000000008560000000000856000000000085600000000008560000000000850000000000085700001000000000000000100000000000000085600000000000000009999123100000010000000000000BRPTNTACNOR6044
012026010502PTNT4       010PETTENATI   PN           R$  000000000046900000000004850000000000460000000000047000000000004640000000000463000000000046400031000000000000011000000000000005180400000000000000009999123100000010000000000000BRPTNTACNPR3049
012026010502BHIA3       010CASAS BAHIA ON      NM   R$  000000000031000000000003100000000000301000000000030500000000003010000000000300000000000030403802000000000003297900000000001006138000000000000000009999123100000010000000000000BRBHIAACNOR1104
012026010502QUAL3       010QUALICORP   ON      NM   R$  000000000023300000000002350000000000224000000000022900000000002270000000000226000000000022801737000000000002398500000000000551415900000000000000009999123100000010000000000000BRQUALACNOR6122
012026010502RADL3       010RAIADROGASILON  EB  NM   R$  000000000236800000000024530000000002364000000000241800000000024250000000002425000000000244416359000000000006024000000000014566778600000000000000009999123100000010000000000000BRRADLACNOR0165
012026010502SBFG3       010GRUPO SBF   ON      NM   R$  000000000126000000000012750000000001237000000000125400000000012540000000001242000000000125404317000000000001453200000000001822911700000000000000009999123100000010000000000000BRSBFGACNOR1104
012026010502SBSP3       010SABESP      ON  EJB NM   R$  000000001330500000000133050000000013041000000001313700000000131260000000013093000000001312616704000000000002672800000000035114962400000000000000009999123100000010000000000000BRSBSPACNOR5165
012026010502TIMS3       010TIM         ON  EDJ NM   R$  000000000216600000000021800000000002142000000000215900000000021610000000002157000000000216511039000000000004949100000000010685894400000000000000009999123100000010000000000000BRTIMSACNOR5129
012026010502TKNO3       010TEKNO       ON           R$  000000002070000000000207000000000020700000000002070000000000207000000000020500000000002100000001000000000000000100000000000002070000000000000000009999123100000010000000000000BRTKNOACNOR8075
012026010502TOKY3       010GRUPO TOKY  ON      NM   R$  000000000008100000000000830000000000076000000000007900000000000770000000000077000000000007800270000000000000356300000000000028151700000000000000009999123100000010000000000000BRTOKYACNOR5101
012026010502TOTS3       010TOTVS       ON      NM   R$  000000000409800000000041850000000004080000000000414400000000041400000000004124000000000414012485000000000003435400000000014237843000000000000000009999123100000010000000000000BRTOTSACNOR8150
012026010502TPIS3       010TRIUNFO PARTON  ED  NM   R$  000000000048900000000005100000000000478000000000049500000000004780000000000478000000000048000100000000000000047700000000000023635900000000000000009999123100000010000000000000BRTPISACNOR8120
012026010502TRAD3       010TC          ON      NM   R$  000000000040700000000004070000000000399000000000040000000000004000000000000399000000000040400107000000000000014700000000000005894200000000000000009999123100000010000000000000BRTRADACNOR3102
012026010502TRIS3       010TRISUL      ON  ED  NM   R$  000000000061000000000006390000000000610000000000063000000000006280000000000628000000000063500462000000000000257100000000000162147800000000000000009999123100000010000000000000BRTRISACNOR4122
012026010502ISAE3       010ISA ENERGIA ON  EJ  N1   R$  000000000339900000000034000000000003329000000000338700000000034000000000003357000000000340000021000000000000003000000000000010162100000000000000009999123100000010000000000000BRISAEACNOR2107
012026010502ISAE4       010ISA ENERGIA PN  EJ  N1   R$  000000000269000000000027150000000002677000000000270400000000027150000000002699000000000271704896000000000001212700000000003279386600000000000000009999123100000010000000000000BRISAEACNPR9107
012026010502ITSA3       010ITAUSA      ON  EB  N1   R$  000000000121100000000012400000000001207000000000122500000000012260000000001226000000000123600620000000000000221600000000000271622400000000000000009999123100000010000000000000BRITSAACNOR0455
012026010502ITSA4       010ITAUSA      PN  EB  N1   R$  000000000116700000000012000000000001164000000000118900000000011910000000001190000000000119324984000000000035859800000000042643653600000000000000009999123100000010000000000000BRITSAACNPR7455
012026010502LAVV3       010LAVVI       ON      NM   R$  000000000156500000000016120000000001565000000000159100000000016120000000001596000000000161202777000000000000479400000000000763097200000000000000009999123100000010000000000000BRLAVVACNOR4119
012026010502LEVE3       010METAL LEVE  ON      NM   R$  000000000335100000000034020000000003320000000000337400000000033840000000003368000000000338403425000000000000500200000000001688003300000000000000009999123100000010000000000000BRLEVEACNOR2202
012026010502LJQQ3       010QUERO-QUERO ON      NM   R$  000000000021300000000002200000000000212000000000021600000000002130000000000212000000000021302265000000000002220700000000000480329400000000000000009999123100000010000000000000BRLJQQACNOR5105
012026010502LOGG3       010LOG COM PROPON  ED  NM   R$  000000000253400000000025460000000002484000000000252100000000025060000000002506000000000252201829000000000000260400000000000656725900000000000000009999123100000010000000000000BRLOGGACNOR7112
012026010502LOGN3       010LOG-IN      ON      NM   R$  000000000334100000000033610000000003335000000000334500000000033350000000003327000000000336100111000000000000040300000000000134803900000000000000009999123100000010000000000000BRLOGNACNOR3105
012026010502LPSB3       010LOPES BRASILON      NM   R$  000000000016800000000001780000000000167000000000017300000000001760000000000175000000000017600238000000000000118500000000000020522000000000000000009999123100000010000000000000BRLPSBACNOR0116
012026010502LREN3       010LOJAS RENNERON      NM   R$  000000000133900000000013550000000001243000000000129700000000012980000000001298000000000129943282000000000033507300000000043480273800000000000000009999123100000010000000000000BRLRENACNOR1228
012026010502PRNR3       010PRINER      ON      NM   R$  000000000161300000000016450000000001587000000000162400000000016400000000001633000000000164002291000000000000362100000000000588164800000000000000009999123100000010000000000000BRPRNRACNOR4111
012026010502PSSA3       010PORTO SEGUROON  EJ  NM   R$  000000000480800000000048650000000004763000000000482600000000048330000000004832000000000484705380000000000001241900000000005994334000000000000000009999123100000010000000000000BRPSSAACNOR7161
012026010502SAPR11      010SANEPAR     UNT EJ  N2   R$  000000000404900000000041000000000004006000000000406600000000040350000000004035000000000406008522000000000001508300000000006133399900000000000000009999123100000010000000000000BRSAPRCDAM13121
012026010502SAPR3       010SANEPAR     ON  EJ  N2   R$  000000000088500000000009120000000000884000000000089900000000008950000000000892000000000089900662000000000000145600000000000130980700000000000000009999123100000010000000000000BRSAPRACNOR9162
012026010502SAPR4       010SANEPAR     PN  EJ  N2   R$  000000000077700000000007950000000000774000000000078600000000007830000000000783000000000078502342000000000000984600000000000773940700000000000000009999123100000010000000000000BRSAPRACNPR6162
012026010502TASA3       010TAURUS ARMASON      N2   R$  000000000051500000000005180000000000513000000000051500000000005170000000000516000000000051700056000000000000012100000000000006240200000000000000009999123100000010000000000000BRTASAACNOR7106
012026010502TASA4       010TAURUS ARMASPN      N2   R$  000000000048000000000004890000000000473000000000048000000000004820000000000478000000000048200838000000000000372100000000000178736400000000000000009999123100000010000000000000BRTASAACNPR4106
012026010502TCSA3       010TECNISA     ON      NM   R$  000000000011300000000001160000000000112000000000011400000000001150000000000115000000000011700089000000000000072100000000000008237700000000000000009999123100000010000000000000BRTCSAACNOR3112
012026010502TECN3       010TECHNOS     ON  ED  NM   R$  000000000070600000000007180000000000693000000000070100000000007100000000000710000000000071100250000000000000058500000000000041040300000000000000009999123100000010000000000000BRTECNACNOR6111
012026010502TELB3       010TELEBRAS    ON           R$  000000000109800000000010990000000001098000000000109800000000010990000000001083000000000113500002000000000000001100000000000001208800000000000000009999123100000010000000000000BRTELBACNOR2142
012026010502TELB4       010TELEBRAS    PN           R$  000000000075500000000007870000000000755000000000077800000000007820000000000782000000000078900012000000000000002300000000000001791300000000000000009999123100000010000000000000BRTELBACNPR9142
012026010502TEND3       010TENDA       ON  ED  NM   R$  000000000233100000000025080000000002316000000000246100000000024960000000002496000000000250108756000000000001950200000000004801130000000000000000009999123100000010000000000000BRTENDACNOR4114
012026010502TFCO4       010TRACK FIELD PN  EJ  N2   R$  000000000159500000000016160000000001556000000000158000000000015690000000001569000000000157403987000000000001141200000000001803702100000000000000009999123100000010000000000000BRTFCOACNPR8121
012026010502TGMA3       010TEGMA       ON      NM   R$  000000000363900000000036510000000003610000000000363100000000036410000000003625000000000364200975000000000000125700000000000456439100000000000000009999123100000010000000000000BRTGMAACNOR7150
012026010502AURE3       010AUREN       ON      NM   R$  000000000116300000000011900000000001162000000000117700000000011780000000001177000000000118206080000000000002209200000000002600929700000000000000009999123100000010000000000000BRAUREACNOR9105
012026010502AVLL3       010ALPHAVILLE  ON      NM   R$  000000000009700000000000970000000000091000000000009400000000000940000000000093000000000009500009000000000000003000000000000000283200000000000000009999123100000010000000000000BRAVLLACNOR5103
012026010502AXIA3       010AXIA ENERGIAON  EB  N1   R$  000000000499000000000050400000000004931000000000499700000000050250000000005013000000000502524025000000000014216000000000071038332800000000000000009999123100000010000000000000BRAXIAACNOR0102
012026010502AXIA6       010AXIA ENERGIAPNB EX  N1   R$  000000000526100000000052920000000005195000000000526300000000052900000000005264000000000529103351000000000001031600000000005429400500000000000000009999123100000010000000000000BRAXIAACNPB1103
012026010502AXIA7       010AXIA ENERGIAPNC     N1   R$  000000000480000000000048500000000004742000000000481500000000048300000000004830000000000484710309000000000005564300000000026795784200000000000000009999123100000010000000000000BRAXIAACNPC9100
012026010502AMOB3       010AUTOMOB     ON      NM   R$  000000000132000000000013340000000001286000000000131900000000013200000000001320000000000133200498000000000000068000000000000089728100000000000000009999123100000010000000000000BRAMOBACNOR9101
012026010502ANIM3       010ANIMA       ON      NM   R$  000000000033100000000003390000000000328000000000033400000000003320000000000332000000000033303084000000000003894800000000001302049400000000000000009999123100000010000000000000BRANIMACNOR6110
012026010502ARML3       010ARMAC       ON      NM   R$  000000000046000000000004780000000000454000000000046800000000004640000000000463000000000046404262000000000000816400000000000382221100000000000000009999123100000010000000000000BRARMLACNOR1116
012026010502ARND3       010ARANDU      ON      NM   R$  000000000008900000000000890000000000089000000000008900000000000890000000000089000000000011500003000000000000001600000000000000142400000000000000009999123100000010000000000000BRARNDACNOR6100
012026010502ASAI3       010ASSAI       ON      NM   R$  000000000073000000000007540000000000724000000000074400000000007470000000000746000000000074812638000000000009771900000000007278869500000000000000009999123100000010000000000000BRASAIACNOR0108
012026010502BEES3       010BANESTES    ON  EDJ      R$  000000000081600000000008180000000000811000000000081500000000008170000000000814000000000081700151000000000000020500000000000016721000000000000000009999123100000010000000000000BRBEESACNOR9414
012026010502BEES4       010BANESTES    PN  EDJ      R$  000000000081000000000008220000000000809000000000081200000000008150000000000810000000000082100042000000000000009500000000000007720000000000000000009999123100000010000000000000BRBEESACNPR6339
012026010502BGIP3       010BANESE      ON           R$  000000000373900000000038430000000003739000000000377300000000038430000000003850000000000429000003000000000000000300000000000001132100000000000000009999123100000010000000000000BRBGIPACNOR1213
012026010502BGIP4       010BANESE      PN           R$  000000000347900000000035360000000003328000000000342200000000034000000000003400000000000345000018000000000000001800000000000006160900000000000000009999123100000010000000000000BRBGIPACNPR8213
012026010502DXCO3       010DEXCO       ON  EB  NM   R$  000000000050500000000005210000000000497000000000051600000000005200000000000515000000000052004770000000000002888900000000001490801800000000000000009999123100000010000000000000BRDXCOACNOR8108
012026010502MDNE3       010MOURA DUBEUXON  ED  NM   R$  000000000230100000000024660000000002280000000000242500000000024630000000002447000000000246305600000000000001219900000000002958511400000000000000009999123100000010000000000000BRMDNEACNOR9104
012026010502MEAL3       010IMC S/A     ON      NM   R$  000000000012600000000001280000000000126000000000012700000000001270000000000125000000000012700058000000000000271800000000000034657800000000000000009999123100000010000000000000BRMEALACNOR9105
012026010502MELK3       010MELNICK     ON      NM   R$  000000000038300000000003840000000000376000000000038000000000003780000000000378000000000038001122000000000000569700000000000216556500000000000000009999123100000010000000000000BRMELKACNOR8116
012026010502MGEL4       010MANGELS INDLPN           R$  000000000056700000000005950000000000567000000000059200000000005940000000000594000000000060000005000000000000001600000000000000948500000000000000009999123100000010000000000000BRMGELACNPR3147
012026010502MGLU3       010MAGAZ LUIZA ON  EB  NM   R$  000000000088600000000009040000000000869000000000088800000000008950000000000894000000000089511486000000000012352300000000010975336400000000000000009999123100000010000000000000BRMGLUACNOR2130
012026010502EALT3       010ACO ALTONA  ON           R$  000000000144700000000014490000000001410000000000142500000000014100000000001396000000000144000012000000000000002400000000000003421900000000000000009999123100000010000000000000BREALTACNOR4140
012026010502EALT4       010ACO ALTONA  PN           R$  000000000141500000000014230000000001385000000000140500000000014110000000001400000000000141000068000000000000009100000000000012785500000000000000009999123100000010000000000000BREALTACNPR1140
012026010502ECOR3       010ECORODOVIAS ON      NM   R$  000000000105500000000010700000000001044000000000106300000000010670000000001061000000000106804898000000000002073100000000002205708000000000000000009999123100000010000000000000BRECORACNOR8122
012026010502EGIE3       010ENGIE BRASILON  EJ  NM   R$  000000000312200000000031620000000003112000000000312300000000031120000000003111000000000312005152000000000000964700000000003013597900000000000000009999123100000010000000000000BREGIEACNOR9132
012026010502FESA3       010FERBASA     ON      N1   R$  000000000114000000000011990000000001140000000000114800000000011990000000001118000000000120900003000000000000000700000000000000803900000000000000009999123100000010000000000000BRFESAACNOR8194
012026010502FESA4       010FERBASA     PN      N1   R$  000000000068300000000006900000000000680000000000068400000000006820000000000682000000000068501817000000000000558600000000000382499900000000000000009999123100000010000000000000BRFESAACNPR5090
012026010502FHER3       010FER HERINGERON      NM   R$  000000000044900000000004490000000000420000000000042700000000004320000000000430000000000043300033000000000000009300000000000003975500000000000000009999123100000010000000000000BRFHERACNOR5103
012026010502FICT3       010FICTORALIMENON           R$  000000000020500000000002080000000000198000000000020000000000001980000000000198000000000020300032000000000000015400000000000003086300000000000000009999123100000010000000000000BRFICTACNOR3101
012026010502FIEI3       010FICA        ON           R$  000000000132400000000013240000000001324000000000132400000000013240000000000500000000000144000001000000000000000100000000000000132400000000000000009999123100000010000000000000BRFIEIACNOR2100
012026010502FIQE3       010UNIFIQUE    ON  EDB NM   R$  000000000048900000000004970000000000486000000000049200000000004890000000000489000000000049201306000000000000609800000000000300418300000000000000009999123100000010000000000000BRFIQEACNOR5112
012026010502FLRY3       010FLEURY      ON      NM   R$  000000000148100000000015000000000001467000000000149100000000015000000000001500000000000150105533000000000001453400000000002167022800000000000000009999123100000010000000000000BRFLRYACNOR5143
012026010502B3SA3       010B3          ON  EJ  NM   R$  000000000135000000000014040000000001349000000000138600000000013950000000001394000000000139624847000000000026006500000000036051754700000000000000009999123100000010000000000000BRB3SAACNOR6140
012026010502BRAV3       010BRAVA       ON      NM   R$  000000000166000000000016600000000001552000000000157900000000015710000000001570000000000157222082000000000012118600000000019147294600000000000000009999123100000010000000000000BRBRAVACNOR3103
012026010502CPFE3       010CPFL ENERGIAON      NM   R$  000000000536100000000053920000000005325000000000535700000000053650000000005365000000000536806892000000000001366400000000007320320200000000000000009999123100000010000000000000BRCPFEACNOR0138
012026010502DASA3       010DASA        ON      NM   R$  000000000044800000000004480000000000373000000000040100000000003830000000000383000000000038709751000000000007138400000000002864513300000000000000009999123100000010000000000000BRDASAACNOR1123
012026010502DESK3       010DESKTOP     ON  ED  NM   R$  000000000168200000000017350000000001662000000000170500000000017200000000001707000000000172004167000000000001364200000000002327159200000000000000009999123100000010000000000000BRDESKACNOR2106
012026010502DEXP3       010DEXXOS PAR  ON  EB  N1   R$  000000000078200000000007880000000000771000000000077900000000007720000000000772000000000078200830000000000000173500000000000135277200000000000000009999123100000010000000000000BRDEXPACNOR1109
012026010502DEXP4       010DEXXOS PAR  PN  EB  N1   R$  000000000076700000000007940000000000767000000000078800000000007890000000000789000000000079100015000000000000002900000000000002286900000000000000009999123100000010000000000000BRDEXPACNPR8109
012026010502DIRR3       010DIRECIONAL  ON      NM   R$  000000000135600000000014400000000001352000000000141300000000014330000000001432000000000143818581000000000009439300000000013340476300000000000000009999123100000010000000000000BRDIRRACNOR0123
012026010502ATED3       010ATOM EDUC   ON           R$  000000000019900000000002040000000000199000000000020100000000002000000000000200000000000020300010000000000000003500000000000000705800000000000000009999123100000010000000000000BRATEDACNOR1100
012026010502AUAU3       010PETZCOBASI  ON      NM   R$  000000000040000000000004040000000000379000000000038400000000003870000000000382000000000038704170000000000002031900000000000781345500000000000000009999123100000010000000000000BRAUAUACNOR1100
012026010502BIED3       010BIOMA EDUC  ON      MA   R$  000000000041200000000004330000000000394000000000041800000000004190000000000402000000000043000025000000000000014100000000000005896900000000000000009999123100000010000000000000BRBIEDACNOR2101
012026010502SANB11      010SANTANDER BRUNT EJ       R$  000000000333400000000034090000000003334000000000338300000000033940000000003392000000000339411203000000000002542500000000008603143700000000000000009999123100000010000000000000BRSANBCDAM13171
012026010502SANB3       010SANTANDER BRON  EJ       R$  000000000164300000000016640000000001593000000000164200000000016640000000001643000000000166400541000000000000083900000000000137781500000000000000009999123100000010000000000000BRSANBACNOR8178
012026010502SANB4       010SANTANDER BRPN  EJ       R$  000000000172000000000017430000000001704000000000172600000000017360000000001725000000000173600450000000000000060900000000000105141700000000000000009999123100000010000000000000BRSANBACNPR5178
012026010502SYNE3       010SYN PROP TECON      NM   R$  000000000048500000000004860000000000464000000000047400000000004640000000000464000000000046703740000000000001801000000000000853983000000000000000009999123100000010000000000000BRSYNEACNOR2107
012026010502TAEE11      010TAESA       UNT     N2   R$  000000000419700000000042590000000004197000000000423700000000042240000000004221000000000424807915000000000001804100000000007644287900000000000000009999123100000010000000000000BRTAEECDAM10153
012026010502TAEE3       010TAESA       ON      N2   R$  000000000139300000000014090000000001393000000000140100000000013980000000001398000000000140900303000000000000049900000000000069925600000000000000009999123100000010000000000000BRTAEEACNOR9153
012026010502TAEE4       010TAESA       PN      N2   R$  000000000141500000000014230000000001407000000000141500000000014070000000001407000000000141400438000000000000083800000000000118629900000000000000009999123100000010000000000000BRTAEEACNPR6153
012026010502IFCM3       010INFRACOMM   ON      NM   R$  000000000011800000000001190000000000112000000000011400000000001150000000000113000000000011500189000000000000192100000000000022021700000000000000009999123100000010000000000000BRIFCMACNOR8108
012026010502IGTI11      010IGUATEMI S.AUNT     N1   R$  000000000253200000000025850000000002520000000000256400000000025600000000002558000000000257208507000000000001785500000000004578154200000000000000009999123100000010000000000000BRIGTICDAM16108
012026010502IGTI3       010IGUATEMI S.AON      N1   R$  000000000029400000000002990000000000292000000000029600000000002960000000000296000000000029900066000000000000037700000000000011160100000000000000009999123100000010000000000000BRIGTIACNOR8108
012026010502INEP3       010INEPAR      ON           R$  000000000016100000000001740000000000138000000000014900000000001410000000000141000000000014500187000000000000140000000000000020879700000000000000009999123100000010000000000000BRINEPACNOR1145
012026010502INEP4       010INEPAR      PN           R$  000000000012300000000001260000000000111000000000011800000000001170000000000114000000000011800172000000000000207100000000000024581400000000000000009999123100000010000000000000BRINEPACNPR8145
012026010502INTB3       010INTELBRAS   ON      NM   R$  000000000116400000000011880000000001158000000000117400000000011740000000001174000000000117702799000000000000994300000000001167904500000000000000009999123100000010000000000000BRINTBACNOR9115
012026010502IRBR3       010IRBBRASIL REON      NM   R$  000000000524200000000053430000000005199000000000529800000000053110000000005306000000000531103536000000000000666000000000003528663300000000000000009999123100000010000000000000BRIRBRACNOR4113
012026010502JHSF3       010JHSF PART   ON      NM   R$  000000000078400000000008030000000000781000000000079300000000007870000000000786000000000079005159000000000002960600000000002350533800000000000000009999123100000010000000000000BRJHSFACNOR2154
012026010502JSLG3       010JSL         ON  EDJ NM   R$  000000000060200000000006280000000000598000000000061800000000006190000000000618000000000062001914000000000001128800000000000697788700000000000000009999123100000010000000000000BRJSLGACNOR2123
012026010502KEPL3       010KEPLER WEBERON      NM   R$  000000000098600000000009900000000000980000000000098600000000009860000000000985000000000098604568000000000001127700000000001112756300000000000000009999123100000010000000000000BRKEPLACNOR1069
012026010502KLBN11      010KLABIN S/A  UNT     N2   R$  000000000189000000000019080000000001852000000000186900000000018520000000001851000000000185312708000000000005641100000000010547335600000000000000009999123100000010000000000000BRKLBNCDAM18151
012026010502MILS3       010MILLS       ON      NM   R$  000000000139500000000014380000000001393000000000142400000000014220000000001421000000000143202000000000000000616100000000000877514800000000000000009999123100000010000000000000BRMILSACNOR2132
012026010502MLAS3       010MULTILASER  ON      NM   R$  000000000013400000000001430000000000130000000000013700000000001420000000000142000000000014301025000000000001761500000000000241736500000000000000009999123100000010000000000000BRMLASACNOR9101
012026010502MNPR3       010MINUPAR     ON           R$  000000000045700000000004760000000000453000000000046100000000004640000000000457000000000046400024000000000000004300000000000001984400000000000000009999123100000010000000000000BRMNPRACNOR5123
012026010502MOAR3       010MONT ARANHA ON           R$  000000000639600000000064320000000005941000000000612400000000060500000000005958000000000620000020000000000000003000000000000018372400000000000000009999123100000010000000000000BRMOARACNOR5242
012026010502MOTV3       010MOTIVA SA   ON      NM   R$  000000000148900000000015200000000001486000000000150700000000015110000000001510000000000151209236000000000004756600000000007172195800000000000000009999123100000010000000000000BRMOTVACNOR7102
012026010502RNEW3       010RENOVA      ON      N2   R$  000000000010200000000001070000000000100000000000010400000000001040000000000102000000000010400088000000000000040600000000000004233400000000000000009999123100000010000000000000BRRNEWACNOR8113
012026010502RNEW4       010RENOVA      PN      N2   R$  000000000009200000000000940000000000090000000000009200000000000920000000000091000000000009200084000000000000025800000000000002380900000000000000009999123100000010000000000000BRRNEWACNPR5113
012026010502ROMI3       010ROMI        ON  EJ  NM   R$  000000000080000000000008190000000000795000000000081200000000008130000000000812000000000081901199000000000000290200000000000235899600000000000000009999123100000010000000000000BRROMIACNOR8201
012026010502JALL3       010JALLESMACHADON      NM   R$  000000000028500000000002870000000000276000000000028100000000002780000000000277000000000027901176000000000000898700000000000253046500000000000000009999123100000010000000000000BRJALLACNOR0106
012026010502POSI3       010POSITIVO TECON      NM   R$  000000000041100000000004240000000000411000000000041700000000004190000000000418000000000042102073000000000001450100000000000605194700000000000000009999123100000010000000000000BRPOSIACNOR9117
012026010502PRIO3       010PETRORIO    ON      NM   R$  000000000416100000000041890000000004059000000000409600000000041150000000004115000000000412030231000000000009298900000000038091075100000000000000009999123100000010000000000000BRPRIOACNOR1111
012026010502RECV3       010PETRORECSA  ON      NM   R$  000000000110500000000011090000000001080000000000109400000000011080000000001105000000000110914103000000000004399600000000004816281700000000000000009999123100000010000000000000BRRECVACNOR3109
012026010502REDE3       010REDE ENERGIAON  ES       R$  000000000062500000000006280000000000623000000000062600000000006230000000000618000000000062600010000000000000001400000000000000876500000000000000009999123100000010000000000000BRREDEACNOR7134
012026010502RENT3       010LOCALIZA    ON  EB  NM   R$  000000000435400000000044170000000004302000000000437300000000043740000000004368000000000437430440000000000007868600000000034411749500000000000000009999123100000010000000000000BRRENTACNOR4205
012026010502RENT4       010LOCALIZA    PN      NM   R$  000000000406000000000042350000000004060000000000419600000000041860000000004186000000000419012152000000000001970200000000008267079300000000000000009999123100000010000000000000BRRENTACNPR1100
012026010502SNSY5       010SANSUY      PNA          R$  000000000027500000000002750000000000270000000000027200000000002700000000000270000000000030000002000000000000001700000000000000464000000000000000009999123100000010000000000000BRSNSYACNPA5111
012026010502SOJA3       010BOA SAFRA   ON  EJB NM   R$  000000000089300000000009000000000000889000000000089500000000008950000000000894000000000089501073000000000000292200000000000261532200000000000000009999123100000010000000000000BRSOJAACNOR9109
012026010502SUZB3       010SUZANO S.A. ON  ED  NM   R$  000000000519400000000052240000000005043000000000511600000000050430000000005042000000000505016675000000000004947400000000025313300900000000000000009999123100000010000000000000BRSUZBACNOR0135
012026010502VALE3       010VALE        ON      NM   R$  000000000724000000000073500000000007230000000000730900000000073120000000007311000000000731245242000000000024958100000000182420642300000000000000009999123100000010000000000000BRVALEACNOR0218
012026010502YDUQ3       010YDUQS PART  ON  ED  NM   R$  000000000122100000000012700000000001204000000000124700000000012500000000001249000000000125006237000000000002144300000000002675928100000000000000009999123100000010000000000000BRYDUQACNOR3108
012026010502WHRL3       010WHIRLPOOL   ON           R$  000000000042900000000004360000000000428000000000042900000000004300000000000428000000000043000024000000000000005400000000000002319900000000000000009999123100000010000000000000BRWHRLACNOR5135
012026010502WHRL4       010WHIRLPOOL   PN           R$  000000000046900000000004690000000000461000000000046300000000004620000000000461000000000046600048000000000000007300000000000003386600000000000000009999123100000010000000000000BRWHRLACNPR2135
012026010502WIZC3       010WIZ CO      ON  ED  NM   R$  000000000088600000000009030000000000873000000000089100000000009030000000000903000000000090402148000000000000602200000000000536827100000000000000009999123100000010000000000000BRWIZCACNOR5104
012026010502VITT3       010VITTIA      ON  EJ  NM   R$  000000000046100000000004720000000000457000000000046300000000004670000000000464000000000046700518000000000000083900000000000038846700000000000000009999123100000010000000000000BRVITTACNOR4112
012026010502ITUB3       010ITAUUNIBANCOON  EJB N1   R$  000000000363500000000037250000000003628000000000367800000000036920000000003691000000000370504232000000000001276800000000004697131100000000000000009999123100000010000000000000BRITUBACNOR4364
012026010502ITUB4       010ITAUUNIBANCOPN  EJB N1   R$  000000000392400000000040140000000003906000000000397200000000039720000000003972000000000398230784000000000024438700000000097086018300000000000000009999123100000010000000000000BRITUBACNPR1364
012026010502LUPA3       010LUPATECH    ON      NM   R$  000000000009500000000000980000000000092000000000009300000000000920000000000092000000000009400156000000000000144700000000000013560200000000000000009999123100000010000000000000BRLUPAACNOR8112
012026010502LUXM4       010TREVISA     PN           R$  000000000046000000000004700000000000427000000000045700000000004450000000000425000000000045000020000000000000006400000000000002928700000000000000009999123100000010000000000000BRLUXMACNPR4053
012026010502LWSA3       010LWSA        ON      NM   R$  000000000041300000000004260000000000409000000000042000000000004210000000000419000000000042104343000000000001957200000000000822047400000000000000009999123100000010000000000000BRLWSAACNOR8105
012026010502MATD3       010MATER DEI   ON      NM   R$  000000000052300000000005280000000000519000000000052300000000005200000000000520000000000052300251000000000000039200000000000020522000000000000000009999123100000010000000000000BRMATDACNOR4106
012026010502MBRF3       010MARFRIG     ON      NM   R$  000000000194600000000019940000000001910000000000193800000000019100000000001910000000000192011874000000000005235800000000010149180500000000000000009999123100000010000000000000BRMBRFACNOR1100
012026010502NATU3       010NATURA      ON      NM   R$  000000000072200000000007410000000000722000000000073300000000007350000000000734000000000073610426000000000007815500000000005730800300000000000000009999123100000010000000000000BRNATUACNOR6136
012026010502RAIL3       010RUMO S.A.   ON      NM   R$  000000000147900000000014930000000001468000000000148400000000014840000000001480000000000148408340000000000003881500000000005762908000000000000000009999123100000010000000000000BRRAILACNOR9106
012026010502SCAR3       010SAO CARLOS  ON      NM   R$  000000000137700000000013770000000001347000000000135500000000013470000000001347000000000135900286000000000000051700000000000070056500000000000000009999123100000010000000000000BRSCARACNOR7133
012026010502SEER3       010SER EDUCA   ON      NM   R$  000000000096800000000009690000000000936000000000095700000000009520000000000952000000000095704613000000000001347500000000001290798200000000000000009999123100000010000000000000BRSEERACNOR5120
012026010502SEQL3       010SEQUOIA LOG ON      NM   R$  000000000025100000000002550000000000225000000000023600000000002250000000000225000000000022700404000000000000220000000000000052052400000000000000009999123100000010000000000000BRSEQLACNOR2108
012026010502SHOW3       010TIME FOR FUNON      NM   R$  000000000060700000000006700000000000599000000000062900000000006510000000000651000000000065300661000000000000130700000000000082327200000000000000009999123100000010000000000000BRSHOWACNOR7106
012026010502SHUL4       010SCHULZ      PN  EDJ      R$  000000000049400000000005020000000000486000000000049300000000004950000000000495000000000049801179000000000000443000000000000218640700000000000000009999123100000010000000000000BRSHULACNPR4163
012026010502SIMH3       010SIMPAR      ON      NM   R$  000000000052300000000005340000000000517000000000052700000000005260000000000525000000000052705357000000000002604100000000001373116100000000000000009999123100000010000000000000BRSIMHACNOR0109
012026010502SLCE3       010SLC AGRICOLAON  EB  NM   R$  000000000148200000000014820000000001460000000000146600000000014640000000001463000000000146405260000000000002271800000000003330905300000000000000009999123100000010000000000000BRSLCEACNOR2128
012026010502TTEN3       0103TENTOS     ON  ED  NM   R$  000000000164900000000016520000000001624000000000164300000000016470000000001646000000000165303657000000000000696700000000001145049600000000000000009999123100000010000000000000BRTTENACNOR0105
012026010502TUPY3       010TUPY        ON      NM   R$  000000000116900000000012020000000001141000000000117500000000011770000000001176000000000117804234000000000001357800000000001595529600000000000000009999123100000010000000000000BRTUPYACNOR1185
012026010502UCAS3       010UNICASA     ON      NM   R$  000000000013300000000001370000000000132000000000013400000000001330000000000133000000000013600104000000000000062600000000000008415600000000000000009999123100000010000000000000BRUCASACNOR1114
012026010502UGPA3       010ULTRAPAR    ON      NM   R$  000000000210900000000021240000000002084000000000210800000000021100000000002110000000000211208742000000000003796200000000008006169600000000000000009999123100000010000000000000BRUGPAACNOR8159
012026010502UNIP3       010UNIPAR      ON           R$  000000000586200000000059610000000005800000000000586500000000059610000000005848000000000597100075000000000000009900000000000058069100000000000000009999123100000010000000000000BRUNIPACNOR7210
012026010502UNIP6       010UNIPAR      PNB          R$  000000000587000000000059590000000005772000000000589800000000059210000000005918000000000593901731000000000000245000000000001445185900000000000000009999123100000010000000000000BRUNIPACNPB8210
012026010502VAMO3       010VAMOS       ON  EJ  NM   R$  000000000032500000000003290000000000322000000000032400000000003230000000000323000000000032410912000000000010320500000000003353249300000000000000009999123100000010000000000000BRVAMOACNOR7109
012026010502MTRE3       010MITRE REALTYON  ED  NM   R$  000000000036900000000003730000000000365000000000036900000000003700000000000369000000000037000654000000000000385400000000000142524100000000000000009999123100000010000000000000BRMTREACNOR6130
012026010502MTSA4       010METISA      PN  ED       R$  000000000484200000000048420000000004831000000000483700000000048310000000004050000000000485000005000000000000000500000000000002418500000000000000009999123100000010000000000000BRMTSAACNPR9079
012026010502MULT3       010MULTIPLAN   ON  EJ  N2   R$  000000000270400000000027600000000002688000000000273700000000027330000000002732000000000273615787000000000004214800000000011537819700000000000000009999123100000010000000000000BRMULTACNOR5145
012026010502MYPK3       010IOCHP-MAXIONON      NM   R$  000000000098100000000010000000000000976000000000098800000000009870000000000987000000000099203119000000000001428900000000001412866500000000000000009999123100000010000000000000BRMYPKACNOR7158
012026010502BIOM3       010BIOMM       ON      MA   R$  000000000071100000000007690000000000710000000000073500000000007500000000000750000000000076200362000000000000120000000000000088234500000000000000009999123100000010000000000000BRBIOMACNOR2113
012026010502OPCT3       010OCEANPACT   ON      NM   R$  000000000083500000000008390000000000820000000000083000000000008390000000000829000000000083900739000000000000202600000000000168324900000000000000009999123100000010000000000000BROPCTACNOR0100
012026010502ORVR3       010ORIZON      ON      NM   R$  000000000703800000000070650000000006921000000000699500000000069890000000006967000000000700005971000000000000795900000000005567737800000000000000009999123100000010000000000000BRORVRACNOR0101
012026010502RAIZ4       010RAIZEN      PN      N2   R$  000000000008100000000000820000000000079000000000008100000000000820000000000081000000000008206433000000000027242000000000002208959100000000000000009999123100000010000000000000BRRAIZACNPR6112
012026010502RANI3       010IRANI       ON      NM   R$  000000000087000000000008790000000000867000000000087300000000008680000000000867000000000086801462000000000000402800000000000351817900000000000000009999123100000010000000000000BRRANIACNOR5079
012026010502BMEB3       010MERCANTIL   ON  EDS N1   R$  000000000582500000000059010000000005812000000000588800000000058120000000005600000000000581200007000000000000002100000000000012366300000000000000009999123100000010000000000000BRBMEBACNOR8210
012026010502BMEB4       010MERCANTIL   PN  EDS N1   R$  000000000659900000000067990000000006066000000000638100000000061000000000006100000000000620400333000000000000045300000000000289098600000000000000009999123100000010000000000000BRBMEBACNPR5215
012026010502BMGB4       010BANCO BMG   PN  EJ  N1   R$  000000000049500000000005080000000000488000000000049900000000005010000000000501000000000050601590000000000000844600000000000422220700000000000000009999123100000010000000000000BRBMGBACNPR0117
012026010502BPAC11      010BTGP BANCO  UNT EJ  N2   R$  000000000522300000000054260000000005200000000000535300000000053600000000005360000000000537016737000000000005441900000000029131410800000000000000009999123100000010000000000000BRBPACUNT006128
012026010502BPAC3       010BTGP BANCO  ON  EJ  N2   R$  000000000389000000000040890000000003883000000000398200000000040890000000004050000000000408900045000000000000009700000000000038629500000000000000009999123100000010000000000000BRBPACACNOR7139
012026010502BPAC5       010BTGP BANCO  PNA EJ  N2   R$  000000000111900000000011350000000001105000000000112100000000011240000000001117000000000113200035000000000000012300000000000013795400000000000000009999123100000010000000000000BRBPACACNPA0139
012026010502BBDC3       010BRADESCO    ON  EJ  N1   R$  000000000156200000000016200000000001556000000000160000000000016160000000001615000000000161612723000000000005327000000000008528062600000000000000009999123100000010000000000000BRBBDCACNOR1796
012026010502BBDC4       010BRADESCO    PN  EJ  N1   R$  000000000182000000000018970000000001817000000000187100000000018970000000001895000000000189737260000000000050153200000000093850776900000000000000009999123100000010000000000000BRBBDCACNPR8796
012026010502PCAR3       010P.ACUCAR-CBDON      NM   R$  000000000039100000000004050000000000384000000000039500000000003940000000000393000000000039406079000000000011585100000000004579060700000000000000009999123100000010000000000000BRPCARACNOR3169
012026010502PDGR3       010PDG REALT   ON      NM   R$  000000000014800000000001490000000000145000000000014700000000001490000000000147000000000014800035000000000000017700000000000002603300000000000000009999123100000010000000000000BRPDGRACNOR8123
012026010502PDTC3       010PADTEC      ON      NM   R$  000000000013300000000001350000000000126000000000013000000000001340000000000129000000000013400067000000000000024300000000000003172700000000000000009999123100000010000000000000BRPDTCACNOR3101
012026010502PEAB3       010PAR AL BAHIAON  ED       R$  000000000388000000000038800000000003880000000000388000000000038800000000003651000000000394400001000000000000000100000000000000388000000000000000009999123100000010000000000000BRPEABACNOR3138
012026010502PETR3       010PETROBRAS   ON  EDJ N2   R$  000000000323200000000032330000000003123000000000315900000000031760000000003172000000000318020668000000000015270700000000048241237400000000000000009999123100000010000000000000BRPETRACNOR9212
012026010502PETR4       010PETROBRAS   PN  EDJ N2   R$  000000000307000000000030770000000002973000000000300800000000030200000000003020000000000302152803000000000048211400000000145060421200000000000000009999123100000010000000000000BRPETRACNPR6223
012026010502PFRM3       010PROFARMA    ON  ED  NM   R$  000000000085000000000008620000000000841000000000085200000000008600000000000855000000000086000716000000000000159200000000000135773400000000000000009999123100000010000000000000BRPFRMACNOR1122
012026010502PGMN3       010PAGUE MENOS ON  EJS NM   R$  000000000062500000000006570000000000614000000000064300000000006570000000000655000000000065713037000000000006355900000000004090041300000000000000009999123100000010000000000000BRPGMNACNOR8106
012026010502PINE3       010PINE        ON      N2   R$  000000000129900000000012990000000001235000000000126000000000012800000000001237000000000128000045000000000000011500000000000014491900000000000000009999123100000010000000000000BRPINEACNOR1159
012026010502PINE4       010PINE        PN      N2   R$  000000000130400000000013130000000001232000000000127900000000012900000000001290000000000129703175000000000000933300000000001193858100000000000000009999123100000010000000000000BRPINEACNPR8159
012026010502PLPL3       010PLANOEPLANO ON  ED  NM   R$  000000000130700000000013690000000001297000000000134900000000013650000000001356000000000136505041000000000001211400000000001634334100000000000000009999123100000010000000000000BRPLPLACNOR5106
012026010502PNVL3       010DIMED       ON      NM   R$  000000000120100000000012280000000001201000000000121500000000012150000000001209000000000121601932000000000000684800000000000832647400000000000000009999123100000010000000000000BRPNVLACNOR9212
012026010502POMO3       010MARCOPOLO   ON  EB  N2   R$  000000000056200000000005720000000000554000000000056500000000005670000000000566000000000056701765000000000000959000000000000542255400000000000000009999123100000010000000000000BRPOMOACNOR0105
012026010502POMO4       010MARCOPOLO   PN  EB  N2   R$  000000000059100000000006070000000000585000000000060000000000006020000000000601000000000060216378000000000013194600000000007923652000000000000000009999123100000010000000000000BRPOMOACNPR7105
012026010502RCSL3       010RECRUSUL    ON           R$  000000000023400000000002560000000000231000000000024600000000002500000000000248000000000025000339000000000000312300000000000076906600000000000000009999123100000010000000000000BRRCSLACNOR4134
012026010502RCSL4       010RECRUSUL    PN           R$  000000000074100000000007870000000000732000000000076500000000007640000000000763000000000076408196000000000006288600000000004812005600000000000000009999123100000010000000000000BRRCSLACNPR1134
012026010502RDOR3       010REDE D OR   ON  EDJ NM   R$  000000000404900000000041170000000004026000000000408400000000040950000000004093000000000410113473000000000004211400000000017201339400000000000000009999123100000010000000000000BRRDORACNOR8119
012026010502SMFT3       010SMART FIT   ON      NM   R$  000000000229700000000023630000000002274000000000233800000000023570000000002355000000000235913870000000000003829400000000008955798700000000000000009999123100000010000000000000BRSMFTACNOR1118
012026010502SMTO3       010SAO MARTINHOON      NM   R$  000000000149000000000014920000000001449000000000146500000000014490000000001449000000000145406168000000000002248400000000003294557500000000000000009999123100000010000000000000BRSMTOACNOR3129
012026010502VIVA3       010VIVARA S.A. ON  ED  NM   R$  000000000322700000000032350000000003021000000000312300000000031300000000003119000000000313124373000000000007636300000000023851232500000000000000009999123100000010000000000000BRVIVAACNOR0109
012026010502VIVR3       010VIVER       ON      NM   R$  000000000006100000000000620000000000059000000000006000000000000610000000000060000000000006100052000000000000042200000000000002535900000000000000009999123100000010000000000000BRVIVRACNOR4125
012026010502VIVT3       010TELEF BRASILON  EJ       R$  000000000327400000000033360000000003268000000000330500000000033090000000003309000000000332412003000000000003527800000000011661562100000000000000009999123100000010000000000000BRVIVTACNOR0199
012026010502RAPT3       010RANDON PART ON      N1   R$  000000000058400000000005840000000000565000000000057600000000005750000000000570000000000057500115000000000000019200000000000011066200000000000000009999123100000010000000000000BRRAPTACNOR7166
012026010502RAPT4       010RANDON PART PN      N1   R$  000000000054800000000005710000000000545000000000056100000000005670000000000566000000000056706850000000000004137400000000002322721500000000000000009999123100000010000000000000BRRAPTACNPR4166
012026010502USIM3       010USIMINAS    ON      N1   R$  000000000059200000000006160000000000592000000000060900000000006090000000000608000000000061000586000000000000728000000000000443517200000000000000009999123100000010000000000000BRUSIMACNOR3167
012026010502USIM5       010USIMINAS    PNA     N1   R$  000000000059900000000006190000000000597000000000061300000000006160000000000616000000000061711972000000000008322600000000005108199400000000000000009999123100000010000000000000BRUSIMACNPA6172
012026010502VBBR3       010VIBRA       ON      NM   R$  000000000256100000000025820000000002537000000000255700000000025530000000002550000000000255312966000000000004941000000000012635881700000000000000009999123100000010000000000000BRVBBRACNOR1114
012026010502GEPA3       010GER PARANAP ON  ED       R$  000000000305000000000032000000000003050000000000312500000000032000000000003000000000000325000002000000000000000200000000000000625000000000000000009999123100000010000000000000BRGEPAACNOR2158
012026010502GFSA3       010GAFISA      ON      NM   R$  000000000050000000000005060000000000496000000000049900000000005060000000000503000000000050600474000000000000230500000000000115246200000000000000009999123100000010000000000000BRGFSAACNOR3127
012026010502GGBR3       010GERDAU      ON      N1   R$  000000000174700000000017760000000001735000000000175700000000017670000000001750000000000176900111000000000000023900000000000041999900000000000000009999123100000010000000000000BRGGBRACNOR1198
012026010502GGBR4       010GERDAU      PN      N1   R$  000000000205100000000020940000000002041000000000207200000000020710000000002069000000000207215069000000000006662200000000013805721900000000000000009999123100000010000000000000BRGGBRACNPR8198
012026010502AALR3       010ALLIAR      ON      NM   R$  000000000048000000000004800000000000466000000000047300000000004700000000000469000000000047400047000000000000038600000000000018287700000000000000009999123100000010000000000000BRAALRACNOR6104
012026010502ABCB4       010ABC BRASIL  PN  EJS N2   R$  000000000236500000000024270000000002346000000000240500000000024250000000002412000000000242502572000000000000609500000000001466034500000000000000009999123100000010000000000000BRABCBACNPR4150
012026010502ABEV3       010AMBEV S/A   ON  EDJ      R$  000000000136300000000013760000000001357000000000136900000000013710000000001369000000000137415863000000000017543300000000024019968500000000000000009999123100000010000000000000BRABEVACNOR1134
012026010502WDCN3       010WDC NETWORKSON      NM   R$  000000000025700000000002710000000000257000000000026300000000002700000000000269000000000027200041000000000000018300000000000004831000000000000000009999123100000010000000000000BRWDCNACNOR2100
012026010502WEGE3       010WEG         ON  ED  NM   R$  000000000482600000000048860000000004805000000000482200000000048080000000004808000000000481315898000000000004531300000000021851757900000000000000009999123100000010000000000000BRWEGEACNOR0234
012026010502BBSE3       010BBSEGURIDADEON      NM   R$  000000000358300000000036090000000003538000000000359100000000035860000000003581000000000358610159000000000005402000000000019399664400000000000000009999123100000010000000000000BRBBSEACNOR5127
012026010502CPLE3       010COPEL       ON  EDJ NM   R$  000000000121500000000012390000000001202000000000122400000000012250000000001224000000000122532654000000000019884100000000024348732000000000000000009999123100000010000000000000BRCPLEACNOR8153
012026010502CRPG5       010CRISTAL     PNA          R$  000000000175000000000018490000000001750000000000180700000000018450000000001805000000000184600004000000000000000500000000000000903900000000000000009999123100000010000000000000BRCRPGACNPA3119
012026010502CRPG6       010CRISTAL     PNB          R$  000000000170100000000017990000000001701000000000174500000000017990000000001725000000000184800005000000000000000500000000000000872500000000000000009999123100000010000000000000BRCRPGACNPB1119
012026010502CSAN3       010COSAN       ON      NM   R$  000000000052600000000005360000000000521000000000052900000000005250000000000525000000000052614413000000000030511700000000016157930000000000000000009999123100000010000000000000BRCSANACNOR6128
012026010502DMVF3       010D1000VFARMA ON      NM   R$  000000000065000000000006560000000000637000000000064200000000006550000000000649000000000065600239000000000000099600000000000064042300000000000000009999123100000010000000000000BRDMVFACNOR9100
012026010502DOHL4       010DOHLER      PN           R$  000000000036800000000003710000000000368000000000036800000000003710000000000365000000000037100008000000000000001900000000000000700800000000000000009999123100000010000000000000BRDOHLACNPR9067
012026010502DOTZ3       010DOTZ SA     ON      NM   R$  000000000045300000000004530000000000431000000000044200000000004460000000000444000000000044500051000000000000012500000000000005534000000000000000009999123100000010000000000000BRDOTZACNOR7101
012026010502DTCY3       010DTCOM-DIRECTON           R$  000000000029400000000002950000000000294000000000029400000000002950000000000274000000000029500004000000000000000400000000000000117900000000000000009999123100000010000000000000BRDTCYACNOR5109
012026010502ALLD3       010ALLIED      ON      NM   R$  000000000083800000000008580000000000832000000000084500000000008460000000000845000000000084601738000000000000975800000000000825220300000000000000009999123100000010000000000000BRALLDACNOR3109
012026010502ALOS3       010ALLOS       ON  ED  NM   R$  000000000284000000000028970000000002815000000000287400000000028640000000002863000000000286414808000000000003747100000000010771253400000000000000009999123100000010000000000000BRALOSACNOR5117
012026010502ALPA3       010ALPARGATAS  ON      N1   R$  000000000105900000000010720000000001030000000000104800000000010720000000001043000000000107200047000000000000007500000000000007861400000000000000009999123100000010000000000000BRALPAACNOR0234
012026010502ALPA4       010ALPARGATAS  PN      N1   R$  000000000118300000000012520000000001168000000000122700000000012480000000001248000000000124905893000000000002991400000000003671952900000000000000009999123100000010000000000000BRALPAACNPR7235
012026010502BRKM3       010BRASKEM     ON      N1   R$  000000000078800000000008100000000000788000000000079800000000008000000000000792000000000080000025000000000000003800000000000003032900000000000000009999123100000010000000000000BRBRKMACNOR1119
012026010502BRKM5       010BRASKEM     PNA     N1   R$  000000000077500000000007770000000000752000000000076100000000007600000000000760000000000076206165000000000002953700000000002249673400000000000000009999123100000010000000000000BRBRKMACNPA4122
012026010502EKTR4       010ELEKTRO     PN  EJ       R$  000000000395000000000039500000000003856000000000392600000000038560000000003855000000000394900003000000000000000400000000000001570600000000000000009999123100000010000000000000BREKTRACNPR7174
012026010502EMAE4       010EMAE        PN           R$  000000000449200000000045050000000004449000000000447500000000044600000000004402000000000449800028000000000000004300000000000019245800000000000000009999123100000010000000000000BREMAEACNPR1128
012026010502EMBJ3       010EMBRAER     ON      NM   R$  000000000890100000000092990000000008901000000000918300000000092890000000009271000000000928925188000000000005419800000000049772966000000000000000009999123100000010000000000000BREMBJACNOR1102
012026010502BEEF3       010MINERVA     ON      NM   R$  000000000053800000000005400000000000516000000000052400000000005230000000000522000000000052412655000000000015542100000000008145100900000000000000009999123100000010000000000000BRBEEFACNOR6120
012026010502BRSR3       010BANRISUL    ON  EJ  N1   R$  000000000168600000000017300000000001668000000000170500000000017110000000001709000000000173000072000000000000010200000000000017398800000000000000009999123100000010000000000000BRBRSRACNOR3197
012026010502BRSR6       010BANRISUL    PNB EJ  N1   R$  000000000153800000000016040000000001535000000000158700000000015920000000001591000000000159805986000000000001932500000000003067134000000000000000009999123100000010000000000000BRBRSRACNPB4200
012026010502BRST3       010BRISANET    ON  EJ  NM   R$  000000000033700000000003380000000000323000000000032900000000003350000000000335000000000033601526000000000000452800000000000149399800000000000000009999123100000010000000000000BRBRSTACNOR9102
012026010502BSLI3       010BRB BANCO   ON           R$  000000000066800000000006680000000000668000000000066800000000006680000000000671000000000069900005000000000000001000000000000000668000000000000000009999123100000010000000000000BRBSLIACNOR5198
012026010502BSLI4       010BRB BANCO   PN           R$  000000000071900000000007440000000000719000000000072400000000007210000000000719000000000073900007000000000000000800000000000000579200000000000000009999123100000010000000000000BRBSLIACNPR2198
012026010502CSED3       010CRUZEIRO EDUON  ED  NM   R$  000000000059000000000006270000000000590000000000061400000000006100000000000605000000000061001984000000000000613900000000000376993900000000000000009999123100000010000000000000BRCSEDACNOR9107
012026010502CSMG3       010COPASA      ON  EJ  NM   R$  000000000436300000000043650000000004227000000000427700000000042540000000004249000000000425808391000000000004059700000000017363353000000000000000009999123100000010000000000000BRCSMGACNOR5183
012026010502GGPS3       010GPS         ON      NM   R$  000000000160900000000016640000000001594000000000164400000000016530000000001650000000000166007446000000000002527300000000004155152900000000000000009999123100000010000000000000BRGGPSACNOR9106
012026010502WLMM3       010WLM IND COM ON  ED       R$  000000000204000000000020400000000002040000000000204000000000020400000000001900000000000210000001000000000000000100000000000000204000000000000000009999123100000010000000000000BRWLMMACNOR6124
012026010502WLMM4       010WLM IND COM PN  ED       R$  000000000203000000000020790000000002000000000000202600000000020000000000002000000000000203800016000000000000002200000000000004458200000000000000009999123100000010000000000000BRWLMMACNPR3124
012026010502WEST3       010WESTWING    ON      NM   R$  000000000055800000000005680000000000546000000000055200000000005680000000000555000000000056900005000000000000000900000000000000496900000000000000009999123100000010000000000000BRWESTACNOR3101
012026010502VLID3       010VALID       ON      NM   R$  000000000211500000000021250000000002071000000000208900000000020710000000002070000000000208101021000000000000195100000000000407705100000000000000009999123100000010000000000000BRVLIDACNOR5148
012026010502GMAT3       010GRUPO MATEUSON      NM   R$  000000000045000000000004510000000000440000000000044400000000004400000000000440000000000044407329000000000005330700000000002372059800000000000000009999123100000010000000000000BRGMATACNOR7109
012026010502AERI3       010AERIS       ON      NM   R$  000000000032900000000003290000000000317000000000032200000000003230000000000319000000000032300198000000000000030600000000000009867300000000000000009999123100000010000000000000BRAERIACNOR4102
012026010502AFLT3       010AFLUENTE T  ON  EJ       R$  000000000072000000000007200000000000720000000000072000000000007200000000000660000000000075100001000000000000000100000000000000072000000000000000009999123100000010000000000000BRAFLTACNOR1126
012026010502AGRO3       010BRASILAGRO  ON      NM   R$  000000000197500000000019930000000001962000000000197800000000019880000000001987000000000198801102000000000000161900000000000320337200000000000000009999123100000010000000000000BRAGROACNOR7116
012026010502VSTE3       010VESTE       ON      NM   R$  000000000039300000000003950000000000390000000000039200000000003910000000000385000000000039100104000000000000066800000000000026219000000000000000009999123100000010000000000000BRVSTEACNOR5104
012026010502VTRU3       010VITRUEDUCA  ON      NM   R$  000000000141500000000014540000000001400000000000143700000000014450000000001422000000000144501449000000000000374800000000000538790600000000000000009999123100000010000000000000BRVTRUACNOR3101
012026010502VULC3       010VULCABRAS   ON  ED  NM   R$  000000000199900000000020130000000001972000000000199900000000019910000000001991000000000199405194000000000001223400000000002445708200000000000000009999123100000010000000000000BRVULCACNOR2181
012026010502VVEO3       010VIVEO       ON      NM   R$  000000000013600000000001390000000000131000000000013500000000001320000000000132000000000013401058000000000002444400000000000331757300000000000000009999123100000010000000000000BRVVEOACNOR0104
012026010502BALM4       010BAUMER      PN           R$  000000000189900000000018990000000001820000000000188800000000018920000000001781000000000189400006000000000000000800000000000001510500000000000000009999123100000010000000000000BRBALMACNPR2060
012026010502BAUH4       010EXCELSIOR   PN           R$  000000000905000000000093300000000009050000000000926000000000093300000000000000000000000933800002000000000000000400000000000003704000000000000000009999123100000010000000000000BRBAUHACNPR3119
012026010502BAZA3       010AMAZONIA    ON           R$  000000000778100000000079770000000007780000000000787100000000077870000000007785000000000792400113000000000000016700000000000131458800000000000000009999123100000010000000000000BRBAZAACNOR0180
012026010502BBAS3       010BRASIL      ON      NM   R$  000000000216800000000021960000000002158000000000218400000000021880000000002187000000000218819927000000000010675500000000023315666500000000000000009999123100000010000000000000BRBBASACNOR3334
012026010502BRBI11      010BR PARTNERS UNT     N2   R$  000000000193000000000019680000000001900000000000194600000000019680000000001943000000000196801695000000000000320600000000000623977000000000000000009999123100000010000000000000BRBRBICDAM10116
012026010502MDIA3       010M.DIASBRANCOON  ED  NM   R$  000000000240500000000024190000000002364000000000239700000000023990000000002390000000000239901179000000000000197100000000000472545700000000000000009999123100000010000000000000BRMDIAACNOR7149
012026010502NEOE3       010NEOENERGIA  ON  EDJ NM   R$  000000000317000000000031850000000003166000000000317100000000031740000000003173000000000317501764000000000001295600000000004109420700000000000000009999123100000010000000000000BRNEOEACNOR3127
012026010502NGRD3       010NEOGRID     ON      NM   R$  000000000278400000000027870000000002780000000000278200000000027800000000002781000000000278500026000000000000007000000000000019475900000000000000009999123100000010000000000000BRNGRDACNOR3106
012026010502NUTR3       010NUTRIPLANT  ON      MA   R$  000000000026000000000002680000000000260000000000026500000000002680000000000264000000000026700013000000000000001300000000000000344700000000000000009999123100000010000000000000BRNUTRACNOR0104
012026010502OBTC3       010ORANJEBTC   ON           R$  000000000099900000000010180000000000973000000000099700000000010080000000000996000000000100801499000000000000382100000000000381042700000000000000009999123100000010000000000000BROBTCACNOR0100
012026010502ODPV3       010ODONTOPREV  ON  EDJ NM   R$  000000000112700000000011710000000001118000000000115400000000011630000000001162000000000116606818000000000002315900000000002674532300000000000000009999123100000010000000000000BRODPVACNOR4213
012026010502OFSA3       010OUROFINO S/AON  EJ  NM   R$  000000000221500000000023400000000002215000000000233100000000023380000000002275000000000233900012000000000000005200000000000012123000000000000000009999123100000010000000000000BROFSAACNOR7122
012026010502ONCO3       010ONCOCLINICASON      NM   R$  000000000027500000000002750000000000236000000000025000000000002360000000000236000000000023805663000000000004987000000000001251634500000000000000009999123100000010000000000000BRONCOACNOR6102
012026010502FRAS3       010FRAS-LE     ON      N1   R$  000000000239500000000024690000000002395000000000242500000000024120000000002411000000000242001050000000000000171900000000000416883300000000000000009999123100000010000000000000BRFRASACNOR0163
012026010502BLAU3       010BLAU        ON  ED  NM   R$  000000000142400000000014840000000001419000000000145800000000014590000000001455000000000146003751000000000000697400000000001017404300000000000000009999123100000010000000000000BRBLAUACNOR8119
012026010502HYPE3       010HYPERA      ON  EJ  NM   R$  000000000234300000000023810000000002331000000000235200000000023460000000002346000000000234908263000000000001785600000000004200053000000000000000009999123100000010000000000000BRHYPEACNOR0149
012026010502BMKS3       010BIC MONARK  ON  ED       R$  000000003701500000000400000000000037015000000003882700000000373060000000037201000000003800000035000000000000000199000000000007726739000000000000009999123100000010000000000000BRBMKSACNOR9169
012026010502BMOB3       010BEMOBI TECH ON      NM   R$  000000000220100000000022340000000002200000000000221400000000022150000000002215000000000223401769000000000000276400000000000612040900000000000000009999123100000010000000000000BRBMOBACNOR7107
012026010502BNBR3       010NORD BRASIL ON           R$  000000001130000000000114800000000011300000000001143700000000114750000000011300000000001147500011000000000000001300000000000014868600000000000000009999123100000010000000000000BRBNBRACNOR8211
012026010502CMIN3       010CSNMINERACAOON  EDJ N2   R$  000000000052600000000005410000000000521000000000053500000000005400000000000538000000000054009679000000000006678300000000003575106300000000000000009999123100000010000000000000BRCMINACNOR2116
012026010502CXSE3       010CAIXA SEGURION  EDR NM   R$  000000000162000000000016360000000001602000000000162300000000016210000000001620000000000162412894000000000003441800000000005589028700000000000000009999123100000010000000000000BRCXSEACNOR7114
012026010502ENGI11      010ENERGISA    UNT     N2   R$  000000000470900000000047750000000004675000000000471000000000047340000000004734000000000477009073000000000005534200000000026068683200000000000000009999123100000010000000000000BRENGICDAM16140
012026010502ENGI3       010ENERGISA    ON      N2   R$  000000000122400000000012680000000001224000000000125000000000012600000000001233000000000126000024000000000000002400000000000003002100000000000000009999123100000010000000000000BRENGIACNOR0150
012026010502ENGI4       010ENERGISA    PN      N2   R$  000000000086900000000008770000000000861000000000087000000000008740000000000870000000000087400056000000000000011900000000000010356900000000000000009999123100000010000000000000BRENGIACNPR7146
012026010502GUAR3       010GUARARAPES  ON  EDJ NM   R$  000000000086600000000008820000000000832000000000085500000000008510000000000850000000000085207050000000000002625400000000002246098400000000000000009999123100000010000000000000BRGUARACNOR4175
012026010502HAGA3       010HAGA S/A    ON           R$  000000000016100000000001760000000000159000000000016800000000001680000000000168000000000016900039000000000000005000000000000000843300000000000000009999123100000010000000000000BRHAGAACNOR7103
012026010502HAGA4       010HAGA S/A    PN           R$  000000000011100000000001220000000000111000000000011700000000001120000000000113000000000012100018000000000000002900000000000000341700000000000000009999123100000010000000000000BRHAGAACNPR4103
012026010502HAPV3       010HAPVIDA     ON      NM   R$  000000000145300000000015250000000001428000000000150100000000015170000000001516000000000151812572000000000005719700000000008587388500000000000000009999123100000010000000000000BRHAPVACNOR4119
012026010502KLBN3       010KLABIN S/A  ON      N2   R$  000000000038200000000003830000000000372000000000037500000000003720000000000372000000000037401267000000000000591600000000000222386300000000000000009999123100000010000000000000BRKLBNACNOR2179
012026010502KLBN4       010KLABIN S/A  PN      N2   R$  000000000038000000000003810000000000371000000000037400000000003710000000000371000000000037205059000000000003410400000000001278243700000000000000009999123100000010000000000000BRKLBNACNPR9179
012026010502CEBR3       010CEB         ON           R$  000000000272800000000027280000000002691000000000270200000000027010000000002703000000000272900025000000000000003300000000000008918500000000000000009999123100000010000000000000BRCEBRACNOR5129
012026010502CEBR5       010CEB         PNA          R$  000000000262700000000026270000000002535000000000259100000000026090000000002600000000000261000009000000000000001700000000000004406300000000000000009999123100000010000000000000BRCEBRACNPA8128
012026010502CEBR6       010CEB         PNB          R$  000000000295900000000029590000000002879000000000290800000000028960000000002890000000000293900026000000000000003900000000000011341400000000000000009999123100000010000000000000BRCEBRACNPB6128
012026010502CEEB3       010COELBA      ON  EJ       R$  000000000450600000000045060000000004506000000000450600000000045060000000004239000000000460000001000000000000000100000000000000450600000000000000009999123100000010000000000000BRCEEBACNOR3207
012026010502CGAS5       010COMGAS      PNA          R$  000000001298100000000131500000000012890000000001304300000000131500000000012899000000001314900009000000000000000900000000000011739300000000000000009999123100000010000000000000BRCGASACNPA3165
012026010502CGRA3       010GRAZZIOTIN  ON  EB       R$  000000000280100000000028170000000002739000000000278800000000027660000000002765000000000279900009000000000000001200000000000003346400000000000000009999123100000010000000000000BRCGRAACNOR2088
012026010502CGRA4       010GRAZZIOTIN  PN  EB       R$  000000000274000000000027690000000002700000000000274200000000027430000000002718000000000274400070000000000000015000000000000041144400000000000000009999123100000010000000000000BRCGRAACNPR9088
012026010502CLSC3       010CELESC      ON      N2   R$  000000001160000000000116000000000011600000000001160000000000116000000000010500000000001160000001000000000000000200000000000002320000000000000000009999123100000010000000000000BRCLSCACNOR6159
012026010502CLSC4       010CELESC      PN      N2   R$  000000001249500000000124950000000012283000000001238000000000123130000000012311000000001237600025000000000000003300000000000040854200000000000000009999123100000010000000000000BRCLSCACNPR3138
012026010502CMIG3       010CEMIG       ON  EDJ N1   R$  000000000145900000000014660000000001442000000000145400000000014620000000001445000000000146200597000000000000100000000000000145498100000000000000009999123100000010000000000000BRCMIGACNOR6251
012026010502CMIG4       010CEMIG       PN  EDJ N1   R$  000000000112100000000011280000000001118000000000112200000000011190000000001118000000000112030186000000000008810900000000009893426700000000000000009999123100000010000000000000BRCMIGACNPR3252
012026010502CSUD3       010CSU DIGITAL ON  EDJ NM   R$  000000000170000000000017670000000001692000000000173700000000017520000000001737000000000175200579000000000000111400000000000193527700000000000000009999123100000010000000000000BRCSUDACNOR5117
012026010502CTKA4       010KARSTEN     PN           R$  000000000390000000000039000000000003830000000000387600000000038300000000003820000000000390000003000000000000000300000000000001163000000000000000009999123100000010000000000000BRCTKAACNPR7043
012026010502CURY3       010CURY S/A    ON      NM   R$  000000000315400000000033060000000003126000000000324800000000032920000000003282000000000329313203000000000002661000000000008644758500000000000000009999123100000010000000000000BRCURYACNOR3115
012026010502LAND3       010TERRASANTAPAON      NM   R$  000000000087600000000008860000000000839000000000086500000000008390000000000837000000000085900139000000000000019900000000000017216400000000000000009999123100000010000000000000BRLANDACNOR9104
012026010502MOVI3       010MOVIDA      ON  EJ  NM   R$  000000000099500000000009990000000000950000000000097200000000009510000000000950000000000095206458000000000003691900000000003590476000000000000000009999123100000010000000000000BRMOVIACNOR0126
012026010502MRVE3       010MRV         ON      NM   R$  000000000077200000000008270000000000766000000000081000000000008190000000000819000000000082008719000000000007619500000000006172513200000000000000009999123100000010000000000000BRMRVEACNOR2128
012026010502RPAD3       010ALFA HOLDINGON           R$  000000000052900000000005300000000000500000000000051900000000005300000000000511000000000053000003000000000000000300000000000000155900000000000000009999123100000010000000000000BRRPADACNOR1199
012026010502RPAD5       010ALFA HOLDINGPNA ED       R$  000000000064500000000006990000000000635000000000064500000000006990000000000637000000000069800008000000000000000800000000000000516100000000000000009999123100000010000000000000BRRPADACNPA4222
012026010502RSUL4       010RIOSULENSE  PN  ED       R$  000000000684700000000068480000000006847000000000684700000000068470000000006331000000000684800005000000000000000500000000000003423700000000000000009999123100000010000000000000BRRSULACNPR3116
012026010502RVEE3       010REVEE       ON      NM   R$  000000000030000000000003260000000000206000000000030100000000002060000000000206000000000031000024000000000000005000000000000001505300000000000000009999123100000010000000000000BRRVEEACNOR9102
012026010507RIOS3       010RIO ALTO    ON           R$  000000000342000000000034200000000003420000000000342000000000034200000000003361000000000000000001000000000000000100000000000000342000000000000000009999123100000010000000000000BRRIOSACNOR5101
012026010508AGXY3       010AGROGALAXY  ON      NM   R$  000000000044100000000004500000000000436000000000044200000000004360000000000436000000000044000110000000000000017200000000000007612900000000000000009999123100000010000000000000BRAGXYACNOR4104
012026010508HOOT4       010HOTEIS OTHONPN           R$  000000000062100000000006330000000000596000000000062100000000006330000000000610000000000063200009000000000000010400000000000006463400000000000000009999123100000010000000000000BRHOOTACNPR9015
012026010508AMBP3       010AMBIPAR     ON      NM   R$  000000000003000000000000330000000000029000000000003100000000000310000000000031000000000003202183000000000019042400000000000594741300000000000000009999123100000010000000000000BRAMBPACNOR6105
012026010508AMER3       010AMERICANAS  ON      NM   R$  000000000050500000000005070000000000493000000000049700000000005000000000000496000000000050004389000000000002769500000000001378457200000000000000009999123100000010000000000000BRAMERACNOR6103
012026010508LIGT3       010LIGHT S/A   ON      NM   R$  000000000047200000000004790000000000467000000000047200000000004700000000000470000000000047502057000000000000629400000000000297444700000000000000009999123100000010000000000000BRLIGTACNOR2125
012026010508JFEN3       010JOAO FORTES ON           R$  000000000009800000000001100000000000096000000000010000000000000980000000000098000000000010600027000000000000016200000000000001631300000000000000009999123100000010000000000000BRJFENACNOR0061
012026010508OSXB3       010OSX BRASIL  ON      NM   R$  000000000018800000000001880000000000188000000000018800000000001880000000000187000000000021300005000000000000000900000000000000169200000000000000009999123100000010000000000000BROSXBACNOR8109
012026010508PMAM3       010PARANAPANEMAON      NM   R$  000000000007300000000000750000000000067000000000006900000000000670000000000067000000000006800692000000000001997500000000000138027300000000000000009999123100000010000000000000BRPMAMACNOR3045
012026010508NEXP3       010NEXPE       ON           R$  000000000028900000000002890000000000289000000000028900000000002890000000000289000000000030800001000000000000000100000000000000028900000000000000009999123100000010000000000000BRNEXPACNOR0101
012026010508OIBR3       010OI          ON      N1   R$  000000000001700000000000180000000000016000000000001700000000000180000000000017000000000001800396000000000004156200000000000072593900000000000000009999123100000010000000000000BROIBRACNOR1112
012026010508OIBR4       010OI          PN      N1   R$  000000000020200000000002090000000000200000000000020100000000002010000000000201000000000020300013000000000000002100000000000000423900000000000000009999123100000010000000000000BROIBRACNPR8111
012026010508BOBR4       010BOMBRIL     PN           R$  000000000012900000000001290000000000129000000000012900000000001290000000000123000000000012900004000000000000001200000000000000154800000000000000009999123100000010000000000000BRBOBRACNPR3128
012026010508CTAX3       010CONTAX      ON           R$  000000000009600000000000960000000000090000000000009200000000000900000000000090000000000009200011000000000000005000000000000000461000000000000000009999123100000010000000000000BRCTAXACNOR3119
012026010508CTSA3       010SANTANENSE  ON           R$  000000000026900000000002690000000000269000000000026900000000002690000000000226000000000027000001000000000000000100000000000000026900000000000000009999123100000010000000000000BRCTSAACNOR3063
012026010508RPMG3       010PET MANGUINHON           R$  000000000021200000000002130000000000212000000000021200000000002130000000000213000000000021400003000000000000001000000000000000212400000000000000009999123100000010000000000000BRRPMGACNOR9194
012026010508RSID3       010ROSSI RESID ON      NM   R$  000000000017000000000001700000000000170000000000017000000000001700000000000170000000000018800009000000000000007900000000000001343000000000000000009999123100000010000000000000BRRSIDACNOR8121
012026010510REDE1       010REDE ENERGIADIR ORD      R$  000000000008400000000000840000000000084000000000008400000000000840000000000084000000000008600002000000000000000200000000000000016800000000000000009999123100000010000000000000BRREDED06OR1133
012026010510BMEB1       010MERCANTIL   DIR ORD N1   R$  000000000320100000000032050000000002701000000000306500000000028300000000002800000000000283000061000000000000008700000000000026670400000000000000009999123100000010000000000000BRBMEBD04OR7209
012026010510PGMN1       010PAGUE MENOS DIR ORD NM   R$  000000000007300000000001140000000000067000000000009400000000001010000000000097000000000011400603000000000000285000000000000027026600000000000000009999123100000010000000000000BRPGMND05OR4105
012026010510VIVR1       010VIVER       DIR ORD NM   R$  000000000000100000000000010000000000001000000000000100000000000010000000000000000000000000100010000000000000082200000000000000082200000000000000009999123100000010000000000000BRVIVRD19OR1124
012026010510AALR1       010ALLIAR      DIR ORD NM   R$  000000000000400000000000040000000000002000000000000200000000000030000000000002000000000000300045000000000000147200000000000000367900000000000000009999123100000010000000000000BRAALRD02OR9103
012026010510ABCB2       010ABC BRASIL  DIR PRE N2   R$  000000000031600000000003780000000000316000000000034100000000003550000000000355000000000040000581000000000000178400000000000060939000000000000000009999123100000010000000000000BRABCBD19PR1149
012026010512EURO11      010FII EUROPAR CI  ER       R$  000000002999800000000300000000000029995000000002999800000000299950000000029285000000003000000010000000000000000038000000000001139961000000000000009999123100000010000000000000BREUROCTF011378
012026010512EXES11      010FII EXES    CI           R$  000000000094700000000009480000000000940000000000094200000000009460000000000942000000000094600151000000000000013852000000000013058101000000000000009999123100000010000000000000BREXESCTF006145
012026010512CACR11      010CARTESIA FIICI  ER       R$  000000000780600000000078940000000007716000000000779500000000078020000000007802000000000785603479000000000000017524000000000136614539000000000000009999123100000010000000000000BRCACRCTF004153
012026010512IBBP11      010FII IBBP    CI           R$  000000000089300000000010500000000000892000000000091100000000009100000000000896000000000091000051000000000000003414000000000003112197000000000000009999123100000010000000000000BRIBBPCTF005113
012026010512IBCR11      010FII BREI    CI           R$  000000000494500000000049480000000004841000000000488600000000048750000000004873000000000487500170000000000000002399000000000011721657000000000000009999123100000010000000000000BRIBCRCTF009155
012026010512AZPL11      010FII AZPL    CI  ER       R$  000000000076300000000007720000000000760000000000076400000000007600000000000760000000000076900766000000000000036881000000000028179299000000000000009999123100000010000000000000BRAZPLCTF000120
012026010512CARE11      010FII DEA CARECI           R$  000000000010600000000001060000000000101000000000010300000000001040000000000104000000000010500222000000000000013460000000000001396750000000000000009999123100000010000000000000BRCARECTF000112
012026010512CBOP11      010FII CBOP PAXCI  ER       R$  000000000336000000000036410000000003360000000000352900000000033630000000003361000000000336300015000000000000000159000000000000561141000000000000009999123100000010000000000000BRCBOPCTF001249
012026010512CCME11      010FII CANUMA  CI           R$  000000000091200000000009220000000000906000000000091500000000009210000000000917000000000092100439000000000000013540000000000012399441000000000000009999123100000010000000000000BRCCMECTF007141
012026010512BPML11      010FII BTG SHOPCI           R$  000000000854300000000086360000000008415000000000853200000000084290000000008429000000000852501336000000000000009575000000000081696722000000000000009999123100000010000000000000BRBPMLCTF006152
012026010512CNES11      010FII CENESP  CI  ER       R$  000000000018200000000001830000000000179000000000018100000000001830000000000181000000000018300349000000000000025175000000000004564096000000000000009999123100000010000000000000BRCNESCTF001278
012026010512CXTL11      010FII CX TRX  CI  ER       R$  000000003579900000000357990000000035799000000003579900000000357990000000030451000000003579900001000000000000000001000000000000035799000000000000009999123100000010000000000000BRCXTLCTF003255
012026010512CYCR11      010FII CYRELA  CI  ER       R$  000000000087200000000008800000000000870000000000087500000000008800000000000876000000000088001561000000000000033088000000000028956733000000000000009999123100000010000000000000BRCYCRCTF004158
012026010512AIEC11      010FII AUTONOMYCI  ER       R$  000000000510700000000052000000000005107000000000515200000000051590000000005159000000000517100477000000000000004960000000000025557874000000000000009999123100000010000000000000BRAIECCTF009164
012026010512EQIR11      010FII EQI RECECI           R$  000000000080600000000008230000000000806000000000081100000000008230000000000815000000000082300332000000000000031551000000000025602150000000000000009999123100000010000000000000BREQIRCTF003151
012026010512HBCR11      010FII HBC REN CI           R$  000000001450000000000145000000000013775000000001412800000000144640000000014464000000000000000004000000000000000004000000000000056514000000000000009999123100000010000000000000BRHBCRCTF001161
012026010512HCHG11      010FII HECT CRICI  ER       R$  000000000759300000000080150000000007593000000000763700000000080150000000007748000000000801500009000000000000000088000000000000672140000000000000009999123100000010000000000000BRHCHGCTF001156
012026010512HCRI11      010FII CRIANCA CI           R$  000000002920000000000295710000000029200000000002936100000000292070000000029206000000002957200035000000000000000175000000000005138336000000000000009999123100000010000000000000BRHCRICTF006347
012026010512HCTR11      010FII HECTARE CI           R$  000000000215000000000021690000000002142000000000215600000000021500000000002149000000000215001678000000000000056716000000000122297508000000000000009999123100000010000000000000BRHCTRCTF003187
012026010512HFOF11      010FII HTOPFOF3CI  ER       R$  000000000064300000000006500000000000637000000000064100000000006450000000000645000000000065002096000000000000140690000000000090288740000000000000009999123100000010000000000000BRHFOFCTF002210
012026010512HGBL11      010FII HGBL    CI  ER       R$  000000000097400000000009800000000000927000000000095600000000009530000000000934000000000095300111000000000000003215000000000003076585000000000000009999123100000010000000000000BRHGBLCTF005125
012026010512HGBS11      010FII HEDGEBS CI  ER       R$  000000000199000000000019950000000001985000000000198800000000019950000000001994000000000199506536000000000000191505000000000380824689000000000000009999123100000010000000000000BRHGBSCTF000331
012026010512HGCR11      010FII HGCR PAXCI  ER       R$  000000000971800000000097840000000009700000000000973300000000097460000000009746000000000977402343000000000000026933000000000262143920000000000000009999123100000010000000000000BRHGCRCTF000265
012026010512HGIC11      010FII HGI CRI CI           R$  000000000659500000000065950000000006550000000000658100000000065810000000006581000000000659000008000000000000000021000000000000138206000000000000009999123100000010000000000000BRHGICCTF009158
012026010512HGLG11      010FII HGLG PAXCI  ER       R$  000000001580700000000158100000000015699000000001572800000000157350000000015735000000001575623960000000000000094297000000001483161587000000000000009999123100000010000000000000BRHGLGCTF004291
012026010512HGPO11      010FII HGPO PAXCI           R$  000000001441200000000145500000000014400000000001445100000000144100000000014410000000001448300179000000000000000704000000000010174088000000000000009999123100000010000000000000BRHGPOCTF009166
012026010512HGRE11      010FII HGRE PAXCI  ER       R$  000000001245000000000124500000000012280000000001235100000000123170000000012317000000001238003673000000000000018974000000000234357129000000000000009999123100000010000000000000BRHGRECTF006311
012026010512HGRU11      010FII HGRU PAXCI  ER       R$  000000001258500000000126050000000012570000000001259100000000125830000000012583000000001260404973000000000000037483000000000471979182000000000000009999123100000010000000000000BRHGRUCTF002196
012026010512HLOG11      010FII HEDGELOGCI  ER       R$  000000000091700000000009240000000000916000000000091800000000009170000000000916000000000091700067000000000000001565000000000001437122000000000000009999123100000010000000000000BRHLOGCTF008176
012026010512HOFC11      010FII HOFFICEICI           R$  000000000301300000000030160000000002945000000000296000000000029460000000002945000000000298900052000000000000000852000000000002522157000000000000009999123100000010000000000000BRHOFCCTF009115
012026010512HOSI11      010FII HOUSI   CI  ER       R$  000000000834100000000083500000000008341000000000834900000000083500000000008350000000000839000012000000000000000264000000000002204157000000000000009999123100000010000000000000BRHOSICTF009162
012026010512HPDP11      010FII HEDGEPDPCI  ER       R$  000000000916900000000091700000000009169000000000916900000000091700000000009137000000000929900002000000000000000008000000000000073359000000000000009999123100000010000000000000BRHPDPCTF003171
012026010512HRDF11      010FII HREALTY CI           R$  000000000034400000000003440000000000341000000000034300000000003410000000000341000000000040000007000000000000000302000000000000103667000000000000009999123100000010000000000000BRHRDFCTF000103
012026010512HREC11      010FII HEDGERECCI  ER       R$  000000000081200000000008120000000000804000000000080800000000008100000000000804000000000081000085000000000000011172000000000009028326000000000000009999123100000010000000000000BRHRECCTF005169
012026010512HSAF11      010FII HSI CRI CI  ER       R$  000000000807000000000081400000000007865000000000796900000000080220000000007950000000000802200498000000000000007591000000000060493232000000000000009999123100000010000000000000BRHSAFCTF004167
012026010512HSLG11      010FII HSI LOG CI  ER       R$  000000000911300000000091130000000009005000000000904900000000090200000000009021000000000904601156000000000000007119000000000064424296000000000000009999123100000010000000000000BRHSLGCTF009161
012026010512HSML11      010FII HSI MALLCI  ER       R$  000000000910000000000091400000000009016000000000906500000000090900000000009070000000000909003325000000000000034845000000000315881582000000000000009999123100000010000000000000BRHSMLCTF007180
012026010512HSRE11      010FII HSIRENDACI  ER       R$  000000001078900000000113280000000010600000000001099700000000106000000000010200000000001179900003000000000000000012000000000000131974000000000000009999123100000010000000000000BRHSRECTF001160
012026010512HTMX11      010FII HOTEL MXCI  ER       R$  000000001427400000000144980000000014200000000001428400000000144800000000014480000000001449701084000000000000005852000000000083592867000000000000009999123100000010000000000000BRHTMXCTF000300
012026010512HUCG11      010FII UNIMED CCI  ER       R$  000000000879900000000090000000000008725000000000886500000000090000000000008725000000000900000007000000000000000022000000000000195047000000000000009999123100000010000000000000BRHUCGCTF004126
012026010512EMET11      010FII EMET    CI           R$  000000000107000000000010700000000001070000000000107000000000010700000000000971000000000107000001000000000000000001000000000000001070000000000000009999123100000010000000000000BREMETCTF007106
012026010512ALZC11      010FII ALIANZACCI           R$  000000000078200000000007820000000000773000000000077500000000007760000000000774000000000077600574000000000000023151000000000017953699000000000000009999123100000010000000000000BRALZCCTF016123
012026010512ALZR11      010FII ALIANZA CI           R$  000000000107500000000010780000000001070000000000107500000000010760000000001076000000000107704149000000000000187798000000000202021483000000000000009999123100000010000000000000BRALZRCTF006202
012026010512PVBI11      010FII PVBI VBICI  ER       R$  000000000815900000000081610000000008011000000000806400000000080200000000008020000000000803817152000000000000050085000000000403886700000000000000009999123100000010000000000000BRPVBICTF003171
012026010512BTHI11      010BTG HOTEL FICI           R$  000000000445700000000045260000000004348000000000444500000000044000000000004395000000000440000045000000000000000443000000000001969478000000000000009999123100000010000000000000BRBTHICTF004127
012026010512BTLG11      010FII BTLG    CI           R$  000000001036800000000103790000000010317000000001034200000000103510000000010351000000001037921372000000000000130981000000001354636607000000000000009999123100000010000000000000BRBTLGCTF000183
012026010512BTYU11      010FII BTYU    CI           R$  000000000094300000000010050000000000897000000000091500000000009900000000000930000000000098000118000000000000001602000000000001466868000000000000009999123100000010000000000000BRBTYUCTF004120
012026010512TJKB11      010FII TJK RENDCI           R$  000000002595000000000259500000000025301000000002560100000000259000000000025305000000002590000019000000000000000557000000000014260264000000000000009999123100000010000000000000BRTJKBCTF006149
