00COTAHIST.2026BOVESPA 20260126                                                                                                                                                                                                                      
012026012602CXSE3       010CAIXA SEGURION      NM   R$  000000000171100000000017220000000001698000000000171500000000017200000000001717000000000172112152000000000003214000000000005512906700000000000000009999123100000010000000000000BRCXSEACNOR7114
012026012602CYRE3       010CYRELA REALTON      NM   R$  000000000281700000000028300000000002760000000000279000000000028060000000002805000000000281421405000000000004259200000000011886267200000000000000009999123100000010000000000000BRCYREACNOR7143
012026012602CYRE4       010CYRELA REALTPN      NM   R$  000000000265100000000026940000000002625000000000265900000000026890000000002663000000000268903304000000000000580800000000001544369800000000000000009999123100000010000000000000BRCYREACNPR4114
012026012602RAIZ4       010RAIZEN      PN      N2   R$  000000000008200000000000840000000000081000000000008200000000000830000000000083000000000008409671000000000018236800000000001513599700000000000000009999123100000010000000000000BRRAIZACNPR6112
012026012602RANI3       010IRANI       ON      NM   R$  000000000093800000000009460000000000912000000000092100000000009220000000000920000000000092201473000000000000446400000000000411367800000000000000009999123100000010000000000000BRRANIACNOR5079
012026012602ESPA3       010ESPACOLASER ON      NM   R$  000000000008700000000000900000000000084000000000008600000000000860000000000085000000000008600348000000000000720800000000000062286100000000000000009999123100000010000000000000BRESPAACNOR7105
012026012602ETER3       010ETERNIT     ON      NM   R$  000000000041400000000004180000000000406000000000041100000000004110000000000410000000000041100335000000000000085800000000000035297700000000000000009999123100000010000000000000BRETERACNOR3246
012026012602EGIE3       010ENGIE BRASILON      NM   R$  000000000332600000000033500000000003291000000000332800000000033380000000003337000000000334308292000000000001473700000000004905036000000000000000009999123100000010000000000000BREGIEACNOR9132
012026012602TRIS3       010TRISUL      ON      NM   R$  000000000065900000000006840000000000650000000000066800000000006840000000000677000000000068401176000000000000640600000000000428056200000000000000009999123100000010000000000000BRTRISACNOR4122
012026012602TTEN3       0103TENTOS     ON      NM   R$  000000000159300000000016290000000001565000000000160400000000016290000000001618000000000163009738000000000001592200000000002554149600000000000000009999123100000010000000000000BRTTENACNOR0105
012026012602TUPY3       010TUPY        ON      NM   R$  000000000127100000000012950000000001229000000000125500000000012710000000001270000000000127104956000000000001264700000000001587223600000000000000009999123100000010000000000000BRTUPYACNOR1185
012026012602EUCA4       010EUCATEX     PN      N1   R$  000000000195500000000019990000000001955000000000197500000000019800000000001961000000000198100168000000000000023500000000000046424300000000000000009999123100000010000000000000BREUCAACNPR8046
012026012602EVEN3       010EVEN        ON      NM   R$  000000000075400000000007710000000000739000000000075500000000007710000000000764000000000077202268000000000000504700000000000381501200000000000000009999123100000010000000000000BREVENACNOR8121
012026012602EZTC3       010EZTEC       ON      NM   R$  000000000147800000000015450000000001434000000000148700000000015320000000001532000000000153309836000000000004024100000000005986666900000000000000009999123100000010000000000000BREZTCACNOR0132
012026012602CALI3       010CONST A LINDON           R$  000000000152500000000016000000000001525000000000153100000000016000000000001560000000000164500005000000000000001100000000000001685000000000000000009999123100000010000000000000BRCALIACNOR1138
012026012602CAMB3       010CAMBUCI     ON           R$  000000000095100000000009610000000000949000000000095600000000009550000000000955000000000096200174000000000000050900000000000048675400000000000000009999123100000010000000000000BRCAMBACNOR4136
012026012602BRSR3       010BANRISUL    ON      N1   R$  000000000184800000000018500000000001825000000000184500000000018490000000001842000000000185000054000000000000008700000000000016056000000000000000009999123100000010000000000000BRBRSRACNOR3197
012026012602BRSR5       010BANRISUL    PNA     N1   R$  000000000172500000000017500000000001725000000000174000000000017500000000001750000000000189500003000000000000000500000000000000870000000000000000009999123100000010000000000000BRBRSRACNPA6201
012026012602BRSR6       010BANRISUL    PNB     N1   R$  000000000178100000000017960000000001756000000000177800000000017810000000001780000000000178105534000000000001418900000000002523713200000000000000009999123100000010000000000000BRBRSRACNPB4200
012026012602HYPE3       010HYPERA      ON      NM   R$  000000000253800000000025740000000002511000000000253000000000025270000000002525000000000253810288000000000002423500000000006133507900000000000000009999123100000010000000000000BRHYPEACNOR0149
012026012602TPIS3       010TRIUNFO PARTON      NM   R$  000000000051300000000005270000000000510000000000051800000000005270000000000522000000000052700075000000000000045300000000000023484900000000000000009999123100000010000000000000BRTPISACNOR8120
012026012602TRAD3       010TC          ON      NM   R$  000000000033500000000003400000000000333000000000033400000000003350000000000335000000000034600043000000000000016600000000000005557900000000000000009999123100000010000000000000BRTRADACNOR3102
012026012602BEEF3       010MINERVA     ON      NM   R$  000000000061100000000006240000000000607000000000061700000000006190000000000619000000000062012882000000000011755600000000007255565400000000000000009999123100000010000000000000BRBEEFACNOR6120
012026012602BRBI11      010BR PARTNERS UNT     N2   R$  000000000188700000000019450000000001880000000000192000000000019320000000001932000000000193403063000000000000445900000000000856214000000000000000009999123100000010000000000000BRBRBICDAM10116
012026012602BRKM3       010BRASKEM     ON      N1   R$  000000000093100000000009520000000000910000000000093800000000009450000000000938000000000095400218000000000000064500000000000060533000000000000000009999123100000010000000000000BRBRKMACNOR1119
012026012602BRAP3       010BRADESPAR   ON      N1   R$  000000000210900000000021150000000002050000000000207700000000020510000000002050000000000206700393000000000000089500000000000185948500000000000000009999123100000010000000000000BRBRAPACNOR5153
012026012602BRAP4       010BRADESPAR   PN      N1   R$  000000000240900000000024280000000002337000000000237000000000023560000000002352000000000235611359000000000006524300000000015462835200000000000000009999123100000010000000000000BRBRAPACNPR2153
012026012602CEBR6       010CEB         PNB          R$  000000000298200000000029820000000002933000000000296300000000029820000000002960000000000299500017000000000000002800000000000008296600000000000000009999123100000010000000000000BRCEBRACNPB6128
012026012602CEDO4       010CEDRO       PN      N1   R$  000000000091900000000009190000000000918000000000091800000000009180000000000918000000000095000002000000000000000700000000000000642700000000000000009999123100000010000000000000BRCEDOACNPR5128
012026012602CEEB3       010COELBA      ON           R$  000000000435100000000043510000000004221000000000431300000000042210000000004220000000000441000007000000000000001100000000000004744800000000000000009999123100000010000000000000BRCEEBACNOR3207
012026012602CEED3       010CEEE-D      ON           R$  000000000089600000000008960000000000896000000000089600000000008960000000000895000000000099800001000000000000000100000000000000089600000000000000009999123100000010000000000000BRCEEDACNOR9103
012026012602CEGR3       010CEG         ON           R$  000000000550000000000055000000000005500000000000550000000000055000000000003070000000000850000001000000000000000100000000000000550000000000000000009999123100000010000000000000BRCEGRACNOR4148
012026012602CGAS3       010COMGAS      ON           R$  000000001445900000000144970000000012901000000001360100000000130000000000012700000000001300000007000000000000000700000000000009520700000000000000009999123100000010000000000000BRCGASACNOR0168
012026012602ANIM3       010ANIMA       ON      NM   R$  000000000048600000000005080000000000474000000000049000000000005050000000000504000000000050506924000000000010061800000000004934676100000000000000009999123100000010000000000000BRANIMACNOR6110
012026012602ARML3       010ARMAC       ON      NM   R$  000000000045000000000004540000000000439000000000044700000000004540000000000449000000000045401315000000000000362000000000000161947900000000000000009999123100000010000000000000BRARMLACNOR1117
012026012602ALLD3       010ALLIED      ON      NM   R$  000000000084700000000008650000000000844000000000085300000000008580000000000853000000000085801371000000000000861200000000000735096500000000000000009999123100000010000000000000BRALLDACNOR3109
012026012602ARND3       010ARANDU      ON      NM   R$  000000000008600000000000860000000000086000000000008600000000000860000000000085000000000008900001000000000000000300000000000000025800000000000000009999123100000010000000000000BRARNDACNOR6100
012026012602ASAI3       010ASSAI       ON      NM   R$  000000000080900000000008300000000000793000000000081300000000008230000000000822000000000082317211000000000027517100000000022383570600000000000000009999123100000010000000000000BRASAIACNOR0109
012026012602ATED3       010ATOM EDUC   ON           R$  000000000020500000000002070000000000204000000000020400000000002040000000000204000000000020700017000000000000009000000000000001843200000000000000009999123100000010000000000000BRATEDACNOR1100
012026012602AUAU3       010PETZCOBASI  ON      NM   R$  000000000034500000000003470000000000333000000000033700000000003340000000000334000000000033803871000000000004728800000000001595002700000000000000009999123100000010000000000000BRAUAUACNOR1100
012026012602BBSE3       010BBSEGURIDADEON      NM   R$  000000000372100000000037330000000003661000000000369600000000037070000000003706000000000371215310000000000004763400000000017606994800000000000000009999123100000010000000000000BRBBSEACNOR5127
012026012602ALUP11      010ALUPAR      UNT     N2   R$  000000000350800000000035100000000003437000000000347500000000034990000000003480000000000349905856000000000000963500000000003348513500000000000000009999123100000010000000000000BRALUPCDAM15126
012026012602ALUP3       010ALUPAR      ON      N2   R$  000000000126900000000012850000000001254000000000126800000000012540000000001270000000000130000016000000000000002400000000000003044700000000000000009999123100000010000000000000BRALUPACNOR8126
012026012602ALUP4       010ALUPAR      PN      N2   R$  000000000111400000000011150000000001064000000000109400000000010900000000001076000000000109000078000000000000011600000000000012700400000000000000009999123100000010000000000000BRALUPACNPR5126
012026012602AMAR3       010LOJAS MARISAON      NM   R$  000000000010100000000001020000000000100000000000010000000000001000000000000100000000000010100290000000000000218600000000000021930600000000000000009999123100000010000000000000BRAMARACNOR4115
012026012602AMOB3       010AUTOMOB     ON      NM   R$  000000000137600000000013830000000001330000000000135200000000013440000000001342000000000136000334000000000000045900000000000062078300000000000000009999123100000010000000000000BRAMOBACNOR9101
012026012602DASA3       010DASA        ON      NM   R$  000000000045500000000004630000000000441000000000045200000000004440000000000444000000000044503629000000000001897400000000000859411300000000000000009999123100000010000000000000BRDASAACNOR1123
012026012602TASA3       010TAURUS ARMASON      N2   R$  000000000055400000000005750000000000554000000000055700000000005610000000000555000000000056200135000000000000089600000000000049983800000000000000009999123100000010000000000000BRTASAACNOR7106
012026012602TASA4       010TAURUS ARMASPN      N2   R$  000000000055600000000005590000000000544000000000054900000000005510000000000549000000000055101113000000000000336500000000000184960500000000000000009999123100000010000000000000BRTASAACNPR4106
012026012602TCSA3       010TECNISA     ON      NM   R$  000000000013000000000001410000000000130000000000013500000000001410000000000140000000000014100262000000000000267700000000000036278600000000000000009999123100000010000000000000BRTCSAACNOR3112
012026012602TECN3       010TECHNOS     ON      NM   R$  000000000075400000000007600000000000735000000000074700000000007600000000000760000000000076400068000000000000017500000000000013076200000000000000009999123100000010000000000000BRTECNACNOR6111
012026012602TELB3       010TELEBRAS    ON           R$  000000000110000000000011500000000001100000000000112500000000011450000000001130000000000116500004000000000000000400000000000000450000000000000000009999123100000010000000000000BRTELBACNOR2142
012026012602TELB4       010TELEBRAS    PN           R$  000000000079300000000008150000000000792000000000079500000000007920000000000790000000000080000006000000000000000800000000000000636300000000000000009999123100000010000000000000BRTELBACNPR9142
012026012602TEND3       010TENDA       ON      NM   R$  000000000247000000000025310000000002439000000000248700000000025210000000002520000000000252408348000000000002144300000000005333293200000000000000009999123100000010000000000000BRTENDACNOR4114
012026012602TFCO4       010TRACK FIELD PN      N2   R$  000000000160000000000016000000000001546000000000156800000000015860000000001580000000000158702417000000000000379600000000000595560000000000000000009999123100000010000000000000BRTFCOACNPR8121
012026012602ALOS3       010ALLOS       ON  ED  NM   R$  000000000296200000000029940000000002922000000000296600000000029820000000002982000000000299213393000000000003164000000000009385403700000000000000009999123100000010000000000000BRALOSACNOR5118
012026012602ALPA3       010ALPARGATAS  ON      N1   R$  000000000108900000000010970000000001065000000000108600000000010770000000001075000000000109700091000000000000028500000000000030961800000000000000009999123100000010000000000000BRALPAACNOR0234
012026012602ALPA4       010ALPARGATAS  PN      N1   R$  000000000136200000000014070000000001341000000000138300000000014010000000001395000000000140118236000000000005351500000000007402029300000000000000009999123100000010000000000000BRALPAACNPR7235
012026012602BALM4       010BAUMER      PN           R$  000000000183400000000018700000000001834000000000184400000000018700000000001835000000000189000004000000000000000700000000000001291100000000000000009999123100000010000000000000BRBALMACNPR2060
012026012602BAZA3       010AMAZONIA    ON           R$  000000000805900000000080890000000008038000000000806300000000080570000000008053000000000807600033000000000000004500000000000036287600000000000000009999123100000010000000000000BRBAZAACNOR0180
012026012602BBAS3       010BRASIL      ON      NM   R$  000000000244000000000024660000000002389000000000242600000000024400000000002439000000000244151300000000000042487400000000103088675600000000000000009999123100000010000000000000BRBBASACNOR3334
012026012602CGRA3       010GRAZZIOTIN  ON           R$  000000000270500000000027200000000002700000000000270600000000027200000000002661000000000270000005000000000000001300000000000003518900000000000000009999123100000010000000000000BRCGRAACNOR2088
012026012602CGRA4       010GRAZZIOTIN  PN           R$  000000000265900000000026860000000002650000000000266500000000026860000000002652000000000268600040000000000000006200000000000016525200000000000000009999123100000010000000000000BRCGRAACNPR9088
012026012602CLSC3       010CELESC      ON      N2   R$  000000001200000000000130000000000012000000000001255000000000130000000000012100000000001300000004000000000000000400000000000005020000000000000000009999123100000010000000000000BRCLSCACNOR6159
012026012602CLSC4       010CELESC      PN      N2   R$  000000001400100000000143000000000013912000000001408800000000140050000000013902000000001410000013000000000000001500000000000021132700000000000000009999123100000010000000000000BRCLSCACNPR3138
012026012602CMIG3       010CEMIG       ON      N1   R$  000000000152900000000015290000000001491000000000150300000000015070000000001507000000000151300605000000000000082800000000000124493400000000000000009999123100000010000000000000BRCMIGACNOR6251
012026012602CMIG4       010CEMIG       PN      N1   R$  000000000117300000000011750000000001136000000000114400000000011420000000001142000000000114321244000000000018044000000000020655548400000000000000009999123100000010000000000000BRCMIGACNPR3252
012026012602CSUD3       010CSU DIGITAL ON      NM   R$  000000000179600000000018050000000001771000000000179000000000017870000000001787000000000180300749000000000000104700000000000187513300000000000000009999123100000010000000000000BRCSUDACNOR5117
012026012602CTKA4       010KARSTEN     PN           R$  000000000417700000000044990000000004177000000000432000000000044750000000004094000000000447500005000000000000000900000000000003888500000000000000009999123100000010000000000000BRCTKAACNPR7043
012026012602ENEV3       010ENEVA       ON      NM   R$  000000000225400000000022540000000002184000000000220000000000022060000000002200000000000220625130000000000013435900000000029570220700000000000000009999123100000010000000000000BRENEVACNOR8107
012026012602AERI3       010AERIS       ON      NM   R$  000000000031800000000003240000000000317000000000032000000000003190000000000318000000000031900259000000000000066400000000000021263800000000000000009999123100000010000000000000BRAERIACNOR4102
012026012602AFLT3       010AFLUENTE T  ON           R$  000000000074900000000007490000000000749000000000074900000000007490000000000733000000000074500001000000000000000100000000000000074900000000000000009999123100000010000000000000BRAFLTACNOR1126
012026012602AGRO3       010BRASILAGRO  ON      NM   R$  000000000216400000000022170000000002150000000000218200000000021940000000002185000000000219401594000000000000234200000000000511074500000000000000009999123100000010000000000000BRAGROACNOR7116
012026012602BNBR3       010NORD BRASIL ON           R$  000000001170000000000117000000000011700000000001170000000000117000000000011571000000001170000003000000000000000300000000000003510000000000000000009999123100000010000000000000BRBNBRACNOR8211
012026012602CBAV3       010CBA         ON      NM   R$  000000000096900000000010140000000000962000000000099000000000009800000000000979000000000098117544000000000009315700000000009227105300000000000000009999123100000010000000000000BRCBAVACNOR5104
012026012602CEAB3       010CEA MODAS   ON      NM   R$  000000000114900000000011500000000001110000000000112400000000011260000000001126000000000112717676000000000008555700000000009623708400000000000000009999123100000010000000000000BRCEABACNOR1105
012026012602CEBR3       010CEB         ON           R$  000000000296000000000029900000000002937000000000297400000000029900000000002990000000000302500020000000000000004000000000000011896200000000000000009999123100000010000000000000BRCEBRACNOR5129
012026012602CEBR5       010CEB         PNA          R$  000000000272100000000027700000000002719000000000273900000000027700000000002714000000000277000008000000000000002400000000000006575000000000000000009999123100000010000000000000BRCEBRACNPA8128
012026012602SCAR3       010SAO CARLOS  ON      NM   R$  000000000143100000000014670000000001431000000000145500000000014570000000001456000000000146100146000000000000028200000000000041047100000000000000009999123100000010000000000000BRSCARACNOR7133
012026012602SEER3       010SER EDUCA   ON      NM   R$  000000000108600000000011350000000001065000000000109900000000011350000000001128000000000113505891000000000002747600000000003020583700000000000000009999123100000010000000000000BRSEERACNOR5120
012026012602SEQL3       010SEQUOIA LOG ON      NM   R$  000000000017500000000001750000000000163000000000016700000000001670000000000166000000000016700283000000000000246300000000000041244400000000000000009999123100000010000000000000BRSEQLACNOR2108
012026012602SHOW3       010TIME FOR FUNON      NM   R$  000000000061500000000006350000000000608000000000061800000000006200000000000615000000000062000231000000000000051800000000000032020000000000000000009999123100000010000000000000BRSHOWACNOR7106
012026012602SHUL4       010SCHULZ      PN           R$  000000000051700000000005230000000000510000000000051900000000005220000000000520000000000052200678000000000000441500000000000229505900000000000000009999123100000010000000000000BRSHULACNPR4163
012026012602SIMH3       010SIMPAR      ON      NM   R$  000000000061800000000006230000000000590000000000060700000000006140000000000614000000000061611286000000000008172600000000004964346600000000000000009999123100000010000000000000BRSIMHACNOR0109
012026012602SLCE3       010SLC AGRICOLAON      NM   R$  000000000159500000000016070000000001584000000000159800000000016020000000001600000000000160406423000000000001809800000000002892602200000000000000009999123100000010000000000000BRSLCEACNOR2128
012026012602HBRE3       010HBR REALTY  ON      NM   R$  000000000034600000000003460000000000335000000000033900000000003430000000000343000000000034400385000000000000429800000000000145782400000000000000009999123100000010000000000000BRHBREACNOR4101
012026012602HBSA3       010HIDROVIAS   ON      NM   R$  000000000041400000000004140000000000398000000000040200000000004000000000000399000000000040002118000000000001632400000000000656520800000000000000009999123100000010000000000000BRHBSAACNOR0102
012026012602DESK3       010DESKTOP     ON      NM   R$  000000000175600000000017600000000001581000000000164700000000016640000000001664000000000168311567000000000003304000000000005442384400000000000000009999123100000010000000000000BRDESKACNOR2106
012026012602DEXP3       010DEXXOS PAR  ON      N1   R$  000000000074100000000007410000000000729000000000073400000000007310000000000731000000000073600871000000000000185600000000000136334100000000000000009999123100000010000000000000BRDEXPACNOR1109
012026012602DEXP4       010DEXXOS PAR  PN      N1   R$  000000000074900000000007490000000000730000000000073200000000007300000000000725000000000073500020000000000000003600000000000002637400000000000000009999123100000010000000000000BRDEXPACNPR8109
012026012602DIRR3       010DIRECIONAL  ON      NM   R$  000000000137800000000013890000000001340000000000135800000000013660000000001365000000000137019399000000000008250700000000011205100000000000000000009999123100000010000000000000BRDIRRACNOR0123
012026012602BPAC11      010BTGP BANCO  UNT     N2   R$  000000000594800000000060630000000005889000000000599600000000060230000000006022000000000602331123000000000011168400000000066976216800000000000000009999123100000010000000000000BRBPACUNT006128
012026012602BPAC3       010BTGP BANCO  ON      N2   R$  000000000405900000000044300000000004000000000000411300000000041310000000004120000000000424700060000000000000008500000000000034966100000000000000009999123100000010000000000000BRBPACACNOR7139
012026012602BPAC5       010BTGP BANCO  PNA     N2   R$  000000000118400000000011910000000001125000000000116000000000011710000000001152000000000117100037000000000000023200000000000026924700000000000000009999123100000010000000000000BRBPACACNPA0139
012026012602BRST3       010BRISANET    ON      NM   R$  000000000034300000000003430000000000338000000000033900000000003380000000000338000000000034000737000000000000156400000000000053143300000000000000009999123100000010000000000000BRBRSTACNOR9102
012026012602BSLI3       010BRB BANCO   ON           R$  000000000063800000000006400000000000610000000000062200000000006200000000000615000000000062000077000000000000014200000000000008835000000000000000009999123100000010000000000000BRBSLIACNOR5198
012026012602BSLI4       010BRB BANCO   PN           R$  000000000070900000000007450000000000674000000000069700000000006900000000000682000000000071200122000000000000030300000000000021125600000000000000009999123100000010000000000000BRBSLIACNPR2198
012026012602AVLL3       010ALPHAVILLE  ON      NM   R$  000000000008800000000000890000000000088000000000008800000000000880000000000085000000000009100007000000000000046100000000000004057900000000000000009999123100000010000000000000BRAVLLACNOR5103
012026012602AXIA3       010AXIA ENERGIAON      N1   R$  000000000543500000000054640000000005300000000000535000000000053380000000005338000000000533942951000000000012921900000000069135540500000000000000009999123100000010000000000000BRAXIAACNOR0102
012026012602AXIA6       010AXIA ENERGIAPNB     N1   R$  000000000577000000000057900000000005580000000000563900000000056170000000005615000000000561711003000000000002209500000000012460288900000000000000009999123100000010000000000000BRAXIAACNPB1103
012026012602AXIA7       010AXIA ENERGIAPNC     N1   R$  000000000526600000000053000000000005096000000000517200000000051620000000005149000000000517914164000000000003148600000000016287114800000000000000009999123100000010000000000000BRAXIAACNPC9100
012026012602BMEB3       010MERCANTIL   ON      N1   R$  000000000510000000000052000000000005062000000000511800000000051850000000005184000000000539900006000000000000000600000000000003071000000000000000009999123100000010000000000000BRBMEBACNOR8210
012026012602BMEB4       010MERCANTIL   PN      N1   R$  000000000648100000000070100000000006481000000000681700000000070100000000006940000000000701000297000000000000043900000000000299266800000000000000009999123100000010000000000000BRBMEBACNPR5215
012026012602BMGB4       010BANCO BMG   PN      N1   R$  000000000049800000000005000000000000482000000000048900000000004870000000000487000000000049002925000000000002716800000000001329113200000000000000009999123100000010000000000000BRBMGBACNPR0117
012026012602BMIN4       010MERC INVEST PN           R$  000000000209900000000020990000000002099000000000209900000000020990000000001920000000000209500001000000000000000100000000000000209900000000000000009999123100000010000000000000BRBMINACNPR1177
012026012602BMKS3       010BIC MONARK  ON           R$  000000003920000000000392640000000038211000000003846800000000384060000000038406000000003909900013000000000000000057000000000002192701000000000000009999123100000010000000000000BRBMKSACNOR9169
012026012602BMOB3       010BEMOBI TECH ON      NM   R$  000000000262100000000026650000000002560000000000260300000000026270000000002620000000000262703149000000000000533600000000001388991900000000000000009999123100000010000000000000BRBMOBACNOR7107
012026012602TGMA3       010TEGMA       ON      NM   R$  000000000376100000000037990000000003691000000000375200000000037990000000003776000000000380001046000000000000199300000000000747876300000000000000009999123100000010000000000000BRTGMAACNOR7150
012026012602TIMS3       010TIM         ON      NM   R$  000000000245700000000024700000000002427000000000245500000000024640000000002460000000000246411949000000000003618200000000008884807800000000000000009999123100000010000000000000BRTIMSACNOR5129
012026012602TKNO4       010TEKNO       PN           R$  000000002120000000000212000000000021199000000002119900000000211990000000020500000000002149900002000000000000000200000000000004239900000000000000009999123100000010000000000000BRTKNOACNPR5080
012026012602TOKY3       010GRUPO TOKY  ON      NM   R$  000000000006500000000000650000000000061000000000006200000000000610000000000061000000000006200598000000000000447900000000000027992600000000000000009999123100000010000000000000BRTOKYACNOR5101
012026012602TOTS3       010TOTVS       ON      NM   R$  000000000469000000000047330000000004626000000000467100000000047220000000004714000000000472411736000000000002537200000000011853211900000000000000009999123100000010000000000000BRTOTSACNOR8150
012026012602ALPK3       010ESTAPAR     ON      NM   R$  000000000046300000000004810000000000459000000000047000000000004720000000000469000000000047700513000000000000209900000000000098797700000000000000009999123100000010000000000000BRALPKACNOR9101
012026012602BRAV3       010BRAVA       ON      NM   R$  000000000179800000000018150000000001757000000000178400000000018010000000001800000000000180117698000000000008341300000000014883691500000000000000009999123100000010000000000000BRBRAVACNOR3103
012026012602PDGR3       010PDG REALT   ON      NM   R$  000000000019900000000003930000000000192000000000029000000000003470000000000347000000000035002240000000000001361700000000000395912400000000000000009999123100000010000000000000BRPDGRACNOR8123
012026012602PDTC3       010PADTEC      ON      NM   R$  000000000014800000000001660000000000147000000000015500000000001600000000000159000000000016000204000000000000117700000000000018339500000000000000009999123100000010000000000000BRPDTCACNOR3101
012026012602PEAB4       010PAR AL BAHIAPN           R$  000000000380000000000039960000000003800000000000389700000000039960000000003821000000000420000004000000000000000800000000000003118200000000000000009999123100000010000000000000BRPEABACNPR0137
012026012602PETR3       010PETROBRAS   ON      N2   R$  000000000381000000000038480000000003763000000000379300000000037850000000003785000000000378820309000000000014262600000000054110253800000000000000009999123100000010000000000000BRPETRACNOR9212
012026012602PETR4       010PETROBRAS   PN      N2   R$  000000000353700000000035700000000003504000000000353200000000035360000000003535000000000353656216000000000039869600000000140823082500000000000000009999123100000010000000000000BRPETRACNPR6223
012026012602COCE5       010COELCE      PNA          R$  000000000333800000000033380000000003260000000000326800000000032600000000003260000000000330000109000000000000022400000000000073224000000000000000009999123100000010000000000000BRCOCEACNPA3150
012026012602COGN3       010COGNA ON    ON      NM   R$  000000000044500000000004600000000000434000000000044700000000004550000000000455000000000045626641000000000047993200000000021483714200000000000000009999123100000010000000000000BRCOGNACNOR2110
012026012602RAIL3       010RUMO S.A.   ON      NM   R$  000000000148700000000014940000000001460000000000148100000000014850000000001484000000000148519341000000000009113000000000013503685300000000000000009999123100000010000000000000BRRAILACNOR9106
012026012602CSNA3       010SID NACIONALON           R$  000000000102600000000010480000000000991000000000101800000000009960000000000995000000000099718848000000000013318700000000013561633500000000000000009999123100000010000000000000BRCSNAACNOR6263
012026012602AALR3       010ALLIAR      ON      NM   R$  000000000044700000000004470000000000422000000000043000000000004290000000000428000000000042900099000000000000039500000000000016986000000000000000009999123100000010000000000000BRAALRACNOR6104
012026012602ABCB4       010ABC BRASIL  PN      N2   R$  000000000258100000000026090000000002544000000000258800000000025960000000002596000000000260703315000000000000655500000000001696591700000000000000009999123100000010000000000000BRABCBACNPR4150
012026012602ABEV3       010AMBEV S/A   ON           R$  000000000149700000000015140000000001473000000000149400000000015050000000001504000000000150521590000000000022156500000000033117468000000000000000009999123100000010000000000000BRABEVACNOR1134
012026012602B3SA3       010B3          ON      NM   R$  000000000158700000000015910000000001535000000000156600000000015680000000001567000000000156849979000000000041590300000000065156674800000000000000009999123100000010000000000000BRB3SAACNOR6140
012026012602BIOM3       010BIOMM       ON      MA   R$  000000000062700000000006310000000000594000000000061400000000006250000000000621000000000062500323000000000000124300000000000076357600000000000000009999123100000010000000000000BRBIOMACNOR2113
012026012602TAEE11      010TAESA       UNT     N2   R$  000000000430000000000043280000000004242000000000429700000000043280000000004313000000000432808508000000000001718300000000007385111700000000000000009999123100000010000000000000BRTAEECDAM10153
012026012602TAEE3       010TAESA       ON      N2   R$  000000000141500000000014280000000001402000000000141800000000014260000000001422000000000142600326000000000000062800000000000089102100000000000000009999123100000010000000000000BRTAEEACNOR9153
012026012602TAEE4       010TAESA       PN      N2   R$  000000000142700000000014480000000001419000000000143400000000014430000000001439000000000144500688000000000000137100000000000196690000000000000000009999123100000010000000000000BRTAEEACNPR6153
012026012602GOLL54      010GOL         PN *P   N2   R$  000000000102500000000010330000000001025000000000102700000000010280000000001028000000000103000270000000000058728000000000000060326938000000000000009999123100010000000000000000BRGOLLA01PR5100
012026012602GRND3       010GRENDENE    ON      NM   R$  000000000048600000000004910000000000478000000000048300000000004860000000000485000000000048602858000000000002448600000000001182949600000000000000009999123100000010000000000000BRGRNDACNOR3182
012026012602GUAR3       010GUARARAPES  ON      NM   R$  000000000094700000000009580000000000924000000000094300000000009490000000000949000000000095105460000000000003861200000000003644465800000000000000009999123100000010000000000000BRGUARACNOR4175
012026012602INEP3       010INEPAR      ON           R$  000000000014000000000001440000000000138000000000014200000000001440000000000139000000000014400049000000000000043600000000000006220600000000000000009999123100000010000000000000BRINEPACNOR1145
012026012602INEP4       010INEPAR      PN           R$  000000000012800000000001280000000000122000000000012400000000001270000000000124000000000012700012000000000000006300000000000000781300000000000000009999123100000010000000000000BRINEPACNPR8145
012026012602INTB3       010INTELBRAS   ON      NM   R$  000000000115700000000011620000000001134000000000115000000000011620000000001156000000000116205903000000000002155700000000002479159500000000000000009999123100000010000000000000BRINTBACNOR9115
012026012602IRBR3       010IRBBRASIL REON      NM   R$  000000000551100000000056130000000005480000000000555400000000056050000000005601000000000560604284000000000000680500000000003779573700000000000000009999123100000010000000000000BRIRBRACNOR4113
012026012602JSLG3       010JSL         ON      NM   R$  000000000067700000000007220000000000657000000000069100000000007200000000000720000000000072102760000000000001107000000000000765101800000000000000009999123100000010000000000000BRJSLGACNOR2123
012026012602RENT4       010LOCALIZA    PN      NM   R$  000000000435300000000044910000000004295000000000441300000000044720000000004442000000000447301451000000000000236200000000001042470700000000000000009999123100000010000000000000BRRENTACNPR1100
012026012602KEPL3       010KEPLER WEBERON      NM   R$  000000000101100000000010350000000001011000000000102700000000010320000000001032000000000103305168000000000002399600000000002465324900000000000000009999123100000010000000000000BRKEPLACNOR1069
012026012602KLBN11      010KLABIN S/A  UNT     N2   R$  000000000198000000000019800000000001907000000000193900000000019190000000001916000000000192018267000000000009019200000000017488715500000000000000009999123100000010000000000000BRKLBNCDAM18151
012026012602KLBN3       010KLABIN S/A  ON      N2   R$  000000000039000000000003980000000000385000000000038900000000003870000000000386000000000038801264000000000000966800000000000376790400000000000000009999123100000010000000000000BRKLBNACNOR2179
012026012602KLBN4       010KLABIN S/A  PN      N2   R$  000000000039000000000003910000000000382000000000038400000000003850000000000384000000000038502488000000000002746600000000001056873200000000000000009999123100000010000000000000BRKLBNACNPR9179
012026012602MILS3       010MILLS       ON      NM   R$  000000000148900000000015020000000001450000000000148400000000015020000000001491000000000150202223000000000000776800000000001153402300000000000000009999123100000010000000000000BRMILSACNOR2132
012026012602FESA3       010FERBASA     ON      N1   R$  000000000117700000000011770000000001177000000000117700000000011770000000001177000000000124700001000000000000000100000000000000117700000000000000009999123100000010000000000000BRFESAACNOR8194
012026012602FESA4       010FERBASA     PN      N1   R$  000000000072500000000007410000000000723000000000072900000000007250000000000725000000000072702606000000000001009800000000000736781700000000000000009999123100000010000000000000BRFESAACNPR5090
012026012602FHER3       010FER HERINGERON      NM   R$  000000000045200000000004530000000000442000000000044600000000004420000000000441000000000044900009000000000000001900000000000000849200000000000000009999123100000010000000000000BRFHERACNOR5103
012026012602FICT3       010FICTORALIMENON           R$  000000000016000000000001620000000000154000000000015600000000001570000000000155000000000015700080000000000000034400000000000005391300000000000000009999123100000010000000000000BRFICTACNOR3101
012026012602FIEI3       010FICA        ON           R$  000000000149000000000014900000000001490000000000149000000000014900000000001050000000000147700001000000000000000100000000000000149000000000000000009999123100000010000000000000BRFIEIACNOR2100
012026012602FIQE3       010UNIFIQUE    ON      NM   R$  000000000051300000000005180000000000499000000000050900000000005160000000000515000000000051600950000000000000563400000000000287278800000000000000009999123100000010000000000000BRFIQEACNOR5112
012026012602MLAS3       010MULTILASER  ON      NM   R$  000000000014400000000001450000000000139000000000014100000000001440000000000142000000000014400532000000000000569500000000000080827800000000000000009999123100000010000000000000BRMLASACNOR9102
012026012602MNDL3       010MUNDIAL     ON           R$  000000000166000000000016900000000001660000000000168500000000016880000000001624000000000169000005000000000000000800000000000001348000000000000000009999123100000010000000000000BRMNDLACNOR4109
012026012602MNPR3       010MINUPAR     ON           R$  000000000044700000000004490000000000412000000000043100000000004320000000000427000000000043200071000000000000023100000000000009976500000000000000009999123100000010000000000000BRMNPRACNOR5123
012026012602MOAR3       010MONT ARANHA ON           R$  000000000624800000000062480000000006248000000000624800000000062480000000005991000000000659800001000000000000000100000000000000624800000000000000009999123100000010000000000000BRMOARACNOR5242
012026012602MOTV3       010MOTIVA SA   ON      NM   R$  000000000171300000000017200000000001683000000000169900000000016940000000001693000000000170316272000000000007478200000000012708619000000000000000009999123100000010000000000000BRMOTVACNOR7102
012026012602PRNR3       010PRINER      ON      NM   R$  000000000169200000000017040000000001647000000000168200000000016950000000001690000000000169901100000000000000261800000000000440502500000000000000009999123100000010000000000000BRPRNRACNOR4111
012026012602PSSA3       010PORTO SEGUROON      NM   R$  000000000483300000000048800000000004757000000000482700000000048520000000004849000000000486410032000000000001667600000000008049823100000000000000009999123100000010000000000000BRPSSAACNOR7161
012026012602FLRY3       010FLEURY      ON      NM   R$  000000000168000000000016920000000001656000000000167500000000016780000000001677000000000168410378000000000002254100000000003776178500000000000000009999123100000010000000000000BRFLRYACNOR5143
012026012602SANB11      010SANTANDER BRUNT EJ       R$  000000000361000000000036200000000003525000000000356300000000035520000000003552000000000358010555000000000002022700000000007207029300000000000000009999123100000010000000000000BRSANBCDAM13172
012026012602SANB3       010SANTANDER BRON  EJ       R$  000000000173800000000017500000000001717000000000173400000000017290000000001729000000000174900296000000000000044000000000000076315100000000000000009999123100000010000000000000BRSANBACNOR8179
012026012602SANB4       010SANTANDER BRPN  EJ       R$  000000000182400000000018450000000001805000000000182400000000018170000000001816000000000183200324000000000000059100000000000107801800000000000000009999123100000010000000000000BRSANBACNPR5179
012026012602IBOV11      010IBOVESPA    IBO/         R$  000001784220000000178422000000017842200000001784220000000178422000000000000000000000000000000001000000000000000003000000000000535266000000000000009999123100001000000000000000BRIBOVINDM18015
012026012602SYNE3       010SYN PROP TECON      NM   R$  000000000049100000000005000000000000487000000000049200000000004970000000000494000000000049701869000000000000482800000000000237624700000000000000009999123100000010000000000000BRSYNEACNOR2107
012026012602GGPS3       010GPS         ON      NM   R$  000000000181700000000018480000000001778000000000181200000000018390000000001837000000000183910668000000000002388400000000004329558200000000000000009999123100000010000000000000BRGGPSACNOR9106
012026012602MATD3       010MATER DEI   ON      NM   R$  000000000054300000000005600000000000542000000000055300000000005590000000000552000000000055901019000000000000358100000000000198185300000000000000009999123100000010000000000000BRMATDACNOR4106
012026012602MBRF3       010MARFRIG     ON      NM   R$  000000000204700000000020750000000001974000000000202000000000019740000000001974000000000197516131000000000008921400000000018021395400000000000000009999123100000010000000000000BRMBRFACNOR1100
012026012602NEOE3       010NEOENERGIA  ON      NM   R$  000000000323200000000032320000000003224000000000322800000000032290000000003226000000000323002311000000000012611300000000040717357300000000000000009999123100000010000000000000BRNEOEACNOR3127
012026012602GMAT3       010GRUPO MATEUSON      NM   R$  000000000049600000000004970000000000481000000000048500000000004860000000000486000000000048805334000000000012277000000000005954385000000000000000009999123100000010000000000000BRGMATACNOR7109
012026012602GOAU3       010GERDAU MET  ON      N1   R$  000000000098800000000010050000000000983000000000099200000000009890000000000983000000000098900183000000000000038300000000000038000100000000000000009999123100000010000000000000BRGOAUACNOR1274
012026012602GOAU4       010GERDAU MET  PN      N1   R$  000000000102300000000010330000000001006000000000101700000000010080000000001008000000000101020368000000000015499900000000015767665500000000000000009999123100000010000000000000BRGOAUACNPR8275
012026012602IFCM3       010INFRACOMM   ON  ES  NM   R$  000000000008300000000000880000000000081000000000008300000000000840000000000082000000000008400400000000000000765200000000000063565300000000000000009999123100000010000000000000BRIFCMACNOR8109
012026012602NGRD3       010NEOGRID     ON      NM   R$  000000000273000000000027570000000002730000000000274900000000027370000000002736000000000275600025000000000000006900000000000018969500000000000000009999123100000010000000000000BRNGRDACNOR3106
012026012602NORD3       010NORDON MET  ON           R$  000000000045000000000004850000000000450000000000046600000000004850000000000450000000000050000004000000000000000400000000000000186500000000000000009999123100000010000000000000BRNORDACNOR7135
012026012602NUTR3       010NUTRIPLANT  ON      MA   R$  000000000026100000000002610000000000255000000000025800000000002550000000000254000000000025600019000000000000001900000000000000490500000000000000009999123100000010000000000000BRNUTRACNOR0104
012026012602IGTI11      010IGUATEMI S.AUNT     N1   R$  000000000281000000000028100000000002718000000000276400000000027930000000002792000000000280011046000000000002167900000000005992647500000000000000009999123100000010000000000000BRIGTICDAM16108
012026012602IGTI3       010IGUATEMI S.AON      N1   R$  000000000032900000000003400000000000329000000000033400000000003390000000000333000000000033900118000000000000034700000000000011593000000000000000009999123100000010000000000000BRIGTIACNOR8108
012026012602IGTI4       010IGUATEMI S.APN      N1   R$  000000000121800000000012300000000001218000000000122100000000012300000000001101000000000000000006000000000000000800000000000000976800000000000000009999123100000010000000000000BRIGTIACNPR5108
012026012602JALL3       010JALLESMACHADON      NM   R$  000000000031500000000003280000000000305000000000031700000000003260000000000326000000000032701732000000000001243400000000000394885000000000000000009999123100000010000000000000BRJALLACNOR0106
012026012602JHSF3       010JHSF PART   ON  ED  NM   R$  000000000094900000000009680000000000930000000000095500000000009650000000000965000000000096706632000000000007398100000000007071582500000000000000009999123100000010000000000000BRJHSFACNOR2155
012026012602PNVL3       010DIMED       ON  EJ  NM   R$  000000000127500000000012930000000001261000000000127900000000012900000000001290000000000129102025000000000000313100000000000400645500000000000000009999123100000010000000000000BRPNVLACNOR9213
012026012602POMO3       010MARCOPOLO   ON      N2   R$  000000000060500000000006100000000000592000000000060200000000006040000000000604000000000060701293000000000000654300000000000394096700000000000000009999123100000010000000000000BRPOMOACNOR0105
012026012602POMO4       010MARCOPOLO   PN      N2   R$  000000000064500000000006480000000000628000000000063900000000006420000000000642000000000064317602000000000016756500000000010712605400000000000000009999123100000010000000000000BRPOMOACNPR7105
012026012602POSI3       010POSITIVO TECON      NM   R$  000000000045300000000004620000000000439000000000045200000000004580000000000457000000000045901861000000000001351900000000000611475600000000000000009999123100000010000000000000BRPOSIACNOR9118
012026012602RAPT3       010RANDON PART ON      N1   R$  000000000067800000000006880000000000667000000000067700000000006880000000000679000000000068700033000000000000009700000000000006574800000000000000009999123100000010000000000000BRRAPTACNOR7166
012026012602RNEW3       010RENOVA      ON      N2   R$  000000000010100000000001030000000000100000000000010000000000001000000000000099000000000010000042000000000000032000000000000003217100000000000000009999123100000010000000000000BRRNEWACNOR8113
012026012602RNEW4       010RENOVA      PN      N2   R$  000000000009100000000000920000000000089000000000008900000000000900000000000089000000000009000069000000000000089800000000000008069300000000000000009999123100000010000000000000BRRNEWACNPR5113
012026012602ROMI3       010ROMI        ON      NM   R$  000000000086000000000008700000000000850000000000085600000000008620000000000853000000000086200891000000000000233700000000000200211400000000000000009999123100000010000000000000BRROMIACNOR8201
012026012602RAPT4       010RANDON PART PN      N1   R$  000000000068000000000006910000000000663000000000067900000000006840000000000683000000000068806489000000000004614100000000003136011500000000000000009999123100000010000000000000BRRAPTACNPR4166
012026012602RSUL4       010RIOSULENSE  PN           R$  000000000644400000000064990000000006326000000000641700000000063260000000006325000000000638000029000000000000004000000000000025670800000000000000009999123100000010000000000000BRRSULACNPR3116
012026012602RVEE3       010REVEE       ON      NM   R$  000000000017700000000001790000000000157000000000017200000000001680000000000167000000000016800029000000000000005500000000000000948300000000000000009999123100000010000000000000BRRVEEACNOR9102
012026012602RCSL3       010RECRUSUL    ON           R$  000000000031100000000003220000000000297000000000031200000000003150000000000312000000000031500974000000000000736800000000000230603300000000000000009999123100000010000000000000BRRCSLACNOR4134
012026012602RCSL4       010RECRUSUL    PN           R$  000000000053500000000007950000000000509000000000068200000000007060000000000705000000000071409524000000000005818600000000003974099400000000000000009999123100000010000000000000BRRCSLACNPR1134
012026012602RDOR3       010REDE D OR   ON      NM   R$  000000000442600000000044360000000004321000000000437400000000044090000000004408000000000441122684000000000004400700000000019249594000000000000000009999123100000010000000000000BRRDORACNOR8119
012026012602LUPA3       010LUPATECH    ON      NM   R$  000000000013100000000001330000000000124000000000012800000000001310000000000130000000000013100195000000000000330400000000000042424600000000000000009999123100000010000000000000BRLUPAACNOR8112
012026012602LUXM4       010TREVISA     PN           R$  000000000041800000000004340000000000418000000000042000000000004340000000000418000000000045000008000000000000006300000000000002651300000000000000009999123100000010000000000000BRLUXMACNPR4053
012026012602LWSA3       010LWSA        ON      NM   R$  000000000048500000000004870000000000465000000000047700000000004840000000000481000000000048504679000000000003597200000000001716092900000000000000009999123100000010000000000000BRLWSAACNOR8105
012026012602MYPK3       010IOCHP-MAXIONON      NM   R$  000000000108400000000010880000000001051000000000106600000000010800000000001078000000000108003278000000000000908000000000000968377600000000000000009999123100000010000000000000BRMYPKACNOR7158
012026012602NATU3       010NATURA      ON      NM   R$  000000000082400000000008530000000000816000000000083700000000008440000000000844000000000084518930000000000014928100000000012495981000000000000000009999123100000010000000000000BRNATUACNOR6137
012026012602LJQQ3       010QUERO-QUERO ON      NM   R$  000000000025500000000002590000000000245000000000025000000000002590000000000254000000000026002227000000000002398800000000000600999100000000000000009999123100000010000000000000BRLJQQACNOR5105
012026012602LOGG3       010LOG COM PROPON      NM   R$  000000000272500000000027370000000002670000000000269200000000026900000000002689000000000269002896000000000000396400000000001067249500000000000000009999123100000010000000000000BRLOGGACNOR7112
012026012602LOGN3       010LOG-IN      ON      NM   R$  000000000334100000000033410000000003229000000000326200000000032530000000003253000000000326900044000000000000010800000000000035230300000000000000009999123100000010000000000000BRLOGNACNOR3105
012026012602LPSB3       010LOPES BRASILON      NM   R$  000000000017200000000001810000000000172000000000017700000000001770000000000176000000000017700352000000000000278700000000000049436200000000000000009999123100000010000000000000BRLPSBACNOR0116
012026012602LREN3       010LOJAS RENNERON      NM   R$  000000000149600000000015050000000001445000000000147200000000014750000000001473000000000147729308000000000021056700000000031003789700000000000000009999123100000010000000000000BRLRENACNOR1228
012026012602MTRE3       010MITRE REALTYON      NM   R$  000000000041600000000004230000000000407000000000041600000000004220000000000420000000000042201248000000000000906500000000000377460500000000000000009999123100000010000000000000BRMTREACNOR6130
012026012602MTSA4       010METISA      PN           R$  000000000476300000000048600000000004763000000000482000000000048490000000004550000000000485000019000000000000002400000000000011569700000000000000009999123100000010000000000000BRMTSAACNPR9079
012026012602MULT3       010MULTIPLAN   ON      N2   R$  000000000312700000000031590000000003068000000000312200000000031520000000003144000000000315417634000000000005682700000000017742943800000000000000009999123100000010000000000000BRMULTACNOR5145
012026012602VLID3       010VALID       ON      NM   R$  000000000220100000000022350000000002161000000000220400000000022230000000002222000000000223001224000000000000197900000000000436309100000000000000009999123100000010000000000000BRVLIDACNOR5148
012026012602VSTE3       010VESTE       ON      NM   R$  000000000038500000000003850000000000377000000000038000000000003770000000000375000000000038000031000000000000020800000000000007909200000000000000009999123100000010000000000000BRVSTEACNOR5104
012026012602VTRU3       010VITRUEDUCA  ON      NM   R$  000000000161800000000016180000000001551000000000157300000000015850000000001577000000000158601126000000000000199200000000000313357600000000000000009999123100000010000000000000BRVTRUACNOR3101
012026012602VULC3       010VULCABRAS   ON      NM   R$  000000000180200000000018140000000001748000000000176500000000017690000000001768000000000176906934000000000002164400000000003821990700000000000000009999123100000010000000000000BRVULCACNOR2181
012026012602VVEO3       010VIVEO       ON      NM   R$  000000000015600000000001600000000000149000000000015300000000001530000000000152000000000015301301000000000001588700000000000243083000000000000000009999123100000010000000000000BRVVEOACNOR0104
012026012602WDCN3       010WDC NETWORKSON      NM   R$  000000000027800000000002790000000000272000000000027500000000002790000000000277000000000027900043000000000000020900000000000005759700000000000000009999123100000010000000000000BRWDCNACNOR2100
012026012602WEGE3       010WEG         ON      NM   R$  000000000500000000000051750000000005000000000000512400000000051610000000005150000000000516445657000000000014664900000000075153107700000000000000009999123100000010000000000000BRWEGEACNOR0234
012026012602VIVR3       010VIVER       ON      NM   R$  000000000006400000000000680000000000064000000000006500000000000650000000000064000000000006500219000000000000325400000000000021446000000000000000009999123100000010000000000000BRVIVRACNOR4125
012026012602VIVT3       010TELEF BRASILON           R$  000000000371000000000037230000000003658000000000369200000000037000000000003697000000000370018443000000000005455200000000020142673800000000000000009999123100000010000000000000BRVIVTACNOR0199
012026012602VBBR3       010VIBRA       ON      NM   R$  000000000284900000000028640000000002798000000000283500000000028530000000002851000000000285416915000000000005087800000000014424625000000000000000009999123100000010000000000000BRVBBRACNOR1114
012026012602VITT3       010VITTIA      ON      NM   R$  000000000047100000000004720000000000454000000000046000000000004560000000000456000000000046100933000000000000159400000000000073352400000000000000009999123100000010000000000000BRVITTACNOR4113
012026012602VIVA3       010VIVARA S.A. ON      NM   R$  000000000284200000000028600000000002751000000000279000000000028220000000002819000000000282323777000000000008510800000000023749336800000000000000009999123100000010000000000000BRVIVAACNOR0109
012026012602CAML3       010CAMIL       ON      NM   R$  000000000067900000000006790000000000650000000000066300000000006680000000000668000000000067303988000000000001294900000000000859318900000000000000009999123100000010000000000000BRCAMLACNOR3134
012026012602CASH3       010MELIUZ      ON      NM   R$  000000000040600000000004130000000000399000000000040700000000004130000000000411000000000041301833000000000001366700000000000556431100000000000000009999123100000010000000000000BRCASHACNOR8107
012026012602CSED3       010CRUZEIRO EDUON      NM   R$  000000000070300000000007130000000000694000000000070400000000007020000000000701000000000070800728000000000000260900000000000183906100000000000000009999123100000010000000000000BRCSEDACNOR9107
012026012602CSMG3       010COPASA      ON      NM   R$  000000000491500000000050490000000004904000000000498000000000050120000000005001000000000502119977000000000003402300000000016944638600000000000000009999123100000010000000000000BRCSMGACNOR5183
012026012602AZEV3       010AZEVEDO     ON           R$  000000000003400000000000360000000000033000000000003400000000000340000000000034000000000003500386000000000002213600000000000076188300000000000000009999123100000010000000000000BRAZEVACNOR0123
012026012602AZEV4       010AZEVEDO     PN           R$  000000000002100000000000220000000000021000000000002100000000000220000000000021000000000002200278000000000002463500000000000053709400000000000000009999123100000010000000000000BRAZEVACNPR7123
012026012602BGIP3       010BANESE      ON  EJS      R$  000000000470000000000047000000000004700000000000470000000000047000000000004700000000000490000001000000000000000100000000000000470000000000000000009999123100000010000000000000BRBGIPACNOR1215
012026012602BGIP4       010BANESE      PN  EJS      R$  000000000360900000000036130000000003521000000000358200000000036000000000003520000000000359900013000000000000001300000000000004656900000000000000009999123100000010000000000000BRBGIPACNPR8215
012026012602BHIA3       010CASAS BAHIA ON      NM   R$  000000000031600000000003180000000000309000000000031300000000003180000000000316000000000031801705000000000002837800000000000890895000000000000000009999123100000010000000000000BRBHIAACNOR1104
012026012602BIED3       010BIOMA EDUC  ON      MA   R$  000000000056000000000005600000000000526000000000053600000000005400000000000460000000000054000007000000000000001000000000000000536200000000000000009999123100000010000000000000BRBIEDACNOR2101
012026012602AZTE3       010AZT ENERGIA ON           R$  000000000003700000000000370000000000036000000000003600000000000370000000000036000000000003700296000000000000952300000000000034520200000000000000009999123100000010000000000000BRAZTEACNOR4101
012026012602AZZA3       010AZZAS 2154  ON      NM   R$  000000000256300000000026040000000002502000000000256200000000025750000000002574000000000257512603000000000002361600000000006051329700000000000000009999123100000010000000000000BRAZZAACNOR9104
012026012602BBDC3       010BRADESCO    ON      N1   R$  000000000178700000000018150000000001762000000000179500000000018060000000001805000000000180716650000000000008178100000000014684352500000000000000009999123100000010000000000000BRBBDCACNOR1796
012026012602BBDC4       010BRADESCO    PN      N1   R$  000000000207800000000020940000000002038000000000207500000000020880000000002087000000000208937111000000000034782400000000072193834200000000000000009999123100000010000000000000BRBBDCACNPR8796
012026012602BEES3       010BANESTES    ON           R$  000000000082000000000008200000000000815000000000081700000000008150000000000814000000000081500074000000000000021600000000000017668700000000000000009999123100000010000000000000BRBEESACNOR9414
012026012602BEES4       010BANESTES    PN           R$  000000000082400000000008250000000000820000000000082200000000008230000000000819000000000082500024000000000000004400000000000003620200000000000000009999123100000010000000000000BRBEESACNPR6339
012026012602FRAS3       010FRAS-LE     ON      N1   R$  000000000246600000000024840000000002437000000000245100000000024770000000002462000000000247802507000000000000366000000000000897213700000000000000009999123100000010000000000000BRFRASACNOR0163
012026012602BLAU3       010BLAU        ON      NM   R$  000000000095500000000009720000000000940000000000095600000000009670000000000966000000000096801767000000000000417300000000000399219500000000000000009999123100000010000000000000BRBLAUACNOR8120
012026012602BRKM5       010BRASKEM     PNA     N1   R$  000000000095700000000009810000000000925000000000095500000000009610000000000961000000000096209423000000000004102000000000003918177000000000000000009999123100000010000000000000BRBRKMACNPA4122
012026012602BRKM6       010BRASKEM     PNB     N1   R$  000000000085000000000008500000000000850000000000085000000000008500000000000850000000000092900002000000000000000200000000000000170000000000000000009999123100000010000000000000BRBRKMACNPB2114
012026012602CPFE3       010CPFL ENERGIAON      NM   R$  000000000554900000000055490000000005404000000000544700000000054860000000005473000000000548609573000000000001887300000000010281475800000000000000009999123100000010000000000000BRCPFEACNOR0138
012026012602CPLE3       010COPEL       ON      NM   R$  000000000135700000000013640000000001330000000000134900000000013590000000001353000000000135925226000000000017825500000000024062149200000000000000009999123100000010000000000000BRCPLEACNOR8153
012026012602EALT3       010ACO ALTONA  ON           R$  000000000145000000000014500000000001440000000000144500000000014400000000001435000000000145000002000000000000000200000000000000289000000000000000009999123100000010000000000000BREALTACNOR4140
012026012602EALT4       010ACO ALTONA  PN           R$  000000000139500000000014210000000001369000000000138700000000013850000000001385000000000140000247000000000000036700000000000050920900000000000000009999123100000010000000000000BREALTACNPR1140
012026012602ECOR3       010ECORODOVIAS ON      NM   R$  000000000121600000000012270000000001183000000000120500000000011950000000001194000000000119911249000000000005670100000000006833450600000000000000009999123100000010000000000000BRECORACNOR8122
012026012602ITUB3       010ITAUUNIBANCOON      N1   R$  000000000407000000000041420000000004020000000000409500000000041200000000004117000000000413704813000000000001234600000000005056332000000000000000009999123100000010000000000000BRITUBACNOR4364
012026012602ITUB4       010ITAUUNIBANCOPN      N1   R$  000000000435100000000044340000000004328000000000439800000000044150000000004411000000000441532621000000000025371700000000111596774000000000000000009999123100000010000000000000BRITUBACNPR1364
012026012602CMIN3       010CSNMINERACAOON      N2   R$  000000000059700000000006130000000000591000000000060000000000005950000000000595000000000059612802000000000008043400000000004827748200000000000000009999123100000010000000000000BRCMINACNOR2116
012026012602CURY3       010CURY S/A    ON      NM   R$  000000000339900000000034480000000003334000000000339200000000034170000000003415000000000342510044000000000002198700000000007460121200000000000000009999123100000010000000000000BRCURYACNOR3115
012026012602CVCB3       010CVC BRASIL  ON      NM   R$  000000000024300000000002530000000000235000000000024200000000002510000000000251000000000025206813000000000029638000000000007196476700000000000000009999123100000010000000000000BRCVCBACNOR1118
012026012602ENGI11      010ENERGISA    UNT     N2   R$  000000000519600000000052080000000005092000000000516800000000051550000000005148000000000516014843000000000006401400000000033083917500000000000000009999123100000010000000000000BRENGICDAM16140
012026012602ENGI3       010ENERGISA    ON      N2   R$  000000000132500000000013400000000001311000000000132000000000013290000000001311000000000133000026000000000000003800000000000005017900000000000000009999123100000010000000000000BRENGIACNOR0150
012026012602ENGI4       010ENERGISA    PN      N2   R$  000000000096700000000009730000000000950000000000095600000000009710000000000954000000000097900051000000000000017200000000000016459700000000000000009999123100000010000000000000BRENGIACNPR7146
012026012602ENJU3       010ENJOEI      ON      NM   R$  000000000010800000000001080000000000104000000000010500000000001050000000000105000000000010600745000000000000333700000000000035365800000000000000009999123100000010000000000000BRENJUACNOR9100
012026012602ENMT3       010ENERGISA MT ON           R$  000000000507700000000050770000000005077000000000507700000000050770000000000000000000000507000001000000000000000100000000000000507700000000000000009999123100000010000000000000BRENMTACNOR5125
012026012602EPAR3       010EMBPAR S/A  ON           R$  000000000039300000000003930000000000388000000000039000000000003890000000000388000000000038900043000000000000010300000000000004019200000000000000009999123100000010000000000000BREPARACNOR9107
012026012602EQMA3B      010EQTLMARANHAOON      MB   R$  000000000301100000000030110000000003010000000000301000000000030100000000003000000000000301000003000000000000000300000000000000903100000000000000009999123100000010000000000000BREQMAACNOR8109
012026012602EQPA3       010EQTL PARA   ON           R$  000000000062800000000006490000000000628000000000063400000000006290000000000629000000000063900022000000000000004700000000000002981700000000000000009999123100000010000000000000BREQPAACNOR1112
012026012602EQTL3       010EQUATORIAL  ON      NM   R$  000000000411500000000041250000000004001000000000406000000000040720000000004067000000000407329944000000000009272400000000037647780200000000000000009999123100000010000000000000BREQTLACNOR0135
012026012602HBOR3       010HELBOR      ON      NM   R$  000000000026600000000002730000000000257000000000026600000000002720000000000268000000000027200999000000000000782200000000000208118300000000000000009999123100000010000000000000BRHBORACNOR3120
012026012602CRPG5       010CRISTAL     PNA          R$  000000000195000000000019980000000001950000000000195800000000019980000000001935000000000199500003000000000000000600000000000001174800000000000000009999123100000010000000000000BRCRPGACNPA3119
012026012602CSAN3       010COSAN       ON      NM   R$  000000000057000000000005700000000000550000000000056000000000005650000000000564000000000056522765000000000028523700000000015978063800000000000000009999123100000010000000000000BRCSANACNOR6128
012026012602DMVF3       010D1000VFARMA ON      NM   R$  000000000069800000000006980000000000680000000000068400000000006840000000000680000000000068400228000000000000048200000000000032995000000000000000009999123100000010000000000000BRDMVFACNOR9100
012026012602DOHL4       010DOHLER      PN           R$  000000000037000000000003990000000000370000000000038600000000003900000000000374000000000039000003000000000000000300000000000000115900000000000000009999123100000010000000000000BRDOHLACNPR9067
012026012602SOND6       010SONDOTECNICAPNB          R$  000000000640000000000064000000000006400000000000640000000000064000000000005558000000000679900002000000000000000200000000000001280000000000000000009999123100000010000000000000BRSONDACNPB6168
012026012602HAPV3       010HAPVIDA     ON      NM   R$  000000000138600000000013970000000001330000000000134900000000013590000000001358000000000136312614000000000007056400000000009519206200000000000000009999123100000010000000000000BRHAPVACNOR4119
012026012602ISAE3       010ISA ENERGIA ON      N1   R$  000000000347000000000034700000000003453000000000346600000000034690000000003461000000000346900030000000000000007700000000000026695100000000000000009999123100000010000000000000BRISAEACNOR2107
012026012602ISAE4       010ISA ENERGIA PN      N1   R$  000000000279900000000028130000000002760000000000278900000000028070000000002805000000000280907685000000000001822200000000005082572500000000000000009999123100000010000000000000BRISAEACNPR9107
012026012602SUZB3       010SUZANO S.A. ON      NM   R$  000000000521300000000052450000000005160000000000519700000000051670000000005166000000000516916459000000000005078400000000026396166400000000000000009999123100000010000000000000BRSUZBACNOR0135
012026012602EKTR4       010ELEKTRO     PN           R$  000000000400000000000040000000000003900000000000398400000000040000000000003715000000000400000007000000000000000700000000000002789400000000000000009999123100000010000000000000BREKTRACNPR7174
012026012602EMAE4       010EMAE        PN           R$  000000000474900000000049700000000004700000000000479000000000049470000000004947000000000494900041000000000000006900000000000033055200000000000000009999123100000010000000000000BREMAEACNPR1128
012026012602EMBJ3       010EMBRAER     ON      NM   R$  000000001050400000000105040000000010150000000001032800000000102400000000010240000000001024120479000000000003949500000000040790735200000000000000009999123100000010000000000000BREMBJACNOR1102
012026012602SMFT3       010SMART FIT   ON      NM   R$  000000000222700000000022270000000002159000000000217900000000021890000000002188000000000219818899000000000006435500000000014026525700000000000000009999123100000010000000000000BRSMFTACNOR1118
012026012602SMTO3       010SAO MARTINHOON      NM   R$  000000000161300000000016250000000001566000000000157800000000015730000000001573000000000157507605000000000003069900000000004845858500000000000000009999123100000010000000000000BRSMTOACNOR3129
012026012602ITSA3       010ITAUSA      ON      N1   R$  000000000134500000000013600000000001335000000000134700000000013540000000001347000000000135501047000000000000297000000000000400131100000000000000009999123100000010000000000000BRITSAACNOR0455
012026012602ITSA4       010ITAUSA      PN      N1   R$  000000000133600000000013570000000001324000000000134200000000013490000000001348000000000135028910000000000036499000000000048994433900000000000000009999123100000010000000000000BRITSAACNPR7455
012026012602HAGA3       010HAGA S/A    ON           R$  000000000017100000000001710000000000155000000000016100000000001660000000000166000000000017500054000000000000018800000000000003027500000000000000009999123100000010000000000000BRHAGAACNOR7103
012026012602HAGA4       010HAGA S/A    PN           R$  000000000011100000000001140000000000111000000000011100000000001140000000000112000000000011400010000000000000001700000000000000189600000000000000009999123100000010000000000000BRHAGAACNPR4103
012026012602MDIA3       010M.DIASBRANCOON  ED  NM   R$  000000000254800000000025550000000002480000000000250900000000025110000000002509000000000253403171000000000000685500000000001720028000000000000000009999123100000010000000000000BRMDIAACNOR7150
012026012602MDNE3       010MOURA DUBEUXON      NM   R$  000000000262800000000026710000000002490000000000258500000000026370000000002635000000000264709702000000000002508800000000006486023000000000000000009999123100000010000000000000BRMDNEACNOR9104
012026012602MEAL3       010IMC S/A     ON      NM   R$  000000000012400000000001240000000000122000000000012200000000001230000000000123000000000012400083000000000000239100000000000029355100000000000000009999123100000010000000000000BRMEALACNOR9105
012026012602MELK3       010MELNICK     ON      NM   R$  000000000039000000000003980000000000385000000000039000000000003940000000000391000000000039401096000000000000569600000000000222315000000000000000009999123100000010000000000000BRMELKACNOR8116
012026012602MGEL4       010MANGELS INDLPN           R$  000000000061500000000006860000000000615000000000065400000000006840000000000670000000000068500021000000000000019000000000000012436400000000000000009999123100000010000000000000BRMGELACNPR3147
012026012602LAND3       010TERRASANTAPAON      NM   R$  000000000084000000000008610000000000837000000000085100000000008610000000000852000000000086100155000000000000042300000000000036016000000000000000009999123100000010000000000000BRLANDACNOR9104
012026012602LAVV3       010LAVVI       ON      NM   R$  000000000174400000000017560000000001697000000000173500000000017380000000001738000000000174903135000000000000642900000000001115626400000000000000009999123100000010000000000000BRLAVVACNOR4119
012026012602LEVE3       010METAL LEVE  ON      NM   R$  000000000345000000000034750000000003402000000000343500000000034670000000003435000000000346801770000000000000334200000000001148208300000000000000009999123100000010000000000000BRLEVEACNOR2202
012026012602MOVI3       010MOVIDA      ON      NM   R$  000000000110700000000011600000000001085000000000112100000000011570000000001154000000000115713306000000000008095800000000009079162500000000000000009999123100000010000000000000BRMOVIACNOR0126
012026012602MRVE3       010MRV         ON      NM   R$  000000000079400000000008150000000000777000000000079400000000008100000000000808000000000081113004000000000008501400000000006755772200000000000000009999123100000010000000000000BRMRVEACNOR2128
012026012602PTBL3       010PORTOBELLO  ON      NM   R$  000000000035800000000003580000000000344000000000035000000000003530000000000351000000000035300759000000000000422700000000000148086100000000000000009999123100000010000000000000BRPTBLACNOR8132
012026012602PTNT3       010PETTENATI   ON           R$  000000000084500000000008450000000000845000000000084500000000008450000000000834000000000084600001000000000000000300000000000000253500000000000000009999123100000010000000000000BRPTNTACNOR6044
012026012602PTNT4       010PETTENATI   PN           R$  000000000082000000000008330000000000820000000000082500000000008260000000000826000000000083100050000000000000052400000000000043231000000000000000009999123100000010000000000000BRPTNTACNPR3049
012026012602MGLU3       010MAGAZ LUIZA ON      NM   R$  000000000094100000000009580000000000924000000000094000000000009470000000000946000000000094718365000000000018407500000000017315200700000000000000009999123100000010000000000000BRMGLUACNOR2130
012026012602OBTC3       010ORANJEBTC   ON           R$  000000000078000000000007800000000000703000000000073700000000007580000000000758000000000077104707000000000001492300000000001100139400000000000000009999123100000010000000000000BROBTCACNOR0100
012026012602ODPV3       010ODONTOPREV  ON      NM   R$  000000000114300000000011480000000001126000000000113400000000011320000000001132000000000113703376000000000001351800000000001533751700000000000000009999123100000010000000000000BRODPVACNOR4213
012026012602OFSA3       010OUROFINO S/AON      NM   R$  000000000240500000000024550000000002401000000000244800000000024490000000002430000000000245000041000000000000016200000000000039663600000000000000009999123100000010000000000000BROFSAACNOR7122
012026012602ONCO3       010ONCOCLINICASON      NM   R$  000000000026800000000002690000000000253000000000025900000000002640000000000260000000000026401602000000000002097100000000000544067600000000000000009999123100000010000000000000BRONCOACNOR6102
012026012602OPCT3       010OCEANPACT   ON      NM   R$  000000000093200000000009320000000000895000000000090900000000009260000000000919000000000092602238000000000000711900000000000647539900000000000000009999123100000010000000000000BROPCTACNOR0100
012026012602ORVR3       010ORIZON      ON      NM   R$  000000000714400000000072420000000007133000000000720700000000072080000000007208000000000722904012000000000000552700000000003983826500000000000000009999123100000010000000000000BRORVRACNOR0101
012026012602QUAL3       010QUALICORP   ON      NM   R$  000000000023800000000002400000000000227000000000023200000000002360000000000236000000000023702900000000000002715800000000000630776500000000000000009999123100000010000000000000BRQUALACNOR6122
012026012602PCAR3       010P.ACUCAR-CBDON      NM   R$  000000000038300000000003830000000000370000000000037400000000003750000000000374000000000037507385000000000009493900000000003551508000000000000000009999123100000010000000000000BRPCARACNOR3170
012026012602PRIO3       010PETRORIO    ON      NM   R$  000000000485600000000048830000000004740000000000481100000000048500000000004850000000000485130028000000000009296100000000044725159500000000000000009999123100000010000000000000BRPRIOACNOR1111
012026012602RECV3       010PETRORECSA  ON      NM   R$  000000000111100000000011160000000001094000000000110300000000011090000000001106000000000111110318000000000003062000000000003379875100000000000000009999123100000010000000000000BRRECVACNOR3110
012026012602REDE3       010REDE ENERGIAON           R$  000000000062000000000006250000000000617000000000061900000000006250000000000622000000000062700016000000000000002300000000000001425200000000000000009999123100000010000000000000BRREDEACNOR7134
012026012602RENT3       010LOCALIZA    ON      NM   R$  000000000449300000000045890000000004424000000000452100000000045690000000004568000000000457126256000000000008218100000000037161093700000000000000009999123100000010000000000000BRRENTACNOR4205
012026012602RADL3       010RAIADROGASILON      NM   R$  000000000249900000000025050000000002427000000000245500000000024480000000002447000000000244925212000000000008389600000000020601407200000000000000009999123100000010000000000000BRRADLACNOR0165
012026012602SAPR11      010SANEPAR     UNT     N2   R$  000000000463900000000047090000000004583000000000467200000000046710000000004669000000000469507426000000000001371000000000006406001900000000000000009999123100000010000000000000BRSAPRCDAM13121
012026012602SAPR3       010SANEPAR     ON      N2   R$  000000000107400000000011220000000001064000000000109800000000011130000000001111000000000112000705000000000000181400000000000199339000000000000000009999123100000010000000000000BRSAPRACNOR9162
012026012602SAPR4       010SANEPAR     PN      N2   R$  000000000088500000000008970000000000877000000000088800000000008860000000000886000000000088803489000000000001156500000000001027919700000000000000009999123100000010000000000000BRSAPRACNPR6162
012026012602SBFG3       010GRUPO SBF   ON      NM   R$  000000000148800000000015160000000001452000000000149400000000015110000000001510000000000151505080000000000001814300000000002711270900000000000000009999123100000010000000000000BRSBFGACNOR1104
012026012602SBSP3       010SABESP      ON      NM   R$  000000001390200000000140690000000013663000000001385600000000138900000000013885000000001389016528000000000002916300000000040410405600000000000000009999123100000010000000000000BRSBSPACNOR5165
012026012602SNSY5       010SANSUY      PNA          R$  000000000027100000000002900000000000268000000000027200000000002900000000000265000000000029100013000000000000003200000000000000871900000000000000009999123100000010000000000000BRSNSYACNPA5111
012026012602SOJA3       010BOA SAFRA   ON      NM   R$  000000000087000000000008860000000000861000000000087400000000008860000000000882000000000088601755000000000000568500000000000497154200000000000000009999123100000010000000000000BRSOJAACNOR9109
012026012602VALE3       010VALE        ON      NM   R$  000000000855600000000086140000000008218000000000840200000000083070000000008302000000000831075619000000000035741300000000300320215500000000000000009999123100000010000000000000BRVALEACNOR0218
012026012602VAMO3       010VAMOS       ON      NM   R$  000000000038600000000003950000000000379000000000038800000000003950000000000393000000000039512552000000000014732600000000005721245900000000000000009999123100000010000000000000BRVAMOACNOR7109
012026012602YDUQ3       010YDUQS PART  ON      NM   R$  000000000134800000000013970000000001330000000000136000000000013800000000001380000000000138514016000000000004260700000000005795078300000000000000009999123100000010000000000000BRYDUQACNOR3108
012026012602UCAS3       010UNICASA     ON      NM   R$  000000000013400000000001370000000000133000000000013500000000001360000000000135000000000013600085000000000000015600000000000002112200000000000000009999123100000010000000000000BRUCASACNOR1114
012026012602UGPA3       010ULTRAPAR    ON      NM   R$  000000000247900000000024790000000002424000000000245300000000024650000000002459000000000246517060000000000004998700000000012264392400000000000000009999123100000010000000000000BRUGPAACNOR8159
012026012602UNIP3       010UNIPAR      ON           R$  000000000607000000000061200000000005980000000000604200000000060600000000006060000000000612000073000000000000009900000000000059820500000000000000009999123100000010000000000000BRUNIPACNOR7210
012026012602UNIP5       010UNIPAR      PNA          R$  000000000625100000000066190000000006250000000000637500000000063000000000006160000000000639700012000000000000001400000000000008926300000000000000009999123100000010000000000000BRUNIPACNPA0212
012026012602UNIP6       010UNIPAR      PNB          R$  000000000620900000000062110000000006001000000000606700000000060630000000006060000000000606301542000000000000201300000000001221447500000000000000009999123100000010000000000000BRUNIPACNPB8210
012026012602USIM3       010USIMINAS    ON      N1   R$  000000000064500000000006580000000000631000000000063900000000006350000000000635000000000063700637000000000000224800000000000143746000000000000000009999123100000010000000000000BRUSIMACNOR3167
012026012602USIM5       010USIMINAS    PNA     N1   R$  000000000065600000000006580000000000633000000000064200000000006400000000000639000000000064013058000000000015563300000000009994451500000000000000009999123100000010000000000000BRUSIMACNPA6172
012026012602WEST3       010WESTWING    ON      NM   R$  000000000054500000000005500000000000490000000000051300000000005130000000000513000000000052700148000000000003589000000000001841202200000000000000009999123100000010000000000000BRWESTACNOR3101
012026012602WHRL3       010WHIRLPOOL   ON           R$  000000000043400000000004640000000000432000000000043500000000004350000000000436000000000045800034000000000000026400000000000011488600000000000000009999123100000010000000000000BRWHRLACNOR5135
012026012602WHRL4       010WHIRLPOOL   PN           R$  000000000046100000000004700000000000461000000000046500000000004680000000000464000000000046800025000000000000003900000000000001815100000000000000009999123100000010000000000000BRWHRLACNPR2135
012026012602WIZC3       010WIZ CO      ON      NM   R$  000000000097500000000009870000000000953000000000097100000000009870000000000984000000000098802410000000000000559100000000000543259200000000000000009999123100000010000000000000BRWIZCACNOR5104
012026012602WLMM4       010WLM IND COM PN           R$  000000000205900000000020590000000002054000000000205500000000020540000000002002000000000205500003000000000000000300000000000000616700000000000000009999123100000010000000000000BRWLMMACNPR3125
012026012602GEPA4       010GER PARANAP PN           R$  000000000345000000000035000000000003416000000000345200000000034200000000003417000000000350000007000000000000000900000000000003107600000000000000009999123100000010000000000000BRGEPAACNPR9165
012026012602GFSA3       010GAFISA      ON      NM   R$  000000000043700000000004710000000000431000000000045000000000004460000000000446000000000044901779000000000001140600000000000513551400000000000000009999123100000010000000000000BRGFSAACNOR3127
012026012602GGBR3       010GERDAU      ON      N1   R$  000000000194100000000019810000000001932000000000195700000000019500000000001934000000000195000448000000000000066400000000000129944800000000000000009999123100000010000000000000BRGGBRACNOR1198
012026012602GGBR4       010GERDAU      PN      N1   R$  000000000232700000000023290000000002259000000000228900000000022730000000002270000000000227327891000000000013549200000000031015596400000000000000009999123100000010000000000000BRGGBRACNPR8198
012026012602AURE3       010AUREN       ON      NM   R$  000000000119500000000012120000000001170000000000117900000000011790000000001178000000000118010036000000000003408300000000004020201100000000000000009999123100000010000000000000BRAUREACNOR9105
012026012602DOTZ3       010DOTZ SA     ON      NM   R$  000000000043000000000004300000000000413000000000041700000000004160000000000415000000000041900038000000000000008600000000000003588000000000000000009999123100000010000000000000BRDOTZACNOR7101
012026012602DXCO3       010DEXCO       ON      NM   R$  000000000058200000000006020000000000577000000000058900000000005900000000000590000000000060007598000000000005344900000000003150895200000000000000009999123100000010000000000000BRDXCOACNOR8108
012026012602PFRM3       010PROFARMA    ON      NM   R$  000000000087600000000008830000000000826000000000085300000000008830000000000870000000000088301768000000000000350200000000000298840800000000000000009999123100000010000000000000BRPFRMACNOR1122
012026012602PGMN3       010PAGUE MENOS ON      NM   R$  000000000065300000000006530000000000621000000000064500000000006440000000000636000000000064408253000000000009457900000000006101254100000000000000009999123100000010000000000000BRPGMNACNOR8106
012026012602PINE3       010PINE        ON      N2   R$  000000000130000000000013000000000001264000000000127300000000012640000000001264000000000130000039000000000000028200000000000035916100000000000000009999123100000010000000000000BRPINEACNOR1160
012026012602PINE4       010PINE        PN      N2   R$  000000000140200000000014300000000001402000000000141700000000014300000000001430000000000143100505000000000000118200000000000167501400000000000000009999123100000010000000000000BRPINEACNPR8160
012026012602PLAS3       010PLASCAR PARTON           R$  000000000046100000000004770000000000461000000000046900000000004770000000000461000000000049800003000000000000000400000000000000187600000000000000009999123100000010000000000000BRPLASACNOR2106
012026012602PLPL3       010PLANOEPLANO ON      NM   R$  000000000147800000000014840000000001400000000000143800000000014790000000001467000000000147906193000000000001977400000000002844786500000000000000009999123100000010000000000000BRPLPLACNOR5106
012026012608PMAM3       010PARANAPANEMAON      NM   R$  000000000010000000000001140000000000096000000000010300000000000990000000000098000000000009902021000000000008576600000000000885404000000000000000009999123100000010000000000000BRPMAMACNOR3045
012026012608HOOT4       010HOTEIS OTHONPN           R$  000000000067100000000006720000000000671000000000067100000000006720000000000656000000000066700002000000000000000200000000000000134300000000000000009999123100000010000000000000BRHOOTACNPR9015
012026012608AGXY3       010AGROGALAXY  ON      NM   R$  000000000039900000000004040000000000396000000000040000000000003960000000000397000000000040400116000000000000015300000000000006129400000000000000009999123100000010000000000000BRAGXYACNOR4104
012026012608BDLL3       010BARDELLA    ON           R$  000000000071000000000007100000000000710000000000071000000000007100000000000705000000000080000001000000000000000100000000000000071000000000000000009999123100000010000000000000BRBDLLACNOR1149
012026012608BDLL4       010BARDELLA    PN           R$  000000000061000000000006120000000000600000000000060500000000006120000000000611000000000065900004000000000000000400000000000000242200000000000000009999123100000010000000000000BRBDLLACNPR8151
012026012608AMBP3       010AMBIPAR     ON      NM   R$  000000000002900000000000300000000000028000000000002900000000000290000000000029000000000003001005000000000006092600000000000177145000000000000000009999123100000010000000000000BRAMBPACNOR6105
012026012608AMER3       010AMERICANAS  ON      NM   R$  000000000052000000000005450000000000508000000000052900000000005370000000000537000000000053803104000000000003137300000000001660964100000000000000009999123100000010000000000000BRAMERACNOR6103
012026012608CTAX3       010CONTAX      ON           R$  000000000009500000000000950000000000091000000000009400000000000910000000000091000000000009400003000000000000001300000000000000122700000000000000009999123100000010000000000000BRCTAXACNOR3119
012026012608BOBR4       010BOMBRIL     PN           R$  000000000012100000000001210000000000121000000000012100000000001210000000000121000000000012200006000000000000002500000000000000302500000000000000009999123100000010000000000000BRBOBRACNPR3128
012026012608NEXP3       010NEXPE       ON           R$  000000000028500000000002850000000000285000000000028500000000002850000000000287000000000029100001000000000000000300000000000000085500000000000000009999123100000010000000000000BRNEXPACNOR0101
012026012608JFEN3       010JOAO FORTES ON           R$  000000000010500000000001050000000000093000000000010000000000001000000000000100000000000010200147000000000000100200000000000010052700000000000000009999123100000010000000000000BRJFENACNOR0061
012026012608RPMG3       010PET MANGUINHON           R$  000000000021400000000002140000000000214000000000021400000000002140000000000209000000000021300001000000000000002000000000000000428000000000000000009999123100000010000000000000BRRPMGACNOR9194
012026012608RSID3       010ROSSI RESID ON      NM   R$  000000000016000000000001600000000000160000000000016000000000001600000000000160000000000017200008000000000000006100000000000000976000000000000000009999123100000010000000000000BRRSIDACNOR8121
012026012608LIGT3       010LIGHT S/A   ON      NM   R$  000000000046400000000004720000000000449000000000046200000000004630000000000462000000000046403152000000000003585200000000001657893200000000000000009999123100000010000000000000BRLIGTACNOR2125
012026012608OIBR3       010OI          ON      N1   R$  000000000001800000000000180000000000018000000000001800000000000180000000000018000000000001900306000000000001134400000000000020419200000000000000009999123100000010000000000000BROIBRACNOR1112
012026012608OIBR4       010OI          PN      N1   R$  000000000012200000000001220000000000122000000000012200000000001220000000000109000000000012200008000000000000005100000000000000622200000000000000009999123100000010000000000000BROIBRACNPR8111
012026012610BMEB1       010MERCANTIL   DIR ORD N1   R$  000000000237500000000025500000000002051000000000232300000000025500000000002550000000000260000053000000000000030400000000000070624600000000000000009999123100000010000000000000BRBMEBD04OR7209
012026012610AALR1       010ALLIAR      DIR ORD NM   R$  000000000000200000000000020000000000001000000000000100000000000010000000000001000000000000200041000000000000153000000000000000190200000000000000009999123100000010000000000000BRAALRD02OR9103
012026012610ABCB2       010ABC BRASIL  DIR PRE N2   R$  000000000061300000000006680000000000596000000000065000000000006420000000000641000000000064200121000000000000031900000000000020744900000000000000009999123100000010000000000000BRABCBD19PR1149
012026012610IFCM1       010INFRACOMM   DIR ORD NM   R$  000000000000100000000000010000000000001000000000000100000000000010000000000000000000000000100165000000000000230200000000000000230200000000000000009999123100000010000000000000BRIFCMD06OR2108
012026012610SMFT9       010SMART FIT   ON  REC NM   R$  000000000217400000000021740000000002113000000000215800000000021130000000002110000000000230000035000000000000007300000000000015757700000000000000009999123100000010000000000000BRSMFTR04OR0117
012026012612CXCI11      010FII CAIXA CICI           R$  000000000714000000000072240000000007106000000000718900000000071920000000007188000000000719200066000000000000001156000000000008311572000000000000009999123100000010000000000000BRCXCICTF005146
012026012612CXCO11      010FII CEF CORPCI           R$  000000000700400000000071010000000007004000000000706600000000070330000000007051000000000705200152000000000000003615000000000025545707000000000000009999123100000010000000000000BRCXCOCTF003157
012026012612CXRI11      010FII CX RBRAVCI           R$  000000000655300000000067400000000006552000000000665600000000066610000000006660000000000673000042000000000000001105000000000007355955000000000000009999123100000010000000000000BRCXRICTF003247
012026012612CYCR11      010FII CYRELA  CI           R$  000000000090100000000009100000000000891000000000089700000000008940000000000894000000000089500718000000000000065403000000000058692882000000000000009999123100000010000000000000BRCYCRCTF004158
012026012612ERPA11      010FII EUROPA  CI           R$  000000001300700000000130070000000013007000000001300700000000130070000000012300000000000000000001000000000000000005000000000000065035000000000000009999123100000010000000000000BRERPACTF002148
012026012612EDFO11      010FII OURINVESCI           R$  000000001309800000000131000000000012401000000001280700000000124010000000012400000000001310000014000000000000000023000000000000294579000000000000009999123100000010000000000000BREDFOCTF004342
012026012612EDGA11      010FII GALERIA CI  ER       R$  000000000135100000000014290000000001351000000000138700000000013800000000001353000000000138000015000000000000000049000000000000067989000000000000009999123100000010000000000000BREDGACTF001256
012026012612EGDB11      010FII EGDB    CI           R$  000000011937200000001193720000000119372000000011937200000001193720000000000000000000000000000001000000000000000086000000000010265992000000000000009999123100000010000000000000BREGDBCTF009100
012026012612TRUE11      010FII TRUEMULTCI           R$  000000000250100000000025200000000002499000000000250200000000025000000000002500000000000252500034000000000000000777000000000001944181000000000000009999123100000010000000000000BRTRUECTF002100
012026012612TRXB11      010FII TRX R IICI           R$  000000001799900000000179990000000017637000000001799600000000179970000000017836000000001799900017000000000000376020000000006767229970000000000000009999123100000010000000000000BRTRXBCTF002172
012026012612TRXF11      010FII TRX REALCI           R$  000000000958800000000096090000000009547000000000956300000000095510000000009551000000000955227777000000000000284148000000002717526554000000000000009999123100000010000000000000BRTRXFCTF003185
012026012612TRXY11      010FII TRXY    CI  ES       R$  000000000094200000000009420000000000935000000000094000000000009400000000000934000000000094100351000000000000008416000000000007915072000000000000009999123100000010000000000000BRTRXYCTF004115
012026012612TVRI11      010FII TIVIO RICI           R$  000000001019800000000102990000000010152000000001020400000000102990000000010282000000001029901079000000000000015590000000000159088041000000000000009999123100000010000000000000BRTVRICTF001127
012026012612HGPO11      010FII HGPO PAXCI           R$  000000001460000000000146170000000014572000000001457600000000145730000000014573000000001461300072000000000000000546000000000007958745000000000000009999123100000010000000000000BRHGPOCTF009166
012026012612HGRE11      010FII HGRE PAXCI           R$  000000001268100000000127990000000012501000000001268100000000126920000000012692000000001277106808000000000000030182000000000382746862000000000000009999123100000010000000000000BRHGRECTF006311
012026012612HGRU11      010FII HGRU PAXCI           R$  000000001305000000000130500000000012901000000001296500000000129300000000012930000000001295906887000000000000073463000000000952484972000000000000009999123100000010000000000000BRHGRUCTF002196
012026012612HLOG11      010FII HEDGELOGCI           R$  000000000092600000000009400000000000914000000000092100000000009250000000000925000000000092600154000000000000008384000000000007723735000000000000009999123100000010000000000000BRHLOGCTF008176
012026012612HOFC11      010FII HOFFICEICI           R$  000000000297300000000030010000000002973000000000298300000000029770000000002977000000000299900063000000000000000595000000000001775450000000000000009999123100000010000000000000BRHOFCCTF009115
012026012612HOMS11      010FII HOMS    CI           R$  000000001221100000000122110000000012211000000001221100000000122110000000000000000000000000000001000000000000000807000000000009854277000000000000009999123100000010000000000000BRHOMSCTF001100
012026012612HOSI11      010FII HOUSI   CI           R$  000000000855000000000085550000000008550000000000855200000000085550000000008357000000000859900003000000000000000018000000000000153940000000000000009999123100000010000000000000BRHOSICTF009162
012026012612HPDP11      010FII HEDGEPDPCI           R$  000000000876700000000087670000000008767000000000876700000000087670000000008772000000000889100002000000000000000002000000000000017534000000000000009999123100000010000000000000BRHPDPCTF003171
012026012612EURO11      010FII EUROPAR CI           R$  000000003150000000000315000000000028500000000002954700000000304000000000030400000000003099800033000000000000000182000000000005377632000000000000009999123100000010000000000000BREUROCTF011378
012026012612EXES11      010FII EXES    CI  ER       R$  000000000094500000000009450000000000938000000000093900000000009400000000000939000000000094000121000000000000005330000000000005005932000000000000009999123100000010000000000000BREXESCTF006146
012026012612CACR11      010CARTESIA FIICI           R$  000000000850500000000086150000000008505000000000857200000000086020000000008602000000000861001343000000000000021300000000000182590132000000000000009999123100000010000000000000BRCACRCTF004153
012026012612BROF11      010FII BROF    CI  ER       R$  000000000573300000000058950000000005733000000000578300000000058310000000005831000000000589500295000000000000003790000000000021920850000000000000009999123100000010000000000000BRBROFCTF000133
012026012612HRDF11      010FII HREALTY CI           R$  000000000040000000000004000000000000400000000000040000000000004000000000000347000000000050000006000000000000002017000000000000806800000000000000009999123100000010000000000000BRHRDFCTF000103
012026012612HREC11      010FII HEDGERECCI           R$  000000000082400000000008310000000000822000000000082500000000008250000000000824000000000082500046000000000000014634000000000012085796000000000000009999123100000010000000000000BRHRECCTF005169
012026012612HSAF11      010FII HSI CRI CI           R$  000000000797900000000079800000000007915000000000793200000000079300000000007922000000000793000844000000000000011561000000000091704847000000000000009999123100000010000000000000BRHSAFCTF004167
012026012612HSLG11      010FII HSI LOG CI           R$  000000000914100000000091700000000009126000000000914700000000091480000000009148000000000917001499000000000000007366000000000067379821000000000000009999123100000010000000000000BRHSLGCTF009161
012026012612HSML11      010FII HSI MALLCI           R$  000000000915000000000092000000000009122000000000917000000000091380000000009138000000000918307555000000000000044954000000000412241234000000000000009999123100000010000000000000BRHSMLCTF007180
012026012612HSRE11      010FII HSIRENDACI           R$  000000001040000000000108000000000010400000000001059800000000108000000000010401000000001080000017000000000000000285000000000003020483000000000000009999123100000010000000000000BRHSRECTF001160
012026012612HTMX11      010FII HOTEL MXCI           R$  000000001433800000000143950000000014270000000001432900000000143310000000014285000000001433100813000000000000003473000000000049767841000000000000009999123100000010000000000000BRHTMXCTF000300
012026012612HUCG11      010FII UNIMED CCI           R$  000000000950000000000095000000000009499000000000949900000000094990000000009499000000000950000003000000000000000004000000000000037998000000000000009999123100000010000000000000BRHUCGCTF004126
012026012612TRBL11      010FII SDI LOG CI           R$  000000000678000000000068350000000006622000000000669900000000066510000000006652000000000668002030000000000000015874000000000106343535000000000000009999123100000010000000000000BRTRBLCTF007131
012026012612BRCO11      010FII BRESCO  CI           R$  000000001193900000000120360000000011862000000001195500000000119330000000011933000000001197406321000000000000043628000000000521588524000000000000009999123100000010000000000000BRBRCOCTF007177
012026012612BRCR11      010FII BC FUND CI           R$  000000000493000000000049790000000004900000000000491900000000049070000000004907000000000492003081000000000000050193000000000246903482000000000000009999123100000010000000000000BRBRCRCTF000286
012026012612BRIM11      010FII BRIO II CI           R$  000000002827900000000282790000000026040000000002767000000000282150000000026040000000002822100022000000000000000047000000000001300494000000000000009999123100000010000000000000BRBRIMCTF008138
012026012612BRIP11      010FII BRIO IIICI           R$  000000003735400000000418000000000037354000000003873600000000417970000000038000000000004179700041000000000000000141000000000005461901000000000000009999123100000010000000000000BRBRIPCTF001128
012026012612BPML11      010FII BTG SHOPCI  ER       R$  000000000905900000000090590000000008969000000000899000000000090500000000008973000000000905001558000000000000011234000000000101000722000000000000009999123100000010000000000000BRBPMLCTF006153
012026012612CEOC11      010FII CEO CCP CI           R$  000000000463900000000046400000000004580000000000459100000000046110000000004590000000000462900045000000000000000619000000000002842198000000000000009999123100000010000000000000BRCEOCCTF003234
012026012612CFII11      010FII CF3 IMOBCI           R$  000000007689700000000768970000000076897000000007689700000000768970000000064081000000009227600001000000000000000001000000000000076897000000000000009999123100000010000000000000BRCFIICTF009114
012026012612APTO11      010FII NAVI RSDCI           R$  000000000087200000000008790000000000867000000000087500000000008790000000000878000000000087900147000000000000001498000000000001312056000000000000009999123100000010000000000000BRAPTOCTF007150
012026012612APXM11      010FII APEX MS CI  ER       R$  000000000827400000000082750000000008274000000000827400000000082750000000008021000000000827500003000000000000000024000000000000198597000000000000009999123100000010000000000000BRAPXMCTF003130
012026012612AIEC11      010FII AUTONOMYCI           R$  000000000528300000000053000000000005283000000000528900000000052920000000005290000000000529200119000000000000006075000000000032130735000000000000009999123100000010000000000000BRAIECCTF009164
012026012612AJFI11      010FII AJ MALLSCI  ES       R$  000000000081300000000008260000000000813000000000081700000000008200000000000820000000000082400516000000000000036626000000000029956820000000000000009999123100000010000000000000BRAJFICTF001127
