00COTAHIST.2026BOVESPA 20260115                                                                                                                                                                                                                      
012026011502MATD3       010MATER DEI   ON      NM   R$  000000000053400000000005350000000000516000000000052700000000005160000000000516000000000051700219000000000000047200000000000024888400000000000000009999123100000010000000000000BRMATDACNOR4106
012026011502MBRF3       010MARFRIG     ON      NM   R$  000000000194800000000019780000000001937000000000196100000000019620000000001962000000000196312849000000000006395100000000012546060900000000000000009999123100000010000000000000BRMBRFACNOR1100
012026011502GMAT3       010GRUPO MATEUSON      NM   R$  000000000046800000000004720000000000457000000000046200000000004590000000000458000000000045905021000000000006657200000000003082156000000000000000009999123100000010000000000000BRGMATACNOR7109
012026011502GOAU3       010GERDAU MET  ON      N1   R$  000000000094800000000009630000000000932000000000095000000000009490000000000949000000000095000423000000000000184400000000000175317700000000000000009999123100000010000000000000BRGOAUACNOR1274
012026011502GOAU4       010GERDAU MET  PN      N1   R$  000000000097400000000009760000000000963000000000096900000000009730000000000971000000000097410135000000000006102200000000005917120700000000000000009999123100000010000000000000BRGOAUACNPR8275
012026011502INEP3       010INEPAR      ON           R$  000000000013700000000001470000000000132000000000013700000000001340000000000133000000000013400088000000000000067500000000000009293300000000000000009999123100000010000000000000BRINEPACNOR1145
012026011502INEP4       010INEPAR      PN           R$  000000000012000000000001220000000000113000000000011400000000001130000000000113000000000011700029000000000000017100000000000001962200000000000000009999123100000010000000000000BRINEPACNPR8145
012026011502INTB3       010INTELBRAS   ON      NM   R$  000000000113000000000011370000000001106000000000112100000000011120000000001112000000000111303497000000000001000000000000001121483800000000000000009999123100000010000000000000BRINTBACNOR9115
012026011502SUZB3       010SUZANO S.A. ON      NM   R$  000000000521800000000052650000000005174000000000522800000000052350000000005226000000000523613637000000000002979700000000015580469700000000000000009999123100000010000000000000BRSUZBACNOR0135
012026011502VAMO3       010VAMOS       ON      NM   R$  000000000037200000000003990000000000368000000000038600000000003960000000000396000000000039713324000000000025518100000000009861561800000000000000009999123100000010000000000000BRVAMOACNOR7109
012026011502WLMM4       010WLM IND COM PN  EJ       R$  000000000202400000000020590000000002005000000000202300000000020050000000001781000000000204900012000000000000002600000000000005260600000000000000009999123100000010000000000000BRWLMMACNPR3125
012026011502SNSY5       010SANSUY      PNA          R$  000000000028900000000002990000000000289000000000029600000000002990000000000270000000000029800005000000000000001200000000000000356000000000000000009999123100000010000000000000BRSNSYACNPA5111
012026011502SOJA3       010BOA SAFRA   ON      NM   R$  000000000087900000000008850000000000868000000000087800000000008730000000000873000000000087501967000000000000469100000000000411904400000000000000009999123100000010000000000000BRSOJAACNOR9109
012026011502PTNT4       010PETTENATI   PN           R$  000000000046500000000004690000000000459000000000046200000000004590000000000458000000000045900014000000000000002400000000000001110200000000000000009999123100000010000000000000BRPTNTACNPR3049
012026011502DASA3       010DASA        ON      NM   R$  000000000042900000000004290000000000374000000000039200000000003810000000000381000000000038307062000000000005009800000000001966286600000000000000009999123100000010000000000000BRDASAACNOR1123
012026011502DESK3       010DESKTOP     ON      NM   R$  000000000175200000000017960000000001736000000000177100000000017860000000001771000000000178603935000000000000727500000000001288991300000000000000009999123100000010000000000000BRDESKACNOR2106
012026011502DEXP3       010DEXXOS PAR  ON      N1   R$  000000000078700000000008090000000000787000000000079800000000008030000000000796000000000080300791000000000000124500000000000099444100000000000000009999123100000010000000000000BRDEXPACNOR1109
012026011502DEXP4       010DEXXOS PAR  PN      N1   R$  000000000079900000000007990000000000799000000000079900000000007990000000000787000000000080600001000000000000000100000000000000079900000000000000009999123100000010000000000000BRDEXPACNPR8109
012026011502DIRR3       010DIRECIONAL  ON      NM   R$  000000000135000000000013650000000001342000000000135300000000013500000000001348000000000135113139000000000005146300000000006963638700000000000000009999123100000010000000000000BRDIRRACNOR0123
012026011502GGPS3       010GPS         ON      NM   R$  000000000169100000000017110000000001665000000000168800000000016650000000001662000000000166608032000000000002068000000000003491486600000000000000009999123100000010000000000000BRGGPSACNOR9106
012026011502DTCY3       010DTCOM-DIRECTON           R$  000000000029500000000002950000000000295000000000029500000000002950000000000290000000000029500001000000000000000100000000000000029500000000000000009999123100000010000000000000BRDTCYACNOR5109
012026011502DXCO3       010DEXCO       ON      NM   R$  000000000053800000000005390000000000526000000000053100000000005310000000000526000000000053104200000000000001790500000000000951283500000000000000009999123100000010000000000000BRDXCOACNOR8108
012026011502EALT4       010ACO ALTONA  PN           R$  000000000141300000000014250000000001410000000000141900000000014240000000001413000000000142500048000000000000015100000000000021439000000000000000009999123100000010000000000000BREALTACNPR1140
012026011502CAMB3       010CAMBUCI     ON           R$  000000000092000000000009290000000000899000000000090700000000009160000000000913000000000091700226000000000000086800000000000078788400000000000000009999123100000010000000000000BRCAMBACNOR4136
012026011502CAML3       010CAMIL       ON      NM   R$  000000000059800000000006270000000000596000000000061200000000006000000000000600000000000060104279000000000002448500000000001498879200000000000000009999123100000010000000000000BRCAMLACNOR3134
012026011502CASH3       010MELIUZ      ON      NM   R$  000000000045000000000004550000000000420000000000043300000000004290000000000421000000000042902568000000000002508700000000001087967700000000000000009999123100000010000000000000BRCASHACNOR8107
012026011502CBAV3       010CBA         ON      NM   R$  000000000087000000000008770000000000822000000000084200000000008400000000000838000000000084111518000000000006279700000000005289958500000000000000009999123100000010000000000000BRCBAVACNOR5104
012026011502CBEE3       010AMPLA ENERG ON           R$  000000000097600000000009760000000000976000000000097600000000009760000000000976000000000109800002000000000000000500000000000000488000000000000000009999123100000010000000000000BRCBEEACNOR3163
012026011502CEAB3       010CEA MODAS   ON      NM   R$  000000000105600000000010560000000000994000000000101200000000009940000000000994000000000099517952000000000011628900000000011770142500000000000000009999123100000010000000000000BRCEABACNOR1105
012026011502B3SA3       010B3          ON      NM   R$  000000000147900000000015200000000001463000000000150500000000015120000000001511000000000151342608000000000051505100000000077548133600000000000000009999123100000010000000000000BRB3SAACNOR6140
012026011502BIOM3       010BIOMM       ON      MA   R$  000000000070600000000007180000000000690000000000070200000000007000000000000696000000000070000278000000000000094700000000000066508200000000000000009999123100000010000000000000BRBIOMACNOR2113
012026011502BLAU3       010BLAU        ON  EB  NM   R$  000000000092000000000009240000000000887000000000090200000000009010000000000900000000000090203786000000000001147800000000001035698800000000000000009999123100000010000000000000BRBLAUACNOR8120
012026011502BMEB3       010MERCANTIL   ON      N1   R$  000000000455000000000047010000000004550000000000463500000000046430000000004642000000000477400018000000000000002200000000000010197800000000000000009999123100000010000000000000BRBMEBACNOR8210
012026011502BMEB4       010MERCANTIL   PN      N1   R$  000000000567300000000057900000000005502000000000563900000000057140000000005714000000000578900259000000000000041300000000000232891900000000000000009999123100000010000000000000BRBMEBACNPR5215
012026011502BMGB4       010BANCO BMG   PN      N1   R$  000000000050600000000005060000000000495000000000049900000000005000000000000498000000000050000858000000000000396400000000000198098000000000000000009999123100000010000000000000BRBMGBACNPR0117
012026011502BMKS3       010BIC MONARK  ON           R$  000000003810000000000392390000000038100000000003833400000000389970000000038108000000003889900019000000000000000129000000000004945153000000000000009999123100000010000000000000BRBMKSACNOR9169
012026011502BMOB3       010BEMOBI TECH ON      NM   R$  000000000213700000000021940000000002120000000000216200000000021890000000002180000000000218902122000000000000428800000000000927381300000000000000009999123100000010000000000000BRBMOBACNOR7107
012026011502BNBR3       010NORD BRASIL ON           R$  000000001157500000000116100000000011575000000001160200000000116000000000011487000000001160000005000000000000000900000000000010442500000000000000009999123100000010000000000000BRBNBRACNOR8211
012026011502BRKM3       010BRASKEM     ON      N1   R$  000000000085500000000008890000000000839000000000086700000000008730000000000872000000000087800084000000000000015800000000000013705300000000000000009999123100000010000000000000BRBRKMACNOR1119
012026011502BRKM5       010BRASKEM     PNA     N1   R$  000000000085900000000008830000000000847000000000086500000000008730000000000871000000000087406810000000000002954800000000002556643800000000000000009999123100000010000000000000BRBRKMACNPA4122
012026011502IFCM3       010INFRACOMM   ON      NM   R$  000000000008400000000000910000000000082000000000008500000000000840000000000082000000000008400723000000000000893400000000000076622300000000000000009999123100000010000000000000BRIFCMACNOR8108
012026011502IGTI11      010IGUATEMI S.AUNT     N1   R$  000000000268900000000027290000000002659000000000269800000000026970000000002695000000000269705779000000000001442000000000003891565200000000000000009999123100000010000000000000BRIGTICDAM16108
012026011502IGTI3       010IGUATEMI S.AON      N1   R$  000000000030500000000003250000000000299000000000031800000000003250000000000325000000000032600108000000000000061000000000000019410900000000000000009999123100000010000000000000BRIGTIACNOR8108
012026011502IGTI4       010IGUATEMI S.APN      N1   R$  000000000119200000000012040000000001191000000000119500000000011910000000001101000000000000000008000000000000001200000000000001435000000000000000009999123100000010000000000000BRIGTIACNPR5108
012026011502YDUQ3       010YDUQS PART  ON      NM   R$  000000000125100000000012680000000001237000000000125000000000012380000000001238000000000124006869000000000002167400000000002709498200000000000000009999123100000010000000000000BRYDUQACNOR3108
012026011502SAPR11      010SANEPAR     UNT     N2   R$  000000000428500000000044140000000004283000000000437000000000044000000000004371000000000440107335000000000001557400000000006806862200000000000000009999123100000010000000000000BRSAPRCDAM13121
012026011502SAPR3       010SANEPAR     ON      N2   R$  000000000096800000000010000000000000968000000000098700000000009940000000000994000000000099900633000000000000151700000000000149828900000000000000009999123100000010000000000000BRSAPRACNOR9162
012026011502SAPR4       010SANEPAR     PN      N2   R$  000000000082800000000008500000000000825000000000083900000000008400000000000840000000000084902151000000000000828700000000000695996200000000000000009999123100000010000000000000BRSAPRACNPR6162
012026011502SBFG3       010GRUPO SBF   ON      NM   R$  000000000131200000000013180000000001290000000000130300000000013050000000001296000000000130503654000000000001082200000000001410981300000000000000009999123100000010000000000000BRSBFGACNOR1104
012026011502SMTO3       010SAO MARTINHOON      NM   R$  000000000164000000000016520000000001583000000000160500000000016000000000001600000000000161206684000000000002632900000000004227386400000000000000009999123100000010000000000000BRSMTOACNOR3129
012026011502WEST3       010WESTWING    ON      NM   R$  000000000054000000000005400000000000538000000000053900000000005400000000000525000000000053900006000000000000003000000000000001618700000000000000009999123100000010000000000000BRWESTACNOR3101
012026011502WHRL3       010WHIRLPOOL   ON           R$  000000000042800000000004320000000000426000000000042700000000004260000000000426000000000043000011000000000000002000000000000000855800000000000000009999123100000010000000000000BRWHRLACNOR5135
012026011502WHRL4       010WHIRLPOOL   PN           R$  000000000045800000000004600000000000455000000000045700000000004570000000000455000000000045700039000000000000007400000000000003385000000000000000009999123100000010000000000000BRWHRLACNPR2135
012026011502WIZC3       010WIZ CO      ON      NM   R$  000000000091800000000009380000000000905000000000092300000000009300000000000924000000000093002090000000000000742800000000000686290500000000000000009999123100000010000000000000BRWIZCACNOR5104
012026011502UNIP3       010UNIPAR      ON           R$  000000000583000000000059000000000005810000000000584300000000058230000000005822000000000584500061000000000000007500000000000043828200000000000000009999123100000010000000000000BRUNIPACNOR7210
012026011502UNIP5       010UNIPAR      PNA          R$  000000000602900000000060290000000006029000000000602900000000060290000000006022000000000634900001000000000000000100000000000000602900000000000000009999123100000010000000000000BRUNIPACNPA0212
012026011502UNIP6       010UNIPAR      PNB          R$  000000000612300000000062110000000006060000000000612800000000060810000000006075000000000608101288000000000000195400000000001197549500000000000000009999123100000010000000000000BRUNIPACNPB8210
012026011502USIM3       010USIMINAS    ON      N1   R$  000000000067500000000006770000000000650000000000065600000000006550000000000651000000000065500434000000000000366800000000000240848200000000000000009999123100000010000000000000BRUSIMACNOR3167
012026011502USIM5       010USIMINAS    PNA     N1   R$  000000000067900000000006830000000000654000000000066100000000006590000000000658000000000065909077000000000009287700000000006148119200000000000000009999123100000010000000000000BRUSIMACNPA6172
012026011502SMFT3       010SMART FIT   ON      NM   R$  000000000229800000000023100000000002053000000000211600000000020900000000002086000000000209045708000000000023492700000000049722144600000000000000009999123100000010000000000000BRSMFTACNOR1118
012026011502DMVF3       010D1000VFARMA ON      NM   R$  000000000066900000000006980000000000663000000000067900000000006880000000000685000000000069400332000000000000072900000000000049554000000000000000009999123100000010000000000000BRDMVFACNOR9100
012026011502DOHL4       010DOHLER      PN           R$  000000000036400000000003690000000000360000000000036400000000003690000000000363000000000036900013000000000000002300000000000000838800000000000000009999123100000010000000000000BRDOHLACNPR9067
012026011502DOTZ3       010DOTZ SA     ON      NM   R$  000000000040600000000004060000000000390000000000040000000000004050000000000403000000000040700044000000000000008700000000000003481400000000000000009999123100000010000000000000BRDOTZACNOR7101
012026011502AERI3       010AERIS       ON      NM   R$  000000000032100000000003220000000000319000000000032100000000003220000000000321000000000032200069000000000000010700000000000003438700000000000000009999123100000010000000000000BRAERIACNOR4102
012026011502AFLT3       010AFLUENTE T  ON           R$  000000000073000000000007300000000000730000000000073000000000007300000000000723000000000077400003000000000000000500000000000000365000000000000000009999123100000010000000000000BRAFLTACNOR1126
012026011502AGRO3       010BRASILAGRO  ON      NM   R$  000000000203700000000020410000000002007000000000202400000000020270000000002012000000000202700861000000000000139500000000000282435400000000000000009999123100000010000000000000BRAGROACNOR7116
012026011502ALLD3       010ALLIED      ON      NM   R$  000000000082500000000008530000000000820000000000083600000000008370000000000836000000000083701453000000000000654500000000000547726200000000000000009999123100000010000000000000BRALLDACNOR3109
012026011502ALOS3       010ALLOS       ON      NM   R$  000000000291100000000029470000000002880000000000292100000000029260000000002922000000000292612312000000000003896100000000011383729700000000000000009999123100000010000000000000BRALOSACNOR5117
012026011502RNEW3       010RENOVA      ON      N2   R$  000000000010000000000001030000000000099000000000010000000000001000000000000099000000000010100040000000000000022500000000000002252100000000000000009999123100000010000000000000BRRNEWACNOR8113
012026011502RNEW4       010RENOVA      PN      N2   R$  000000000008700000000000900000000000087000000000008800000000000870000000000087000000000008900083000000000000102100000000000008991900000000000000009999123100000010000000000000BRRNEWACNPR5113
012026011502ROMI3       010ROMI        ON      NM   R$  000000000080300000000008040000000000798000000000080100000000008000000000000800000000000080400376000000000000073900000000000059232500000000000000009999123100000010000000000000BRROMIACNOR8201
012026011502RPAD5       010ALFA HOLDINGPNA          R$  000000000068900000000006890000000000634000000000064500000000006360000000000635000000000068000009000000000000001500000000000000968700000000000000009999123100000010000000000000BRRPADACNPA4222
012026011502RSUL4       010RIOSULENSE  PN           R$  000000000634400000000063440000000006251000000000630700000000062510000000005800000000000634800007000000000000000800000000000005046300000000000000009999123100000010000000000000BRRSULACNPR3116
012026011502GEPA3       010GER PARANAP ON           R$  000000000330000000000033000000000003300000000000330000000000033000000000003000000000000330000001000000000000000100000000000000330000000000000000009999123100000010000000000000BRGEPAACNOR2158
012026011502GFSA3       010GAFISA      ON      NM   R$  000000000044000000000004480000000000416000000000042700000000004160000000000415000000000041600569000000000000458400000000000195943800000000000000009999123100000010000000000000BRGFSAACNOR3127
012026011502GGBR3       010GERDAU      ON      N1   R$  000000000186200000000018930000000001861000000000188200000000018780000000001877000000000189200103000000000000016000000000000030124300000000000000009999123100000010000000000000BRGGBRACNOR1198
012026011502GGBR4       010GERDAU      PN      N1   R$  000000000222700000000022380000000002211000000000222600000000022280000000002226000000000222910904000000000005843800000000013010894400000000000000009999123100000010000000000000BRGGBRACNPR8198
012026011502LUPA3       010LUPATECH    ON      NM   R$  000000000010300000000001090000000000099000000000010500000000001020000000000102000000000010300145000000000000180600000000000019019200000000000000009999123100000010000000000000BRLUPAACNOR8112
012026011502LUXM4       010TREVISA     PN           R$  000000000042800000000004280000000000420000000000042500000000004200000000000420000000000044900004000000000000001400000000000000596000000000000000009999123100000010000000000000BRLUXMACNPR4053
012026011502LWSA3       010LWSA        ON      NM   R$  000000000043700000000004470000000000437000000000044200000000004410000000000437000000000044107443000000000003110400000000001376263700000000000000009999123100000010000000000000BRLWSAACNOR8105
012026011502ISAE3       010ISA ENERGIA ON      N1   R$  000000000342700000000034300000000003407000000000342400000000034200000000003407000000000342000017000000000000002700000000000009246200000000000000009999123100000010000000000000BRISAEACNOR2107
012026011502ISAE4       010ISA ENERGIA PN      N1   R$  000000000263200000000026370000000002610000000000262400000000026290000000002627000000000262903235000000000000991200000000002601503100000000000000009999123100000010000000000000BRISAEACNPR9107
012026011502JHSF3       010JHSF PART   ON      NM   R$  000000000083200000000008530000000000828000000000084600000000008480000000000848000000000084907821000000000003698300000000003129840200000000000000009999123100000010000000000000BRJHSFACNOR2154
012026011502PTBL3       010PORTOBELLO  ON      NM   R$  000000000032600000000003330000000000326000000000032800000000003260000000000325000000000033000365000000000000125800000000000041360300000000000000009999123100000010000000000000BRPTBLACNOR8132
012026011502BRBI11      010BR PARTNERS UNT     N2   R$  000000000189400000000019140000000001878000000000189300000000018830000000001883000000000189201446000000000000218000000000000412832300000000000000009999123100000010000000000000BRBRBICDAM10116
012026011502CXSE3       010CAIXA SEGURION      NM   R$  000000000161000000000016200000000001599000000000160900000000016100000000001609000000000161107945000000000003836700000000006175160400000000000000009999123100000010000000000000BRCXSEACNOR7114
012026011502CYRE3       010CYRELA REALTON      NM   R$  000000000250300000000025320000000002476000000000250500000000024950000000002494000000000250014826000000000005502400000000013785746600000000000000009999123100000010000000000000BRCYREACNOR7143
012026011502CYRE4       010CYRELA REALTPN      NM   R$  000000000240200000000024200000000002365000000000238900000000023920000000002392000000000240101872000000000000607900000000001452315600000000000000009999123100000010000000000000BRCYREACNPR4114
012026011502ENGI11      010ENERGISA    UNT     N2   R$  000000000472600000000047340000000004666000000000468800000000046840000000004677000000000468613051000000000003031800000000014215792400000000000000009999123100000010000000000000BRENGICDAM16140
012026011502ENGI3       010ENERGISA    ON      N2   R$  000000000122100000000012370000000001220000000000122500000000012220000000001215000000000123600017000000000000003100000000000003798000000000000000009999123100000010000000000000BRENGIACNOR0150
012026011502FESA3       010FERBASA     ON      N1   R$  000000000120500000000012050000000001205000000000120500000000012050000000001183000000000120600002000000000000000200000000000000241000000000000000009999123100000010000000000000BRFESAACNOR8194
012026011502FESA4       010FERBASA     PN      N1   R$  000000000070600000000007110000000000687000000000069600000000006870000000000687000000000069001505000000000000647900000000000451137700000000000000009999123100000010000000000000BRFESAACNPR5090
012026011502FHER3       010FER HERINGERON      NM   R$  000000000042700000000004270000000000421000000000042400000000004210000000000421000000000042500002000000000000000200000000000000084800000000000000009999123100000010000000000000BRFHERACNOR5103
012026011502FICT3       010FICTORALIMENON           R$  000000000016200000000001730000000000155000000000016100000000001610000000000159000000000016100151000000000000078600000000000012718500000000000000009999123100000010000000000000BRFICTACNOR3101
012026011502FIQE3       010UNIFIQUE    ON      NM   R$  000000000049100000000004910000000000485000000000048800000000004880000000000486000000000048800447000000000000249400000000000121749400000000000000009999123100000010000000000000BRFIQEACNOR5112
012026011502FLRY3       010FLEURY      ON      NM   R$  000000000157400000000015830000000001549000000000157100000000015730000000001566000000000157305510000000000002425600000000003811121400000000000000009999123100000010000000000000BRFLRYACNOR5143
012026011502FRAS3       010FRAS-LE     ON      N1   R$  000000000242300000000024250000000002377000000000240300000000024000000000002385000000000240100910000000000000158900000000000381880200000000000000009999123100000010000000000000BRFRASACNOR0163
012026011502IBOV11      010IBOVESPA    IBO/         R$  000001657500000000165750000000016575000000001657500000000165750000000000000000000000000000000009000000000000000215000000000035636250000000000000009999123100001000000000000000BRIBOVINDM18015
012026011502MRVE3       010MRV         ON      NM   R$  000000000076200000000007850000000000760000000000077500000000007780000000000773000000000077812562000000000009483400000000007352710500000000000000009999123100000010000000000000BRMRVEACNOR2128
012026011502PRIO3       010PETRORIO    ON      NM   R$  000000000433600000000043950000000004297000000000436000000000043780000000004373000000000438033884000000000009288600000000040507063000000000000000009999123100000010000000000000BRPRIOACNOR1111
012026011502RANI3       010IRANI       ON      NM   R$  000000000088400000000008910000000000878000000000088500000000008820000000000880000000000088301323000000000000331900000000000293940900000000000000009999123100000010000000000000BRRANIACNOR5079
012026011502RAPT3       010RANDON PART ON      N1   R$  000000000063200000000006750000000000632000000000065900000000006490000000000648000000000066600090000000000000034900000000000023009500000000000000009999123100000010000000000000BRRAPTACNOR7166
012026011502RAPT4       010RANDON PART PN      N1   R$  000000000064200000000006680000000000639000000000065700000000006550000000000654000000000065504979000000000004794000000000003152092000000000000000009999123100000010000000000000BRRAPTACNPR4166
012026011502ESPA3       010ESPACOLASER ON      NM   R$  000000000008600000000000870000000000082000000000008400000000000830000000000082000000000008300351000000000000555400000000000046698900000000000000009999123100000010000000000000BRESPAACNOR7105
012026011502ETER3       010ETERNIT     ON      NM   R$  000000000039800000000004020000000000398000000000039900000000004020000000000400000000000040300192000000000000044300000000000017718700000000000000009999123100000010000000000000BRETERACNOR3246
012026011502EUCA4       010EUCATEX     PN      N1   R$  000000000184700000000019070000000001831000000000187900000000018800000000001875000000000188000158000000000000031900000000000059955500000000000000009999123100000010000000000000BREUCAACNPR8046
012026011502EVEN3       010EVEN        ON      NM   R$  000000000072200000000007300000000000712000000000072000000000007250000000000720000000000072502569000000000000884200000000000637046000000000000000009999123100000010000000000000BREVENACNOR8121
012026011502EZTC3       010EZTEC       ON      NM   R$  000000000143400000000014560000000001423000000000144100000000014360000000001435000000000143704088000000000001113100000000001604341400000000000000009999123100000010000000000000BREZTCACNOR0132
012026011502HBOR3       010HELBOR      ON  ED  NM   R$  000000000025400000000002570000000000248000000000025200000000002480000000000248000000000025000698000000000000696500000000000175823300000000000000009999123100000010000000000000BRHBORACNOR3120
012026011502HBRE3       010HBR REALTY  ON      NM   R$  000000000037500000000003790000000000365000000000037000000000003650000000000365000000000036800489000000000000338300000000000125318500000000000000009999123100000010000000000000BRHBREACNOR4101
012026011502HBSA3       010HIDROVIAS   ON      NM   R$  000000000039300000000004000000000000391000000000039500000000003940000000000391000000000039406372000000000001849500000000000732382000000000000000009999123100000010000000000000BRHBSAACNOR0102
012026011502SANB11      010SANTANDER BRUNT          R$  000000000341100000000034210000000003305000000000334400000000033140000000003313000000000331919157000000000004247900000000014207717800000000000000009999123100000010000000000000BRSANBCDAM13171
012026011502SANB3       010SANTANDER BRON           R$  000000000166900000000016750000000001617000000000164600000000016250000000001618000000000162800425000000000000065500000000000107839500000000000000009999123100000010000000000000BRSANBACNOR8178
012026011502SANB4       010SANTANDER BRPN           R$  000000000172400000000017450000000001691000000000171500000000016960000000001696000000000170200446000000000000077200000000000132455000000000000000009999123100000010000000000000BRSANBACNPR5178
012026011502TPIS3       010TRIUNFO PARTON      NM   R$  000000000053300000000005430000000000532000000000053800000000005400000000000533000000000054400049000000000000031100000000000016750700000000000000009999123100000010000000000000BRTPISACNOR8120
012026011502TRAD3       010TC          ON      NM   R$  000000000037500000000003770000000000370000000000037300000000003700000000000368000000000037100022000000000000002900000000000001082100000000000000009999123100000010000000000000BRTRADACNOR3102
012026011502TRIS3       010TRISUL      ON      NM   R$  000000000060700000000006110000000000598000000000060500000000006080000000000603000000000060800593000000000000215100000000000130309100000000000000009999123100000010000000000000BRTRISACNOR4122
012026011502TTEN3       0103TENTOS     ON      NM   R$  000000000156500000000015750000000001558000000000156600000000015640000000001560000000000156404009000000000000778500000000001219328900000000000000009999123100000010000000000000BRTTENACNOR0105
012026011502TUPY3       010TUPY        ON      NM   R$  000000000115300000000011630000000001143000000000115400000000011610000000001151000000000116103415000000000001191700000000001375793800000000000000009999123100000010000000000000BRTUPYACNOR1185
012026011502UCAS3       010UNICASA     ON      NM   R$  000000000013900000000001400000000000136000000000013700000000001380000000000137000000000013800058000000000000008700000000000001198800000000000000009999123100000010000000000000BRUCASACNOR1114
012026011502UGPA3       010ULTRAPAR    ON      NM   R$  000000000221600000000022450000000002200000000000222600000000022260000000002225000000000222714009000000000005807400000000012932370200000000000000009999123100000010000000000000BRUGPAACNOR8159
012026011502SLCE3       010SLC AGRICOLAON      NM   R$  000000000152300000000015590000000001515000000000154100000000015440000000001544000000000154906272000000000002390000000000003684633600000000000000009999123100000010000000000000BRSLCEACNOR2128
012026011502TOKY3       010GRUPO TOKY  ON      NM   R$  000000000006700000000000710000000000065000000000006700000000000670000000000066000000000006700702000000000000334300000000000022646600000000000000009999123100000010000000000000BRTOKYACNOR5101
012026011502TOTS3       010TOTVS       ON      NM   R$  000000000439100000000044200000000004304000000000438600000000044000000000004391000000000440210930000000000003453400000000015149117400000000000000009999123100000010000000000000BRTOTSACNOR8150
012026011502VLID3       010VALID       ON      NM   R$  000000000206200000000020630000000002029000000000204300000000020350000000002035000000000204201397000000000000220600000000000450883300000000000000009999123100000010000000000000BRVLIDACNOR5148
012026011502VSTE3       010VESTE       ON      NM   R$  000000000039100000000003930000000000390000000000039100000000003900000000000390000000000039200053000000000000021600000000000008456500000000000000009999123100000010000000000000BRVSTEACNOR5104
012026011502VTRU3       010VITRUEDUCA  ON      NM   R$  000000000149100000000014990000000001451000000000147600000000014990000000001497000000000149901348000000000000246100000000000363407900000000000000009999123100000010000000000000BRVTRUACNOR3101
012026011502VULC3       010VULCABRAS   ON      NM   R$  000000000189500000000019040000000001879000000000188600000000018790000000001879000000000188802797000000000001002500000000001890733800000000000000009999123100000010000000000000BRVULCACNOR2181
012026011502VVEO3       010VIVEO       ON      NM   R$  000000000013700000000001430000000000135000000000013800000000001380000000000137000000000013801558000000000001429600000000000198173300000000000000009999123100000010000000000000BRVVEOACNOR0104
012026011502WDCN3       010WDC NETWORKSON      NM   R$  000000000028500000000002850000000000269000000000027400000000002720000000000272000000000027600041000000000000017300000000000004753500000000000000009999123100000010000000000000BRWDCNACNOR2100
012026011502WEGE3       010WEG         ON      NM   R$  000000000473500000000047350000000004623000000000464600000000046440000000004644000000000464514975000000000004604100000000021394976700000000000000009999123100000010000000000000BRWEGEACNOR0234
012026011502SCAR3       010SAO CARLOS  ON      NM   R$  000000000137500000000013890000000001367000000000137900000000013820000000001381000000000139000308000000000000101200000000000139594700000000000000009999123100000010000000000000BRSCARACNOR7133
012026011502SEER3       010SER EDUCA   ON      NM   R$  000000000110800000000011120000000001068000000000108500000000010720000000001071000000000107203398000000000000817700000000000887409100000000000000009999123100000010000000000000BRSEERACNOR5120
012026011502SEQL3       010SEQUOIA LOG ON      NM   R$  000000000021900000000002200000000000216000000000021800000000002160000000000216000000000021800167000000000000120400000000000026251600000000000000009999123100000010000000000000BRSEQLACNOR2108
012026011502SHOW3       010TIME FOR FUNON      NM   R$  000000000063600000000006400000000000626000000000063200000000006400000000000640000000000064100190000000000000022900000000000014494700000000000000009999123100000010000000000000BRSHOWACNOR7106
012026011502SHUL4       010SCHULZ      PN           R$  000000000050100000000005060000000000498000000000050300000000005060000000000506000000000050700708000000000000278300000000000140158600000000000000009999123100000010000000000000BRSHULACNPR4163
012026011502ECOR3       010ECORODOVIAS ON      NM   R$  000000000108300000000010860000000001047000000000106000000000010500000000001047000000000105009578000000000004422800000000004690880800000000000000009999123100000010000000000000BRECORACNOR8122
012026011502EGIE3       010ENGIE BRASILON      NM   R$  000000000309400000000031100000000003057000000000307100000000030570000000003054000000000306608609000000000001904700000000005849694500000000000000009999123100000010000000000000BREGIEACNOR9132
012026011502GOLL54      010GOL         PN *P   N2   R$  000000000097900000000010040000000000979000000000099900000000010040000000000994000000000100500513000000000114778000000000000114740362000000000000009999123100010000000000000000BRGOLLA01PR5100
012026011502BBSE3       010BBSEGURIDADEON      NM   R$  000000000349000000000035000000000003472000000000348600000000034910000000003485000000000349213162000000000003854700000000013439982500000000000000009999123100000010000000000000BRBBSEACNOR5127
012026011502BPAN4       010BANCO PAN   PN      N1   R$  000000000115400000000011920000000001154000000000118600000000011920000000001192000000000119301805000000000000670400000000000795391500000000000000009999123100000010000000000000BRBPANACNPR1116
012026011502BRAP3       010BRADESPAR   ON      N1   R$  000000000194500000000019670000000001936000000000194700000000019430000000001943000000000194900264000000000000092100000000000179349200000000000000009999123100000010000000000000BRBRAPACNOR5153
012026011502BRAP4       010BRADESPAR   PN      N1   R$  000000000222000000000022470000000002214000000000222600000000022210000000002216000000000222207458000000000003163400000000007041927200000000000000009999123100000010000000000000BRBRAPACNPR2153
012026011502CEBR3       010CEB         ON           R$  000000000286700000000028750000000002854000000000286700000000028750000000002871000000000290000008000000000000000800000000000002294000000000000000009999123100000010000000000000BRCEBRACNOR5129
012026011502CEBR5       010CEB         PNA          R$  000000000267500000000027490000000002675000000000272300000000027480000000002701000000000275000011000000000000001500000000000004085100000000000000009999123100000010000000000000BRCEBRACNPA8128
012026011502CEBR6       010CEB         PNB          R$  000000000290000000000029290000000002871000000000290300000000029000000000002885000000000291000019000000000000002000000000000005807500000000000000009999123100000010000000000000BRCEBRACNPB6128
012026011502CEDO4       010CEDRO       PN      N1   R$  000000000096500000000009650000000000965000000000096500000000009650000000000950000000000096000003000000000000000800000000000000772000000000000000009999123100000010000000000000BRCEDOACNPR5128
012026011502CEEB3       010COELBA      ON           R$  000000000448000000000044800000000004450000000000446500000000044500000000004406000000000448000002000000000000000200000000000000893000000000000000009999123100000010000000000000BRCEEBACNOR3207
012026011502CSED3       010CRUZEIRO EDUON      NM   R$  000000000064300000000006430000000000581000000000059700000000005860000000000586000000000058703504000000000001825900000000001090241800000000000000009999123100000010000000000000BRCSEDACNOR9107
012026011502CSMG3       010COPASA      ON      NM   R$  000000000444800000000044850000000004400000000000444100000000044140000000004414000000000441706748000000000002679600000000011902135400000000000000009999123100000010000000000000BRCSMGACNOR5183
012026011502EMAE4       010EMAE        PN           R$  000000000439800000000043980000000004200000000000425500000000042000000000004200000000000429000020000000000000002300000000000009788600000000000000009999123100000010000000000000BREMAEACNPR1128
012026011502EMBJ3       010EMBRAER     ON      NM   R$  000000000974000000000099220000000009611000000000977400000000098970000000009895000000000989718270000000000004012600000000039221572600000000000000009999123100000010000000000000BREMBJACNOR1102
012026011502ALPA3       010ALPARGATAS  ON      N1   R$  000000000104500000000010590000000001045000000000104800000000010590000000001045000000000105900017000000000000003500000000000003670600000000000000009999123100000010000000000000BRALPAACNOR0234
012026011502ALPA4       010ALPARGATAS  PN      N1   R$  000000000129500000000013100000000001286000000000129600000000012920000000001289000000000129202717000000000001038400000000001345837400000000000000009999123100000010000000000000BRALPAACNPR7235
012026011502ALPK3       010ESTAPAR     ON      NM   R$  000000000045000000000004550000000000445000000000045000000000004450000000000445000000000044900244000000000000059800000000000026959600000000000000009999123100000010000000000000BRALPKACNOR9101
012026011502ALUP11      010ALUPAR      UNT     N2   R$  000000000327500000000033070000000003262000000000328200000000032760000000003275000000000327603868000000000000744200000000002443070700000000000000009999123100000010000000000000BRALUPCDAM15126
012026011502ALUP3       010ALUPAR      ON      N2   R$  000000000116800000000011890000000001168000000000118200000000011820000000001165000000000118300026000000000000003500000000000004140300000000000000009999123100000010000000000000BRALUPACNOR8126
012026011502ALUP4       010ALUPAR      PN      N2   R$  000000000104800000000010610000000001034000000000104900000000010420000000001040000000000105700052000000000000007100000000000007450500000000000000009999123100000010000000000000BRALUPACNPR5126
012026011502AMAR3       010LOJAS MARISAON      NM   R$  000000000010100000000001050000000000101000000000010200000000001010000000000101000000000010200318000000000000103800000000000010638500000000000000009999123100000010000000000000BRAMARACNOR4115
012026011502AMOB3       010AUTOMOB     ON      NM   R$  000000000130400000000013150000000001280000000000130000000000013140000000001298000000000131500185000000000000029900000000000038879700000000000000009999123100000010000000000000BRAMOBACNOR9101
012026011502ANIM3       010ANIMA       ON      NM   R$  000000000040300000000004100000000000400000000000040500000000004040000000000403000000000040508736000000000006499100000000002633069900000000000000009999123100000010000000000000BRANIMACNOR6110
012026011502BAUH4       010EXCELSIOR   PN           R$  000000000920200000000092020000000009202000000000920200000000092020000000008800000000000920200001000000000000000100000000000000920200000000000000009999123100000010000000000000BRBAUHACNPR3119
012026011502BAZA3       010AMAZONIA    ON           R$  000000000760900000000076490000000007601000000000761200000000076260000000007600000000000762800022000000000000005200000000000039585100000000000000009999123100000010000000000000BRBAZAACNOR0180
012026011502BBAS3       010BRASIL      ON      NM   R$  000000000215000000000021660000000002134000000000214600000000021460000000002145000000000214628775000000000020166900000000043281540000000000000000009999123100000010000000000000BRBBASACNOR3334
012026011502AALR3       010ALLIAR      ON      NM   R$  000000000043600000000004490000000000436000000000043900000000004390000000000439000000000044600081000000000000027100000000000011923800000000000000009999123100000010000000000000BRAALRACNOR6104
012026011502ABCB4       010ABC BRASIL  PN      N2   R$  000000000241000000000024300000000002392000000000241300000000024250000000002410000000000242502836000000000000649200000000001567041500000000000000009999123100000010000000000000BRABCBACNPR4150
012026011502ABEV3       010AMBEV S/A   ON           R$  000000000142800000000014280000000001400000000000140700000000014040000000001403000000000140615030000000000021374400000000030089402400000000000000009999123100000010000000000000BRABEVACNOR1134
012026011502AZEV3       010AZEVEDO     ON           R$  000000000003900000000000410000000000037000000000003800000000000390000000000038000000000003900316000000000001256200000000000048031400000000000000009999123100000010000000000000BRAZEVACNOR0123
012026011502AZEV4       010AZEVEDO     PN           R$  000000000002300000000000240000000000022000000000002200000000000220000000000022000000000002301013000000000009498200000000000215034600000000000000009999123100000010000000000000BRAZEVACNPR7123
012026011502AZTE3       010AZT ENERGIA ON           R$  000000000004000000000000410000000000039000000000004000000000000400000000000040000000000004100297000000000001150500000000000046125900000000000000009999123100000010000000000000BRAZTEACNOR4101
012026011502AZZA3       010AZZAS 2154  ON      NM   R$  000000000243700000000024540000000002375000000000240400000000023820000000002381000000000238209689000000000002600000000000006252604700000000000000009999123100000010000000000000BRAZZAACNOR9104
012026011502BBDC3       010BRADESCO    ON      N1   R$  000000000159400000000016260000000001588000000000161400000000016110000000001610000000000161207721000000000005515800000000008904654600000000000000009999123100000010000000000000BRBBDCACNOR1796
012026011502BBDC4       010BRADESCO    PN      N1   R$  000000000185900000000019070000000001853000000000188900000000018900000000001888000000000189036597000000000037422400000000070701053900000000000000009999123100000010000000000000BRBBDCACNPR8796
012026011502BGIP3       010BANESE      ON           R$  000000000415900000000042750000000004159000000000421700000000042750000000004159000000000440100002000000000000000200000000000000843400000000000000009999123100000010000000000000BRBGIPACNOR1213
012026011502BGIP4       010BANESE      PN           R$  000000000350600000000036990000000003506000000000363900000000036790000000003501000000000369800005000000000000000500000000000001819600000000000000009999123100000010000000000000BRBGIPACNPR8213
012026011502BHIA3       010CASAS BAHIA ON      NM   R$  000000000027600000000002890000000000276000000000028200000000002780000000000278000000000028005374000000000004356900000000001232946300000000000000009999123100000010000000000000BRBHIAACNOR1104
012026011502BIED3       010BIOMA EDUC  ON      MA   R$  000000000053300000000005750000000000530000000000054600000000005590000000000531000000000055900013000000000000001300000000000000710900000000000000009999123100000010000000000000BRBIEDACNOR2101
012026011502PINE3       010PINE        ON  EDJ N2   R$  000000000130800000000013330000000001299000000000132300000000013320000000001321000000000133500026000000000000005700000000000007543600000000000000009999123100000010000000000000BRPINEACNOR1160
012026011502PINE4       010PINE        PN  EDJ N2   R$  000000000135800000000013840000000001326000000000134700000000013360000000001336000000000133901009000000000000291000000000000392025500000000000000009999123100000010000000000000BRPINEACNPR8160
012026011502PLAS3       010PLASCAR PARTON           R$  000000000044100000000005230000000000441000000000052100000000005230000000000457000000000053200014000000000000004100000000000002136100000000000000009999123100000010000000000000BRPLASACNOR2106
012026011502PLPL3       010PLANOEPLANO ON      NM   R$  000000000148000000000014800000000001425000000000144900000000014540000000001447000000000145405469000000000001567100000000002271670800000000000000009999123100000010000000000000BRPLPLACNOR5106
012026011502RAIL3       010RUMO S.A.   ON      NM   R$  000000000138600000000013860000000001356000000000137300000000013730000000001371000000000137417313000000000011332700000000015563355600000000000000009999123100000010000000000000BRRAILACNOR9106
012026011502ARML3       010ARMAC       ON  EDJ NM   R$  000000000042500000000004450000000000424000000000043600000000004330000000000432000000000043501701000000000000641700000000000279902100000000000000009999123100000010000000000000BRARMLACNOR1117
012026011502ARND3       010ARANDU      ON      NM   R$  000000000010000000000001000000000000100000000000010000000000001000000000000090000000000010000005000000000000004300000000000000430000000000000000009999123100000010000000000000BRARNDACNOR6100
012026011502ASAI3       010ASSAI       ON  EJ  NM   R$  000000000073700000000007460000000000716000000000073000000000007290000000000728000000000072920653000000000012282800000000008977402900000000000000009999123100000010000000000000BRASAIACNOR0109
012026011502ATED3       010ATOM EDUC   ON           R$  000000000020700000000002100000000000207000000000020800000000002100000000000205000000000021000016000000000000010600000000000002211500000000000000009999123100000010000000000000BRATEDACNOR1100
012026011502HAGA3       010HAGA S/A    ON           R$  000000000016600000000001750000000000165000000000017000000000001710000000000166000000000017200021000000000000005200000000000000885100000000000000009999123100000010000000000000BRHAGAACNOR7103
012026011502HAGA4       010HAGA S/A    PN           R$  000000000010900000000001100000000000107000000000010800000000001080000000000108000000000011000020000000000000005200000000000000563300000000000000009999123100000010000000000000BRHAGAACNPR4103
012026011502HAPV3       010HAPVIDA     ON      NM   R$  000000000138900000000014030000000001315000000000134500000000013250000000001322000000000132615459000000000010836400000000014582605300000000000000009999123100000010000000000000BRHAPVACNOR4119
012026011502CLSC4       010CELESC      PN      N2   R$  000000001306600000000133170000000012982000000001314600000000132000000000013002000000001320000023000000000000002400000000000031550900000000000000009999123100000010000000000000BRCLSCACNPR3138
012026011502CMIG3       010CEMIG       ON      N1   R$  000000000142400000000014360000000001416000000000142500000000014210000000001420000000000142100476000000000000073200000000000104325300000000000000009999123100000010000000000000BRCMIGACNOR6251
012026011502CMIG4       010CEMIG       PN      N1   R$  000000000108000000000010880000000001074000000000108000000000010790000000001078000000000107913536000000000009194500000000009936726500000000000000009999123100000010000000000000BRCMIGACNPR3252
012026011502CSNA3       010SID NACIONALON           R$  000000000103900000000010780000000000974000000000100500000000009950000000000994000000000099525312000000000022666400000000022797102900000000000000009999123100000010000000000000BRCSNAACNOR6263
012026011502JSLG3       010JSL         ON      NM   R$  000000000062000000000006250000000000607000000000061900000000006210000000000620000000000062401860000000000000918300000000000569331100000000000000009999123100000010000000000000BRJSLGACNOR2123
012026011502KEPL3       010KEPLER WEBERON      NM   R$  000000000097700000000009880000000000975000000000098000000000009820000000000977000000000098202732000000000001382100000000001355178400000000000000009999123100000010000000000000BRKEPLACNOR1069
012026011502KLBN11      010KLABIN S/A  UNT     N2   R$  000000000190000000000019050000000001873000000000188200000000018730000000001872000000000187407429000000000003202500000000006028728800000000000000009999123100000010000000000000BRKLBNCDAM18151
012026011502KLBN3       010KLABIN S/A  ON      N2   R$  000000000038400000000003850000000000378000000000037900000000003780000000000378000000000037900833000000000000381800000000000145074900000000000000009999123100000010000000000000BRKLBNACNOR2179
012026011502KLBN4       010KLABIN S/A  PN      N2   R$  000000000037700000000003790000000000374000000000037600000000003760000000000375000000000037601958000000000001559100000000000587122200000000000000009999123100000010000000000000BRKLBNACNPR9179
012026011502NEOE3       010NEOENERGIA  ON      NM   R$  000000000320000000000032080000000003200000000000320400000000032060000000003202000000000320601080000000000000880100000000002820446400000000000000009999123100000010000000000000BRNEOEACNOR3127
012026011502NGRD3       010NEOGRID     ON      NM   R$  000000000282400000000028530000000002770000000000282300000000027700000000002770000000000278900053000000000000010700000000000030215300000000000000009999123100000010000000000000BRNGRDACNOR3106
012026011502NORD3       010NORDON MET  ON           R$  000000000040000000000004000000000000400000000000040000000000004000000000000400000000000044000001000000000000000100000000000000040000000000000000009999123100000010000000000000BRNORDACNOR7135
012026011502NUTR3       010NUTRIPLANT  ON      MA   R$  000000000026200000000002670000000000262000000000026400000000002670000000000264000000000026600018000000000000001800000000000000476500000000000000009999123100000010000000000000BRNUTRACNOR0104
012026011502OBTC3       010ORANJEBTC   ON           R$  000000000095900000000009590000000000911000000000092900000000009170000000000913000000000091701764000000000000417700000000000388126700000000000000009999123100000010000000000000BROBTCACNOR0100
012026011502ODPV3       010ODONTOPREV  ON      NM   R$  000000000105800000000010730000000001058000000000106700000000010690000000001068000000000106904922000000000001550100000000001655003000000000000000009999123100000010000000000000BRODPVACNOR4213
012026011502OFSA3       010OUROFINO S/AON      NM   R$  000000000240700000000024070000000002344000000000237200000000023440000000002343000000000247700009000000000000001000000000000002372600000000000000009999123100000010000000000000BROFSAACNOR7122
012026011502ONCO3       010ONCOCLINICASON      NM   R$  000000000026800000000002730000000000235000000000025200000000002350000000000234000000000023504568000000000004262400000000001074777200000000000000009999123100000010000000000000BRONCOACNOR6102
012026011502OPCT3       010OCEANPACT   ON      NM   R$  000000000089000000000009000000000000874000000000088600000000008830000000000875000000000088301604000000000000508400000000000450764400000000000000009999123100000010000000000000BROPCTACNOR0100
012026011502ORVR3       010ORIZON      ON      NM   R$  000000000689000000000069200000000006806000000000686800000000068900000000006856000000000689402555000000000000609600000000004186986700000000000000009999123100000010000000000000BRORVRACNOR0101
012026011502MEAL3       010IMC S/A     ON      NM   R$  000000000012300000000001250000000000122000000000012200000000001250000000000122000000000012500068000000000000157900000000000019375700000000000000009999123100000010000000000000BRMEALACNOR9105
012026011502MELK3       010MELNICK     ON      NM   R$  000000000036600000000003720000000000366000000000036900000000003680000000000368000000000037000811000000000000438100000000000161742000000000000000009999123100000010000000000000BRMELKACNOR8116
012026011502MGEL4       010MANGELS INDLPN           R$  000000000060000000000006000000000000582000000000059800000000006000000000000590000000000060200004000000000000001400000000000000838200000000000000009999123100000010000000000000BRMGELACNPR3147
012026011502MGLU3       010MAGAZ LUIZA ON      NM   R$  000000000084000000000009100000000000840000000000087900000000008740000000000873000000000087422621000000000028392200000000024978530500000000000000009999123100000010000000000000BRMGLUACNOR2130
012026011502MYPK3       010IOCHP-MAXIONON      NM   R$  000000000100400000000010200000000001002000000000100700000000010030000000001002000000000100802841000000000001912900000000001926668200000000000000009999123100000010000000000000BRMYPKACNOR7158
012026011502PATI3       010PANATLANTICAON           R$  000000000290100000000029010000000002901000000000290100000000029010000000002811000000000304500001000000000000000100000000000000290100000000000000009999123100000010000000000000BRPATIACNOR6069
012026011502BPAC11      010BTGP BANCO  UNT     N2   R$  000000000548500000000055220000000005426000000000550200000000055080000000005503000000000550817057000000000007038100000000038729223100000000000000009999123100000010000000000000BRBPACUNT006128
012026011502BPAC3       010BTGP BANCO  ON      N2   R$  000000000388900000000039240000000003857000000000390500000000039150000000003857000000000391500016000000000000002300000000000008981500000000000000009999123100000010000000000000BRBPACACNOR7139
012026011502BPAC5       010BTGP BANCO  PNA     N2   R$  000000000107900000000010890000000001073000000000108200000000010800000000001079000000000108800014000000000000002500000000000002707100000000000000009999123100000010000000000000BRBPACACNPA0139
012026011502BRSR3       010BANRISUL    ON      N1   R$  000000000177900000000017950000000001772000000000178100000000017900000000001781000000000181900035000000000000003800000000000006768100000000000000009999123100000010000000000000BRBRSRACNOR3197
012026011502BRSR6       010BANRISUL    PNB     N1   R$  000000000162400000000016420000000001619000000000162900000000016310000000001616000000000163104206000000000001052100000000001714634600000000000000009999123100000010000000000000BRBRSRACNPB4200
012026011502BRST3       010BRISANET    ON      NM   R$  000000000033800000000003390000000000333000000000033600000000003390000000000336000000000033900623000000000000107200000000000036061500000000000000009999123100000010000000000000BRBRSTACNOR9102
012026011502BSLI3       010BRB BANCO   ON           R$  000000000068500000000006900000000000674000000000067900000000006800000000000680000000000069000013000000000000001800000000000001223700000000000000009999123100000010000000000000BRBSLIACNOR5198
012026011502BSLI4       010BRB BANCO   PN           R$  000000000071700000000007300000000000717000000000072200000000007240000000000724000000000072900010000000000000001500000000000001084200000000000000009999123100000010000000000000BRBSLIACNPR2198
012026011502QUAL3       010QUALICORP   ON      NM   R$  000000000022700000000002360000000000227000000000023000000000002300000000000229000000000023001756000000000002038600000000000470483800000000000000009999123100000010000000000000BRQUALACNOR6122
012026011502RADL3       010RAIADROGASILON      NM   R$  000000000244500000000024800000000002398000000000245300000000024750000000002475000000000247619463000000000007322800000000017969114000000000000000009999123100000010000000000000BRRADLACNOR0165
012026011502NATU3       010NATURA      ON  ATZ NM   R$  000000000076000000000007740000000000751000000000076100000000007520000000000752000000000075412038000000000007010100000000005341651400000000000000009999123100000010000000000000BRNATUACNOR6137
012026011502PRNR3       010PRINER      ON      NM   R$  000000000164300000000016430000000001602000000000161400000000016020000000001602000000000160901580000000000000490800000000000792303000000000000000009999123100000010000000000000BRPRNRACNOR4111
012026011502CRPG5       010CRISTAL     PNA          R$  000000000194900000000019490000000001907000000000192700000000019300000000001901000000000195000014000000000000001700000000000003276800000000000000009999123100000010000000000000BRCRPGACNPA3119
012026011502CRPG6       010CRISTAL     PNB          R$  000000000189800000000018980000000001898000000000189800000000018980000000001805000000000189900001000000000000000100000000000000189800000000000000009999123100000010000000000000BRCRPGACNPB1119
012026011502CSAN3       010COSAN       ON      NM   R$  000000000051900000000005270000000000501000000000050800000000005010000000000501000000000050222929000000000036219800000000018415226000000000000000009999123100000010000000000000BRCSANACNOR6128
012026011502MTRE3       010MITRE REALTYON      NM   R$  000000000037100000000003740000000000364000000000036600000000003650000000000365000000000036601086000000000000830000000000000304149100000000000000009999123100000010000000000000BRMTREACNOR6130
012026011502MTSA4       010METISA      PN           R$  000000000457500000000046500000000004560000000000458500000000045600000000004521000000000456000045000000000000010800000000000049522800000000000000009999123100000010000000000000BRMTSAACNPR9079
012026011502MULT3       010MULTIPLAN   ON      N2   R$  000000000287800000000029480000000002859000000000292500000000029450000000002934000000000294518305000000000004720200000000013810575100000000000000009999123100000010000000000000BRMULTACNOR5145
012026011502RECV3       010PETRORECSA  ON  ED  NM   R$  000000000104100000000010630000000001034000000000105000000000010570000000001055000000000105807604000000000003484000000000003658684400000000000000009999123100000010000000000000BRRECVACNOR3110
012026011502REDE3       010REDE ENERGIAON           R$  000000000062100000000006300000000000621000000000062600000000006230000000000618000000000062300008000000000000001100000000000000689200000000000000009999123100000010000000000000BRREDEACNOR7134
012026011502RENT3       010LOCALIZA    ON      NM   R$  000000000424100000000042500000000004171000000000420600000000041980000000004198000000000419923706000000000006918000000000029100744300000000000000009999123100000010000000000000BRRENTACNOR4205
012026011502RENT4       010LOCALIZA    PN      NM   R$  000000000407400000000041310000000004040000000000408100000000041150000000004059000000000412801756000000000000568400000000002319914600000000000000009999123100000010000000000000BRRENTACNPR1100
012026011502GRND3       010GRENDENE    ON      NM   R$  000000000046200000000004620000000000454000000000045700000000004550000000000454000000000045509809000000000003637300000000001662478300000000000000009999123100000010000000000000BRGRNDACNOR3182
012026011502GUAR3       010GUARARAPES  ON      NM   R$  000000000083000000000008390000000000814000000000082400000000008220000000000820000000000082305105000000000001802300000000001485946500000000000000009999123100000010000000000000BRGUARACNOR4175
012026011502RCSL3       010RECRUSUL    ON           R$  000000000037600000000003880000000000290000000000032800000000003060000000000305000000000030602127000000000001228500000000000403246100000000000000009999123100000010000000000000BRRCSLACNOR4134
012026011502RCSL4       010RECRUSUL    PN           R$  000000000109300000000011090000000000748000000000093700000000008900000000000889000000000089011118000000000006094000000000005714350900000000000000009999123100000010000000000000BRRCSLACNPR1134
012026011502RDOR3       010REDE D OR   ON      NM   R$  000000000405500000000040840000000003990000000000402900000000040320000000004031000000000403318687000000000006280000000000025304863300000000000000009999123100000010000000000000BRRDORACNOR8119
012026011502VALE3       010VALE        ON      NM   R$  000000000789000000000079640000000007851000000000790700000000078850000000007879000000000788550469000000000035503900000000280734282900000000000000009999123100000010000000000000BRVALEACNOR0218
012026011502VBBR3       010VIBRA       ON      NM   R$  000000000260700000000026190000000002565000000000258400000000025960000000002587000000000259623437000000000009686000000000025036432500000000000000009999123100000010000000000000BRVBBRACNOR1114
012026011502IRBR3       010IRBBRASIL REON      NM   R$  000000000515400000000051980000000005120000000000515400000000051450000000005134000000000515203321000000000000550600000000002837862700000000000000009999123100000010000000000000BRIRBRACNOR4113
012026011502JALL3       010JALLESMACHADON      NM   R$  000000000029900000000003000000000000291000000000029500000000002930000000000293000000000029601011000000000000734900000000000216807000000000000000009999123100000010000000000000BRJALLACNOR0106
012026011502MDIA3       010M.DIASBRANCOON      NM   R$  000000000254000000000025450000000002479000000000249500000000024850000000002481000000000248501547000000000000298500000000000744759100000000000000009999123100000010000000000000BRMDIAACNOR7149
012026011502MDNE3       010MOURA DUBEUXON      NM   R$  000000000251200000000025170000000002418000000000247900000000024800000000002480000000000248206007000000000002548100000000006319180100000000000000009999123100000010000000000000BRMDNEACNOR9104
012026011502BEEF3       010MINERVA     ON      NM   R$  000000000053800000000005460000000000537000000000054200000000005440000000000544000000000054509855000000000009474900000000005141658400000000000000009999123100000010000000000000BRBEEFACNOR6120
012026011502BRAV3       010BRAVA       ON      NM   R$  000000000174700000000018570000000001739000000000180500000000018010000000001800000000000180137312000000000021456300000000038731643900000000000000009999123100000010000000000000BRBRAVACNOR3103
012026011502CMIN3       010CSNMINERACAOON      N2   R$  000000000058500000000005880000000000566000000000057200000000005690000000000567000000000056907868000000000005972000000000003417395600000000000000009999123100000010000000000000BRCMINACNOR2116
012026011502AUAU3       010PETZCOBASI  ON      NM   R$  000000000034000000000003470000000000337000000000034100000000003400000000000340000000000034104482000000000003415000000000001164847100000000000000009999123100000010000000000000BRAUAUACNOR1100
012026011502AURE3       010AUREN       ON      NM   R$  000000000115800000000011860000000001156000000000117600000000011730000000001173000000000117908296000000000002736000000000003217590700000000000000009999123100000010000000000000BRAUREACNOR9105
012026011502CGAS5       010COMGAS      PNA          R$  000000001320000000000134000000000013200000000001326300000000134000000000013067000000001321100007000000000000001100000000000014590000000000000000009999123100000010000000000000BRCGASACNPA3165
012026011502CGRA3       010GRAZZIOTIN  ON           R$  000000000266100000000026990000000002656000000000267400000000026750000000002652000000000270000014000000000000001400000000000003743800000000000000009999123100000010000000000000BRCGRAACNOR2088
012026011502CGRA4       010GRAZZIOTIN  PN           R$  000000000262300000000026990000000002623000000000265100000000026660000000002640000000000266700072000000000000025000000000000066289800000000000000009999123100000010000000000000BRCGRAACNPR9088
012026011502COCE3       010COELCE      ON           R$  000000000488000000000048800000000004880000000000488000000000048800000000003426000000000743000001000000000000000100000000000000488000000000000000009999123100000010000000000000BRCOCEACNOR0149
012026011502COCE5       010COELCE      PNA          R$  000000000345000000000034830000000003439000000000345400000000034400000000003400000000000347000011000000000000001100000000000003799500000000000000009999123100000010000000000000BRCOCEACNPA3150
012026011502COGN3       010COGNA ON    ON      NM   R$  000000000036800000000003730000000000365000000000036800000000003650000000000364000000000036616461000000000019579000000000007211295200000000000000009999123100000010000000000000BRCOGNACNOR2110
012026011502CSUD3       010CSU DIGITAL ON      NM   R$  000000000176700000000017940000000001760000000000178500000000017940000000001790000000000179400140000000000000021300000000000038031400000000000000009999123100000010000000000000BRCSUDACNOR5117
012026011502CTKA4       010KARSTEN     PN           R$  000000000415000000000041500000000004150000000000415000000000041500000000004013000000000414900001000000000000000100000000000000415000000000000000009999123100000010000000000000BRCTKAACNPR7043
012026011502HYPE3       010HYPERA      ON      NM   R$  000000000236300000000024000000000002347000000000236400000000023620000000002355000000000236208529000000000001910200000000004515847300000000000000009999123100000010000000000000BRHYPEACNOR0149
012026011502ITUB3       010ITAUUNIBANCOON      N1   R$  000000000367100000000037190000000003671000000000370500000000037040000000003699000000000370402090000000000000584800000000002167143000000000000000009999123100000010000000000000BRITUBACNOR4364
012026011502ITUB4       010ITAUUNIBANCOPN      N1   R$  000000000398000000000040220000000003966000000000399700000000039940000000003991000000000399433112000000000019093500000000076331313300000000000000009999123100000010000000000000BRITUBACNPR1364
012026011502LJQQ3       010QUERO-QUERO ON      NM   R$  000000000024400000000002450000000000236000000000023900000000002360000000000236000000000023903080000000000001654800000000000396157900000000000000009999123100000010000000000000BRLJQQACNOR5105
012026011502CURY3       010CURY S/A    ON      NM   R$  000000000330000000000033240000000003155000000000319200000000031550000000003152000000000316319117000000000003431900000000010957429400000000000000009999123100000010000000000000BRCURYACNOR3115
012026011502CVCB3       010CVC BRASIL  ON      NM   R$  000000000026300000000002700000000000254000000000026300000000002700000000000269000000000027019878000000000024942300000000006584189700000000000000009999123100000010000000000000BRCVCBACNOR1118
012026011502ENEV3       010ENEVA       ON      NM   R$  000000000215000000000021500000000002059000000000210000000000020900000000002087000000000209021207000000000076806400000000161321405600000000000000009999123100000010000000000000BRENEVACNOR8107
012026011502LOGG3       010LOG COM PROPON      NM   R$  000000000267000000000026900000000002653000000000267000000000026680000000002668000000000268001815000000000000339100000000000905728700000000000000009999123100000010000000000000BRLOGGACNOR7112
012026011502LOGN3       010LOG-IN      ON      NM   R$  000000000330100000000033090000000003285000000000329400000000032900000000003290000000000330000040000000000000014100000000000046446800000000000000009999123100000010000000000000BRLOGNACNOR3105
012026011502LPSB3       010LOPES BRASILON      NM   R$  000000000016700000000001740000000000157000000000016300000000001580000000000158000000000015900509000000000000544000000000000088693900000000000000009999123100000010000000000000BRLPSBACNOR0116
012026011502LREN3       010LOJAS RENNERON      NM   R$  000000000136000000000013660000000001326000000000134500000000013510000000001345000000000135119584000000000010535100000000014179935700000000000000009999123100000010000000000000BRLRENACNOR1228
012026011502PDGR3       010PDG REALT   ON      NM   R$  000000000013500000000001360000000000128000000000013000000000001290000000000128000000000012900061000000000000036700000000000004793200000000000000009999123100000010000000000000BRPDGRACNOR8123
012026011502PDTC3       010PADTEC      ON      NM   R$  000000000014300000000001430000000000130000000000013500000000001360000000000133000000000013700066000000000000023400000000000003163900000000000000009999123100000010000000000000BRPDTCACNOR3101
012026011502PETR3       010PETROBRAS   ON      N2   R$  000000000338800000000034040000000003357000000000338400000000033890000000003385000000000339115650000000000012136500000000041078915100000000000000009999123100000010000000000000BRPETRACNOR9212
012026011502PETR4       010PETROBRAS   PN      N2   R$  000000000315000000000031930000000003144000000000317400000000031790000000003178000000000317937546000000000026456600000000083975363400000000000000009999123100000010000000000000BRPETRACNPR6223
012026011502PNVL3       010DIMED       ON      NM   R$  000000000126000000000012790000000001220000000000125600000000012670000000001267000000000126804130000000000001019800000000001280959300000000000000009999123100000010000000000000BRPNVLACNOR9212
012026011502POMO3       010MARCOPOLO   ON      N2   R$  000000000054800000000005610000000000547000000000055400000000005520000000000552000000000055601399000000000000986200000000000547258900000000000000009999123100000010000000000000BRPOMOACNOR0105
012026011502POMO4       010MARCOPOLO   PN      N2   R$  000000000058000000000005950000000000576000000000058800000000005890000000000588000000000059009481000000000008210700000000004830080900000000000000009999123100000010000000000000BRPOMOACNPR7105
012026011502POSI3       010POSITIVO TECON  ED  NM   R$  000000000040300000000004100000000000394000000000040200000000003960000000000396000000000039801304000000000001248200000000000502487700000000000000009999123100000010000000000000BRPOSIACNOR9118
012026011502RAIZ4       010RAIZEN      PN      N2   R$  000000000008600000000000870000000000084000000000008500000000000860000000000086000000000008711893000000000029148200000000002503436200000000000000009999123100000010000000000000BRRAIZACNPR6112
012026011502SBSP3       010SABESP      ON      NM   R$  000000001257300000000125740000000012324000000001239300000000124270000000012419000000001242721208000000000005242000000000064968888900000000000000009999123100000010000000000000BRSBSPACNOR5165
012026011502ENGI4       010ENERGISA    PN      N2   R$  000000000086800000000008680000000000858000000000086600000000008660000000000859000000000086700021000000000000003000000000000002599600000000000000009999123100000010000000000000BRENGIACNPR7146
012026011502ENJU3       010ENJOEI      ON      NM   R$  000000000010300000000001030000000000102000000000010200000000001030000000000102000000000010300144000000000000053500000000000005483100000000000000009999123100000010000000000000BRENJUACNOR9100
012026011502ENMT3       010ENERGISA MT ON           R$  000000000507900000000050790000000005079000000000507900000000050790000000004702000000000507900001000000000000000100000000000000507900000000000000009999123100000010000000000000BRENMTACNOR5125
012026011502EPAR3       010EMBPAR S/A  ON           R$  000000000040000000000004020000000000398000000000039900000000004020000000000399000000000040200019000000000000003000000000000001199000000000000000009999123100000010000000000000BREPARACNOR9107
012026011502AVLL3       010ALPHAVILLE  ON      NM   R$  000000000008900000000000890000000000087000000000008800000000000870000000000086000000000008900002000000000000000200000000000000017600000000000000009999123100000010000000000000BRAVLLACNOR5103
012026011502AXIA3       010AXIA ENERGIAON      N1   R$  000000000513300000000051840000000005105000000000514900000000051390000000005134000000000513934892000000000011689200000000060193658500000000000000009999123100000010000000000000BRAXIAACNOR0102
012026011502AXIA6       010AXIA ENERGIAPNB     N1   R$  000000000539400000000055080000000004726000000000547000000000047260000000005444000000000546206299000000000001274300000000006971431300000000000000009999123100000010000000000000BRAXIAACNPB1103
012026011502AXIA7       010AXIA ENERGIAPNC     N1   R$  000000000495000000000049940000000004757000000000496700000000047570000000004943000000000497707694000000000002840200000000014107730600000000000000009999123100000010000000000000BRAXIAACNPC9100
012026011502EQPA3       010EQTL PARA   ON           R$  000000000059900000000006490000000000599000000000060700000000006200000000000620000000000064800018000000000000002400000000000001457300000000000000009999123100000010000000000000BREQPAACNOR1112
012026011502EQTL3       010EQUATORIAL  ON      NM   R$  000000000378800000000037930000000003722000000000376400000000037750000000003775000000000377626785000000000007115500000000026784291300000000000000009999123100000010000000000000BREQTLACNOR0135
012026011502ITSA3       010ITAUSA      ON      N1   R$  000000000121000000000012380000000001210000000000122400000000012250000000001225000000000122600674000000000000189700000000000232301300000000000000009999123100000010000000000000BRITSAACNOR0455
012026011502ITSA4       010ITAUSA      PN      N1   R$  000000000120500000000012220000000001203000000000121300000000012180000000001215000000000121919846000000000037769400000000045822889400000000000000009999123100000010000000000000BRITSAACNPR7455
012026011502BEES3       010BANESTES    ON           R$  000000000082300000000008230000000000814000000000081600000000008150000000000814000000000081700046000000000000006700000000000005470400000000000000009999123100000010000000000000BRBEESACNOR9414
012026011502BEES4       010BANESTES    PN           R$  000000000081900000000008250000000000815000000000081900000000008250000000000815000000000082500036000000000000007400000000000006061200000000000000009999123100000010000000000000BRBEESACNPR6339
012026011502LAND3       010TERRASANTAPAON      NM   R$  000000000086100000000008800000000000852000000000086300000000008580000000000851000000000085800153000000000000026700000000000023051300000000000000009999123100000010000000000000BRLANDACNOR9104
012026011502LAVV3       010LAVVI       ON      NM   R$  000000000170400000000017100000000001665000000000168100000000016850000000001677000000000168602734000000000000626000000000001052852800000000000000009999123100000010000000000000BRLAVVACNOR4119
012026011502LEVE3       010METAL LEVE  ON      NM   R$  000000000339100000000034850000000003391000000000345100000000034590000000003455000000000345902727000000000000373600000000001289379800000000000000009999123100000010000000000000BRLEVEACNOR2202
012026011502MILS3       010MILLS       ON      NM   R$  000000000143000000000014400000000001390000000000139900000000013990000000001395000000000140102275000000000000786100000000001100477300000000000000009999123100000010000000000000BRMILSACNOR2132
012026011502MLAS3       010MULTILASER  ON  ED  NM   R$  000000000014400000000001440000000000138000000000014000000000001390000000000139000000000014100809000000000000714000000000000100350700000000000000009999123100000010000000000000BRMLASACNOR9102
012026011502MNDL3       010MUNDIAL     ON           R$  000000000153900000000015500000000001451000000000151700000000015390000000001451000000000154000011000000000000001600000000000002428500000000000000009999123100000010000000000000BRMNDLACNOR4109
012026011502MNPR3       010MINUPAR     ON           R$  000000000042700000000004330000000000418000000000042500000000004200000000000418000000000042600041000000000000004800000000000002040300000000000000009999123100000010000000000000BRMNPRACNOR5123
012026011502MOAR3       010MONT ARANHA ON           R$  000000000605100000000060510000000005820000000000590100000000058200000000005820000000000600000027000000000000002800000000000016525300000000000000009999123100000010000000000000BRMOARACNOR5242
012026011502MOTV3       010MOTIVA SA   ON      NM   R$  000000000151900000000015350000000001502000000000151800000000015110000000001510000000000151612713000000000006029600000000009155175100000000000000009999123100000010000000000000BRMOTVACNOR7102
012026011502MOVI3       010MOVIDA      ON      NM   R$  000000000101600000000010740000000001011000000000104600000000010590000000001058000000000106018505000000000012583000000000013167661400000000000000009999123100000010000000000000BRMOVIACNOR0126
012026011502PCAR3       010P.ACUCAR-CBDON  ATZ NM   R$  000000000037500000000003760000000000361000000000036500000000003630000000000362000000000036311366000000000009555800000000003491737600000000000000009999123100000010000000000000BRPCARACNOR3170
012026011502PFRM3       010PROFARMA    ON      NM   R$  000000000082500000000008440000000000819000000000083200000000008260000000000825000000000083300511000000000000085000000000000070767300000000000000009999123100000010000000000000BRPFRMACNOR1122
012026011502PGMN3       010PAGUE MENOS ON      NM   R$  000000000065700000000006630000000000640000000000064800000000006460000000000644000000000064707451000000000003152800000000002043832600000000000000009999123100000010000000000000BRPGMNACNOR8106
012026011502SIMH3       010SIMPAR      ON      NM   R$  000000000057300000000006120000000000571000000000059400000000006000000000000599000000000060011517000000000011398600000000006776160100000000000000009999123100000010000000000000BRSIMHACNOR0109
012026011502TASA3       010TAURUS ARMASON      N2   R$  000000000056900000000005690000000000556000000000056000000000005590000000000556000000000055900055000000000000009100000000000005097400000000000000009999123100000010000000000000BRTASAACNOR7106
012026011502TASA4       010TAURUS ARMASPN      N2   R$  000000000055500000000005550000000000531000000000054000000000005350000000000535000000000053801264000000000000560000000000000302826000000000000000009999123100000010000000000000BRTASAACNPR4106
012026011502TCSA3       010TECNISA     ON      NM   R$  000000000012500000000001270000000000124000000000012500000000001270000000000125000000000012700074000000000000012800000000000001605800000000000000009999123100000010000000000000BRTCSAACNOR3112
012026011502TECN3       010TECHNOS     ON      NM   R$  000000000071300000000007350000000000709000000000071800000000007190000000000709000000000071900062000000000000013900000000000009986300000000000000009999123100000010000000000000BRTECNACNOR6111
012026011502TELB4       010TELEBRAS    PN           R$  000000000077600000000007860000000000764000000000077400000000007750000000000774000000000078900009000000000000001200000000000000928800000000000000009999123100000010000000000000BRTELBACNPR9142
012026011502TEND3       010TENDA       ON      NM   R$  000000000240500000000024240000000002369000000000239200000000023760000000002376000000000238607414000000000001576300000000003771598500000000000000009999123100000010000000000000BRTENDACNOR4114
012026011502TFCO4       010TRACK FIELD PN      N2   R$  000000000157700000000015780000000001532000000000154300000000015320000000001531000000000154101799000000000000303300000000000468148400000000000000009999123100000010000000000000BRTFCOACNPR8121
012026011502TGMA3       010TEGMA       ON      NM   R$  000000000355500000000035980000000003553000000000357000000000035580000000003558000000000357000486000000000000066600000000000237771100000000000000009999123100000010000000000000BRTGMAACNOR7150
012026011502TIMS3       010TIM         ON      NM   R$  000000000228000000000023390000000002245000000000229600000000023150000000002313000000000232714764000000000007812500000000017943934100000000000000009999123100000010000000000000BRTIMSACNOR5129
012026011502VIVR3       010VIVER       ON      NM   R$  000000000006000000000000620000000000060000000000006000000000000610000000000059000000000006100084000000000000078700000000000004774700000000000000009999123100000010000000000000BRVIVRACNOR4125
012026011502VIVT3       010TELEF BRASILON           R$  000000000331500000000033250000000003226000000000327000000000032710000000003268000000000327112486000000000005019400000000016417855900000000000000009999123100000010000000000000BRVIVTACNOR0199
012026011502SYNE3       010SYN PROP TECON      NM   R$  000000000047700000000004880000000000477000000000048300000000004880000000000485000000000048801029000000000000540000000000000261347100000000000000009999123100000010000000000000BRSYNEACNOR2107
012026011502TAEE11      010TAESA       UNT     N2   R$  000000000397800000000040110000000003973000000000399400000000039880000000003988000000000399006873000000000001711300000000006835502800000000000000009999123100000010000000000000BRTAEECDAM10153
012026011502TAEE3       010TAESA       ON      N2   R$  000000000130500000000013280000000001305000000000132300000000013200000000001320000000000132400210000000000000041800000000000055304200000000000000009999123100000010000000000000BRTAEEACNOR9153
012026011502TAEE4       010TAESA       PN      N2   R$  000000000132800000000013430000000001327000000000133700000000013410000000001335000000000134100398000000000000093400000000000124946700000000000000009999123100000010000000000000BRTAEEACNPR6153
012026011502VITT3       010VITTIA      ON  EJ  NM   R$  000000000045800000000004620000000000454000000000045600000000004590000000000456000000000045900493000000000000069000000000000031509200000000000000009999123100000010000000000000BRVITTACNOR4113
012026011502VIVA3       010VIVARA S.A. ON      NM   R$  000000000293000000000029640000000002729000000000281800000000027370000000002736000000000274321526000000000007472900000000021065893200000000000000009999123100000010000000000000BRVIVAACNOR0109
012026011502PSSA3       010PORTO SEGUROON      NM   R$  000000000464500000000046940000000004516000000000459300000000046000000000004600000000000461214484000000000003877900000000017811276500000000000000009999123100000010000000000000BRPSSAACNOR7161
012026011502CPFE3       010CPFL ENERGIAON      NM   R$  000000000521200000000052440000000005152000000000519600000000051860000000005186000000000518709586000000000001524000000000007919256500000000000000009999123100000010000000000000BRCPFEACNOR0138
012026011502CPLE3       010COPEL       ON      NM   R$  000000000125600000000012730000000001236000000000125500000000012600000000001258000000000126025307000000000022657000000000028435280800000000000000009999123100000010000000000000BRCPLEACNOR8153
012026011508BOBR4       010BOMBRIL     PN           R$  000000000012000000000001200000000000120000000000012000000000001200000000000120000000000012800011000000000000005400000000000000648000000000000000009999123100000010000000000000BRBOBRACNPR3128
012026011508AGXY3       010AGROGALAXY  ON      NM   R$  000000000041500000000004190000000000408000000000041400000000004120000000000411000000000041600093000000000000009400000000000003893200000000000000009999123100000010000000000000BRAGXYACNOR4104
012026011508RPMG3       010PET MANGUINHON           R$  000000000021500000000002150000000000210000000000021100000000002100000000000211000000000021300003000000000000000800000000000000168800000000000000009999123100000010000000000000BRRPMGACNOR9194
012026011508RSID3       010ROSSI RESID ON      NM   R$  000000000017000000000001700000000000170000000000017000000000001700000000000170000000000017500004000000000000000800000000000000136000000000000000009999123100000010000000000000BRRSIDACNOR8121
012026011508JFEN3       010JOAO FORTES ON           R$  000000000009600000000001080000000000096000000000009900000000000990000000000098000000000009900013000000000000002500000000000000248700000000000000009999123100000010000000000000BRJFENACNOR0061
012026011508AMBP3       010AMBIPAR     ON      NM   R$  000000000002800000000000290000000000028000000000002800000000000280000000000028000000000002901659000000000005609800000000000159957400000000000000009999123100000010000000000000BRAMBPACNOR6105
012026011508AMER3       010AMERICANAS  ON      NM   R$  000000000048800000000004920000000000480000000000048600000000004800000000000480000000000048301953000000000001342800000000000653398400000000000000009999123100000010000000000000BRAMERACNOR6103
012026011508NEXP3       010NEXPE       ON           R$  000000000029300000000002930000000000283000000000028600000000002830000000000283000000000028900002000000000000000300000000000000085900000000000000009999123100000010000000000000BRNEXPACNOR0101
012026011508OIBR3       010OI          ON      N1   R$  000000000001000000000000100000000000010000000000001000000000000100000000000010000000000001100438000000000003250900000000000032509000000000000000009999123100000010000000000000BROIBRACNOR1112
012026011508OIBR4       010OI          PN      N1   R$  000000000012200000000001220000000000122000000000012200000000001220000000000120000000000012200012000000000000006800000000000000829600000000000000009999123100000010000000000000BROIBRACNPR8111
012026011508OSXB3       010OSX BRASIL  ON      NM   R$  000000000019400000000001940000000000194000000000019400000000001940000000000173000000000019400003000000000000000400000000000000077600000000000000009999123100000010000000000000BROSXBACNOR8109
012026011508HOOT4       010HOTEIS OTHONPN           R$  000000000065900000000006740000000000650000000000066400000000006580000000000651000000000066900014000000000000007200000000000004781900000000000000009999123100000010000000000000BRHOOTACNPR9015
012026011508CTAX3       010CONTAX      ON           R$  000000000009100000000000910000000000091000000000009100000000000910000000000091000000000009400002000000000000001000000000000000091000000000000000009999123100000010000000000000BRCTAXACNOR3119
012026011508CTSA4       010SANTANENSE  PN           R$  000000000021300000000002130000000000213000000000021300000000002130000000000206000000000021400001000000000000000200000000000000042600000000000000009999123100000010000000000000BRCTSAACNPR0063
012026011508LIGT3       010LIGHT S/A   ON      NM   R$  000000000046100000000004730000000000450000000000045700000000004570000000000453000000000045702875000000000001087700000000000497595500000000000000009999123100000010000000000000BRLIGTACNOR2125
012026011508PMAM3       010PARANAPANEMAON      NM   R$  000000000006700000000000770000000000066000000000007100000000000680000000000068000000000006901234000000000003982200000000000286199100000000000000009999123100000010000000000000BRPMAMACNOR3045
012026011510BMEB1       010MERCANTIL   DIR ORD N1   R$  000000000178600000000018900000000001616000000000175800000000018600000000001813000000000186000144000000000000033000000000000058021900000000000000009999123100000010000000000000BRBMEBD04OR7209
012026011510SMFT9       010SMART FIT   ON  REC NM   R$  000000000221000000000022100000000002090000000000213500000000020900000000001900000000000216000005000000000000000700000000000001494500000000000000009999123100000010000000000000BRSMFTR04OR0117
012026011510ABCB2       010ABC BRASIL  DIR PRE N2   R$  000000000045500000000004940000000000443000000000046700000000004460000000000446000000000046700202000000000000043500000000000020332500000000000000009999123100000010000000000000BRABCBD19PR1149
012026011510REDE1       010REDE ENERGIADIR ORD      R$  000000000011900000000001190000000000117000000000011800000000001170000000000082000000000000000002000000000000000700000000000000082900000000000000009999123100000010000000000000BRREDED06OR1133
012026011510PGMN1       010PAGUE MENOS DIR ORD NM   R$  000000000010600000000001110000000000093000000000010500000000001000000000000100000000000010300298000000000000127500000000000013409200000000000000009999123100000010000000000000BRPGMND05OR4105
012026011512MANA11      010FII MANATI  CI           R$  000000000093800000000009380000000000925000000000092800000000009280000000000928000000000093104634000000000000099747000000000092647036000000000000009999123100000010000000000000BRMANACTF006144
012026011512MAXR11      010FII MAX RET CI  ER       R$  000000000601100000000061680000000006011000000000610700000000061130000000006111000000000616900035000000000000000307000000000001875117000000000000009999123100000010000000000000BRMAXRCTF009287
012026011512RBDS11      010FII RBRESID2CI           R$  000000000024000000000002500000000000228000000000024900000000002280000000000220000000000025000006000000000000000409000000000000102056000000000000009999123100000010000000000000BRRBDSCTF006179
012026011512RBFF11      010FII RIOB FF CI           R$  000000000529600000000053280000000005290000000000530300000000052950000000005295000000000530401321000000000000003662000000000019421633000000000000009999123100000010000000000000BRRBFFCTF008179
012026011512RBHG11      010FII RBCRI IVCI           R$  000000000656000000000066100000000006523000000000656200000000065890000000006534000000000658901485000000000000004554000000000029887482000000000000009999123100000010000000000000BRRBHGCTF002153
012026011512RBHY11      010FII RB YIELDCI           R$  000000000766000000000076680000000007623000000000765000000000076610000000007623000000000766100290000000000000003904000000000029867225000000000000009999123100000010000000000000BRRBHYCTF005163
012026011512RBIR11      010FII RBRES IVCI           R$  000000000922000000000093490000000009150000000000918100000000092430000000009201000000000924300331000000000000023854000000000219023172000000000000009999123100000010000000000000BRRBIRCTF007125
012026011512RBOP11      010FII MERC BR CI  ER       R$  000000002080000000000218000000000020709000000002138200000000211090000000021001000000002130100017000000000000000026000000000000555932000000000000009999123100000010000000000000BRRBOPCTF009128
012026011512RBRD11      010FII RB II   CI           R$  000000000412200000000041500000000004071000000000410800000000040710000000004071000000000413900212000000000000003464000000000014233010000000000000009999123100000010000000000000BRRBRDCTF008282
012026011512RBRL11      010FII RBR LOG CI  ER       R$  000000000928800000000093500000000009264000000000932500000000093290000000009302000000000933603314000000000000011111000000000103614657000000000000009999123100000010000000000000BRRBRLCTF001173
012026011512RBRP11      010FII RBR PROPCI  ER       R$  000000000537000000000054490000000005370000000000541500000000054030000000005403000000000541202984000000000000016650000000000090175541000000000000009999123100000010000000000000BRRBRPCTF002192
012026011512RBRR11      010FII RBRHGRADCI  ER       R$  000000000871200000000087300000000008694000000000871200000000087020000000008702000000000871006486000000000000024767000000000215770320000000000000009999123100000010000000000000BRRBRRCTF008200
012026011512RBRS11      010FII RIOB RR CI           R$  000000000365300000000038370000000003480000000000370100000000034800000000003472000000000380000010000000000000000069000000000000255414000000000000009999123100000010000000000000BRRBRSCTF006150
012026011512RBRX11      010FII RBR MULTCI           R$  000000000084400000000008450000000000830000000000083500000000008370000000000837000000000083807613000000000000752354000000000628561201000000000000009999123100000010000000000000BRRBRXCTF006147
012026011512GLOG11      010FII PLURAL LCI           R$  000000000658100000000065810000000006410000000000646600000000064100000000006410000000000663700030000000000000001258000000000008135407000000000000009999123100000010000000000000BRGLOGCTF000132
012026011512GLPF11      010FII GLPF    CI  ER       R$  000000001056300000000105630000000010563000000001056300000000105630000000000001000000000000000001000000000000000190000000000002006970000000000000009999123100000010000000000000BRGLPFCTF009111
012026011512INLG11      010FII INTER LGCI           R$  000000000766500000000077040000000007659000000000767500000000076600000000007660000000000767000427000000000000003352000000000025726980000000000000009999123100000010000000000000BRINLGCTF008116
012026011512INRD11      010FII INTER RDCI           R$  000000000748100000000075980000000007481000000000754600000000075930000000007593000000000759400081000000000000000785000000000005923893000000000000009999123100000010000000000000BRINRDCTF002116
012026011512WPLZ11      010FII W PLAZA CI           R$  000000000516900000000051690000000005167000000000516800000000051680000000005000000000000516800008000000000000000021000000000000108535000000000000009999123100000010000000000000BRWPLZCTF004286
012026011512ZAGH11      010FII ZAGH    CI  ER       R$  000000000100000000000010000000000001000000000000100000000000010000000000001000000000000110200002000000000000000004000000000000004000000000000000009999123100000010000000000000BRZAGHCTF007125
012026011512ZAVC11      010FII ZAVIT C CI           R$  000000000090500000000009330000000000905000000000090900000000009110000000000910000000000091100052000000000000006725000000000006119731000000000000009999123100000010000000000000BRZAVCCTF007122
012026011512ZAVI11      010FII ZAVIT R CI           R$  000000000099300000000010350000000000993000000000101500000000010040000000001004000000000102001875000000000000009217000000000009363379000000000000009999123100000010000000000000BRZAVICTF004141
012026011512SNCI11      010FII SUNO CRICI           R$  000000000866500000000087950000000008665000000000877100000000087650000000008765000000000878200671000000000000009093000000000079757551000000000000009999123100000010000000000000BRSNCICTF002154
012026011512SNEL11      010FII SUNO EL CI           R$  000000000088000000000008830000000000869000000000087800000000008750000000000875000000000088103168000000000000253872000000000222991704000000000000009999123100000010000000000000BRSNELCTF010129
012026011512SNFF11      010FII SUNOFOFICI           R$  000000000789000000000080370000000007869000000000791800000000079510000000007951000000000796000686000000000000013805000000000109321471000000000000009999123100000010000000000000BRSNFFCTF001157
012026011512SNLG11      010FII SUNO LG CI           R$  000000000014900000000001490000000000135000000000014300000000001440000000000144000000000014600586000000000000080571000000000011532831000000000000009999123100000010000000000000BRSNLGCTF007113
012026011512SNME11      010FII SNME    CI           R$  000000000099000000000009900000000000973000000000098100000000009820000000000979000000000098200664000000000000078473000000000077001671000000000000009999123100000010000000000000BRSNMECTF000125
012026011512DAMA11      010FII DAMA    CI  ER       R$  000000000075000000000007500000000000713000000000073000000000007490000000000733000000000074800024000000000000000293000000000000214021000000000000009999123100000010000000000000BRDAMACTF007120
012026011512DAMT11      010FII DIAMANTECI           R$  000000000093800000000009380000000000938000000000093800000000009380000000000938000000000139700005000000000000000010000000000000009380000000000000009999123100000010000000000000BRDAMTCTF007118
012026011512DAYM11      010FII DAYC REMCI           R$  000000000038200000000003850000000000380000000000038300000000003850000000000383000000000038500042000000000000002576000000000000988158000000000000009999123100000010000000000000BRDAYMCTF007105
012026011512SPTW11      010FII SPTW PAXCI           R$  000000000395600000000039900000000003900000000000393400000000039880000000003907000000000398800239000000000000002277000000000008958033000000000000009999123100000010000000000000BRSPTWCTF002254
012026011512SPXS11      010FII SPX SYN CI  ER       R$  000000000087300000000008900000000000871000000000087700000000008890000000000882000000000088903036000000000000035994000000000031574527000000000000009999123100000010000000000000BRSPXSCTF002143
012026011512DEVA11      010FII DEVANT  CI  ER       R$  000000000267500000000027100000000002630000000000267400000000026950000000002688000000000269504815000000000000045855000000000122634138000000000000009999123100000010000000000000BRDEVACTF000168
012026011512GGRC11      010FII GGRCOVEPCI           R$  000000000099600000000009960000000000991000000000099400000000009950000000000994000000000099525535000000000000685093000000000681003740000000000000009999123100000010000000000000BRGGRCCTF002216
012026011512DVFF11      010FII DEVA FOFCI  ER       R$  000000000059300000000005930000000000588000000000059100000000005920000000000591000000000059200381000000000000007840000000000004638210000000000000009999123100000010000000000000BRDVFFCTF006157
012026011512CACR11      010CARTESIA FIICI           R$  000000000798000000000079800000000007949000000000797400000000079800000000007968000000000798001202000000000000015974000000000127390725000000000000009999123100000010000000000000BRCACRCTF004153
012026011512CARE11      010FII DEA CARECI           R$  000000000010800000000001140000000000107000000000011200000000001110000000000111000000000011200128000000000000006474000000000000730348000000000000009999123100000010000000000000BRCARECTF000112
012026011512CBOP11      010FII CBOP PAXCI           R$  000000000389600000000040000000000003751000000000394600000000040000000000004001000000000418500038000000000000000407000000000001606145000000000000009999123100000010000000000000BRCBOPCTF001249
012026011512CCME11      010FII CANUMA  CI  ER       R$  000000000090900000000009090000000000898000000000090300000000009090000000000908000000000090900874000000000000013179000000000011905335000000000000009999123100000010000000000000BRCCMECTF007142
012026011512BIME11      010FII BRIO ME CI  ER       R$  000000000062500000000006280000000000619000000000062100000000006190000000000619000000000062400261000000000000013219000000000008220362000000000000009999123100000010000000000000BRBIMECTF006151
012026011512FVPQ11      010FII V PARQUECI           R$  000000000701100000000072150000000007011000000000714400000000071000000000007100000000000715300073000000000000002125000000000015182796000000000000009999123100000010000000000000BRFVPQCTF015276
012026011512FYTO11      010FII FYTO    CI  ER       R$  000000000086000000000008740000000000853000000000086400000000008680000000000854000000000086800244000000000000019249000000000016650298000000000000009999123100000010000000000000BRFYTOCTF008110
012026011512BLCA11      010FII BLCA VBICI  ER       R$  000000000949500000000094950000000009495000000000949500000000094950000000009300000000000949500004000000000000000004000000000000037980000000000000009999123100000010000000000000BRBLCACTF009150
012026011512BLMG11      010FII BLUE LOGCI  ER       R$  000000000347400000000034740000000003413000000000345900000000034260000000003426000000000343301105000000000000003474000000000012017769000000000000009999123100000010000000000000BRBLMGCTF005166
012026011512BLMO11      010FII BLMO VBICI           R$  000000000908900000000090890000000009089000000000908900000000090890000000008501000000000908700001000000000000000001000000000000009089000000000000009999123100000010000000000000BRBLMOCTF009150
012026011512BMLC11      010FII BMBRC LCCI  ER       R$  000000000955500000000099000000000009555000000000989800000000099000000000009625000000000995000016000000000000001132000000000011204969000000000000009999123100000010000000000000BRBMLCCTF004270
012026011512BNFS11      010FII BANRISULCI           R$  000000000725100000000072600000000007152000000000720300000000072600000000007252000000000726000097000000000000000532000000000003832305000000000000009999123100000010000000000000BRBNFSCTF000260
012026011512ICRI11      010FII CI IPCA CI           R$  000000000914400000000092200000000008999000000000911300000000091090000000009040000000000910902950000000000000028652000000000261114695000000000000009999123100000010000000000000BRICRICTF004123
012026011512XLPR11      010FII XLPR RI CI           R$  000000000801800000000081400000000008018000000000809000000000081000000000007900000000000812800014000000000000000418000000000003381771000000000000009999123100000010000000000000BRXLPRCTF009101
012026011512XPCI11      010FII XP CRED CI           R$  000000000836300000000084000000000008351000000000836800000000083540000000008354000000000838702971000000000000017471000000000146210248000000000000009999123100000010000000000000BRXPCICTF007176
012026011512XPCM11      010FII XP MACAECI           R$  000000000079400000000008280000000000786000000000079600000000007930000000000793000000000079500115000000000000001951000000000001553935000000000000009999123100000010000000000000BRXPCMCTF009230
012026011512XPIN11      010FII XP INDL CI           R$  000000000824800000000082480000000008199000000000820900000000082050000000008198000000000821500521000000000000005394000000000044279861000000000000009999123100000010000000000000BRXPINCTF004192
012026011512XPLG11      010FII XP LOG  CI           R$  000000001040000000000104000000000010291000000001035300000000103450000000010325000000001034506176000000000000073820000000000764269663000000000000009999123100000010000000000000BRXPLGCTF002198
012026011512XPML11      010FII XP MALLSCI           R$  000000001104900000000110720000000011030000000001105200000000110510000000011051000000001105217864000000000000106659000000001178864965000000000000009999123100000010000000000000BRXPMLCTF000205
012026011512XPSF11      010FII XP SELECCI           R$  000000000067300000000006760000000000671000000000067400000000006740000000000672000000000067401256000000000000044195000000000029790422000000000000009999123100000010000000000000BRXPSFCTF009175
