00COTAHIST.2026BOVESPA 20260225                                                                                                                                                                                                                      
012026022502EUCA3       010EUCATEX     ON      N1   R$  000000000230500000000023050000000002305000000000230500000000023050000000002130000000000239500001000000000000000100000000000000230500000000000000009999123100000010000000000000BREUCAACNOR1159
012026022502EUCA4       010EUCATEX     PN      N1   R$  000000000216900000000021800000000002142000000000215800000000021430000000002142000000000217500142000000000000018500000000000039941200000000000000009999123100000010000000000000BREUCAACNPR8046
012026022502EVEN3       010EVEN        ON      NM   R$  000000000084500000000008530000000000834000000000084300000000008460000000000840000000000084602453000000000000640300000000000540396800000000000000009999123100000010000000000000BREVENACNOR8121
012026022502EZTC3       010EZTEC       ON      NM   R$  000000000158200000000016140000000001561000000000158100000000015770000000001577000000000157906966000000000002134900000000003376942600000000000000009999123100000010000000000000BREZTCACNOR0132
012026022502ONCO3       010ONCOCLINICASON      NM   R$  000000000026600000000002730000000000256000000000026400000000002620000000000261000000000026205163000000000004531300000000001196758200000000000000009999123100000010000000000000BRONCOACNOR6102
012026022502OPCT3       010OCEANPACT   ON      NM   R$  000000000094000000000009480000000000922000000000093300000000009290000000000929000000000093601929000000000000629500000000000587810500000000000000009999123100000010000000000000BROPCTACNOR0100
012026022502ORVR3       010ORIZON      ON      NM   R$  000000000723600000000074000000000007223000000000734200000000073540000000007322000000000735503526000000000000733100000000005382825000000000000000009999123100000010000000000000BRORVRACNOR0101
012026022502RADL3       010RAIADROGASILON      NM   R$  000000000260200000000026320000000002526000000000255100000000025440000000002540000000000254419986000000000006653900000000016980684700000000000000009999123100000010000000000000BRRADLACNOR0165
012026022502SAPR11      010SANEPAR     UNT     N2   R$  000000000470200000000047990000000004653000000000471500000000047270000000004714000000000472705243000000000001051100000000004956210000000000000000009999123100000010000000000000BRSAPRCDAM13121
012026022502SANB11      010SANTANDER BRUNT          R$  000000000357900000000036150000000003432000000000348600000000034380000000003438000000000345611516000000000003723900000000012983807300000000000000009999123100000010000000000000BRSANBCDAM13172
012026022502SANB3       010SANTANDER BRON           R$  000000000178000000000018070000000001722000000000174100000000017260000000001726000000000174100328000000000000071600000000000124710900000000000000009999123100000010000000000000BRSANBACNOR8179
012026022502SANB4       010SANTANDER BRPN           R$  000000000178000000000018020000000001715000000000174800000000017270000000001727000000000174100368000000000000112400000000000196482200000000000000009999123100000010000000000000BRSANBACNPR5179
012026022502GOLL54      010GOL         PN *P        R$  000000000111000000000011300000000001110000000000112800000000011300000000001124000000000113100301000000000058262000000000000065733533000000000000009999123100010000000000000000BRGOLLA01PR5100
012026022502GRND3       010GRENDENE    ON      NM   R$  000000000049800000000005000000000000493000000000049600000000004970000000000495000000000049805278000000000002673700000000001326197900000000000000009999123100000010000000000000BRGRNDACNOR3182
012026022502HYPE3       010HYPERA      ON      NM   R$  000000000242000000000024380000000002385000000000240400000000024080000000002389000000000240807949000000000001671500000000004019397200000000000000009999123100000010000000000000BRHYPEACNOR0150
012026022502ITUB3       010ITAUUNIBANCOON      N1   R$  000000000449200000000045290000000004405000000000444800000000044380000000004438000000000445003956000000000001219500000000005424718400000000000000009999123100000010000000000000BRITUBACNOR4365
012026022502ITUB4       010ITAUUNIBANCOPN      N1   R$  000000000483400000000048500000000004707000000000476800000000047790000000004765000000000477933785000000000028980200000000138188207100000000000000009999123100000010000000000000BRITUBACNPR1365
012026022502LUPA3       010LUPATECH    ON      NM   R$  000000000011900000000001220000000000119000000000011900000000001200000000000120000000000012200012000000000000008800000000000001054400000000000000009999123100000010000000000000BRLUPAACNOR8112
012026022502LUXM4       010TREVISA     PN           R$  000000000043000000000004300000000000430000000000043000000000004300000000000406000000000043500001000000000000002000000000000000860000000000000000009999123100000010000000000000BRLUXMACNPR4053
012026022502LWSA3       010LWSA        ON      NM   R$  000000000035500000000003600000000000344000000000034900000000003530000000000351000000000035405060000000000006149300000000002152092000000000000000009999123100000010000000000000BRLWSAACNOR8106
012026022502UCAS3       010UNICASA     ON      NM   R$  000000000014100000000001440000000000139000000000014200000000001440000000000142000000000014400060000000000000052900000000000007531100000000000000009999123100000010000000000000BRUCASACNOR1114
012026022502UGPA3       010ULTRAPAR    ON      NM   R$  000000000276700000000027820000000002670000000000269400000000026750000000002670000000000267615515000000000004826200000000013002535900000000000000009999123100000010000000000000BRUGPAACNOR8159
012026022502FHER3       010FER HERINGERON      NM   R$  000000000042300000000004230000000000411000000000041300000000004110000000000410000000000041100011000000000000003600000000000001488900000000000000009999123100000010000000000000BRFHERACNOR5103
012026022502FICT3       010FICTORALIMENON           R$  000000000006700000000000740000000000060000000000006700000000000660000000000066000000000006900261000000000000409900000000000027604900000000000000009999123100000010000000000000BRFICTACNOR3101
012026022502FIQE3       010UNIFIQUE    ON      NM   R$  000000000053200000000005400000000000523000000000053100000000005230000000000523000000000052601057000000000000529100000000000281336400000000000000009999123100000010000000000000BRFIQEACNOR5112
012026022502RDOR3       010REDE D OR   ON      NM   R$  000000000435300000000043700000000004252000000000431500000000043520000000004333000000000435229788000000000007202700000000031080583200000000000000009999123100000010000000000000BRRDORACNOR8119
012026022502SLCE3       010SLC AGRICOLAON      NM   R$  000000000163800000000016530000000001615000000000164100000000016530000000001651000000000165406678000000000001783000000000002927592700000000000000009999123100000010000000000000BRSLCEACNOR2128
012026022502IFCM3       010INFRACOMM   ON      NM   R$  000000000006400000000000700000000000060000000000006400000000000640000000000062000000000006400449000000000000604900000000000039003700000000000000009999123100000010000000000000BRIFCMACNOR8109
012026022502IGTI11      010IGUATEMI S.AUNT ED  N1   R$  000000000295600000000029770000000002925000000000295200000000029440000000002941000000000294614166000000000002982800000000008807524600000000000000009999123100000010000000000000BRIGTICDAM16109
012026022502IGTI3       010IGUATEMI S.AON  ED  N1   R$  000000000034000000000003420000000000330000000000033600000000003400000000000339000000000034000141000000000000097500000000000032794400000000000000009999123100000010000000000000BRIGTIACNOR8109
012026022502INEP3       010INEPAR      ON           R$  000000000013200000000001360000000000126000000000013000000000001260000000000125000000000012800140000000000000102400000000000013393300000000000000009999123100000010000000000000BRINEPACNOR1145
012026022502INEP4       010INEPAR      PN           R$  000000000012100000000001210000000000111000000000011400000000001110000000000111000000000011300046000000000000040400000000000004608300000000000000009999123100000010000000000000BRINEPACNPR8145
012026022502BRAV3       010BRAVA       ON      NM   R$  000000000188900000000018970000000001832000000000186200000000018660000000001866000000000186708238000000000004413400000000008218008500000000000000009999123100000010000000000000BRBRAVACNOR3103
012026022502CPFE3       010CPFL ENERGIAON      NM   R$  000000000511800000000051190000000004984000000000506000000000050870000000005065000000000508708436000000000001755600000000008883606000000000000000009999123100000010000000000000BRCPFEACNOR0138
012026022502CPLE3       010COPEL       ON      NM   R$  000000000150000000000015000000000001475000000000148500000000014870000000001487000000000148824687000000000013864600000000020596312100000000000000009999123100000010000000000000BRCPLEACNOR8153
012026022502RECV3       010PETRORECSA  ON      NM   R$  000000000120000000000012090000000001174000000000119300000000011970000000001196000000000119710044000000000004501100000000005371979400000000000000009999123100000010000000000000BRRECVACNOR3110
012026022502REDE3       010REDE ENERGIAON           R$  000000000063300000000006330000000000629000000000063100000000006290000000000628000000000063100006000000000000001500000000000000947500000000000000009999123100000010000000000000BRREDEACNOR7134
012026022502RENT3       010LOCALIZA    ON      NM   R$  000000000521700000000052370000000005047000000000510100000000050790000000005075000000000509419613000000000005015700000000025586383600000000000000009999123100000010000000000000BRRENTACNOR4205
012026022502RENT4       010LOCALIZA    PN      NM   R$  000000000500800000000050350000000004859000000000489400000000048780000000004874000000000487800742000000000000119900000000000586871400000000000000009999123100000010000000000000BRRENTACNPR1100
012026022502DASA3       010DASA        ON      NM   R$  000000000041900000000004280000000000410000000000041700000000004100000000000410000000000041401630000000000000828000000000000345380900000000000000009999123100000010000000000000BRDASAACNOR1123
012026022502DESK3       010DESKTOP     ON      NM   R$  000000000138500000000013850000000001304000000000132700000000013450000000001345000000000134604498000000000001223800000000001624942900000000000000009999123100000010000000000000BRDESKACNOR2106
012026022502DEXP3       010DEXXOS PAR  ON      N1   R$  000000000076900000000007690000000000738000000000074800000000007440000000000744000000000075400772000000000000168300000000000125992200000000000000009999123100000010000000000000BRDEXPACNOR1109
012026022502DEXP4       010DEXXOS PAR  PN      N1   R$  000000000075900000000007600000000000755000000000075800000000007550000000000753000000000075800011000000000000009200000000000006976800000000000000009999123100000010000000000000BRDEXPACNPR8109
012026022502DIRR3       010DIRECIONAL  ON      NM   R$  000000000166300000000016650000000001599000000000161900000000016150000000001611000000000161517589000000000006971000000000011292025800000000000000009999123100000010000000000000BRDIRRACNOR0123
012026022502DMVF3       010D1000VFARMA ON      NM   R$  000000000073200000000007370000000000721000000000073000000000007370000000000722000000000073700281000000000000049700000000000036294800000000000000009999123100000010000000000000BRDMVFACNOR9100
012026022502DOTZ3       010DOTZ SA     ON      NM   R$  000000000030600000000003060000000000295000000000029900000000002980000000000296000000000029800027000000000000005700000000000001706600000000000000009999123100000010000000000000BRDOTZACNOR7101
012026022502DXCO3       010DEXCO       ON      NM   R$  000000000057400000000005760000000000553000000000056200000000005620000000000560000000000056303472000000000002246700000000001264556200000000000000009999123100000010000000000000BRDXCOACNOR8108
012026022502ATED3       010ATOM EDUC   ON           R$  000000000020300000000002040000000000203000000000020300000000002030000000000203000000000020700006000000000000001300000000000000264000000000000000009999123100000010000000000000BRATEDACNOR1100
012026022502AUAU3       010PETZCOBASI  ON      NM   R$  000000000030000000000003060000000000299000000000030100000000003020000000000300000000000030205341000000000002785300000000000840742700000000000000009999123100000010000000000000BRAUAUACNOR1100
012026022502BBSE3       010BBSEGURIDADEON  EDR NM   R$  000000000349500000000035170000000003474000000000349300000000035010000000003500000000000350212752000000000004448400000000015540777100000000000000009999123100000010000000000000BRBBSEACNOR5128
012026022502CYRE3       010CYRELA REALTON      NM   R$  000000000317700000000032070000000003098000000000314400000000031690000000003156000000000316922942000000000006224600000000019575898000000000000000009999123100000010000000000000BRCYREACNOR7143
012026022502CYRE4       010CYRELA REALTPN      NM   R$  000000000301600000000030280000000002971000000000299600000000030010000000003001000000000302501586000000000000257000000000000770131000000000000000009999123100000010000000000000BRCYREACNPR4114
012026022502ALPK3       010ESTAPAR     ON      NM   R$  000000000053700000000005390000000000517000000000052900000000005250000000000525000000000052600693000000000000293300000000000155198600000000000000009999123100000010000000000000BRALPKACNOR9101
012026022502ALUP11      010ALUPAR      UNT     N2   R$  000000000360100000000036190000000003545000000000358500000000036190000000003582000000000361906228000000000001045200000000003747880600000000000000009999123100000010000000000000BRALUPCDAM15126
012026022502ALUP3       010ALUPAR      ON      N2   R$  000000000131100000000013470000000001302000000000132100000000013230000000001300000000000133800053000000000000011300000000000014929200000000000000009999123100000010000000000000BRALUPACNOR8126
012026022502ALUP4       010ALUPAR      PN      N2   R$  000000000112300000000011370000000001122000000000112600000000011260000000001125000000000114600042000000000000010100000000000011373200000000000000009999123100000010000000000000BRALUPACNPR5126
012026022502AMAR3       010LOJAS MARISAON      NM   R$  000000000009300000000000950000000000090000000000009100000000000930000000000092000000000009300307000000000000776900000000000071396000000000000000009999123100000010000000000000BRAMARACNOR4115
012026022502AMOB3       010AUTOMOB     ON      NM   R$  000000000130700000000013350000000001307000000000131800000000013200000000001320000000000133400120000000000000026500000000000034946600000000000000009999123100000010000000000000BRAMOBACNOR9101
012026022502ANIM3       010ANIMA       ON      NM   R$  000000000051600000000005240000000000498000000000050800000000005080000000000508000000000051111731000000000006470300000000003289785200000000000000009999123100000010000000000000BRANIMACNOR6110
012026022502PCAR3       010P.ACUCAR-CBDON      NM   R$  000000000031200000000003120000000000283000000000029200000000003060000000000306000000000030712025000000000057588900000000016862603500000000000000009999123100000010000000000000BRPCARACNOR3170
012026022502HAGA3       010HAGA S/A    ON           R$  000000000019900000000002590000000000199000000000023000000000002170000000000213000000000023000020000000000000005600000000000001288700000000000000009999123100000010000000000000BRHAGAACNOR7103
012026022502HAGA4       010HAGA S/A    PN           R$  000000000013300000000001430000000000129000000000013600000000001390000000000133000000000013700055000000000000048400000000000006598600000000000000009999123100000010000000000000BRHAGAACNPR4103
012026022502HAPV3       010HAPVIDA     ON      NM   R$  000000000105200000000010580000000001009000000000102800000000010260000000001025000000000102610749000000000007566800000000007779063500000000000000009999123100000010000000000000BRHAPVACNOR4119
012026022502ARML3       010ARMAC       ON      NM   R$  000000000061500000000006300000000000603000000000061600000000006170000000000617000000000062102366000000000001138300000000000701434700000000000000009999123100000010000000000000BRARMLACNOR1117
012026022502ARND3       010ARANDU      ON      NM   R$  000000000008400000000000840000000000084000000000008400000000000840000000000075000000000008400002000000000000000500000000000000042000000000000000009999123100000010000000000000BRARNDACNOR6100
012026022502ASAI3       010ASSAI       ON      NM   R$  000000000098300000000009850000000000933000000000095000000000009360000000000936000000000093815768000000000011394100000000010826917200000000000000009999123100000010000000000000BRASAIACNOR0109
012026022502BALM4       010BAUMER      PN           R$  000000000194900000000020990000000001949000000000202700000000020900000000001950000000000209300012000000000000001300000000000002635900000000000000009999123100000010000000000000BRBALMACNPR2060
012026022502BAUH4       010EXCELSIOR   PN           R$  000000000920000000000092990000000009200000000000924900000000092990000000006001000000000930000003000000000000000400000000000003699800000000000000009999123100000010000000000000BRBAUHACNPR3119
012026022502BAZA3       010AMAZONIA    ON           R$  000000000880000000000088150000000008780000000000880400000000087800000000008774000000000882400016000000000000002200000000000019369800000000000000009999123100000010000000000000BRBAZAACNOR0180
012026022502BBAS3       010BRASIL      ON  ERJ NM   R$  000000000273100000000027810000000002728000000000275800000000027580000000002757000000000275847524000000000029552800000000081535997700000000000000009999123100000010000000000000BRBBASACNOR3335
012026022502BRAP3       010BRADESPAR   ON      N1   R$  000000000210600000000021700000000002106000000000215300000000021700000000002166000000000217000454000000000000126000000000000271320700000000000000009999123100000010000000000000BRBRAPACNOR5153
012026022502BRAP4       010BRADESPAR   PN      N1   R$  000000000247500000000025360000000002469000000000251500000000025280000000002524000000000252910258000000000004604000000000011581914900000000000000009999123100000010000000000000BRBRAPACNPR2153
012026022502CMIN3       010CSNMINERACAOON      N2   R$  000000000054500000000005550000000000544000000000054900000000005480000000000548000000000054908828000000000009376400000000005152950100000000000000009999123100000010000000000000BRCMINACNOR2116
012026022502COCE3       010COELCE      ON           R$  000000000380000000000038000000000003800000000000380000000000038000000000003800000000000743000001000000000000000100000000000000380000000000000000009999123100000010000000000000BRCOCEACNOR0149
012026022502COCE5       010COELCE      PNA          R$  000000000309400000000031300000000003066000000000309100000000030710000000003071000000000310600016000000000000002200000000000006800700000000000000009999123100000010000000000000BRCOCEACNPA3150
012026022502COGN3       010COGNA ON    ON      NM   R$  000000000037000000000003730000000000356000000000036200000000003600000000000359000000000036024250000000000036562500000000013241814000000000000000009999123100000010000000000000BRCOGNACNOR2110
012026022502CXSE3       010CAIXA SEGURION      NM   R$  000000000184400000000018460000000001818000000000182900000000018180000000001818000000000182307569000000000002831700000000005181931700000000000000009999123100000010000000000000BRCXSEACNOR7114
012026022502ENGI11      010ENERGISA    UNT     N2   R$  000000000546800000000054690000000005384000000000542600000000054310000000005417000000000543108788000000000001963200000000010652537600000000000000009999123100000010000000000000BRENGICDAM16140
012026022502ENGI3       010ENERGISA    ON      N2   R$  000000000128600000000012990000000001268000000000127500000000012780000000001270000000000128600023000000000000004700000000000005996300000000000000009999123100000010000000000000BRENGIACNOR0150
012026022502ENGI4       010ENERGISA    PN      N2   R$  000000000104900000000010500000000001004000000000103100000000010380000000001025000000000104400041000000000000008300000000000008563200000000000000009999123100000010000000000000BRENGIACNPR7146
012026022502ENJU3       010ENJOEI      ON      NM   R$  000000000012100000000001210000000000112000000000011400000000001120000000000111000000000011200681000000000000897200000000000102898600000000000000009999123100000010000000000000BRENJUACNOR9100
012026022502ENMT3       010ENERGISA MT ON           R$  000000000485000000000048500000000004850000000000485000000000048500000000004650000000000485000003000000000000000600000000000002910000000000000000009999123100000010000000000000BRENMTACNOR5125
012026022502EPAR3       010EMBPAR S/A  ON           R$  000000000035200000000003590000000000348000000000035000000000003480000000000348000000000035200040000000000000016400000000000005740900000000000000009999123100000010000000000000BREPARACNOR9107
012026022502EQPA3       010EQTL PARA   ON           R$  000000000063700000000006420000000000636000000000063700000000006390000000000636000000000064000018000000000000006000000000000003825400000000000000009999123100000010000000000000BREQPAACNOR1112
012026022502EQPA5       010EQTL PARA   PNA          R$  000000000075100000000007510000000000751000000000075100000000007510000000000750000000000110000001000000000000000100000000000000075100000000000000009999123100000010000000000000BREQPAACNPA4112
012026022502EQTL3       010EQUATORIAL  ON      NM   R$  000000000425400000000042680000000004176000000000423100000000042240000000004222000000000422520832000000000005423000000000022947396200000000000000009999123100000010000000000000BREQTLACNOR0135
012026022502ALPA3       010ALPARGATAS  ON      N1   R$  000000000124100000000012820000000001235000000000126200000000012500000000001250000000000127400042000000000000007400000000000009339000000000000000009999123100000010000000000000BRALPAACNOR0234
012026022502ALPA4       010ALPARGATAS  PN      N1   R$  000000000147100000000015180000000001471000000000149900000000015050000000001505000000000150804516000000000001249900000000001873881200000000000000009999123100000010000000000000BRALPAACNPR7235
012026022502BPAC11      010BTGP BANCO  UNT     N2   R$  000000000615000000000061840000000006050000000000612600000000061800000000006177000000000618130253000000000009084500000000055652856800000000000000009999123100000010000000000000BRBPACUNT006128
012026022502BPAC3       010BTGP BANCO  ON      N2   R$  000000000446500000000045140000000004421000000000446300000000044520000000004451000000000449300037000000000000004200000000000018745400000000000000009999123100000010000000000000BRBPACACNOR7139
012026022502BPAC5       010BTGP BANCO  PNA     N2   R$  000000000114500000000011630000000001131000000000113800000000011580000000001141000000000115900051000000000000010500000000000011952400000000000000009999123100000010000000000000BRBPACACNPA0139
012026022502CSUD3       010CSU DIGITAL ON      NM   R$  000000000192000000000019300000000001895000000000191800000000019250000000001919000000000193200963000000000000107100000000000205484900000000000000009999123100000010000000000000BRCSUDACNOR5117
012026022502CTKA4       010KARSTEN     PN           R$  000000000485000000000049500000000004780000000000486600000000048000000000004737000000000495000005000000000000000500000000000002433000000000000000009999123100000010000000000000BRCTKAACNPR7043
012026022502CURY3       010CURY S/A    ON      NM   R$  000000000400400000000040040000000003865000000000391300000000039200000000003917000000000392215466000000000003146200000000012311902900000000000000009999123100000010000000000000BRCURYACNOR3116
012026022502CVCB3       010CVC BRASIL  ON      NM   R$  000000000023800000000002390000000000222000000000022700000000002250000000000225000000000022610585000000000034981900000000007967661100000000000000009999123100000010000000000000BRCVCBACNOR1118
012026022502ENEV3       010ENEVA       ON      NM   R$  000000000221200000000022180000000002149000000000217300000000021550000000002155000000000215721331000000000010502800000000022832895300000000000000009999123100000010000000000000BRENEVACNOR8107
012026022502AERI3       010AERIS       ON      NM   R$  000000000028300000000002860000000000277000000000027900000000002780000000000277000000000027800156000000000000047500000000000013258400000000000000009999123100000010000000000000BRAERIACNOR4102
012026022502AFLT3       010AFLUENTE T  ON           R$  000000000072900000000007290000000000729000000000072900000000007290000000000731000000000076000001000000000000000100000000000000072900000000000000009999123100000010000000000000BRAFLTACNOR1126
012026022502AGRO3       010BRASILAGRO  ON      NM   R$  000000000215900000000021590000000002124000000000214300000000021580000000002147000000000215800830000000000000116400000000000249544000000000000000009999123100000010000000000000BRAGROACNOR7116
012026022502ALLD3       010ALLIED      ON      NM   R$  000000000076000000000007680000000000755000000000076000000000007630000000000760000000000076302088000000000000504200000000000383409700000000000000009999123100000010000000000000BRALLDACNOR3110
012026022502ALOS3       010ALLOS       ON  ED  NM   R$  000000000323400000000032340000000003186000000000321100000000032130000000003209000000000321414741000000000003699000000000011877505400000000000000009999123100000010000000000000BRALOSACNOR5119
012026022502B3SA3       010B3          ON      NM   R$  000000000182200000000018540000000001807000000000181900000000018140000000001813000000000181432148000000000029596100000000053848255600000000000000009999123100000010000000000000BRB3SAACNOR6140
012026022502VALE3       010VALE        ON  ATZ NM   R$  000000000890300000000090330000000008851000000000896400000000089970000000008996000000000899844628000000000028697600000000257271578300000000000000009999123100000010000000000000BRVALEACNOR0219
012026022502VITT3       010VITTIA      ON      NM   R$  000000000040500000000004100000000000399000000000040300000000004020000000000402000000000040600762000000000000187900000000000075755000000000000000009999123100000010000000000000BRVITTACNOR4113
012026022502VIVA3       010VIVARA S.A. ON      NM   R$  000000000319000000000032190000000003155000000000319000000000032000000000003189000000000320012292000000000003078800000000009821441800000000000000009999123100000010000000000000BRVIVAACNOR0109
012026022502VBBR3       010VIBRA       ON      NM   R$  000000000311600000000031160000000003047000000000307800000000030740000000003071000000000307426760000000000009130800000000028107714100000000000000009999123100000010000000000000BRVBBRACNOR1114
012026022502USIM3       010USIMINAS    ON      N1   R$  000000000065000000000006840000000000650000000000067300000000006840000000000679000000000068400657000000000000377000000000000253737100000000000000009999123100000010000000000000BRUSIMACNOR3167
012026022502USIM5       010USIMINAS    PNA     N1   R$  000000000065900000000006810000000000652000000000066800000000006790000000000677000000000068010758000000000013107100000000008768427300000000000000009999123100000010000000000000BRUSIMACNPA6172
012026022502VAMO3       010VAMOS       ON      NM   R$  000000000048800000000004880000000000466000000000047500000000004700000000000469000000000047009045000000000014671800000000006976946100000000000000009999123100000010000000000000BRVAMOACNOR7109
012026022502YDUQ3       010YDUQS PART  ON      NM   R$  000000000140700000000014280000000001383000000000139900000000013900000000001384000000000139108748000000000003190900000000004467010400000000000000009999123100000010000000000000BRYDUQACNOR3108
012026022502WEST3       010WESTWING    ON      NM   R$  000000000060000000000006000000000000594000000000059700000000005970000000000590000000000061200014000000000000005800000000000003463500000000000000009999123100000010000000000000BRWESTACNOR3101
012026022502WHRL3       010WHIRLPOOL   ON           R$  000000000044100000000004450000000000439000000000044300000000004410000000000443000000000044500040000000000000011200000000000004962500000000000000009999123100000010000000000000BRWHRLACNOR5135
012026022502WHRL4       010WHIRLPOOL   PN           R$  000000000047300000000004860000000000470000000000047500000000004710000000000471000000000048000058000000000000018800000000000008938400000000000000009999123100000010000000000000BRWHRLACNPR2135
012026022502WIZC3       010WIZ CO      ON      NM   R$  000000000091900000000009220000000000904000000000091200000000009110000000000911000000000091402076000000000000471100000000000429929900000000000000009999123100000010000000000000BRWIZCACNOR5104
012026022502WLMM3       010WLM IND COM ON           R$  000000000230000000000023000000000002300000000000230000000000023000000000002300000000000246000001000000000000000100000000000000230000000000000000009999123100000010000000000000BRWLMMACNOR6125
012026022502WLMM4       010WLM IND COM PN           R$  000000000244900000000024490000000002350000000000238100000000023540000000002350000000000235400042000000000000010300000000000024529600000000000000009999123100000010000000000000BRWLMMACNPR3125
012026022502MDIA3       010M.DIASBRANCOON  ED  NM   R$  000000000260900000000026440000000002581000000000260300000000025940000000002589000000000260003949000000000000760100000000001978688000000000000000009999123100000010000000000000BRMDIAACNOR7151
012026022502MDNE3       010MOURA DUBEUXON      NM   R$  000000000335000000000034120000000003313000000000335300000000033600000000003344000000000336007583000000000001805300000000006054133700000000000000009999123100000010000000000000BRMDNEACNOR9104
012026022502MEAL3       010IMC S/A     ON      NM   R$  000000000012500000000001250000000000121000000000012200000000001240000000000121000000000012400077000000000000350500000000000042770300000000000000009999123100000010000000000000BRMEALACNOR9105
012026022502MELK3       010MELNICK     ON      NM   R$  000000000040800000000004130000000000404000000000040700000000004070000000000404000000000040702776000000000000705200000000000287472200000000000000009999123100000010000000000000BRMELKACNOR8116
012026022502MGEL4       010MANGELS INDLPN           R$  000000000064000000000006400000000000612000000000062800000000006330000000000611000000000063400017000000000000008700000000000005470300000000000000009999123100000010000000000000BRMGELACNPR3147
012026022502MGLU3       010MAGAZ LUIZA ON      NM   R$  000000000102500000000010270000000000941000000000098000000000009490000000000949000000000095025475000000000025004500000000024522531100000000000000009999123100000010000000000000BRMGLUACNOR2130
012026022502NUTR3       010NUTRIPLANT  ON      MA   R$  000000000025600000000002620000000000235000000000024200000000002370000000000237000000000025200037000000000000010900000000000002647600000000000000009999123100000010000000000000BRNUTRACNOR0104
012026022502OBTC3       010ORANJEBTC   ON           R$  000000000066800000000007400000000000666000000000071300000000007400000000000731000000000074004131000000000000809900000000000577717000000000000000009999123100000010000000000000BROBTCACNOR0100
012026022502ODPV3       010ODONTOPREV  ON      NM   R$  000000000126100000000012670000000001238000000000125400000000012550000000001244000000000125503778000000000001488600000000001867698900000000000000009999123100000010000000000000BRODPVACNOR4213
012026022502OFSA3       010OUROFINO S/AON      NM   R$  000000000244100000000024410000000002371000000000238900000000023710000000002371000000000242900009000000000000002600000000000006212800000000000000009999123100000010000000000000BROFSAACNOR7122
012026022502PDGR3       010PDG REALT   ON      NM   R$  000000000022600000000002270000000000212000000000021700000000002160000000000216000000000021900153000000000000091600000000000019938400000000000000009999123100000010000000000000BRPDGRACNOR8123
012026022502PDTC3       010PADTEC      ON      NM   R$  000000000016200000000001670000000000157000000000016000000000001640000000000160000000000016400083000000000000040200000000000006452900000000000000009999123100000010000000000000BRPDTCACNOR3101
012026022502PETR3       010PETROBRAS   ON      N2   R$  000000000429000000000043110000000004224000000000427400000000042810000000004280000000000428509833000000000006607900000000028246853400000000000000009999123100000010000000000000BRPETRACNOR9212
012026022502PETR4       010PETROBRAS   PN      N2   R$  000000000399400000000039970000000003903000000000395400000000039570000000003956000000000396030340000000000026012300000000102853101800000000000000009999123100000010000000000000BRPETRACNPR6223
012026022502POSI3       010POSITIVO TECON      NM   R$  000000000042500000000004270000000000414000000000041800000000004200000000000416000000000042102472000000000001198900000000000501961900000000000000009999123100000010000000000000BRPOSIACNOR9118
012026022502PRIO3       010PETRORIO    ON      NM   R$  000000000549800000000055040000000005300000000000537400000000053630000000005362000000000536325823000000000007089200000000038104009100000000000000009999123100000010000000000000BRPRIOACNOR1111
012026022502SEER3       010SER EDUCA   ON      NM   R$  000000000127400000000012830000000001239000000000125300000000012580000000001249000000000125805700000000000000979600000000001228072900000000000000009999123100000010000000000000BRSEERACNOR5120
012026022502SEQL3       010SEQUOIA LOG ON      NM   R$  000000000004000000000000410000000000037000000000003800000000000370000000000037000000000003801345000000000001134200000000000043226700000000000000009999123100000010000000000000BRSEQLACNOR2108
012026022502SHOW3       010TIME FOR FUNON      NM   R$  000000000047000000000004770000000000435000000000045000000000004480000000000438000000000044800208000000000000031100000000000014010200000000000000009999123100000010000000000000BRSHOWACNOR7106
012026022502SHUL4       010SCHULZ      PN           R$  000000000056600000000005690000000000562000000000056500000000005670000000000565000000000056701851000000000000380400000000000215086900000000000000009999123100000010000000000000BRSHULACNPR4163
012026022502SIMH3       010SIMPAR      ON  EG  NM   R$  000000000142900000000014520000000001302000000000135400000000013070000000001306000000000130708614000000000004783800000000006479111400000000000000009999123100000010000000000000BRSIMHACNOR0110
012026022502ESPA3       010ESPACOLASER ON      NM   R$  000000000011100000000001120000000000110000000000011000000000001120000000000110000000000011200138000000000000288500000000000031975900000000000000009999123100000010000000000000BRESPAACNOR7105
012026022502ETER3       010ETERNIT     ON      NM   R$  000000000040600000000004070000000000403000000000040400000000004060000000000404000000000040700194000000000000050300000000000020369800000000000000009999123100000010000000000000BRETERACNOR3246
012026022502NGRD3       010NEOGRID     ON      NM   R$  000000000264000000000026400000000002600000000000261200000000026010000000002600000000000261000043000000000000009100000000000023777900000000000000009999123100000010000000000000BRNGRDACNOR3106
012026022502RAIL3       010RUMO S.A.   ON      NM   R$  000000000173000000000017300000000001658000000000167800000000016670000000001665000000000167021734000000000008979100000000015071615400000000000000009999123100000010000000000000BRRAILACNOR9106
012026022502HBOR3       010HELBOR      ON      NM   R$  000000000031900000000003270000000000315000000000031900000000003210000000000321000000000032601111000000000001217300000000000389497300000000000000009999123100000010000000000000BRHBORACNOR3120
012026022502HBRE3       010HBR REALTY  ON      NM   R$  000000000035300000000003540000000000342000000000034500000000003440000000000343000000000034403427000000000001573600000000000544330300000000000000009999123100000010000000000000BRHBREACNOR4101
012026022502HBSA3       010HIDROVIAS   ON      NM   R$  000000000041100000000004150000000000401000000000040800000000004110000000000407000000000041101554000000000001505800000000000614761500000000000000009999123100000010000000000000BRHBSAACNOR0102
012026022502HBTS5       010HABITASUL   PNA          R$  000000000367000000000036700000000003670000000000367000000000036700000000003005000000000379700001000000000000000100000000000000367000000000000000009999123100000010000000000000BRHBTSACNPA3129
012026022502BGIP4       010BANESE      PN           R$  000000000352000000000036000000000003520000000000355500000000035700000000003520000000000356800005000000000000000900000000000003199900000000000000009999123100000010000000000000BRBGIPACNPR8215
012026022502BHIA3       010CASAS BAHIA ON      NM   R$  000000000029500000000002980000000000288000000000029100000000002880000000000288000000000028902435000000000003795800000000001106447700000000000000009999123100000010000000000000BRBHIAACNOR1104
012026022502JALL3       010JALLESMACHADON      NM   R$  000000000031300000000003160000000000308000000000031100000000003090000000000309000000000031000697000000000000760100000000000236796800000000000000009999123100000010000000000000BRJALLACNOR0106
012026022502JHSF3       010JHSF PART   ON      NM   R$  000000000101700000000010280000000001007000000000101300000000010090000000001009000000000101004572000000000002522600000000002555717300000000000000009999123100000010000000000000BRJHSFACNOR2156
012026022502SAPR3       010SANEPAR     ON      N2   R$  000000000111700000000011400000000001112000000000112400000000011280000000001123000000000112800560000000000000194800000000000219115800000000000000009999123100000010000000000000BRSAPRACNOR9162
012026022502SAPR4       010SANEPAR     PN      N2   R$  000000000088900000000009130000000000883000000000089600000000008920000000000891000000000089601802000000000000869700000000000779742100000000000000009999123100000010000000000000BRSAPRACNPR6162
012026022502SBFG3       010GRUPO SBF   ON      NM   R$  000000000130200000000013160000000001290000000000129900000000013020000000001298000000000130206739000000000002141200000000002783216900000000000000009999123100000010000000000000BRSBFGACNOR1104
012026022502SBSP3       010SABESP      ON      NM   R$  000000001550000000000157420000000015411000000001562000000000156880000000015680000000001569214357000000000002633700000000041139343000000000000000009999123100000010000000000000BRSBSPACNOR5165
012026022502SYNE3       010SYN PROP TECON      NM   R$  000000000049000000000004900000000000480000000000048300000000004820000000000482000000000048400694000000000000231500000000000111947300000000000000009999123100000010000000000000BRSYNEACNOR2107
012026022502TAEE11      010TAESA       UNT     N2   R$  000000000450000000000045280000000004385000000000442900000000044020000000004402000000000440406814000000000001507500000000006677511800000000000000009999123100000010000000000000BRTAEECDAM10153
012026022502TAEE3       010TAESA       ON      N2   R$  000000000148700000000014900000000001448000000000146000000000014610000000001460000000000146100302000000000000087800000000000128224300000000000000009999123100000010000000000000BRTAEEACNOR9153
012026022502TAEE4       010TAESA       PN      N2   R$  000000000150600000000015190000000001469000000000148600000000014770000000001477000000000148500512000000000000120100000000000178492500000000000000009999123100000010000000000000BRTAEEACNPR6153
012026022502ITSA3       010ITAUSA      ON      N1   R$  000000000147000000000014880000000001451000000000146200000000014620000000001458000000000146200335000000000000120600000000000176434100000000000000009999123100000010000000000000BRITSAACNOR0455
012026022502ITSA4       010ITAUSA      PN      N1   R$  000000000149100000000014940000000001449000000000146300000000014620000000001461000000000146322592000000000031858200000000046632397600000000000000009999123100000010000000000000BRITSAACNPR7455
012026022502MTRE3       010MITRE REALTYON      NM   R$  000000000042500000000004250000000000410000000000041400000000004160000000000413000000000041600972000000000000565300000000000234495800000000000000009999123100000010000000000000BRMTREACNOR6131
012026022502PTBL3       010PORTOBELLO  ON      NM   R$  000000000033500000000003440000000000330000000000033600000000003300000000000330000000000033300383000000000000179300000000000060398800000000000000009999123100000010000000000000BRPTBLACNOR8132
012026022502PTNT3       010PETTENATI   ON           R$  000000000086900000000008690000000000863000000000086600000000008630000000000855000000000086000002000000000000000200000000000000173200000000000000009999123100000010000000000000BRPTNTACNOR6044
012026022502PTNT4       010PETTENATI   PN           R$  000000000084000000000008400000000000835000000000083800000000008400000000000838000000000084800019000000000000013700000000000011489600000000000000009999123100000010000000000000BRPTNTACNPR3049
012026022502QUAL3       010QUALICORP   ON      NM   R$  000000000025600000000002630000000000252000000000025700000000002630000000000263000000000026402589000000000002573000000000000662586300000000000000009999123100000010000000000000BRQUALACNOR6122
012026022502BRSR3       010BANRISUL    ON      N1   R$  000000000198900000000019890000000001930000000000195400000000019470000000001937000000000194800068000000000000011500000000000022480400000000000000009999123100000010000000000000BRBRSRACNOR3197
012026022502BRSR6       010BANRISUL    PNB     N1   R$  000000000188700000000019100000000001855000000000187000000000018740000000001870000000000187505503000000000002530000000000004732427300000000000000009999123100000010000000000000BRBRSRACNPB4200
012026022502BRST3       010BRISANET    ON      NM   R$  000000000032800000000003330000000000319000000000032400000000003190000000000318000000000031900884000000000000367500000000000119408600000000000000009999123100000010000000000000BRBRSTACNOR9102
012026022502EMAE4       010EMAE        PN           R$  000000000485000000000048500000000004800000000000481100000000048000000000004662000000000480000009000000000000002900000000000013952600000000000000009999123100000010000000000000BREMAEACNPR1128
012026022502EMBJ3       010EMBRAER     ON      NM   R$  000000000945900000000094710000000009145000000000926100000000092480000000009240000000000924813091000000000002796900000000025904161700000000000000009999123100000010000000000000BREMBJACNOR1102
012026022502GGPS3       010GPS         ON      NM   R$  000000000196500000000019650000000001902000000000192200000000019150000000001915000000000192304694000000000001262900000000002427511600000000000000009999123100000010000000000000BRGGPSACNOR9106
012026022502GMAT3       010GRUPO MATEUSON      NM   R$  000000000058900000000005990000000000575000000000058300000000005780000000000577000000000057814786000000000010787100000000006294088400000000000000009999123100000010000000000000BRGMATACNOR7109
012026022502CRPG5       010CRISTAL     PNA          R$  000000000197200000000019720000000001910000000000194200000000019100000000001910000000000194900014000000000000001700000000000003301400000000000000009999123100000010000000000000BRCRPGACNPA3119
012026022502CSAN3       010COSAN       ON  ATZ NM   R$  000000000068800000000006880000000000647000000000066200000000006500000000000649000000000065025659000000000034289100000000022730541700000000000000009999123100000010000000000000BRCSANACNOR6129
012026022502AZEV3       010AZEVEDO     ON           R$  000000000002500000000000260000000000024000000000002400000000000250000000000024000000000002500107000000000000317700000000000007837100000000000000009999123100000010000000000000BRAZEVACNOR0123
012026022502AZEV4       010AZEVEDO     PN           R$  000000000001900000000000200000000000018000000000001900000000000200000000000019000000000002000327000000000003435800000000000065965800000000000000009999123100000010000000000000BRAZEVACNPR7123
012026022502AZTE3       010AZT ENERGIA ON           R$  000000000002900000000000300000000000028000000000002900000000000290000000000028000000000002900640000000000002321500000000000068541400000000000000009999123100000010000000000000BRAZTEACNOR4101
012026022502AZUL53      010AZUL        ON  P   N2   R$  000000002120000000000220000000000019823000000002060000000000205000000000020500000000002060001605000000043277000000000000000893214455000000000000009999123110000000000000000000BRAZULA01OR8102
012026022502AZZA3       010AZZAS 2154  ON      NM   R$  000000000266600000000027250000000002613000000000265600000000026230000000002619000000000263410013000000000002993700000000007953641400000000000000009999123100000010000000000000BRAZZAACNOR9104
012026022502BEEF3       010MINERVA     ON      NM   R$  000000000054400000000005490000000000522000000000053200000000005270000000000526000000000052717675000000000019777600000000010534324400000000000000009999123100000010000000000000BRBEEFACNOR6120
012026022502BRBI11      010BR PARTNERS UNT     N2   R$  000000000196700000000019840000000001898000000000193000000000019510000000001932000000000195101895000000000000350900000000000677559700000000000000009999123100000010000000000000BRBRBICDAM10116
012026022502BIOM3       010BIOMM       ON      MA   R$  000000000065000000000006500000000000608000000000062000000000006110000000000611000000000061600312000000000000082000000000000050891900000000000000009999123100000010000000000000BRBIOMACNOR2113
012026022502EGIE3       010ENGIE BRASILON      NM   R$  000000000341800000000034190000000003324000000000335500000000033410000000003329000000000335006015000000000001235800000000004146419000000000000000009999123100000010000000000000BREGIEACNOR9132
012026022502GFSA3       010GAFISA      ON      NM   R$  000000000024400000000002450000000000219000000000022600000000002190000000000219000000000022001434000000000001811100000000000409810000000000000000009999123100000010000000000000BRGFSAACNOR3127
012026022502GGBR3       010GERDAU      ON      N1   R$  000000000185200000000018740000000001840000000000186100000000018690000000001845000000000186900134000000000000024600000000000045782400000000000000009999123100000010000000000000BRGGBRACNOR1198
012026022502GGBR4       010GERDAU      PN      N1   R$  000000000212500000000021590000000002110000000000213700000000021410000000002141000000000214318086000000000012711600000000027168968700000000000000009999123100000010000000000000BRGGBRACNPR8198
012026022502AURE3       010AUREN       ON      NM   R$  000000000119300000000012030000000001165000000000117600000000011730000000001170000000000117505133000000000002996200000000003524442100000000000000009999123100000010000000000000BRAUREACNOR9105
012026022502AVLL3       010ALPHAVILLE  ON      NM   R$  000000000008300000000000840000000000081000000000008100000000000810000000000081000000000008200011000000000000021700000000000001775100000000000000009999123100000010000000000000BRAVLLACNOR5103
012026022502AXIA3       010AXIA ENERGIAON      N1   R$  000000000617200000000062150000000006052000000000615900000000062030000000006200000000000620334880000000000009007100000000055482539400000000000000009999123100000010000000000000BRAXIAACNOR0102
012026022502AXIA6       010AXIA ENERGIAPNB     N1   R$  000000000674100000000067770000000006599000000000669800000000067700000000006726000000000677005022000000000001316500000000008818789100000000000000009999123100000010000000000000BRAXIAACNPB1103
012026022502AXIA7       010AXIA ENERGIAPNC     N1   R$  000000000595500000000060220000000005853000000000596700000000060220000000006005000000000602610207000000000001853200000000011059400100000000000000009999123100000010000000000000BRAXIAACNPC9100
012026022502BEES3       010BANESTES    ON           R$  000000000087600000000008850000000000866000000000087600000000008690000000000869000000000087400079000000000000015200000000000013326100000000000000009999123100000010000000000000BRBEESACNOR9415
012026022502BEES4       010BANESTES    PN           R$  000000000088600000000008870000000000877000000000088100000000008800000000000882000000000089000022000000000000004000000000000003524300000000000000009999123100000010000000000000BRBEESACNPR6340
012026022502BRKM3       010BRASKEM     ON      N1   R$  000000000090100000000009280000000000901000000000091400000000009010000000000901000000000091300050000000000000007900000000000007222800000000000000009999123100000010000000000000BRBRKMACNOR1119
012026022502BRKM5       010BRASKEM     PNA     N1   R$  000000000095800000000009770000000000953000000000096100000000009530000000000952000000000095403087000000000002138400000000002056623000000000000000009999123100000010000000000000BRBRKMACNPA4123
012026022502EALT3       010ACO ALTONA  ON           R$  000000000145600000000014560000000001452000000000145500000000014560000000001455000000000145600011000000000000004400000000000006403500000000000000009999123100000010000000000000BREALTACNOR4140
012026022502EALT4       010ACO ALTONA  PN           R$  000000000146700000000014670000000001443000000000144900000000014500000000001442000000000145800090000000000000010900000000000015798100000000000000009999123100000010000000000000BREALTACNPR1140
012026022502ECOR3       010ECORODOVIAS ON      NM   R$  000000000108600000000010930000000001056000000000106700000000010660000000001064000000000106706735000000000003621400000000003867252500000000000000009999123100000010000000000000BRECORACNOR8122
012026022502GEPA3       010GER PARANAP ON           R$  000000000320800000000032080000000003207000000000320700000000032070000000003207000000000335000002000000000000000200000000000000641500000000000000009999123100000010000000000000BRGEPAACNOR2158
012026022502GEPA4       010GER PARANAP PN           R$  000000000353300000000035330000000003530000000000353000000000035300000000003530000000000356900003000000000000000900000000000003177300000000000000009999123100000010000000000000BRGEPAACNPR9165
012026022502ISAE3       010ISA ENERGIA ON      N1   R$  000000000352700000000035270000000003485000000000350900000000035210000000003441000000000352300046000000000000009500000000000033340500000000000000009999123100000010000000000000BRISAEACNOR2108
012026022502ISAE4       010ISA ENERGIA PN      N1   R$  000000000299600000000030030000000002863000000000289200000000028630000000002863000000000287014396000000000009070000000000026238096000000000000000009999123100000010000000000000BRISAEACNPR9108
012026022502LAND3       010TERRASANTAPAON      NM   R$  000000000088500000000008960000000000880000000000088800000000008800000000000880000000000089500084000000000000011000000000000009769500000000000000009999123100000010000000000000BRLANDACNOR9104
012026022502LAVV3       010LAVVI       ON      NM   R$  000000000188100000000018830000000001849000000000186700000000018720000000001871000000000187301507000000000000352300000000000658053600000000000000009999123100000010000000000000BRLAVVACNOR4120
012026022502LEVE3       010METAL LEVE  ON      NM   R$  000000000369000000000036900000000003605000000000363300000000036420000000003630000000000364202376000000000000414500000000001506077700000000000000009999123100000010000000000000BRLEVEACNOR2202
012026022502LJQQ3       010QUERO-QUERO ON      NM   R$  000000000022600000000002300000000000220000000000022400000000002200000000000220000000000022304033000000000004651500000000001042451600000000000000009999123100000010000000000000BRLJQQACNOR5105
012026022502LOGG3       010LOG COM PROPON      NM   R$  000000000282400000000028630000000002794000000000283200000000028410000000002838000000000284103265000000000000601700000000001704546700000000000000009999123100000010000000000000BRLOGGACNOR7112
012026022502LOGN3       010LOG-IN      ON      NM   R$  000000000320000000000033000000000003200000000000325100000000032500000000003235000000000325000255000000000000138000000000000448705500000000000000009999123100000010000000000000BRLOGNACNOR3105
012026022502LPSB3       010LOPES BRASILON      NM   R$  000000000019600000000001960000000000190000000000019100000000001900000000000190000000000019100292000000000000135800000000000026026400000000000000009999123100000010000000000000BRLPSBACNOR0116
012026022502LREN3       010LOJAS RENNERON      NM   R$  000000000159800000000016250000000001569000000000159200000000015780000000001577000000000157920050000000000013544800000000021575858700000000000000009999123100000010000000000000BRLRENACNOR1228
012026022502MOVI3       010MOVIDA      ON      NM   R$  000000000148800000000014920000000001415000000000145200000000014220000000001420000000000142508530000000000003594500000000005222307900000000000000009999123100000010000000000000BRMOVIACNOR0126
012026022502MRVE3       010MRV         ON      NM   R$  000000000104100000000010410000000001012000000000102800000000010340000000001032000000000103509460000000000007206500000000007414454700000000000000009999123100000010000000000000BRMRVEACNOR2128
012026022502PRNR3       010PRINER      ON      NM   R$  000000000218500000000021890000000002100000000000216800000000021810000000002181000000000218203525000000000000799800000000001734692500000000000000009999123100000010000000000000BRPRNRACNOR4111
012026022502PSSA3       010PORTO SEGUROON      NM   R$  000000000525800000000053100000000005222000000000525300000000052590000000005243000000000526009359000000000001510900000000007937772000000000000000009999123100000010000000000000BRPSSAACNOR7161
012026022502RIAA3       010RIACHUELO   ON      NM   R$  000000000102500000000010340000000001000000000000101200000000010130000000001010000000000101305540000000000002185700000000002213298400000000000000009999123100000010000000000000BRRIAAACNOR2100
012026022502RNEW3       010RENOVA      ON      N2   R$  000000000011900000000001270000000000118000000000012300000000001200000000000118000000000012000400000000000000101800000000000012575300000000000000009999123100000010000000000000BRRNEWACNOR8113
012026022502RNEW4       010RENOVA      PN      N2   R$  000000000010800000000001300000000000108000000000011800000000001130000000000112000000000011500495000000000000365400000000000043248300000000000000009999123100000010000000000000BRRNEWACNPR5113
012026022502ROMI3       010ROMI        ON      NM   R$  000000000082400000000008300000000000818000000000082100000000008180000000000817000000000082200725000000000000245600000000000201719900000000000000009999123100000010000000000000BRROMIACNOR8201
012026022502RPAD6       010ALFA HOLDINGPNB          R$  000000000045500000000004560000000000455000000000045500000000004550000000000445000000000048000003000000000000001500000000000000683000000000000000009999123100000010000000000000BRRPADACNPB2199
012026022502BLAU3       010BLAU        ON      NM   R$  000000000115000000000011570000000001089000000000111200000000010890000000001088000000000108901289000000000000287900000000000320321900000000000000009999123100000010000000000000BRBLAUACNOR8120
012026022502BMEB3       010MERCANTIL   ON      N1   R$  000000000689300000000074740000000006893000000000715700000000074000000000007210000000000740000079000000000000023200000000000166047100000000000000009999123100000010000000000000BRBMEBACNOR8210
012026022502BMEB4       010MERCANTIL   PN      N1   R$  000000000764000000000080000000000007640000000000781600000000076400000000007620000000000767000251000000000000035900000000000280607900000000000000009999123100000010000000000000BRBMEBACNPR5215
012026022502BMGB4       010BANCO BMG   PN      N1   R$  000000000048900000000004900000000000481000000000048300000000004810000000000480000000000048201567000000000001175600000000000568202400000000000000009999123100000010000000000000BRBMGBACNPR0118
012026022502RSUL4       010RIOSULENSE  PN           R$  000000000700500000000070050000000007005000000000700500000000070050000000006590000000000700500002000000000000000300000000000002101500000000000000009999123100000010000000000000BRRSULACNPR3116
012026022502RVEE3       010REVEE       ON      NM   R$  000000000017100000000001730000000000171000000000017100000000001730000000000174000000000018900007000000000000002300000000000000393500000000000000009999123100000010000000000000BRRVEEACNOR9102
012026022502BMKS3       010BIC MONARK  ON           R$  000000003759500000000375950000000036960000000003710000000000371000000000037001000000003729900026000000000000000135000000000005008551000000000000009999123100000010000000000000BRBMKSACNOR9169
012026022502BMOB3       010BEMOBI TECH ON      NM   R$  000000000250000000000025010000000002380000000000240500000000023870000000002387000000000239302719000000000000497300000000001196467000000000000000009999123100000010000000000000BRBMOBACNOR7107
012026022502BNBR3       010NORD BRASIL ON           R$  000000001204000000000120400000000012040000000001204000000000120400000000012050000000001222300001000000000000000100000000000001204000000000000000009999123100000010000000000000BRBNBRACNOR8211
012026022502SNSY3       010SANSUY      ON           R$  000000000106000000000010900000000001060000000000107500000000010900000000001005000000000114500002000000000000000200000000000000215000000000000000009999123100000010000000000000BRSNSYACNOR2113
012026022502SNSY5       010SANSUY      PNA          R$  000000000026800000000002700000000000250000000000025800000000002500000000000249000000000026400016000000000000003200000000000000826800000000000000009999123100000010000000000000BRSNSYACNPA5111
012026022502SOJA3       010BOA SAFRA   ON      NM   R$  000000000085800000000008600000000000834000000000084500000000008340000000000834000000000083801601000000000000801400000000000677866600000000000000009999123100000010000000000000BRSOJAACNOR9109
012026022502SOND5       010SONDOTECNICAPNA          R$  000000000600000000000060000000000006000000000000600000000000060000000000005950000000000600000001000000000000000200000000000001200000000000000000009999123100000010000000000000BRSONDACNPA8168
012026022502SOND6       010SONDOTECNICAPNB          R$  000000000561000000000056100000000005610000000000561000000000056100000000005610000000000800000004000000000000000500000000000002805000000000000000009999123100000010000000000000BRSONDACNPB6168
012026022502CEBR3       010CEB         ON           R$  000000000308500000000031100000000003085000000000309000000000030930000000003085000000000309300019000000000000002600000000000008034400000000000000009999123100000010000000000000BRCEBRACNOR5129
012026022502CEBR5       010CEB         PNA          R$  000000000288300000000029940000000002883000000000296500000000029840000000002905000000000298400021000000000000002600000000000007711500000000000000009999123100000010000000000000BRCEBRACNPA8128
012026022502CEBR6       010CEB         PNB          R$  000000000315000000000032250000000003131000000000317200000000032250000000003202000000000322500053000000000000010000000000000031728700000000000000009999123100000010000000000000BRCEBRACNPB6128
012026022502CEDO4       010CEDRO       PN      N1   R$  000000000096500000000009650000000000965000000000096500000000009650000000000926000000000096500002000000000000000200000000000000193000000000000000009999123100000010000000000000BRCEDOACNPR5128
012026022502CEEB3       010COELBA      ON           R$  000000000459000000000047850000000004590000000000470600000000047500000000004527000000000480000010000000000000001700000000000008000700000000000000009999123100000010000000000000BRCEEBACNOR3207
012026022502CEEB5       010COELBA      PNA          R$  000000000380000000000038000000000003800000000000380000000000038000000000003800000000000520000001000000000000000400000000000001520000000000000000009999123100000010000000000000BRCEEBACNPA6201
012026022502CGAS5       010COMGAS      PNA          R$  000000001344900000000134500000000013200000000001327500000000132580000000013200000000001330000013000000000000001500000000000019913700000000000000009999123100000010000000000000BRCGASACNPA3165
012026022502CGRA3       010GRAZZIOTIN  ON           R$  000000000280000000000028000000000002799000000000279900000000028000000000002800000000000298900003000000000000000300000000000000839900000000000000009999123100000010000000000000BRCGRAACNOR2088
012026022502CGRA4       010GRAZZIOTIN  PN           R$  000000000271500000000027700000000002715000000000274200000000027470000000002732000000000276900060000000000000014500000000000039759700000000000000009999123100000010000000000000BRCGRAACNPR9088
012026022502SUZB3       010SUZANO S.A. ON      NM   R$  000000000587200000000059320000000005807000000000587600000000058900000000005890000000000589127686000000000011432400000000067185622500000000000000009999123100000010000000000000BRSUZBACNOR0135
012026022502GOAU3       010GERDAU MET  ON      N1   R$  000000000091400000000009220000000000909000000000091200000000009160000000000913000000000091600267000000000000069600000000000063540500000000000000009999123100000010000000000000BRGOAUACNOR1274
012026022502GOAU4       010GERDAU MET  PN      N1   R$  000000000095800000000009680000000000951000000000096000000000009610000000000960000000000096208998000000000007793600000000007483281900000000000000009999123100000010000000000000BRGOAUACNPR8275
012026022502JSLG3       010JSL         ON      NM   R$  000000000086500000000008650000000000782000000000081100000000007980000000000797000000000079803878000000000001901300000000001542268100000000000000009999123100000010000000000000BRJSLGACNOR2123
012026022502BSLI3       010BRB BANCO   ON           R$  000000000050400000000005090000000000475000000000048700000000004810000000000481000000000049000084000000000000024400000000000011895400000000000000009999123100000010000000000000BRBSLIACNOR5198
012026022502BSLI4       010BRB BANCO   PN           R$  000000000048200000000004990000000000481000000000048600000000004860000000000486000000000048800089000000000000027200000000000013243400000000000000009999123100000010000000000000BRBSLIACNPR2198
012026022502BIED3       010BIOMA EDUC  ON      MA   R$  000000000058900000000006000000000000548000000000057900000000006000000000000556000000000060000028000000000000006300000000000003651600000000000000009999123100000010000000000000BRBIEDACNOR2101
012026022502ABCB4       010ABC BRASIL  PN      N2   R$  000000000281000000000028170000000002759000000000277300000000027620000000002762000000000276302418000000000000419900000000001164739700000000000000009999123100000010000000000000BRABCBACNPR4150
012026022502ABEV3       010AMBEV S/A   ON           R$  000000000166100000000016640000000001626000000000163800000000016440000000001640000000000164419163000000000031178500000000051083990900000000000000009999123100000010000000000000BRABEVACNOR1134
012026022502BBDC3       010BRADESCO    ON      N1   R$  000000000186700000000018730000000001832000000000184500000000018400000000001839000000000184108243000000000003972800000000007333083600000000000000009999123100000010000000000000BRBBDCACNOR1797
012026022502BBDC4       010BRADESCO    PN      N1   R$  000000000215800000000021590000000002107000000000212900000000021170000000002116000000000211851588000000000034124600000000072665224300000000000000009999123100000010000000000000BRBBDCACNPR8797
012026022502AALR3       010ALLIAR      ON      NM   R$  000000000044600000000005350000000000443000000000049000000000005050000000000505000000000051500356000000000000272100000000000133535300000000000000009999123100000010000000000000BRAALRACNOR6104
012026022502KEPL3       010KEPLER WEBERON      NM   R$  000000000099200000000009960000000000962000000000097200000000009710000000000971000000000097205475000000000002165400000000002105344500000000000000009999123100000010000000000000BRKEPLACNOR1069
012026022502KLBN11      010KLABIN S/A  UNT     N2   R$  000000000203500000000020670000000002026000000000205000000000020670000000002066000000000206711703000000000004186300000000008582292400000000000000009999123100000010000000000000BRKLBNCDAM18151
012026022502KLBN3       010KLABIN S/A  ON      N2   R$  000000000041000000000004120000000000407000000000041000000000004100000000000410000000000041300612000000000000452800000000000185750600000000000000009999123100000010000000000000BRKLBNACNOR2179
012026022502KLBN4       010KLABIN S/A  PN      N2   R$  000000000040300000000004110000000000403000000000040800000000004100000000000410000000000041101867000000000002049200000000000836539400000000000000009999123100000010000000000000BRKLBNACNPR9179
012026022502MILS3       010MILLS       ON      NM   R$  000000000156800000000015720000000001520000000000153400000000015260000000001524000000000153102842000000000000810300000000001243481100000000000000009999123100000010000000000000BRMILSACNOR2132
012026022502MLAS3       010MULTILASER  ON      NM   R$  000000000013800000000001390000000000134000000000013500000000001340000000000134000000000013500607000000000000965700000000000130883100000000000000009999123100000010000000000000BRMLASACNOR9102
012026022502MNDL3       010MUNDIAL     ON           R$  000000000181700000000018200000000001817000000000181800000000018200000000001710000000000182300004000000000000000500000000000000909200000000000000009999123100000010000000000000BRMNDLACNOR4109
012026022502MNPR3       010MINUPAR     ON           R$  000000000041700000000004490000000000417000000000043200000000004360000000000423000000000043500039000000000000017700000000000007650400000000000000009999123100000010000000000000BRMNPRACNOR5123
012026022502MOTV3       010MOTIVA SA   ON      NM   R$  000000000171100000000017120000000001653000000000167100000000016680000000001658000000000166811963000000000009150200000000015291037800000000000000009999123100000010000000000000BRMOTVACNOR7102
012026022502SMFT3       010SMART FIT   ON      NM   R$  000000000214000000000021500000000002053000000000208000000000020690000000002067000000000207519725000000000006437400000000013393105700000000000000009999123100000010000000000000BRSMFTACNOR1118
012026022502SMTO3       010SAO MARTINHOON      NM   R$  000000000174800000000017680000000001726000000000174800000000017470000000001746000000000175406633000000000002258500000000003949170700000000000000009999123100000010000000000000BRSMTOACNOR3129
012026022502UNIP3       010UNIPAR      ON           R$  000000000637700000000065380000000006300000000000642400000000065130000000006513000000000655900083000000000000013600000000000087379300000000000000009999123100000010000000000000BRUNIPACNOR7210
012026022502UNIP5       010UNIPAR      PNA          R$  000000000705000000000070610000000007050000000000705300000000070610000000006991000000000719900003000000000000000300000000000002116100000000000000009999123100000010000000000000BRUNIPACNPA0212
012026022502UNIP6       010UNIPAR      PNB          R$  000000000712500000000072080000000006990000000000710900000000071620000000007160000000000719801557000000000000220600000000001568452800000000000000009999123100000010000000000000BRUNIPACNPB8210
012026022502TPIS3       010TRIUNFO PARTON      NM   R$  000000000066700000000006670000000000636000000000065500000000006360000000000636000000000065900312000000000000048400000000000031729400000000000000009999123100000010000000000000BRTPISACNOR8120
012026022502TRAD3       010TC          ON      NM   R$  000000000026400000000002640000000000250000000000025300000000002510000000000250000000000025100136000000000000048600000000000012327200000000000000009999123100000010000000000000BRTRADACNOR3102
012026022502TRIS3       010TRISUL      ON      NM   R$  000000000074200000000007640000000000742000000000075200000000007560000000000747000000000075600895000000000000269200000000000202602000000000000000009999123100000010000000000000BRTRISACNOR4122
012026022502TTEN3       0103TENTOS     ON      NM   R$  000000000168800000000017070000000001678000000000168600000000016890000000001685000000000169003220000000000000558900000000000942668900000000000000009999123100000010000000000000BRTTENACNOR0105
012026022502TUPY3       010TUPY        ON      NM   R$  000000000134900000000013670000000001312000000000132900000000013120000000001312000000000132705219000000000001482000000000001970914000000000000000009999123100000010000000000000BRTUPYACNOR1185
012026022502VVEO3       010VIVEO       ON      NM   R$  000000000017500000000001750000000000168000000000016900000000001680000000000168000000000017100878000000000001217900000000000206875700000000000000009999123100000010000000000000BRVVEOACNOR0104
012026022502WDCN3       010WDC NETWORKSON      NM   R$  000000000025700000000002590000000000251000000000025400000000002570000000000257000000000025800070000000000000049100000000000012475700000000000000009999123100000010000000000000BRWDCNACNOR2100
012026022502WEGE3       010WEG         ON      NM   R$  000000000511300000000051420000000004996000000000504600000000050280000000005025000000000503030870000000000010719400000000054096067400000000000000009999123100000010000000000000BRWEGEACNOR0234
012026022502TASA3       010TAURUS ARMASON      N2   R$  000000000057500000000005750000000000561000000000056700000000005740000000000568000000000057400123000000000000026700000000000015146400000000000000009999123100000010000000000000BRTASAACNOR7106
012026022502TASA4       010TAURUS ARMASPN      N2   R$  000000000057000000000005840000000000560000000000057100000000005750000000000570000000000057500978000000000000346200000000000197921900000000000000009999123100000010000000000000BRTASAACNPR4106
012026022502TCSA3       010TECNISA     ON      NM   R$  000000000016800000000001740000000000162000000000016900000000001710000000000170000000000017101539000000000000469500000000000079518800000000000000009999123100000010000000000000BRTCSAACNOR3112
012026022502TECN3       010TECHNOS     ON      NM   R$  000000000088800000000008880000000000857000000000086800000000008640000000000859000000000086400224000000000000038100000000000033092600000000000000009999123100000010000000000000BRTECNACNOR6111
012026022502TELB3       010TELEBRAS    ON           R$  000000000133500000000014400000000001335000000000140000000000014400000000001440000000000144500015000000000000001500000000000002101300000000000000009999123100000010000000000000BRTELBACNOR2142
012026022502TELB4       010TELEBRAS    PN           R$  000000000080200000000008350000000000802000000000081800000000008350000000000815000000000083500034000000000000008000000000000006547400000000000000009999123100000010000000000000BRTELBACNPR9142
012026022502TEND3       010TENDA       ON      NM   R$  000000000314100000000031720000000003019000000000305800000000030320000000003032000000000303309528000000000002036200000000006227048500000000000000009999123100000010000000000000BRTENDACNOR4114
012026022502TFCO4       010TRACK FIELD PN      N2   R$  000000000173800000000017690000000001697000000000173700000000017500000000001748000000000175002785000000000000914900000000001589872600000000000000009999123100000010000000000000BRTFCOACNPR8121
012026022502TGMA3       010TEGMA       ON      NM   R$  000000000402500000000040410000000003917000000000395300000000039670000000003959000000000396701784000000000000367600000000001453465200000000000000009999123100000010000000000000BRTGMAACNOR7150
012026022502TIMS3       010TIM         ON      NM   R$  000000000285100000000028510000000002788000000000280400000000028050000000002798000000000280510690000000000005347100000000014998258600000000000000009999123100000010000000000000BRTIMSACNOR5129
012026022502TOKY3       010GRUPO TOKY  ON      NM   R$  000000000005700000000000580000000000053000000000005500000000000560000000000055000000000005600119000000000000207800000000000011492100000000000000009999123100000010000000000000BRTOKYACNOR5101
012026022502TOTS3       010TOTVS       ON      NM   R$  000000000385000000000038690000000003743000000000378900000000037880000000003774000000000379017842000000000005045600000000019121532200000000000000009999123100000010000000000000BRTOTSACNOR8150
012026022502VIVR3       010VIVER       ON  ES  NM   R$  000000000004900000000000670000000000046000000000005600000000000540000000000053000000000005401039000000000001744000000000000097808700000000000000009999123100000010000000000000BRVIVRACNOR4126
012026022502VIVT3       010TELEF BRASILON  EJ       R$  000000000425600000000042720000000004207000000000423100000000042070000000004206000000000423310053000000000002834000000000011991975600000000000000009999123100000010000000000000BRVIVTACNOR0200
012026022502VLID3       010VALID       ON      NM   R$  000000000229300000000022940000000002197000000000222900000000022010000000002201000000000221901112000000000000182400000000000406691700000000000000009999123100000010000000000000BRVLIDACNOR5148
012026022502VSTE3       010VESTE       ON      NM   R$  000000000039800000000003980000000000382000000000039000000000003850000000000387000000000039200028000000000000013100000000000005117300000000000000009999123100000010000000000000BRVSTEACNOR5104
012026022502VTRU3       010VITRUEDUCA  ON      NM   R$  000000000153000000000015700000000001513000000000153100000000015130000000001513000000000153001766000000000000269900000000000413233300000000000000009999123100000010000000000000BRVTRUACNOR3101
012026022502VULC3       010VULCABRAS   ON      NM   R$  000000000192500000000019340000000001900000000000191200000000019200000000001911000000000192203544000000000001149400000000002198685000000000000000009999123100000010000000000000BRVULCACNOR2181
012026022502FESA4       010FERBASA     PN      N1   R$  000000000082900000000008430000000000817000000000083300000000008380000000000837000000000084102266000000000000567800000000000473458900000000000000009999123100000010000000000000BRFESAACNPR5090
012026022502IBOV11      010IBOVESPA    IBO/         R$  000001909810000000190981000000019098100000001909810000000190981000000000000000000000000000000041000000000000191067000000036490166727000000000000009999123100001000000000000000BRIBOVINDM18016
012026022502NEOE3       010NEOENERGIA  ON      NM   R$  000000000327900000000032850000000003278000000000328100000000032830000000003279000000000328301429000000000000633000000000002077132100000000000000009999123100000010000000000000BRNEOEACNOR3127
012026022502RCSL3       010RECRUSUL    ON           R$  000000000029400000000002940000000000290000000000029100000000002910000000000291000000000029400048000000000000013900000000000004058700000000000000009999123100000010000000000000BRRCSLACNOR4134
012026022502RCSL4       010RECRUSUL    PN           R$  000000000064100000000006720000000000606000000000064400000000006060000000000605000000000060607182000000000005686800000000003663559000000000000000009999123100000010000000000000BRRCSLACNPR1134
012026022502FLRY3       010FLEURY      ON      NM   R$  000000000177000000000017760000000001746000000000175600000000017570000000001751000000000176005013000000000001292900000000002270583300000000000000009999123100000010000000000000BRFLRYACNOR5143
012026022502FRAS3       010FRAS-LE     ON      N1   R$  000000000242900000000025000000000002429000000000245200000000024500000000002440000000000245501180000000000000272700000000000668753300000000000000009999123100000010000000000000BRFRASACNOR0163
012026022502PFRM3       010PROFARMA    ON      NM   R$  000000000091400000000009300000000000902000000000091600000000009300000000000907000000000093000521000000000000083200000000000076227200000000000000009999123100000010000000000000BRPFRMACNOR1122
012026022502PGMN3       010PAGUE MENOS ON      NM   R$  000000000074000000000007470000000000724000000000073000000000007290000000000728000000000073006528000000000002696200000000001970152600000000000000009999123100000010000000000000BRPGMNACNOR8106
012026022502PINE3       010PINE        ON      N2   R$  000000000124800000000013260000000001248000000000129300000000013200000000001300000000000132000019000000000000005700000000000007374500000000000000009999123100000010000000000000BRPINEACNOR1160
012026022502PINE4       010PINE        PN      N2   R$  000000000136200000000013850000000001325000000000135400000000013750000000001365000000000137502962000000000000910200000000001232695500000000000000009999123100000010000000000000BRPINEACNPR8160
012026022502CSED3       010CRUZEIRO EDUON      NM   R$  000000000069600000000007050000000000691000000000069800000000006950000000000695000000000070000965000000000000486000000000000339568100000000000000009999123100000010000000000000BRCSEDACNOR9107
012026022502CSMG3       010COPASA      ON      NM   R$  000000000572700000000058230000000005660000000000571800000000057170000000005717000000000572311342000000000002701500000000015447414300000000000000009999123100000010000000000000BRCSMGACNOR5183
012026022502CSNA3       010SID NACIONALON           R$  000000000086100000000008700000000000853000000000086100000000008620000000000860000000000086312149000000000008774800000000007560034900000000000000009999123100000010000000000000BRCSNAACNOR6264
012026022502INTB3       010INTELBRAS   ON      NM   R$  000000000135000000000013600000000001303000000000131400000000013050000000001304000000000131105999000000000001857900000000002442734900000000000000009999123100000010000000000000BRINTBACNOR9115
012026022502IRBR3       010IRBBRASIL REON      NM   R$  000000000647700000000066650000000006347000000000650200000000063470000000006347000000000635008814000000000002872300000000018675904100000000000000009999123100000010000000000000BRIRBRACNOR4113
012026022502CLSC3       010CELESC      ON      N2   R$  000000001310000000000131000000000013100000000001310000000000131000000000012910000000001359900001000000000000000100000000000001310000000000000000009999123100000010000000000000BRCLSCACNOR6159
012026022502CLSC4       010CELESC      PN      N2   R$  000000001509200000000155000000000015092000000001522200000000152140000000015176000000001522500044000000000000004400000000000066980300000000000000009999123100000010000000000000BRCLSCACNPR3138
012026022502CMIG3       010CEMIG       ON      N1   R$  000000000157600000000016040000000001576000000000159100000000015950000000001591000000000159600330000000000000061400000000000097716100000000000000009999123100000010000000000000BRCMIGACNOR6251
012026022502CMIG4       010CEMIG       PN      N1   R$  000000000122300000000012440000000001210000000000122900000000012340000000001232000000000123517628000000000012985000000000015960520700000000000000009999123100000010000000000000BRCMIGACNPR3252
012026022502MWET4       010WETZEL S/A  PN           R$  000000000110000000000011250000000001100000000000111500000000011220000000001006000000000106600003000000000000000300000000000000334700000000000000009999123100000010000000000000BRMWETACNPR3118
012026022502MYPK3       010IOCHP-MAXIONON      NM   R$  000000000109000000000010930000000001057000000000107000000000010600000000001059000000000106002371000000000000781100000000000836325400000000000000009999123100000010000000000000BRMYPKACNOR7158
012026022502NATU3       010NATURA      ON      NM   R$  000000000100000000000010040000000000977000000000099200000000009880000000000988000000000099012818000000000013430800000000013332495900000000000000009999123100000010000000000000BRNATUACNOR6137
012026022502MATD3       010MATER DEI   ON      NM   R$  000000000060000000000006010000000000583000000000059100000000005870000000000586000000000059100799000000000000135800000000000080311700000000000000009999123100000010000000000000BRMATDACNOR4106
012026022502MBRF3       010MARFRIG     ON      NM   R$  000000000205700000000021170000000002014000000000205600000000020300000000002025000000000203116009000000000007950100000000016347840300000000000000009999123100000010000000000000BRMBRFACNOR1100
012026022502MTSA4       010METISA      PN           R$  000000000600100000000061240000000005987000000000604600000000061160000000004500000000000611700013000000000000001300000000000007859800000000000000009999123100000010000000000000BRMTSAACNPR9079
012026022502MULT3       010MULTIPLAN   ON      N2   R$  000000000350000000000035350000000003459000000000349600000000034870000000003479000000000348717433000000000005583100000000019520137500000000000000009999123100000010000000000000BRMULTACNOR5145
012026022502CAMB3       010CAMBUCI     ON           R$  000000000097400000000009740000000000949000000000095600000000009600000000000951000000000096000095000000000000033100000000000031650200000000000000009999123100000010000000000000BRCAMBACNOR4136
012026022502CAML3       010CAMIL       ON      NM   R$  000000000070000000000007100000000000678000000000069100000000006780000000000678000000000068102593000000000001414500000000000978400800000000000000009999123100000010000000000000BRCAMLACNOR3134
012026022502CASH3       010MELIUZ      ON      NM   R$  000000000035600000000003680000000000355000000000036100000000003620000000000361000000000036201778000000000001887500000000000682193700000000000000009999123100000010000000000000BRCASHACNOR8107
012026022502CBAV3       010CBA         ON      NM   R$  000000000101900000000010280000000001018000000000102100000000010200000000001018000000000102003888000000000003687700000000003765361200000000000000009999123100000010000000000000BRCBAVACNOR5104
012026022502CEAB3       010CEA MODAS   ON      NM   R$  000000000129500000000013450000000001233000000000128600000000012830000000001280000000000128423643000000000019533300000000025130067600000000000000009999123100000010000000000000BRCEABACNOR1105
012026022502PLPL3       010PLANOEPLANO ON      NM   R$  000000000160700000000016180000000001542000000000156000000000015490000000001549000000000155505649000000000001575500000000002458137100000000000000009999123100000010000000000000BRPLPLACNOR5106
012026022502PNVL3       010DIMED       ON      NM   R$  000000000159600000000016110000000001565000000000158700000000015790000000001579000000000158105229000000000001230700000000001953788100000000000000009999123100000010000000000000BRPNVLACNOR9213
012026022502POMO3       010MARCOPOLO   ON      N2   R$  000000000065000000000006500000000000638000000000064500000000006400000000000639000000000064000711000000000000417500000000000269330600000000000000009999123100000010000000000000BRPOMOACNOR0105
012026022502POMO4       010MARCOPOLO   PN      N2   R$  000000000068500000000006880000000000665000000000067100000000006660000000000666000000000066729193000000000015750500000000010568858600000000000000009999123100000010000000000000BRPOMOACNPR7105
012026022502RAIZ4       010RAIZEN      PN      N2   R$  000000000006600000000000660000000000063000000000006400000000000640000000000063000000000006407996000000000027014700000000001751093600000000000000009999123100000010000000000000BRRAIZACNPR6112
012026022502RANI3       010IRANI       ON      NM   R$  000000000096700000000009680000000000947000000000095200000000009610000000000959000000000096101824000000000000608800000000000580107600000000000000009999123100000010000000000000BRRANIACNOR5079
012026022502SCAR3       010SAO CARLOS  ON      NM   R$  000000000149700000000015100000000001480000000000148900000000014980000000001481000000000149800154000000000000034100000000000050803700000000000000009999123100000010000000000000BRSCARACNOR7133
012026022502RAPT3       010RANDON PART ON      N1   R$  000000000065900000000006750000000000655000000000066800000000006720000000000661000000000067400038000000000000010800000000000007220700000000000000009999123100000010000000000000BRRAPTACNOR7166
012026022502RAPT4       010RANDON PART PN      N1   R$  000000000067300000000006820000000000664000000000067200000000006760000000000674000000000067709718000000000003948200000000002654987500000000000000009999123100000010000000000000BRRAPTACNPR4166
012026022508OSXB3       010OSX BRASIL  ON      NM   R$  000000000017400000000001740000000000174000000000017400000000001740000000000171000000000017400005000000000000001700000000000000295800000000000000009999123100000010000000000000BROSXBACNOR8109
012026022508AMBP3       010AMBIPAR     ON      NM   R$  000000000002600000000000270000000000025000000000002500000000000250000000000025000000000002600687000000000009766100000000000248903200000000000000009999123100000010000000000000BRAMBPACNOR6105
012026022508AMER3       010AMERICANAS  ON      NM   R$  000000000056800000000005720000000000555000000000056000000000005580000000000558000000000056101344000000000001160900000000000650771100000000000000009999123100000010000000000000BRAMERACNOR6103
012026022508CTAX3       010CONTAX      ON           R$  000000000008300000000000830000000000083000000000008300000000000830000000000081000000000008300001000000000000000200000000000000016600000000000000009999123100000010000000000000BRCTAXACNOR3119
012026022508CTSA4       010SANTANENSE  PN           R$  000000000018000000000001800000000000180000000000018000000000001800000000000180000000000021800006000000000000001200000000000000216000000000000000009999123100000010000000000000BRCTSAACNPR0063
012026022508AGXY3       010AGROGALAXY  ON      NM   R$  000000000024300000000002430000000000229000000000023300000000002290000000000228000000000023200158000000000000034600000000000008095800000000000000009999123100000010000000000000BRAGXYACNOR4104
012026022508OIBR3       010OI          ON      N1   R$  000000000001800000000000180000000000018000000000001800000000000180000000000017000000000001800129000000000000473800000000000008528400000000000000009999123100000010000000000000BROIBRACNOR1112
012026022508OIBR4       010OI          PN      N1   R$  000000000015000000000001500000000000150000000000015000000000001500000000000150000000000016000003000000000000000700000000000000105000000000000000009999123100000010000000000000BROIBRACNPR8111
012026022508NEXP3       010NEXPE       ON           R$  000000000027900000000002790000000000279000000000027900000000002790000000000280000000000028200002000000000000000400000000000000111600000000000000009999123100000010000000000000BRNEXPACNOR0101
012026022508JFEN3       010JOAO FORTES ON           R$  000000000009700000000000980000000000095000000000009600000000000970000000000095000000000009700023000000000000013500000000000001300400000000000000009999123100000010000000000000BRJFENACNOR0061
012026022508LIGT3       010LIGHT S/A   ON      NM   R$  000000000049200000000005180000000000490000000000050600000000004960000000000496000000000049803467000000000001939400000000000981962800000000000000009999123100000010000000000000BRLIGTACNOR2125
012026022508RPMG3       010PET MANGUINHON           R$  000000000022700000000002310000000000220000000000022300000000002210000000000217000000000022300015000000000000003400000000000000759700000000000000009999123100000010000000000000BRRPMGACNOR9194
012026022508RSID3       010ROSSI RESID ON      NM   R$  000000000017000000000001700000000000170000000000017000000000001700000000000167000000000017400001000000000000000100000000000000017000000000000000009999123100000010000000000000BRRSIDACNOR8121
012026022508BOBR4       010BOMBRIL     PN           R$  000000000012200000000001220000000000122000000000012200000000001220000000000122000000000012300002000000000000001000000000000000122000000000000000009999123100000010000000000000BRBOBRACNPR3128
012026022508HOOT4       010HOTEIS OTHONPN           R$  000000000069900000000007110000000000699000000000070500000000007110000000000697000000000071100002000000000000000200000000000000141000000000000000009999123100000010000000000000BRHOOTACNPR9015
012026022508PMAM3       010PARANAPANEMAON  ES  NM   R$  000000000006800000000000700000000000067000000000006800000000000680000000000067000000000006800365000000000001306500000000000089310200000000000000009999123100000010000000000000BRPMAMACNOR3046
012026022510HYPE1       010HYPERA      DIR ORD NM   R$  000000000030000000000003190000000000270000000000029000000000003190000000000286000000000031900982000000000000234500000000000068062100000000000000009999123100000010000000000000BRHYPED02OR3149
012026022510AZUL12      010AZUL        DIR     N2   R$  000000001460000000000146000000000012000000000001320000000000130000000000012600000000001313000179000000001103000000000000000014576826000000000000009999123110000000000000000000BRAZULD02M17101
012026022510AZUL14      010AZUL        DIR     N2   R$  000000000040400000000004040000000000404000000000040000000000004040000000000404000000000500000054000000000201000000000000000000081204000000000000009999123110000000000000000000BRAZULD03M16101
012026022510AZUL16      010AZUL        DIR     N2   R$  000000001260000000000140000000000012000000000001270000000000121000000000012100000000001250000142000000000355000000000000000004529725000000000000009999123110000000000000000000BRAZULD04M15101
012026022510BMEB9       010MERCANTIL   ON  REC N1   R$  000000000650600000000069960000000006506000000000688000000000069960000000006804000000000699600026000000000000003200000000000022018500000000000000009999123100000010000000000000BRBMEBR04OR7209
012026022510BMGB2       010BANCO BMG   DIR PRE N1   R$  000000000005300000000000550000000000044000000000004700000000000450000000000045000000000005100233000000000000089800000000000004307500000000000000009999123100000010000000000000BRBMGBD02PR3117
012026022510ABCB10      010ABC BRASIL  PN  REC N2   R$  000000000278000000000027800000000002766000000000277100000000027660000000002600000000000280000003000000000000000300000000000000831500000000000000009999123100000010000000000000BRABCBR20PR9149
012026022510VIVR13      010VIVER       DIR     NM   R$  000000000000100000000000010000000000001000000000000100000000000010000000000000000000000000100135000000000002927900000000000002927900000000000000009999123100000010000000000000BRVIVRD03M15125
012026022510PMAM1       010PARANAPANEMADIR ORD NM   R$  000000000000100000000000010000000000001000000000000100000000000010000000000000000000000000100180000000000002202400000000000002202400000000000000009999123100000010000000000000BRPMAMD10OR9045
012026022512EURO11      010FII EUROPAR CI           R$  000000003250200000000325020000000032200000000003249700000000322000000000031636000000003250100010000000000000000132000000000004289661000000000000009999123100000010000000000000BREUROCTF011380
012026022512EXES11      010FII EXES    CI  ER       R$  000000000094300000000009440000000000939000000000094100000000009440000000000940000000000094400102000000000000017264000000000016253139000000000000009999123100000010000000000000BREXESCTF006147
012026022512ONDA11      010FII ONDA ME CI  ER       R$  000000000094900000000009490000000000889000000000090600000000009370000000000890000000000093400028000000000000001587000000000001437950000000000000009999123100000010000000000000BRONDACTF006102
012026022512OUJP11      010FII OURI JPPCI           R$  000000000849200000000085920000000008473000000000851700000000084890000000008489000000000852100853000000000000005268000000000044871475000000000000009999123100000010000000000000BROUJPCTF006207
012026022512SAPI11      010FII SAPI    CI           R$  000000000093000000000009310000000000925000000000092900000000009310000000000929000000000093100845000000000000012014000000000011162046000000000000009999123100000010000000000000BRSAPICTF001130
012026022512GRUL11      010FII GRUL    CI           R$  000000000089300000000008950000000000879000000000088600000000008950000000000886000000000089501854000000000000061963000000000054914862000000000000009999123100000010000000000000BRGRULCTF004116
012026022512GSFI11      010FII GENERAL CI           R$  000000000109200000000011000000000001092000000000109600000000011000000000001095000000000110000043000000000000000942000000000001033111000000000000009999123100000010000000000000BRGSFICTF009103
012026022512GSRF11      010FII GSRF    CI           R$  000000001068900000000106890000000010689000000001068900000000106890000000000000000000000000000001000000000000000989000000000010571421000000000000009999123100000010000000000000BRGSRFCTF000100
012026022512GTWR11      010FII G TOWERSCI           R$  000000000845600000000085420000000008456000000000852200000000085420000000008500000000000854200694000000000000009663000000000082348606000000000000009999123100000010000000000000BRGTWRCTF003183
012026022512GZIT11      010FII GAZIT   CI  ER       R$  000000000452500000000045630000000004458000000000449500000000044950000000004492000000000449503880000000000000044112000000000198295509000000000000009999123100000010000000000000BRGZITCTF005128
012026022512HSAF11      010FII HSI CRI CI           R$  000000000807000000000081650000000008070000000000810600000000081190000000008101000000000811900726000000000000013086000000000106084084000000000000009999123100000010000000000000BRHSAFCTF004168
012026022512HSLG11      010FII HSI LOG CI           R$  000000000946300000000097490000000009371000000000949400000000093810000000009381000000000946501534000000000000021276000000000202008042000000000000009999123100000010000000000000BRHSLGCTF009162
012026022512HSML11      010FII HSI MALLCI           R$  000000000933500000000093780000000009335000000000936100000000093610000000009361000000000937003171000000000000049151000000000460130892000000000000009999123100000010000000000000BRHSMLCTF007181
012026022512HSRE11      010FII HSIRENDACI           R$  000000001010100000000101780000000010101000000001010200000000101780000000010031000000001017800003000000000000000052000000000000525329000000000000009999123100000010000000000000BRHSRECTF001161
012026022512HTMX11      010FII HOTEL MXCI           R$  000000001372900000000138880000000013720000000001384200000000137500000000013750000000001387000489000000000000004258000000000058942540000000000000009999123100000010000000000000BRHTMXCTF000301
012026022512HUCG11      010FII UNIMED CCI           R$  000000000989900000000099000000000009899000000000989900000000099000000000009899000000000990000004000000000000000014000000000000138587000000000000009999123100000010000000000000BRHUCGCTF004127
012026022512LVBI11      010FII LVBI VBICI           R$  000000001104400000000111240000000011044000000001108800000000110530000000011053000000001106005523000000000000037552000000000416404339000000000000009999123100000010000000000000BRLVBICTF002189
012026022512FIGS11      010FII GEN SHOPCI           R$  000000000517900000000051790000000005091000000000512600000000050910000000005091000000000514800095000000000000002899000000000014860880000000000000009999123100000010000000000000BRFIGSCTF009248
012026022512FIIB11      010FII INDL BR CI           R$  000000004795000000000484990000000047716000000004801200000000478750000000047827000000004787500172000000000000000931000000000044700085000000000000009999123100000010000000000000BRFIIBCTF001271
012026022512FIIP11      010FII RB CAP ICI           R$  000000001413400000000144000000000013991000000001421600000000142680000000014101000000001426800379000000000000009776000000000138977329000000000000009999123100000010000000000000BRFIIPCTF001295
012026022512FISC11      010FII SC 401  CI           R$  000000000672900000000067290000000006720000000000672000000000067200000000006631000000000672000003000000000000000161000000000001081929000000000000009999123100000010000000000000BRFISCCTF008156
012026022512FIVN11      010FII VIDANOVACI           R$  000000000025800000000002740000000000257000000000026000000000002600000000000262000000000027300043000000000000000549000000000000142809000000000000009999123100000010000000000000BRFIVNCTF009100
012026022512SJAU11      010FII SJ AU   CI           R$  000000000007200000000000750000000000072000000000007300000000000720000000000072000000000007400047000000000000001600000000000000118087000000000000009999123100000010000000000000BRSJAUCTF009104
012026022512TVRI11      010FII TIVIO RICI           R$  000000001001500000000100760000000009990000000001001600000000100190000000010019000000001005801192000000000000011107000000000111253567000000000000009999123100000010000000000000BRTVRICTF001128
012026022512ICRI11      010FII CI IPCA CI           R$  000000000946600000000096010000000009464000000000955200000000094910000000009491000000000958103710000000000000017327000000000165507982000000000000009999123100000010000000000000BRICRICTF004124
012026022512FAED11      010FII ANH EDUCCI           R$  000000001615100000000162600000000016016000000001610300000000162600000000016024000000001626000378000000000000001273000000000020499829000000000000009999123100000010000000000000BRFAEDCTF003298
012026022512FAMB11      010FII ALMIRANTCI           R$  000000010549700000001054990000000105000000000010514900000001050000000000105001000000010550000004000000000000000014000000000001472094000000000000009999123100000010000000000000BRFAMBCTF018319
012026022512FATN11      010FII ATHENA ICI           R$  000000000872500000000087420000000008679000000000869500000000087160000000008690000000000871604754000000000000038370000000000333658986000000000000009999123100000010000000000000BRFATNCTF000174
012026022512FCFL11      010FII CAMPUSFLCI  ER       R$  000000001264700000000126480000000012505000000001254900000000125100000000012510000000001260900314000000000000000639000000000008019184000000000000009999123100000010000000000000BRFCFLCTF009290
012026022512RELG11      010FII REC LOG CI           R$  000000000654700000000065470000000006421000000000645200000000064830000000006439000000000648300400000000000000001687000000000010885880000000000000009999123100000010000000000000BRRELGCTF008156
012026022512DAMA11      010FII DAMA    CI           R$  000000000070200000000007190000000000692000000000069600000000007090000000000676000000000071400022000000000000001042000000000000725423000000000000009999123100000010000000000000BRDAMACTF007121
012026022512DAMT11      010FII DIAMANTECI           R$  000000000093500000000009350000000000935000000000093500000000009350000000000800000000000106600004000000000000000036000000000000033660000000000000009999123100000010000000000000BRDAMTCTF007119
012026022512DAYM11      010FII DAYC REMCI  ER       R$  000000000040800000000004170000000000400000000000040000000000004050000000000400000000000040500048000000000000002623000000000001051242000000000000009999123100000010000000000000BRDAYMCTF007107
012026022512DEVA11      010FII DEVANT  CI           R$  000000000249200000000025100000000002490000000000249800000000025030000000002500000000000250300800000000000000020810000000000052002364000000000000009999123100000010000000000000BRDEVACTF000169
012026022512DPRO11      010FII DEVA PROCI           R$  000000000057600000000005980000000000567000000000057800000000005950000000000581000000000059500036000000000000000838000000000000485044000000000000009999123100000010000000000000BRDPROCTF005144
012026022512DVFF11      010FII DEVA FOFCI           R$  000000000058900000000005900000000000585000000000058700000000005900000000000585000000000059001552000000000000005588000000000003281823000000000000009999123100000010000000000000BRDVFFCTF006158
012026022512ATSA11      010FII HATRIUM CI           R$  000000000584700000000058470000000005766000000000582600000000058470000000005758000000000584800003000000000000000004000000000000023307000000000000009999123100000010000000000000BRATSACTF000157
012026022512BBFO11      010FII BB FOF  CI           R$  000000000720000000000073110000000007158000000000722200000000071580000000007158000000000718500900000000000000007915000000000057166819000000000000009999123100000010000000000000BRBBFOCTF004161
012026022512BBIG11      010FII BBIG    CI           R$  000000000074600000000007520000000000737000000000074100000000007410000000000741000000000074403709000000000000247769000000000183722287000000000000009999123100000010000000000000BRBBIGCTF004121
012026022512BBRC11      010FII BB CORP CI           R$  000000001045000000000105480000000010310000000001045200000000104450000000010399000000001040000094000000000000001261000000000013180587000000000000009999123100000010000000000000BRBBRCCTF004273
012026022512CXTL11      010FII CX TRX  CI           R$  000000003407500000000340750000000033951000000003401300000000339510000000033950000000003447400002000000000000000002000000000000068026000000000000009999123100000010000000000000BRCXTLCTF003256
012026022512CYCR11      010FII CYRELA  CI           R$  000000000090900000000009160000000000904000000000090900000000009040000000000904000000000090901427000000000000120082000000000109154761000000000000009999123100000010000000000000BRCYCRCTF004159
012026022512ALZC11      010FII ALIANZACCI  ER       R$  000000000079300000000007930000000000787000000000079000000000007900000000000789000000000079000729000000000000006792000000000005371439000000000000009999123100000010000000000000BRALZCCTF016125
012026022512ALZR11      010FII ALIANZA CI  ER       R$  000000000107700000000010820000000001075000000000107800000000010800000000001078000000000108007640000000000000235756000000000254332995000000000000009999123100000010000000000000BRALZRCTF006204
012026022512ANCR11      010FII ANCAR ICCI           R$  000000004480000000000448000000000044800000000004480000000000448000000000044799000000004899900002000000000000000005000000000000224000000000000000009999123100000010000000000000BRANCRCTF001164
012026022512PABY11      010FII PANAMBY CI           R$  000000000180000000000018000000000001752000000000175400000000017540000000001525000000000175400005000000000000000024000000000000042106000000000000009999123100000010000000000000BRPABYCTF012158
