00COTAHIST.2026BOVESPA 20260218                                                                                                                                                                                                                      
012026021802VITT3       010VITTIA      ON      NM   R$  000000000043100000000004340000000000420000000000042300000000004210000000000420000000000042100667000000000000129900000000000055010500000000000000009999123100000010000000000000BRVITTACNOR4113
012026021802VIVA3       010VIVARA S.A. ON      NM   R$  000000000298000000000030500000000002960000000000302800000000030400000000003037000000000304012021000000000002333500000000007068083300000000000000009999123100000010000000000000BRVIVAACNOR0109
012026021802VBBR3       010VIBRA       ON      NM   R$  000000000318800000000031990000000003129000000000315100000000031500000000003149000000000315026400000000000008385400000000026425279000000000000000009999123100000010000000000000BRVBBRACNOR1114
012026021802SBFG3       010GRUPO SBF   ON      NM   R$  000000000124100000000012720000000001233000000000126000000000012650000000001265000000000126605581000000000001866600000000002353420200000000000000009999123100000010000000000000BRSBFGACNOR1104
012026021802SBSP3       010SABESP      ON      NM   R$  000000001527600000000153890000000015070000000001517200000000152130000000015200000000001521414461000000000002752500000000041763192700000000000000009999123100000010000000000000BRSBSPACNOR5165
012026021802VALE3       010VALE        ON  ATZ NM   R$  000000000851000000000085150000000008356000000000843700000000083920000000008391000000000839238557000000000020898700000000176332921200000000000000009999123100000010000000000000BRVALEACNOR0219
012026021802YDUQ3       010YDUQS PART  ON      NM   R$  000000000127500000000013080000000001267000000000129000000000012980000000001290000000000129808522000000000002802800000000003618068500000000000000009999123100000010000000000000BRYDUQACNOR3108
012026021802CSED3       010CRUZEIRO EDUON      NM   R$  000000000065500000000006700000000000653000000000065900000000006640000000000658000000000066401159000000000000301000000000000198555700000000000000009999123100000010000000000000BRCSEDACNOR9107
012026021802CSMG3       010COPASA      ON      NM   R$  000000000558200000000057570000000005582000000000569300000000056960000000005695000000000570015336000000000002707600000000015414458200000000000000009999123100000010000000000000BRCSMGACNOR5183
012026021802EGIE3       010ENGIE BRASILON      NM   R$  000000000335400000000033870000000003301000000000332700000000033270000000003322000000000332808797000000000001946800000000006478643200000000000000009999123100000010000000000000BREGIEACNOR9132
012026021802AALR3       010ALLIAR      ON      NM   R$  000000000041800000000004290000000000418000000000042200000000004190000000000418000000000042600063000000000000013300000000000005625800000000000000009999123100000010000000000000BRAALRACNOR6104
012026021802ABCB4       010ABC BRASIL  PN      N2   R$  000000000270400000000027320000000002683000000000269800000000026950000000002695000000000269901461000000000000340500000000000918993100000000000000009999123100000010000000000000BRABCBACNPR4150
012026021802ABEV3       010AMBEV S/A   ON           R$  000000000163100000000016490000000001601000000000161800000000016130000000001610000000000161423464000000000029705300000000048064380000000000000000009999123100000010000000000000BRABEVACNOR1134
012026021802AZEV3       010AZEVEDO     ON           R$  000000000002400000000000250000000000024000000000002400000000000250000000000024000000000002500056000000000000240000000000000005950400000000000000009999123100000010000000000000BRAZEVACNOR0123
012026021802MTRE3       010MITRE REALTYON      NM   R$  000000000041300000000004250000000000413000000000042000000000004250000000000421000000000042500871000000000000891500000000000374513700000000000000009999123100000010000000000000BRMTREACNOR6131
012026021802MTSA4       010METISA      PN           R$  000000000525100000000054950000000005251000000000541900000000054950000000004500000000000549000005000000000000000500000000000002709900000000000000009999123100000010000000000000BRMTSAACNPR9079
012026021802MULT3       010MULTIPLAN   ON      N2   R$  000000000329500000000033350000000003270000000000330900000000033140000000003306000000000331412103000000000002476700000000008195731100000000000000009999123100000010000000000000BRMULTACNOR5145
012026021802ITUB3       010ITAUUNIBANCOON      N1   R$  000000000443500000000044990000000004430000000000445900000000044900000000004464000000000449004705000000000000966200000000004308790200000000000000009999123100000010000000000000BRITUBACNOR4365
012026021802ITUB4       010ITAUUNIBANCOPN      N1   R$  000000000480700000000048420000000004752000000000478100000000047990000000004798000000000479926075000000000023368500000000111728864700000000000000009999123100000010000000000000BRITUBACNPR1365
012026021802LUPA3       010LUPATECH    ON      NM   R$  000000000011800000000001260000000000116000000000012100000000001170000000000117000000000012000130000000000000128800000000000015641100000000000000009999123100000010000000000000BRLUPAACNOR8112
012026021802LUXM4       010TREVISA     PN           R$  000000000042000000000004200000000000420000000000042000000000004200000000000420000000000042800001000000000000000100000000000000042000000000000000009999123100000010000000000000BRLUXMACNPR4053
012026021802LWSA3       010LWSA        ON  ER  NM   R$  000000000036600000000003680000000000355000000000036000000000003630000000000362000000000036306675000000000007182400000000002585991000000000000000009999123100000010000000000000BRLWSAACNOR8106
012026021802MWET4       010WETZEL S/A  PN           R$  000000000108900000000010890000000001089000000000108900000000010890000000001002000000000108900001000000000000000300000000000000326700000000000000009999123100000010000000000000BRMWETACNPR3118
012026021802MYPK3       010IOCHP-MAXIONON      NM   R$  000000000104400000000010690000000001042000000000105500000000010540000000001053000000000105403681000000000000899800000000000949908000000000000000009999123100000010000000000000BRMYPKACNOR7158
012026021802ALPA4       010ALPARGATAS  PN      N1   R$  000000000151200000000015200000000001454000000000147300000000014720000000001469000000000147204824000000000001289400000000001899747500000000000000009999123100000010000000000000BRALPAACNPR7235
012026021802ALPK3       010ESTAPAR     ON      NM   R$  000000000048000000000005180000000000478000000000050000000000005070000000000505000000000050800374000000000000193900000000000096986000000000000000009999123100000010000000000000BRALPKACNOR9101
012026021802ALUP11      010ALUPAR      UNT     N2   R$  000000000356100000000035840000000003513000000000354100000000035510000000003542000000000355103285000000000000793000000000002808110200000000000000009999123100000010000000000000BRALUPCDAM15126
012026021802ALUP3       010ALUPAR      ON      N2   R$  000000000132000000000013800000000001305000000000131700000000013190000000001305000000000133000038000000000000007600000000000010014700000000000000009999123100000010000000000000BRALUPACNOR8126
012026021802ALUP4       010ALUPAR      PN      N2   R$  000000000114100000000011430000000001105000000000112200000000011190000000001109000000000112000048000000000000007700000000000008639800000000000000009999123100000010000000000000BRALUPACNPR5126
012026021802AMAR3       010LOJAS MARISAON      NM   R$  000000000009500000000000960000000000093000000000009400000000000940000000000093000000000009400259000000000000152000000000000014307000000000000000009999123100000010000000000000BRAMARACNOR4115
012026021802SANB11      010SANTANDER BRUNT          R$  000000000349000000000035140000000003459000000000348300000000035140000000003479000000000351409258000000000002171700000000007566130900000000000000009999123100000010000000000000BRSANBCDAM13172
012026021802SANB3       010SANTANDER BRON           R$  000000000171800000000017350000000001705000000000172000000000017300000000001718000000000173000221000000000000038900000000000066943800000000000000009999123100000010000000000000BRSANBACNOR8179
012026021802SANB4       010SANTANDER BRPN           R$  000000000175700000000017790000000001741000000000175800000000017720000000001746000000000177200329000000000000047900000000000084219500000000000000009999123100000010000000000000BRSANBACNPR5179
012026021802VAMO3       010VAMOS       ON      NM   R$  000000000043900000000004420000000000430000000000043700000000004390000000000439000000000044107450000000000006431200000000002811469700000000000000009999123100000010000000000000BRVAMOACNOR7109
012026021802CMIN3       010CSNMINERACAOON      N2   R$  000000000055800000000005600000000000532000000000053700000000005330000000000532000000000053309868000000000008951400000000004808862500000000000000009999123100000010000000000000BRCMINACNOR2116
012026021802CSUD3       010CSU DIGITAL ON      NM   R$  000000000192400000000019240000000001880000000000189400000000018850000000001885000000000189500170000000000000024600000000000046613600000000000000009999123100000010000000000000BRCSUDACNOR5117
012026021802CTKA4       010KARSTEN     PN           R$  000000000490000000000049800000000004857000000000493700000000049790000000004625000000000499800005000000000000001100000000000005431500000000000000009999123100000010000000000000BRCTKAACNPR7043
012026021802CURY3       010CURY S/A    ON  ED  NM   R$  000000000408000000000041760000000004041000000000409400000000041010000000004077000000000410212905000000000002373400000000009718243500000000000000009999123100000010000000000000BRCURYACNOR3116
012026021802CVCB3       010CVC BRASIL  ON      NM   R$  000000000024800000000002480000000000232000000000023700000000002330000000000233000000000023409482000000000016746200000000003977833600000000000000009999123100000010000000000000BRCVCBACNOR1118
012026021802CYRE3       010CYRELA REALTON      NM   R$  000000000306400000000031820000000003064000000000314000000000031520000000003133000000000315322276000000000005900800000000018533364200000000000000009999123100000010000000000000BRCYREACNOR7143
012026021802CYRE4       010CYRELA REALTPN      NM   R$  000000000290300000000030220000000002903000000000297700000000029850000000002962000000000298602686000000000000406700000000001211127200000000000000009999123100000010000000000000BRCYREACNPR4114
012026021802ENJU3       010ENJOEI      ON      NM   R$  000000000010600000000001090000000000104000000000010500000000001050000000000105000000000010600403000000000000263300000000000027866300000000000000009999123100000010000000000000BRENJUACNOR9100
012026021802EPAR3       010EMBPAR S/A  ON           R$  000000000036200000000003620000000000362000000000036200000000003620000000000363000000000036900001000000000000000100000000000000036200000000000000009999123100000010000000000000BREPARACNOR9107
012026021802EQMA3B      010EQTLMARANHAOON      MB   R$  000000000314900000000031990000000003149000000000318200000000031990000000003111000000000329900003000000000000000300000000000000954700000000000000009999123100000010000000000000BREQMAACNOR8109
012026021802EQPA3       010EQTL PARA   ON           R$  000000000064500000000006490000000000628000000000064500000000006470000000000635000000000064500009000000000000002200000000000001419200000000000000009999123100000010000000000000BREQPAACNOR1112
012026021802EQTL3       010EQUATORIAL  ON      NM   R$  000000000412000000000041220000000004052000000000407800000000040850000000004083000000000408519072000000000006695500000000027307152200000000000000009999123100000010000000000000BREQTLACNOR0135
012026021802CPFE3       010CPFL ENERGIAON      NM   R$  000000000509400000000051120000000004932000000000498900000000049570000000004950000000000496107370000000000001286500000000006418761800000000000000009999123100000010000000000000BRCPFEACNOR0138
012026021802CPLE3       010COPEL       ON      NM   R$  000000000140600000000014310000000001397000000000140800000000014080000000001405000000000140924397000000000017775700000000025034107500000000000000009999123100000010000000000000BRCPLEACNOR8153
012026021802CRPG5       010CRISTAL     PNA          R$  000000000194700000000019900000000001947000000000198000000000019900000000001920000000000199000005000000000000000900000000000001782600000000000000009999123100000010000000000000BRCRPGACNPA3119
012026021802LOGG3       010LOG COM PROPON      NM   R$  000000000281700000000028240000000002702000000000272700000000027300000000002713000000000273102454000000000000372000000000001014807000000000000000009999123100000010000000000000BRLOGGACNOR7112
012026021802LOGN3       010LOG-IN      ON      NM   R$  000000000321700000000032860000000003191000000000322400000000032390000000003200000000000324200084000000000000010100000000000032569000000000000000009999123100000010000000000000BRLOGNACNOR3105
012026021802LPSB3       010LOPES BRASILON      NM   R$  000000000017500000000001780000000000170000000000017500000000001770000000000175000000000017700218000000000000093800000000000016474200000000000000009999123100000010000000000000BRLPSBACNOR0116
012026021802LREN3       010LOJAS RENNERON      NM   R$  000000000153800000000015610000000001533000000000154700000000015500000000001549000000000155012952000000000006374200000000009865216400000000000000009999123100000010000000000000BRLRENACNOR1228
012026021802MRVE3       010MRV         ON      NM   R$  000000000097000000000010040000000000970000000000098800000000009840000000000984000000000098510333000000000005144300000000005083888900000000000000009999123100000010000000000000BRMRVEACNOR2128
012026021802SMFT3       010SMART FIT   ON      NM   R$  000000000206900000000021060000000002064000000000208000000000020880000000002079000000000208914078000000000004491400000000009343297800000000000000009999123100000010000000000000BRSMFTACNOR1118
012026021802SMTO3       010SAO MARTINHOON      NM   R$  000000000154200000000015940000000001542000000000156900000000015590000000001559000000000156305515000000000001651000000000002591625100000000000000009999123100000010000000000000BRSMTOACNOR3129
012026021802MNDL3       010MUNDIAL     ON           R$  000000000177000000000017700000000001770000000000177000000000017700000000001710000000000179800001000000000000000100000000000000177000000000000000009999123100000010000000000000BRMNDLACNOR4109
012026021802MNPR3       010MINUPAR     ON           R$  000000000041600000000004300000000000410000000000041500000000004120000000000401000000000041200013000000000000004700000000000001950700000000000000009999123100000010000000000000BRMNPRACNOR5123
012026021802MOTV3       010MOTIVA SA   ON      NM   R$  000000000165300000000016560000000001609000000000162500000000016200000000001616000000000162015773000000000014779900000000024026086300000000000000009999123100000010000000000000BRMOTVACNOR7102
012026021802MOVI3       010MOVIDA      ON      NM   R$  000000000131000000000013290000000001296000000000131100000000013090000000001308000000000131704586000000000001514700000000001986771800000000000000009999123100000010000000000000BRMOVIACNOR0126
012026021802RECV3       010PETRORECSA  ON      NM   R$  000000000109100000000011480000000001091000000000112500000000011240000000001122000000000112510582000000000003936500000000004429231900000000000000009999123100000010000000000000BRRECVACNOR3110
012026021802REDE3       010REDE ENERGIAON           R$  000000000062600000000006260000000000626000000000062600000000006260000000000627000000000063300001000000000000000200000000000000125200000000000000009999123100000010000000000000BRREDEACNOR7134
012026021802RENT3       010LOCALIZA    ON      NM   R$  000000000524500000000052450000000005078000000000511900000000051300000000005128000000000513119576000000000007426400000000038020645200000000000000009999123100000010000000000000BRRENTACNOR4205
012026021802RENT4       010LOCALIZA    PN      NM   R$  000000000496100000000050700000000004944000000000498200000000049860000000004986000000000500500780000000000000107600000000000536152800000000000000009999123100000010000000000000BRRENTACNPR1100
012026021802SOJA3       010BOA SAFRA   ON      NM   R$  000000000082400000000008280000000000808000000000081500000000008080000000000808000000000081202810000000000001005800000000000820117900000000000000009999123100000010000000000000BRSOJAACNOR9109
012026021802TRIS3       010TRISUL      ON      NM   R$  000000000073000000000007560000000000728000000000074100000000007300000000000730000000000073500856000000000000296300000000000219634600000000000000009999123100000010000000000000BRTRISACNOR4122
012026021802TTEN3       0103TENTOS     ON      NM   R$  000000000159100000000016030000000001573000000000158900000000015960000000001596000000000160104600000000000000954400000000001516694100000000000000009999123100000010000000000000BRTTENACNOR0105
012026021802TUPY3       010TUPY        ON      NM   R$  000000000121300000000012390000000001203000000000122500000000012140000000001214000000000122203416000000000000860000000000001053782700000000000000009999123100000010000000000000BRTUPYACNOR1185
012026021802UCAS3       010UNICASA     ON      NM   R$  000000000013700000000001370000000000132000000000013300000000001330000000000132000000000013300152000000000000084300000000000011225100000000000000009999123100000010000000000000BRUCASACNOR1114
012026021802UGPA3       010ULTRAPAR    ON      NM   R$  000000000272500000000027320000000002688000000000270300000000027160000000002710000000000271612304000000000004024100000000010880074200000000000000009999123100000010000000000000BRUGPAACNOR8159
012026021802JSLG3       010JSL         ON      NM   R$  000000000081300000000008210000000000800000000000081000000000008160000000000815000000000081602616000000000000821200000000000665224700000000000000009999123100000010000000000000BRJSLGACNOR2123
012026021802LAND3       010TERRASANTAPAON      NM   R$  000000000083900000000008720000000000835000000000085300000000008450000000000845000000000085400188000000000000040900000000000034909600000000000000009999123100000010000000000000BRLANDACNOR9104
012026021802LAVV3       010LAVVI       ON      NM   R$  000000000181700000000018500000000001809000000000182600000000018170000000001817000000000182402571000000000000709900000000001296447000000000000000009999123100000010000000000000BRLAVVACNOR4120
012026021802LEVE3       010METAL LEVE  ON      NM   R$  000000000349500000000035300000000003486000000000350700000000035050000000003501000000000350501326000000000000216100000000000757901500000000000000009999123100000010000000000000BRLEVEACNOR2202
012026021802LJQQ3       010QUERO-QUERO ON      NM   R$  000000000023500000000002370000000000228000000000023200000000002310000000000230000000000023103353000000000004137200000000000961024600000000000000009999123100000010000000000000BRLJQQACNOR5105
012026021802ENEV3       010ENEVA       ON      NM   R$  000000000217300000000021730000000002110000000000213100000000021290000000002129000000000213023128000000000011747800000000025041952000000000000000009999123100000010000000000000BRENEVACNOR8107
012026021802HBOR3       010HELBOR      ON      NM   R$  000000000029300000000003160000000000289000000000030500000000003160000000000316000000000031703243000000000002263200000000000690908000000000000000009999123100000010000000000000BRHBORACNOR3120
012026021802HBRE3       010HBR REALTY  ON      NM   R$  000000000035000000000003560000000000345000000000034900000000003510000000000347000000000035202478000000000000875300000000000305702700000000000000009999123100000010000000000000BRHBREACNOR4101
012026021802HBSA3       010HIDROVIAS   ON      NM   R$  000000000038900000000004000000000000387000000000039400000000003970000000000393000000000039803147000000000001259500000000000497317800000000000000009999123100000010000000000000BRHBSAACNOR0102
012026021802BALM4       010BAUMER      PN           R$  000000000188300000000018830000000001878000000000188000000000018780000000001851000000000187600003000000000000000400000000000000752200000000000000009999123100000010000000000000BRBALMACNPR2060
012026021802BAZA3       010AMAZONIA    ON           R$  000000000859800000000085990000000008550000000000858900000000085990000000008591000000000859900011000000000000001300000000000011165700000000000000009999123100000010000000000000BRBAZAACNOR0180
012026021802BBAS3       010BRASIL      ON      NM   R$  000000000254100000000025820000000002535000000000256300000000025820000000002578000000000258345148000000000038768500000000099367476900000000000000009999123100000010000000000000BRBBASACNOR3334
012026021802BIOM3       010BIOMM       ON      MA   R$  000000000060000000000006240000000000600000000000061300000000006200000000000620000000000062100072000000000000039600000000000024276800000000000000009999123100000010000000000000BRBIOMACNOR2113
012026021802GOAU3       010GERDAU MET  ON      N1   R$  000000000093500000000009350000000000922000000000092600000000009230000000000922000000000093100199000000000000050200000000000046497100000000000000009999123100000010000000000000BRGOAUACNOR1274
012026021802GOAU4       010GERDAU MET  PN      N1   R$  000000000097100000000009720000000000960000000000096500000000009700000000000967000000000097009538000000000005288600000000005107511900000000000000009999123100000010000000000000BRGOAUACNPR8275
012026021802IRBR3       010IRBBRASIL REON      NM   R$  000000000589700000000059870000000005656000000000573200000000057520000000005752000000000577106014000000000001260400000000007225830700000000000000009999123100000010000000000000BRIRBRACNOR4113
012026021802JALL3       010JALLESMACHADON      NM   R$  000000000030600000000003100000000000299000000000030400000000003030000000000302000000000030301367000000000000753900000000000229342100000000000000009999123100000010000000000000BRJALLACNOR0106
012026021802JHSF3       010JHSF PART   ON      NM   R$  000000000097000000000009950000000000963000000000097100000000009650000000000965000000000096704217000000000002585400000000002511859900000000000000009999123100000010000000000000BRJHSFACNOR2156
012026021802NORD3       010NORDON MET  ON           R$  000000000043000000000004300000000000430000000000043000000000004300000000000420000000000044000001000000000000000300000000000000129000000000000000009999123100000010000000000000BRNORDACNOR7135
012026021802NUTR3       010NUTRIPLANT  ON      MA   R$  000000000024600000000002500000000000246000000000024900000000002500000000000246000000000025100018000000000000003100000000000000773200000000000000009999123100000010000000000000BRNUTRACNOR0104
012026021802OBTC3       010ORANJEBTC   ON           R$  000000000066700000000006680000000000631000000000065400000000006600000000000657000000000066001297000000000000305400000000000199889400000000000000009999123100000010000000000000BROBTCACNOR0100
012026021802ODPV3       010ODONTOPREV  ON      NM   R$  000000000119600000000012080000000001191000000000120000000000012080000000001207000000000120802284000000000000734900000000000882464100000000000000009999123100000010000000000000BRODPVACNOR4213
012026021802OFSA3       010OUROFINO S/AON      NM   R$  000000000244800000000024500000000002300000000000233000000000023000000000002299000000000236800039000000000000008400000000000019572600000000000000009999123100000010000000000000BROFSAACNOR7122
012026021802ONCO3       010ONCOCLINICASON      NM   R$  000000000029900000000003000000000000273000000000028400000000002860000000000282000000000028603742000000000005253500000000001492098400000000000000009999123100000010000000000000BRONCOACNOR6102
012026021802OPCT3       010OCEANPACT   ON      NM   R$  000000000091400000000009520000000000913000000000094100000000009400000000000940000000000094501535000000000000381900000000000359466900000000000000009999123100000010000000000000BROPCTACNOR0100
012026021802RAIL3       010RUMO S.A.   ON      NM   R$  000000000160800000000016170000000001591000000000160100000000016100000000001610000000000161114464000000000007166400000000011474410800000000000000009999123100000010000000000000BRRAILACNOR9106
012026021802SAPR11      010SANEPAR     UNT     N2   R$  000000000459900000000046690000000004563000000000462300000000046190000000004614000000000461905427000000000000963100000000004453092200000000000000009999123100000010000000000000BRSAPRCDAM13121
012026021802SAPR3       010SANEPAR     ON      N2   R$  000000000113000000000011490000000001117000000000113300000000011290000000001118000000000112900457000000000000090900000000000103028900000000000000009999123100000010000000000000BRSAPRACNOR9162
012026021802SAPR4       010SANEPAR     PN      N2   R$  000000000087200000000008790000000000865000000000087000000000008690000000000868000000000087002306000000000000849200000000000739387800000000000000009999123100000010000000000000BRSAPRACNPR6162
012026021802WEST3       010WESTWING    ON      NM   R$  000000000058800000000006150000000000588000000000060300000000006000000000000586000000000060200026000000000000025700000000000015521700000000000000009999123100000010000000000000BRWESTACNOR3101
012026021802WHRL3       010WHIRLPOOL   ON           R$  000000000043400000000004440000000000433000000000043600000000004440000000000439000000000044300014000000000000001800000000000000786200000000000000009999123100000010000000000000BRWHRLACNOR5135
012026021802WHRL4       010WHIRLPOOL   PN           R$  000000000046400000000004710000000000464000000000046800000000004660000000000464000000000046600018000000000000003900000000000001825900000000000000009999123100000010000000000000BRWHRLACNPR2135
012026021802WIZC3       010WIZ CO      ON      NM   R$  000000000091000000000009230000000000900000000000090800000000009120000000000908000000000091201308000000000000351900000000000319607600000000000000009999123100000010000000000000BRWIZCACNOR5104
012026021802WLMM4       010WLM IND COM PN           R$  000000000245400000000026000000000002420000000000245900000000024580000000002421000000000245900019000000000000001900000000000004673300000000000000009999123100000010000000000000BRWLMMACNPR3125
012026021802PRNR3       010PRINER      ON      NM   R$  000000000206500000000021000000000002065000000000209200000000021000000000002090000000000210003831000000000000839900000000001757576700000000000000009999123100000010000000000000BRPRNRACNOR4111
012026021802PSSA3       010PORTO SEGUROON      NM   R$  000000000514100000000052230000000005079000000000512200000000051230000000005107000000000512309194000000000001349800000000006914122000000000000000009999123100000010000000000000BRPSSAACNOR7161
012026021802RIAA3       010RIACHUELO   ON      NM   R$  000000000103700000000010910000000001033000000000106300000000010600000000001059000000000106006299000000000003523000000000003746250300000000000000009999123100000010000000000000BRRIAAACNOR2100
012026021802RNEW3       010RENOVA      ON      N2   R$  000000000012700000000001350000000000117000000000012500000000001290000000000125000000000012900271000000000000124800000000000015673400000000000000009999123100000010000000000000BRRNEWACNOR8113
012026021802RNEW4       010RENOVA      PN      N2   R$  000000000010400000000001080000000000103000000000010500000000001080000000000105000000000010800096000000000000121800000000000012793700000000000000009999123100000010000000000000BRRNEWACNPR5113
012026021802ROMI3       010ROMI        ON      NM   R$  000000000081400000000008320000000000814000000000082500000000008300000000000827000000000083000615000000000000128500000000000106089800000000000000009999123100000010000000000000BRROMIACNOR8201
012026021802RSUL4       010RIOSULENSE  PN           R$  000000000671600000000068980000000006400000000000668100000000068980000000006400000000000706800081000000000000012100000000000080842600000000000000009999123100000010000000000000BRRSULACNPR3116
012026021802AZEV4       010AZEVEDO     PN           R$  000000000001700000000000180000000000017000000000001700000000000170000000000017000000000001800251000000000001013400000000000017393200000000000000009999123100000010000000000000BRAZEVACNPR7123
012026021802AZTE3       010AZT ENERGIA ON           R$  000000000002700000000000280000000000025000000000002600000000000260000000000025000000000002600438000000000001485600000000000038908500000000000000009999123100000010000000000000BRAZTEACNOR4101
012026021802AZZA3       010AZZAS 2154  ON      NM   R$  000000000245800000000025130000000002455000000000248200000000024740000000002470000000000247708685000000000001645800000000004086168100000000000000009999123100000010000000000000BRAZZAACNOR9104
012026021802COCE5       010COELCE      PNA          R$  000000000297000000000030390000000002951000000000298800000000030230000000003000000000000304500033000000000000004500000000000013449900000000000000009999123100000010000000000000BRCOCEACNPA3150
012026021802COGN3       010COGNA ON    ON      NM   R$  000000000034700000000003540000000000343000000000035000000000003540000000000353000000000035527786000000000023400900000000008205490500000000000000009999123100000010000000000000BRCOGNACNOR2110
012026021802BRAV3       010BRAVA       ON      NM   R$  000000000179000000000018420000000001785000000000181200000000018140000000001812000000000181412830000000000007000400000000012687279500000000000000009999123100000010000000000000BRBRAVACNOR3103
012026021802AVLL3       010ALPHAVILLE  ON      NM   R$  000000000008500000000000850000000000082000000000008400000000000830000000000082000000000008500012000000000000005000000000000000423500000000000000009999123100000010000000000000BRAVLLACNOR5103
012026021802SUZB3       010SUZANO S.A. ON      NM   R$  000000000584400000000058440000000005677000000000573500000000057200000000005715000000000572021637000000000005734300000000032887459600000000000000009999123100000010000000000000BRSUZBACNOR0135
012026021802UNIP3       010UNIPAR      ON           R$  000000000620000000000063790000000006200000000000627800000000062950000000006260000000000629600050000000000000007500000000000047085200000000000000009999123100000010000000000000BRUNIPACNOR7210
012026021802UNIP5       010UNIPAR      PNA          R$  000000000660000000000066000000000006600000000000660000000000066000000000005851000000000680000001000000000000000100000000000000660000000000000000009999123100000010000000000000BRUNIPACNPA0212
012026021802UNIP6       010UNIPAR      PNB          R$  000000000669900000000068940000000006688000000000683700000000068500000000006826000000000685001610000000000000265000000000001811953400000000000000009999123100000010000000000000BRUNIPACNPB8210
012026021802BRBI11      010BR PARTNERS UNT     N2   R$  000000000185500000000019370000000001835000000000190200000000019330000000001933000000000193502210000000000000325700000000000619519200000000000000009999123100000010000000000000BRBRBICDAM10116
012026021802BRKM3       010BRASKEM     ON      N1   R$  000000000091000000000009290000000000880000000000090800000000009280000000000911000000000092900078000000000000010000000000000009087400000000000000009999123100000010000000000000BRBRKMACNOR1119
012026021802BRKM5       010BRASKEM     PNA     N1   R$  000000000092600000000009730000000000920000000000095000000000009730000000000960000000000097307323000000000003113800000000002959674200000000000000009999123100000010000000000000BRBRKMACNPA4123
012026021802PRIO3       010PETRORIO    ON      NM   R$  000000000531500000000053800000000005304000000000534900000000053780000000005367000000000537919483000000000008114300000000043403652100000000000000009999123100000010000000000000BRPRIOACNOR1111
012026021802RCSL3       010RECRUSUL    ON           R$  000000000030900000000003090000000000300000000000030200000000003050000000000300000000000030500055000000000000015800000000000004778800000000000000009999123100000010000000000000BRRCSLACNOR4134
012026021802RCSL4       010RECRUSUL    PN           R$  000000000071800000000007410000000000658000000000070500000000006600000000000659000000000066005672000000000003504200000000002473901500000000000000009999123100000010000000000000BRRCSLACNPR1134
012026021802KEPL3       010KEPLER WEBERON      NM   R$  000000000095500000000009900000000000955000000000097100000000009800000000000980000000000098205907000000000003831200000000003723822700000000000000009999123100000010000000000000BRKEPLACNOR1069
012026021802KLBN11      010KLABIN S/A  UNT     N2   R$  000000000201600000000020640000000002000000000000202300000000020210000000002020000000000202110033000000000004840100000000009792609500000000000000009999123100000010000000000000BRKLBNCDAM18151
012026021802KLBN3       010KLABIN S/A  ON      N2   R$  000000000040700000000004170000000000400000000000040500000000004030000000000403000000000040501175000000000000598200000000000242578700000000000000009999123100000010000000000000BRKLBNACNOR2179
012026021802KLBN4       010KLABIN S/A  PN      N2   R$  000000000040300000000004100000000000397000000000040300000000004030000000000401000000000040302545000000000002333800000000000940749100000000000000009999123100000010000000000000BRKLBNACNPR9179
012026021802MILS3       010MILLS       ON      NM   R$  000000000150600000000015270000000001506000000000151500000000015150000000001512000000000152201020000000000000261200000000000395912700000000000000009999123100000010000000000000BRMILSACNOR2132
012026021802MLAS3       010MULTILASER  ON      NM   R$  000000000013900000000001410000000000133000000000013600000000001350000000000135000000000013600525000000000000959100000000000130732400000000000000009999123100000010000000000000BRMLASACNOR9102
012026021802TOKY3       010GRUPO TOKY  ON      NM   R$  000000000005700000000000580000000000057000000000005700000000000570000000000056000000000005800099000000000000148900000000000008575000000000000000009999123100000010000000000000BRTOKYACNOR5101
012026021802TOTS3       010TOTVS       ON      NM   R$  000000000381200000000038580000000003788000000000382000000000038400000000003838000000000384123394000000000005744700000000021945020300000000000000009999123100000010000000000000BRTOTSACNOR8150
012026021802TPIS3       010TRIUNFO PARTON      NM   R$  000000000064500000000006570000000000622000000000063300000000006300000000000630000000000063800079000000000000018000000000000011395800000000000000009999123100000010000000000000BRTPISACNOR8120
012026021802TRAD3       010TC          ON      NM   R$  000000000030000000000003000000000000271000000000027200000000002930000000000270000000000029400027000000000000033500000000000009132500000000000000009999123100000010000000000000BRTRADACNOR3102
012026021802BEEF3       010MINERVA     ON      NM   R$  000000000057500000000005770000000000553000000000055900000000005610000000000561000000000056214735000000000011989000000000006704628100000000000000009999123100000010000000000000BRBEEFACNOR6120
012026021802AXIA3       010AXIA ENERGIAON      N1   R$  000000000586100000000059070000000005824000000000585500000000058580000000005850000000000585921571000000000007373000000000043169187500000000000000009999123100000010000000000000BRAXIAACNOR0102
012026021802AXIA6       010AXIA ENERGIAPNB     N1   R$  000000000618900000000062480000000006168000000000620900000000062220000000006203000000000622205481000000000001018800000000006326589900000000000000009999123100000010000000000000BRAXIAACNPB1103
012026021802AXIA7       010AXIA ENERGIAPNC     N1   R$  000000000569000000000056900000000005598000000000563900000000056320000000005632000000000563507610000000000001607600000000009065393200000000000000009999123100000010000000000000BRAXIAACNPC9100
012026021802BBDC3       010BRADESCO    ON      N1   R$  000000000180500000000018260000000001790000000000180100000000018030000000001797000000000180412235000000000008678000000000015630373600000000000000009999123100000010000000000000BRBBDCACNOR1797
012026021802BBDC4       010BRADESCO    PN      N1   R$  000000000210500000000021170000000002070000000000208300000000020910000000002091000000000209227270000000000028450400000000059289513400000000000000009999123100000010000000000000BRBBDCACNPR8797
012026021802BRAP3       010BRADESPAR   ON      N1   R$  000000000204600000000020460000000002007000000000201700000000020170000000002017000000000201800486000000000000112100000000000226180100000000000000009999123100000010000000000000BRBRAPACNOR5153
012026021802BRAP4       010BRADESPAR   PN      N1   R$  000000000236000000000023680000000002307000000000232500000000023370000000002336000000000233808789000000000002941800000000006842028400000000000000009999123100000010000000000000BRBRAPACNPR2153
012026021802CEBR3       010CEB         ON           R$  000000000301600000000030990000000003016000000000304200000000030450000000002951000000000307800010000000000000001100000000000003347000000000000000009999123100000010000000000000BRCEBRACNOR5129
012026021802CALI3       010CONST A LINDON           R$  000000000172500000000017250000000001725000000000172500000000017250000000001680000000000172500002000000000000002000000000000003450000000000000000009999123100000010000000000000BRCALIACNOR1138
012026021802AMOB3       010AUTOMOB     ON      NM   R$  000000000132900000000013300000000001302000000000131800000000013300000000001305000000000133000054000000000000006800000000000008967200000000000000009999123100000010000000000000BRAMOBACNOR9101
012026021802ANIM3       010ANIMA       ON      NM   R$  000000000047700000000004960000000000468000000000048900000000004920000000000492000000000049305936000000000006098400000000002984115800000000000000009999123100000010000000000000BRANIMACNOR6110
012026021802ATED3       010ATOM EDUC   ON           R$  000000000021000000000002100000000000206000000000020700000000002070000000000206000000000021200043000000000000005900000000000001226600000000000000009999123100000010000000000000BRATEDACNOR1100
012026021802AUAU3       010PETZCOBASI  ON      NM   R$  000000000030300000000003070000000000298000000000030100000000003000000000000298000000000030004702000000000003683400000000001109816700000000000000009999123100000010000000000000BRAUAUACNOR1100
012026021802AURE3       010AUREN       ON      NM   R$  000000000115800000000011840000000001158000000000116700000000011620000000001160000000000116309295000000000002768000000000003230550700000000000000009999123100000010000000000000BRAUREACNOR9105
012026021802HYPE3       010HYPERA      ON  ES  NM   R$  000000000230900000000023550000000002309000000000232400000000023270000000002327000000000233010084000000000002333900000000005426141500000000000000009999123100000010000000000000BRHYPEACNOR0150
012026021802ITSA3       010ITAUSA      ON      N1   R$  000000000145000000000014640000000001438000000000144600000000014380000000001436000000000144300658000000000000193000000000000279154300000000000000009999123100000010000000000000BRITSAACNOR0455
012026021802ITSA4       010ITAUSA      PN      N1   R$  000000000146200000000014720000000001447000000000145500000000014590000000001457000000000145922491000000000031791700000000046263725000000000000000009999123100000010000000000000BRITSAACNPR7455
012026021802BLAU3       010BLAU        ON      NM   R$  000000000104000000000010800000000001019000000000106300000000010800000000001075000000000108001819000000000000424200000000000451254300000000000000009999123100000010000000000000BRBLAUACNOR8120
012026021802BMEB3       010MERCANTIL   ON      N1   R$  000000000560000000000056000000000005502000000000558600000000055020000000005412000000000560000007000000000000000900000000000005027700000000000000009999123100000010000000000000BRBMEBACNOR8210
012026021802ALLD3       010ALLIED      ON      NM   R$  000000000074900000000007610000000000747000000000075500000000007600000000000757000000000076001729000000000000325400000000000245734600000000000000009999123100000010000000000000BRALLDACNOR3110
012026021802ALOS3       010ALLOS       ON      NM   R$  000000000308000000000031250000000003054000000000307800000000030930000000003090000000000309313239000000000006574200000000020239005400000000000000009999123100000010000000000000BRALOSACNOR5118
012026021802B3SA3       010B3          ON      NM   R$  000000000174800000000017750000000001746000000000175700000000017610000000001757000000000176230480000000000038351500000000067404455500000000000000009999123100000010000000000000BRB3SAACNOR6140
012026021802BBSE3       010BBSEGURIDADEON  EDR NM   R$  000000000340000000000034400000000003349000000000337400000000033490000000003349000000000335322016000000000009487600000000032019902400000000000000009999123100000010000000000000BRBBSEACNOR5128
012026021802BEES3       010BANESTES    ON           R$  000000000083500000000008400000000000824000000000083300000000008360000000000826000000000083900090000000000000017600000000000014662100000000000000009999123100000010000000000000BRBEESACNOR9415
012026021802BEES4       010BANESTES    PN           R$  000000000084300000000008490000000000842000000000084500000000008480000000000842000000000084800019000000000000004100000000000003465600000000000000009999123100000010000000000000BRBEESACNPR6340
012026021802CXSE3       010CAIXA SEGURION      NM   R$  000000000180200000000018190000000001768000000000177800000000017690000000001768000000000176912972000000000004425700000000007872306700000000000000009999123100000010000000000000BRCXSEACNOR7114
012026021802ENGI11      010ENERGISA    UNT     N2   R$  000000000519500000000052370000000005106000000000515000000000051340000000005133000000000513809004000000000001889400000000009730711100000000000000009999123100000010000000000000BRENGICDAM16140
012026021802ENGI3       010ENERGISA    ON      N2   R$  000000000127900000000012860000000001263000000000126900000000012640000000001263000000000128500013000000000000001700000000000002158100000000000000009999123100000010000000000000BRENGIACNOR0150
012026021802ENGI4       010ENERGISA    PN      N2   R$  000000000097900000000009880000000000961000000000097400000000009690000000000967000000000097300034000000000000007600000000000007405700000000000000009999123100000010000000000000BRENGIACNPR7146
012026021802ESPA3       010ESPACOLASER ON      NM   R$  000000000010500000000001120000000000105000000000010900000000001060000000000106000000000010700211000000000000638600000000000069751500000000000000009999123100000010000000000000BRESPAACNOR7105
012026021802ETER3       010ETERNIT     ON      NM   R$  000000000042100000000004210000000000408000000000041000000000004100000000000409000000000041100236000000000000054500000000000022366700000000000000009999123100000010000000000000BRETERACNOR3246
012026021802EUCA4       010EUCATEX     PN      N1   R$  000000000202900000000022400000000002029000000000216700000000021810000000002163000000000218101170000000000000149200000000000323463700000000000000009999123100000010000000000000BREUCAACNPR8046
012026021802EVEN3       010EVEN        ON      NM   R$  000000000082500000000008510000000000823000000000083400000000008380000000000833000000000083803997000000000000872000000000000728065500000000000000009999123100000010000000000000BREVENACNOR8121
012026021802EZTC3       010EZTEC       ON      NM   R$  000000000152500000000015540000000001504000000000154200000000015540000000001543000000000155402399000000000000822600000000001268819800000000000000009999123100000010000000000000BREZTCACNOR0132
012026021802FESA3       010FERBASA     ON      N1   R$  000000000126500000000012700000000001250000000000126200000000012500000000001163000000000127000008000000000000001300000000000001641500000000000000009999123100000010000000000000BRFESAACNOR8194
012026021802FESA4       010FERBASA     PN      N1   R$  000000000078100000000007950000000000780000000000078800000000007910000000000790000000000079101178000000000000352400000000000277725300000000000000009999123100000010000000000000BRFESAACNPR5090
012026021802IBOV11      010IBOVESPA    IBO/         R$  000001854540000000185454000000018545400000001854539900000185454000000000000000000000000000000594000000000015307017000002838747530718000000000000009999123100001000000000000000BRIBOVINDM18016
012026021802BHIA3       010CASAS BAHIA ON      NM   R$  000000000029400000000003020000000000294000000000029700000000002980000000000297000000000029802967000000000004159300000000001239304800000000000000009999123100000010000000000000BRBHIAACNOR1104
012026021802BIED3       010BIOMA EDUC  ON      MA   R$  000000000052500000000005250000000000525000000000052500000000005250000000000485000000000050800001000000000000000100000000000000052500000000000000009999123100000010000000000000BRBIEDACNOR2101
012026021802RDOR3       010REDE D OR   ON      NM   R$  000000000430000000000043600000000004244000000000429900000000042830000000004281000000000428417342000000000005066100000000021780540300000000000000009999123100000010000000000000BRRDORACNOR8119
012026021802BRSR3       010BANRISUL    ON      N1   R$  000000000191300000000019480000000001913000000000191700000000019130000000001913000000000193600026000000000000003500000000000006712300000000000000009999123100000010000000000000BRBRSRACNOR3197
012026021802BRSR6       010BANRISUL    PNB     N1   R$  000000000184500000000018640000000001826000000000184400000000018480000000001844000000000184904412000000000001307300000000002411252900000000000000009999123100000010000000000000BRBRSRACNPB4200
012026021802BRST3       010BRISANET    ON      NM   R$  000000000030800000000003080000000000302000000000030400000000003020000000000302000000000030401879000000000000300400000000000091328100000000000000009999123100000010000000000000BRBRSTACNOR9102
012026021802BSLI3       010BRB BANCO   ON           R$  000000000052000000000006140000000000520000000000057200000000005960000000000589000000000059600500000000000000134200000000000076779700000000000000009999123100000010000000000000BRBSLIACNOR5198
012026021802BSLI4       010BRB BANCO   PN           R$  000000000048000000000005180000000000470000000000048500000000004700000000000470000000000047700169000000000000051600000000000025027200000000000000009999123100000010000000000000BRBSLIACNPR2198
012026021802RADL3       010RAIADROGASILON      NM   R$  000000000257700000000025970000000002554000000000257900000000025920000000002585000000000259322100000000000007198000000000018566965300000000000000009999123100000010000000000000BRRADLACNOR0165
012026021802CEBR5       010CEB         PNA          R$  000000000290000000000030060000000002871000000000291600000000029000000000002882000000000291400027000000000000003100000000000009041100000000000000009999123100000010000000000000BRCEBRACNPA8128
012026021802CEBR6       010CEB         PNB          R$  000000000305700000000031540000000003010000000000304000000000030100000000003010000000000305900035000000000000004300000000000013072100000000000000009999123100000010000000000000BRCEBRACNPB6128
012026021802CEEB3       010COELBA      ON           R$  000000000450100000000047000000000004501000000000463300000000047000000000004501000000000485000003000000000000000300000000000001390100000000000000009999123100000010000000000000BRCEEBACNOR3207
012026021802CEED3       010CEEE-D      ON           R$  000000000097900000000009790000000000979000000000097900000000009790000000000896000000000139400001000000000000000100000000000000097900000000000000009999123100000010000000000000BRCEEDACNOR9103
012026021802CGAS5       010COMGAS      PNA          R$  000000001328400000000132880000000013263000000001327800000000132880000000013005000000001328800003000000000000000300000000000003983500000000000000009999123100000010000000000000BRCGASACNPA3165
012026021802CGRA3       010GRAZZIOTIN  ON           R$  000000000274800000000027480000000002739000000000274700000000027390000000002701000000000273900007000000000000001200000000000003296700000000000000009999123100000010000000000000BRCGRAACNOR2088
012026021802CGRA4       010GRAZZIOTIN  PN           R$  000000000267500000000026850000000002672000000000267500000000026720000000002672000000000272900023000000000000004500000000000012041200000000000000009999123100000010000000000000BRCGRAACNPR9088
012026021802DMVF3       010D1000VFARMA ON      NM   R$  000000000068000000000006920000000000679000000000068500000000006920000000000680000000000069200293000000000000040800000000000027967600000000000000009999123100000010000000000000BRDMVFACNOR9100
012026021802DOHL4       010DOHLER      PN           R$  000000000038100000000003870000000000374000000000037700000000003870000000000375000000000038600008000000000000002300000000000000867900000000000000009999123100000010000000000000BRDOHLACNPR9067
012026021802CLSC4       010CELESC      PN      N2   R$  000000001439700000000144140000000014335000000001438100000000144140000000014336000000001441400026000000000000003300000000000047458600000000000000009999123100000010000000000000BRCLSCACNPR3138
012026021802CMIG3       010CEMIG       ON      N1   R$  000000000152500000000015290000000001509000000000151700000000015270000000001511000000000152700391000000000000060100000000000091186900000000000000009999123100000010000000000000BRCMIGACNOR6251
012026021802CMIG4       010CEMIG       PN      N1   R$  000000000118200000000011830000000001158000000000116400000000011660000000001165000000000116713636000000000010221900000000011905267100000000000000009999123100000010000000000000BRCMIGACNPR3252
012026021802CSNA3       010SID NACIONALON  ATZ      R$  000000000088300000000008830000000000849000000000085700000000008590000000000858000000000086015193000000000010116000000000008676892500000000000000009999123100000010000000000000BRCSNAACNOR6264
012026021802EKTR4       010ELEKTRO     PN           R$  000000000399800000000039980000000003998000000000399800000000039980000000003928000000000399900001000000000000000100000000000000399800000000000000009999123100000010000000000000BREKTRACNPR7174
012026021802EMBJ3       010EMBRAER     ON      NM   R$  000000000947400000000095370000000009373000000000946100000000094330000000009427000000000943319774000000000004680200000000044282270100000000000000009999123100000010000000000000BREMBJACNOR1102
012026021802GOLL54      010GOL         PN *P   N2   R$  000000000113200000000011450000000001051000000000112400000000011450000000001125000000000114600839000000000160886000000000000180841458000000000000009999123100010000000000000000BRGOLLA01PR5100
012026021802DOTZ3       010DOTZ SA     ON      NM   R$  000000000029300000000002980000000000289000000000029300000000002930000000000292000000000029300045000000000000010000000000000002931400000000000000009999123100000010000000000000BRDOTZACNOR7101
012026021802DXCO3       010DEXCO       ON      NM   R$  000000000056500000000005670000000000550000000000055500000000005560000000000553000000000055704241000000000001299800000000000722380900000000000000009999123100000010000000000000BRDXCOACNOR8108
012026021802GRND3       010GRENDENE    ON      NM   R$  000000000048300000000004880000000000476000000000048000000000004790000000000478000000000047904350000000000002218400000000001066160200000000000000009999123100000010000000000000BRGRNDACNOR3182
012026021802EALT3       010ACO ALTONA  ON           R$  000000000140000000000014100000000001400000000000140300000000014100000000001400000000000141400008000000000000000900000000000001263000000000000000009999123100000010000000000000BREALTACNOR4140
012026021802EALT4       010ACO ALTONA  PN           R$  000000000142900000000014300000000001410000000000141800000000014200000000001415000000000142500029000000000000007700000000000010922600000000000000009999123100000010000000000000BREALTACNPR1140
012026021802ECOR3       010ECORODOVIAS ON      NM   R$  000000000104000000000010560000000001037000000000104600000000010450000000001042000000000104906543000000000003512900000000003674721600000000000000009999123100000010000000000000BRECORACNOR8122
012026021802GGPS3       010GPS         ON      NM   R$  000000000188900000000019130000000001870000000000189700000000019130000000001897000000000191307423000000000001937000000000003676331700000000000000009999123100000010000000000000BRGGPSACNOR9106
012026021802GMAT3       010GRUPO MATEUSON      NM   R$  000000000055500000000005580000000000534000000000054900000000005540000000000554000000000055508839000000000007214200000000003967510600000000000000009999123100000010000000000000BRGMATACNOR7109
012026021802ARML3       010ARMAC       ON      NM   R$  000000000054000000000005660000000000533000000000054700000000005450000000000540000000000054502231000000000000682700000000000373689000000000000000009999123100000010000000000000BRARMLACNOR1117
012026021802ARND3       010ARANDU      ON      NM   R$  000000000007700000000000770000000000077000000000007700000000000770000000000075000000000007700004000000000000001300000000000000100100000000000000009999123100000010000000000000BRARNDACNOR6100
012026021802ASAI3       010ASSAI       ON      NM   R$  000000000098900000000009990000000000945000000000095700000000009640000000000962000000000096422716000000000015515700000000014849599100000000000000009999123100000010000000000000BRASAIACNOR0109
012026021802IFCM3       010INFRACOMM   ON      NM   R$  000000000005100000000000630000000000051000000000005700000000000610000000000060000000000006100626000000000000731800000000000042234400000000000000009999123100000010000000000000BRIFCMACNOR8109
012026021802IGTI11      010IGUATEMI S.AUNT     N1   R$  000000000282000000000028780000000002786000000000285200000000028670000000002854000000000286808826000000000002102900000000005998517900000000000000009999123100000010000000000000BRIGTICDAM16108
012026021802IGTI3       010IGUATEMI S.AON      N1   R$  000000000032600000000003280000000000318000000000032300000000003270000000000325000000000032700158000000000000117500000000000038026400000000000000009999123100000010000000000000BRIGTIACNOR8108
012026021802IGTI4       010IGUATEMI S.APN      N1   R$  000000000126600000000012710000000001266000000000126800000000012710000000001211000000000139900002000000000000000200000000000000253700000000000000009999123100000010000000000000BRIGTIACNPR5108
012026021802INEP3       010INEPAR      ON           R$  000000000013500000000001360000000000130000000000013100000000001320000000000131000000000013200061000000000000046200000000000006081200000000000000009999123100000010000000000000BRINEPACNOR1145
012026021802INEP4       010INEPAR      PN           R$  000000000011300000000001180000000000110000000000011500000000001120000000000112000000000011300022000000000000033200000000000003819300000000000000009999123100000010000000000000BRINEPACNPR8145
012026021802BGIP4       010BANESE      PN           R$  000000000349000000000034900000000003490000000000349000000000034900000000003430000000000349000002000000000000000300000000000001047000000000000000009999123100000010000000000000BRBGIPACNPR8215
012026021802INTB3       010INTELBRAS   ON      NM   R$  000000000125000000000012790000000001235000000000126000000000012570000000001257000000000126206752000000000001976900000000002491139200000000000000009999123100000010000000000000BRINTBACNOR9115
012026021802PETR4       010PETROBRAS   PN      N2   R$  000000000370700000000037390000000003685000000000371000000000037190000000003718000000000371932729000000000032276700000000119774627500000000000000009999123100000010000000000000BRPETRACNPR6223
012026021802CSAN3       010COSAN       ON      NM   R$  000000000061100000000006330000000000609000000000062500000000006300000000000629000000000063018056000000000025541400000000015970812000000000000000009999123100000010000000000000BRCSANACNOR6128
012026021802DASA3       010DASA        ON      NM   R$  000000000041400000000004390000000000414000000000042700000000004200000000000420000000000042801567000000000000921700000000000394394100000000000000009999123100000010000000000000BRDASAACNOR1123
012026021802DESK3       010DESKTOP     ON      NM   R$  000000000162700000000016270000000001536000000000155400000000015360000000001535000000000153605271000000000001073300000000001668007700000000000000009999123100000010000000000000BRDESKACNOR2106
012026021802DEXP3       010DEXXOS PAR  ON      N1   R$  000000000076700000000007740000000000759000000000076700000000007740000000000766000000000077400360000000000000053400000000000040992400000000000000009999123100000010000000000000BRDEXPACNOR1109
012026021802DIRR3       010DIRECIONAL  ON      NM   R$  000000000162500000000016680000000001625000000000164800000000016590000000001659000000000166016191000000000006814800000000011232177100000000000000009999123100000010000000000000BRDIRRACNOR0123
012026021802MDIA3       010M.DIASBRANCOON      NM   R$  000000000250000000000025260000000002467000000000248600000000024990000000002483000000000249901432000000000000283100000000000703835800000000000000009999123100000010000000000000BRMDIAACNOR7150
012026021802MDNE3       010MOURA DUBEUXON      NM   R$  000000000321600000000032870000000003197000000000325500000000032450000000003245000000000326004680000000000001011800000000003293797800000000000000009999123100000010000000000000BRMDNEACNOR9104
012026021802MEAL3       010IMC S/A     ON      NM   R$  000000000011400000000001200000000000114000000000011700000000001200000000000118000000000012000328000000000000226600000000000026532400000000000000009999123100000010000000000000BRMEALACNOR9105
012026021802MELK3       010MELNICK     ON      NM   R$  000000000039300000000004000000000000391000000000039500000000003950000000000395000000000039602093000000000000622300000000000245844500000000000000009999123100000010000000000000BRMELKACNOR8116
012026021802MERC4       010MERC FINANC PN           R$  000000000143000000000014300000000001430000000000143000000000014300000000001430000000000159000001000000000000000100000000000000143000000000000000009999123100000010000000000000BRMERCACNPR9182
012026021802USIM3       010USIMINAS    ON      N1   R$  000000000064200000000006420000000000628000000000063200000000006320000000000628000000000063200825000000000000504500000000000318938100000000000000009999123100000010000000000000BRUSIMACNOR3167
012026021802USIM5       010USIMINAS    PNA     N1   R$  000000000063800000000006390000000000623000000000062900000000006320000000000631000000000063209684000000000007673100000000004831229800000000000000009999123100000010000000000000BRUSIMACNPA6172
012026021802VSTE3       010VESTE       ON      NM   R$  000000000035000000000003540000000000349000000000034900000000003490000000000348000000000034900026000000000000017500000000000006124800000000000000009999123100000010000000000000BRVSTEACNOR5104
012026021802VTRU3       010VITRUEDUCA  ON      NM   R$  000000000157000000000015700000000001504000000000154100000000015340000000001534000000000155002538000000000000487300000000000751411200000000000000009999123100000010000000000000BRVTRUACNOR3101
012026021802VULC3       010VULCABRAS   ON      NM   R$  000000000179800000000018290000000001793000000000181500000000018170000000001816000000000181705074000000000001318000000000002393295800000000000000009999123100000010000000000000BRVULCACNOR2181
012026021802VVEO3       010VIVEO       ON      NM   R$  000000000014400000000001510000000000141000000000014700000000001510000000000151000000000015201332000000000001270300000000000187725700000000000000009999123100000010000000000000BRVVEOACNOR0104
012026021802HAGA3       010HAGA S/A    ON           R$  000000000022100000000002370000000000221000000000023200000000002350000000000210000000000023500012000000000000002500000000000000580300000000000000009999123100000010000000000000BRHAGAACNOR7103
012026021802HAGA4       010HAGA S/A    PN           R$  000000000012600000000001320000000000124000000000012600000000001320000000000128000000000013200011000000000000002100000000000000265900000000000000009999123100000010000000000000BRHAGAACNPR4103
012026021802HAPV3       010HAPVIDA     ON      NM   R$  000000000104800000000010500000000001006000000000101900000000010120000000001011000000000101216114000000000012216800000000012455023000000000000000009999123100000010000000000000BRHAPVACNOR4119
012026021802ISAE3       010ISA ENERGIA ON      N1   R$  000000000351100000000035290000000003498000000000351800000000035200000000003500000000000352900013000000000000002300000000000008092300000000000000009999123100000010000000000000BRISAEACNOR2108
012026021802ISAE4       010ISA ENERGIA PN      N1   R$  000000000296000000000029870000000002926000000000294500000000029450000000002945000000000295106643000000000002324600000000006846016300000000000000009999123100000010000000000000BRISAEACNPR9108
012026021802ALPA3       010ALPARGATAS  ON      N1   R$  000000000128400000000012840000000001220000000000124200000000012200000000001215000000000125000061000000000000015400000000000019128300000000000000009999123100000010000000000000BRALPAACNOR0234
012026021802WDCN3       010WDC NETWORKSON      NM   R$  000000000026700000000002730000000000261000000000026600000000002680000000000265000000000026900067000000000000055300000000000014744400000000000000009999123100000010000000000000BRWDCNACNOR2100
012026021802WEGE3       010WEG         ON      NM   R$  000000000545300000000054530000000005324000000000537700000000053390000000005336000000000534119480000000000007766100000000041764958500000000000000009999123100000010000000000000BRWEGEACNOR0234
012026021802TASA3       010TAURUS ARMASON      N2   R$  000000000051300000000005240000000000512000000000051600000000005130000000000511000000000051600061000000000000009600000000000004960700000000000000009999123100000010000000000000BRTASAACNOR7106
012026021802TASA4       010TAURUS ARMASPN      N2   R$  000000000050800000000005140000000000506000000000051000000000005120000000000511000000000051200791000000000000224000000000000114247300000000000000009999123100000010000000000000BRTASAACNPR4106
012026021802TCSA3       010TECNISA     ON      NM   R$  000000000015100000000001530000000000149000000000015000000000001510000000000151000000000015200087000000000000019700000000000002962600000000000000009999123100000010000000000000BRTCSAACNOR3112
012026021802TECN3       010TECHNOS     ON      NM   R$  000000000087000000000009090000000000870000000000089000000000008960000000000882000000000089700216000000000000036400000000000032419600000000000000009999123100000010000000000000BRTECNACNOR6111
012026021802TELB4       010TELEBRAS    PN           R$  000000000082100000000008300000000000816000000000082000000000008200000000000811000000000082000011000000000000001500000000000001231100000000000000009999123100000010000000000000BRTELBACNPR9142
012026021802TEND3       010TENDA       ON      NM   R$  000000000328000000000033290000000003215000000000326200000000032420000000003241000000000324307530000000000001324000000000004319120100000000000000009999123100000010000000000000BRTENDACNOR4114
012026021802TFCO4       010TRACK FIELD PN      N2   R$  000000000167600000000017050000000001667000000000168600000000016860000000001677000000000168701770000000000000392500000000000661802500000000000000009999123100000010000000000000BRTFCOACNPR8121
012026021802TGMA3       010TEGMA       ON      NM   R$  000000000400000000000040450000000003995000000000402100000000040360000000004019000000000403600496000000000000058900000000000236866800000000000000009999123100000010000000000000BRTGMAACNOR7150
012026021802TIMS3       010TIM         ON      NM   R$  000000000272800000000027400000000002678000000000270400000000026990000000002690000000000269914025000000000006448900000000017440755400000000000000009999123100000010000000000000BRTIMSACNOR5129
012026021802VIVR3       010VIVER       ON      NM   R$  000000000006200000000000620000000000060000000000006000000000000620000000000060000000000006200051000000000000054800000000000003314100000000000000009999123100000010000000000000BRVIVRACNOR4125
012026021802VIVT3       010TELEF BRASILON           R$  000000000409900000000041350000000004041000000000406500000000040580000000004043000000000405813375000000000003520400000000014312545500000000000000009999123100000010000000000000BRVIVTACNOR0199
012026021802VLID3       010VALID       ON      NM   R$  000000000224500000000022780000000002220000000000224700000000022510000000002251000000000225300976000000000000182000000000000408970000000000000000009999123100000010000000000000BRVLIDACNOR5148
012026021802PLPL3       010PLANOEPLANO ON      NM   R$  000000000159700000000016320000000001545000000000158500000000015670000000001567000000000157904826000000000001396800000000002213968800000000000000009999123100000010000000000000BRPLPLACNOR5106
012026021802PNVL3       010DIMED       ON      NM   R$  000000000155800000000015870000000001543000000000156700000000015830000000001583000000000159003263000000000000610900000000000957446300000000000000009999123100000010000000000000BRPNVLACNOR9213
012026021802POMO3       010MARCOPOLO   ON      N2   R$  000000000060700000000006290000000000607000000000062100000000006200000000000620000000000062401345000000000000675100000000000419540200000000000000009999123100000010000000000000BRPOMOACNOR0105
012026021802POMO4       010MARCOPOLO   PN      N2   R$  000000000064000000000006560000000000640000000000065000000000006510000000000651000000000065214327000000000008674800000000005646988300000000000000009999123100000010000000000000BRPOMOACNPR7105
012026021802POSI3       010POSITIVO TECON      NM   R$  000000000040800000000004180000000000403000000000040800000000004060000000000405000000000040603294000000000001612600000000000659417900000000000000009999123100000010000000000000BRPOSIACNOR9118
012026021802RANI3       010IRANI       ON      NM   R$  000000000092500000000009380000000000916000000000092600000000009290000000000925000000000093001548000000000000482800000000000447159000000000000000009999123100000010000000000000BRRANIACNOR5079
012026021802RAPT3       010RANDON PART ON      N1   R$  000000000063200000000006480000000000632000000000063400000000006350000000000635000000000064400018000000000000006800000000000004317800000000000000009999123100000010000000000000BRRAPTACNOR7166
012026021802RAPT4       010RANDON PART PN      N1   R$  000000000063300000000006520000000000632000000000064300000000006420000000000641000000000064406588000000000003301800000000002123348000000000000000009999123100000010000000000000BRRAPTACNPR4166
012026021802SCAR3       010SAO CARLOS  ON      NM   R$  000000000149100000000015250000000001491000000000151000000000015190000000001515000000000152000092000000000000015300000000000023114200000000000000009999123100000010000000000000BRSCARACNOR7133
012026021802SEER3       010SER EDUCA   ON      NM   R$  000000000121500000000013090000000001215000000000128400000000013030000000001287000000000130304500000000000000830300000000001066306600000000000000009999123100000010000000000000BRSEERACNOR5120
012026021802SEQL3       010SEQUOIA LOG ON      NM   R$  000000000005800000000000580000000000040000000000004600000000000400000000000040000000000004101387000000000001907400000000000088064000000000000000009999123100000010000000000000BRSEQLACNOR2108
012026021802SHOW3       010TIME FOR FUNON      NM   R$  000000000050500000000005080000000000486000000000049600000000004920000000000486000000000049200186000000000000021700000000000010770000000000000000009999123100000010000000000000BRSHOWACNOR7106
012026021802SHUL4       010SCHULZ      PN           R$  000000000056000000000005600000000000544000000000054900000000005500000000000546000000000055000449000000000000221400000000000121590000000000000000009999123100000010000000000000BRSHULACNPR4163
012026021802CAMB3       010CAMBUCI     ON           R$  000000000094200000000009570000000000940000000000095300000000009570000000000943000000000095700033000000000000017200000000000016391800000000000000009999123100000010000000000000BRCAMBACNOR4136
012026021802CAML3       010CAMIL       ON      NM   R$  000000000066000000000006640000000000651000000000065600000000006550000000000655000000000066003439000000000001087200000000000714289600000000000000009999123100000010000000000000BRCAMLACNOR3134
012026021802CASH3       010MELIUZ      ON      NM   R$  000000000035100000000003590000000000341000000000034800000000003480000000000345000000000034802254000000000000954300000000000332471400000000000000009999123100000010000000000000BRCASHACNOR8107
012026021802CBAV3       010CBA         ON      NM   R$  000000000101900000000010220000000001013000000000101700000000010200000000001018000000000102004255000000000005168100000000005260381700000000000000009999123100000010000000000000BRCBAVACNOR5104
012026021802CEAB3       010CEA MODAS   ON      NM   R$  000000000130000000000013170000000001285000000000129600000000012970000000001296000000000129908298000000000003824400000000004958773000000000000000009999123100000010000000000000BRCEABACNOR1105
012026021802SIMH3       010SIMPAR      ON  EG  NM   R$  000000000130000000000013200000000001272000000000129800000000013150000000001315000000000131804520000000000001944800000000002526240100000000000000009999123100000010000000000000BRSIMHACNOR0110
012026021802SLCE3       010SLC AGRICOLAON      NM   R$  000000000158800000000016050000000001575000000000158300000000015840000000001578000000000158608193000000000001801900000000002853551300000000000000009999123100000010000000000000BRSLCEACNOR2128
012026021802SYNE3       010SYN PROP TECON      NM   R$  000000000047000000000004780000000000469000000000047300000000004760000000000475000000000047601335000000000000461600000000000218613500000000000000009999123100000010000000000000BRSYNEACNOR2107
012026021802TAEE11      010TAESA       UNT     N2   R$  000000000435000000000044060000000004326000000000435700000000043680000000004346000000000436806149000000000001148900000000005006855700000000000000009999123100000010000000000000BRTAEECDAM10153
012026021802TAEE3       010TAESA       ON      N2   R$  000000000143600000000014500000000001422000000000143600000000014280000000001428000000000144100270000000000000048200000000000069262700000000000000009999123100000010000000000000BRTAEEACNOR9153
012026021802TAEE4       010TAESA       PN      N2   R$  000000000146400000000014760000000001446000000000145700000000014490000000001449000000000146600454000000000000102600000000000149586200000000000000009999123100000010000000000000BRTAEEACNPR6153
012026021802MGEL4       010MANGELS INDLPN           R$  000000000064000000000006530000000000638000000000064500000000006510000000000621000000000065200022000000000000007300000000000004709100000000000000009999123100000010000000000000BRMGELACNPR3147
012026021802MGLU3       010MAGAZ LUIZA ON      NM   R$  000000000102300000000010420000000001014000000000102700000000010280000000001027000000000102814503000000000010535300000000010824268900000000000000009999123100000010000000000000BRMGLUACNOR2130
012026021802ORVR3       010ORIZON      ON      NM   R$  000000000715100000000071720000000007092000000000712900000000071230000000007123000000000715302452000000000000308800000000002201453400000000000000009999123100000010000000000000BRORVRACNOR0101
012026021802PCAR3       010P.ACUCAR-CBDON      NM   R$  000000000035100000000003510000000000336000000000034300000000003360000000000335000000000033808272000000000006028700000000002072561100000000000000009999123100000010000000000000BRPCARACNOR3170
012026021802PDGR3       010PDG REALT   ON      NM   R$  000000000026900000000002690000000000244000000000025400000000002460000000000246000000000025000163000000000000062700000000000015955200000000000000009999123100000010000000000000BRPDGRACNOR8123
012026021802PDTC3       010PADTEC      ON      NM   R$  000000000014700000000001520000000000147000000000015000000000001520000000000148000000000015200032000000000000015900000000000002400500000000000000009999123100000010000000000000BRPDTCACNOR3101
012026021802PEAB4       010PAR AL BAHIAPN           R$  000000000408000000000040800000000004080000000000408000000000040800000000003906000000000424300001000000000000000400000000000001632000000000000000009999123100000010000000000000BRPEABACNPR0137
012026021802PETR3       010PETROBRAS   ON      N2   R$  000000000397000000000040180000000003970000000000399600000000040140000000004001000000000401512288000000000010902300000000043571743100000000000000009999123100000010000000000000BRPETRACNOR9212
012026021802PFRM3       010PROFARMA    ON      NM   R$  000000000087000000000008900000000000850000000000086400000000008800000000000858000000000088000629000000000000093300000000000080642200000000000000009999123100000010000000000000BRPFRMACNOR1122
012026021802PGMN3       010PAGUE MENOS ON      NM   R$  000000000071800000000007300000000000710000000000072200000000007250000000000725000000000072606306000000000002520300000000001821938800000000000000009999123100000010000000000000BRPGMNACNOR8106
012026021802PINE3       010PINE        ON      N2   R$  000000000132700000000013600000000001300000000000132100000000013000000000001175000000000130100012000000000000002100000000000002774500000000000000009999123100000010000000000000BRPINEACNOR1160
012026021802PINE4       010PINE        PN      N2   R$  000000000141000000000014100000000001332000000000135100000000013400000000001339000000000134001280000000000000442900000000000598684800000000000000009999123100000010000000000000BRPINEACNPR8160
012026021802RAIZ4       010RAIZEN      PN      N2   R$  000000000006700000000000680000000000062000000000006500000000000670000000000066000000000006714263000000000051685600000000003397814700000000000000009999123100000010000000000000BRRAIZACNPR6112
012026021802FHER3       010FER HERINGERON      NM   R$  000000000042000000000004230000000000415000000000041600000000004150000000000412000000000042200011000000000000008000000000000003329400000000000000009999123100000010000000000000BRFHERACNOR5103
012026021802FICT3       010FICTORALIMENON           R$  000000000006000000000000620000000000057000000000005800000000000600000000000057000000000006000084000000000000032000000000000001886600000000000000009999123100000010000000000000BRFICTACNOR3101
012026021802FIQE3       010UNIFIQUE    ON      NM   R$  000000000051800000000005350000000000518000000000052700000000005250000000000524000000000052700743000000000000326100000000000171947100000000000000009999123100000010000000000000BRFIQEACNOR5112
012026021802FLRY3       010FLEURY      ON      NM   R$  000000000174600000000017770000000001741000000000176700000000017750000000001765000000000177506377000000000001807700000000003194335900000000000000009999123100000010000000000000BRFLRYACNOR5143
012026021802FRAS3       010FRAS-LE     ON      N1   R$  000000000241400000000024560000000002411000000000243200000000024340000000002428000000000243400756000000000000137800000000000335153900000000000000009999123100000010000000000000BRFRASACNOR0163
012026021802GEPA4       010GER PARANAP PN           R$  000000000349900000000035000000000003499000000000349900000000035000000000003451000000000350000005000000000000001600000000000005599800000000000000009999123100000010000000000000BRGEPAACNPR9165
012026021802GFSA3       010GAFISA      ON      NM   R$  000000000030500000000003150000000000291000000000030200000000002950000000000294000000000029500559000000000000501600000000000151781700000000000000009999123100000010000000000000BRGFSAACNOR3127
012026021802GGBR3       010GERDAU      ON      N1   R$  000000000185000000000018570000000001830000000000183900000000018570000000001830000000000185900062000000000000011900000000000021885000000000000000009999123100000010000000000000BRGGBRACNOR1198
012026021802GGBR4       010GERDAU      PN      N1   R$  000000000217000000000021720000000002132000000000214900000000021620000000002161000000000216212120000000000007824800000000016817573100000000000000009999123100000010000000000000BRGGBRACNPR8198
012026021802MATD3       010MATER DEI   ON      NM   R$  000000000057100000000005770000000000569000000000057300000000005690000000000569000000000057700262000000000000034600000000000019840200000000000000009999123100000010000000000000BRMATDACNOR4106
012026021802MBRF3       010MARFRIG     ON      NM   R$  000000000187300000000018780000000001819000000000184400000000018530000000001853000000000185513083000000000007561700000000013946024400000000000000009999123100000010000000000000BRMBRFACNOR1100
012026021802NEOE3       010NEOENERGIA  ON      NM   R$  000000000327000000000032750000000003270000000000327200000000032740000000003272000000000327501169000000000000702300000000002298536700000000000000009999123100000010000000000000BRNEOEACNOR3127
012026021802NGRD3       010NEOGRID     ON      NM   R$  000000000265000000000026740000000002650000000000266700000000026740000000002660000000000267400006000000000000000700000000000001867200000000000000009999123100000010000000000000BRNGRDACNOR3106
012026021802NATU3       010NATURA      ON      NM   R$  000000000092000000000009400000000000911000000000092300000000009280000000000922000000000092912854000000000005448700000000005031541000000000000000009999123100000010000000000000BRNATUACNOR6137
012026021802PTBL3       010PORTOBELLO  ON      NM   R$  000000000033000000000003300000000000323000000000032700000000003270000000000326000000000033000160000000000000046900000000000015345700000000000000009999123100000010000000000000BRPTBLACNOR8132
012026021802PTNT3       010PETTENATI   ON           R$  000000000083100000000008530000000000831000000000083900000000008450000000000833000000000084100005000000000000001000000000000000839100000000000000009999123100000010000000000000BRPTNTACNOR6044
012026021802PTNT4       010PETTENATI   PN           R$  000000000083000000000008320000000000828000000000083000000000008310000000000830000000000083200013000000000000004600000000000003820400000000000000009999123100000010000000000000BRPTNTACNPR3049
012026021802QUAL3       010QUALICORP   ON      NM   R$  000000000022600000000002450000000000226000000000023900000000002400000000000240000000000024104358000000000009231900000000002211564700000000000000009999123100000010000000000000BRQUALACNOR6122
012026021802BMEB4       010MERCANTIL   PN      N1   R$  000000000690000000000069000000000006700000000000679200000000067510000000006751000000000690300126000000000000015400000000000104603400000000000000009999123100000010000000000000BRBMEBACNPR5215
012026021802BMGB4       010BANCO BMG   PN      N1   R$  000000000048200000000004920000000000482000000000048800000000004870000000000487000000000048901213000000000000506400000000000247160600000000000000009999123100000010000000000000BRBMGBACNPR0118
012026021802BMKS3       010BIC MONARK  ON           R$  000000003780000000000378000000000037352000000003740100000000373520000000037400000000003799800003000000000000000012000000000000448820000000000000009999123100000010000000000000BRBMKSACNOR9169
012026021802BMOB3       010BEMOBI TECH ON      NM   R$  000000000238000000000024170000000002370000000000239600000000024030000000002403000000000240401035000000000000198000000000000474569100000000000000009999123100000010000000000000BRBMOBACNOR7107
012026021802BPAC11      010BTGP BANCO  UNT     N2   R$  000000000602000000000061150000000005960000000000602600000000060320000000006027000000000603327704000000000007790400000000046945033000000000000000009999123100000010000000000000BRBPACUNT006128
012026021802BPAC3       010BTGP BANCO  ON      N2   R$  000000000440000000000044200000000004230000000000434100000000042680000000004280000000000439900051000000000000007100000000000030825500000000000000009999123100000010000000000000BRBPACACNOR7139
012026021802BPAC5       010BTGP BANCO  PNA     N2   R$  000000000111300000000011860000000001101000000000114300000000011450000000001126000000000114700054000000000000014900000000000017042300000000000000009999123100000010000000000000BRBPACACNPA0139
012026021802AERI3       010AERIS       ON      NM   R$  000000000029900000000002990000000000281000000000029000000000002860000000000285000000000028900256000000000000075200000000000021875300000000000000009999123100000010000000000000BRAERIACNOR4102
012026021802AFLT3       010AFLUENTE T  ON           R$  000000000072900000000007390000000000727000000000073000000000007390000000000726000000000073900004000000000000000500000000000000365200000000000000009999123100000010000000000000BRAFLTACNOR1126
012026021802AGRO3       010BRASILAGRO  ON      NM   R$  000000000203600000000020440000000002005000000000202900000000020370000000002025000000000203700600000000000000095100000000000193014200000000000000009999123100000010000000000000BRAGROACNOR7116
012026021807TXRX4       010TEX RENAUX  PN           R$  000000000015700000000001570000000000157000000000015700000000001570000000000157000000000018300002000000000000001100000000000000172700000000000000009999123100000010000000000000BRTXRXACNPR0142
012026021808CTAX3       010CONTAX      ON           R$  000000000008400000000000840000000000082000000000008200000000000820000000000082000000000008300007000000000000006100000000000000503400000000000000009999123100000010000000000000BRCTAXACNOR3119
012026021808CTSA3       010SANTANENSE  ON           R$  000000000027200000000002720000000000272000000000027200000000002720000000000222000000000027300001000000000000000100000000000000027200000000000000009999123100000010000000000000BRCTSAACNOR3063
012026021808CTSA4       010SANTANENSE  PN           R$  000000000020000000000002000000000000200000000000020000000000002000000000000171000000000020000005000000000000001000000000000000200000000000000000009999123100000010000000000000BRCTSAACNPR0063
012026021808LIGT3       010LIGHT S/A   ON      NM   R$  000000000048100000000004890000000000473000000000048000000000004750000000000475000000000047900986000000000000494800000000000237557100000000000000009999123100000010000000000000BRLIGTACNOR2125
012026021808JFEN3       010JOAO FORTES ON           R$  000000000009700000000000970000000000096000000000009600000000000960000000000096000000000009700009000000000000013800000000000001329100000000000000009999123100000010000000000000BRJFENACNOR0061
012026021808OIBR3       010OI          ON      N1   R$  000000000001700000000000170000000000017000000000001700000000000170000000000017000000000001800127000000000000541200000000000009200400000000000000009999123100000010000000000000BROIBRACNOR1112
012026021808OIBR4       010OI          PN      N1   R$  000000000016100000000001610000000000161000000000016100000000001610000000000153000000000016100005000000000000000500000000000000080500000000000000009999123100000010000000000000BROIBRACNPR8111
012026021808RPMG3       010PET MANGUINHON           R$  000000000022800000000002280000000000228000000000022800000000002280000000000222000000000022800001000000000000000100000000000000022800000000000000009999123100000010000000000000BRRPMGACNOR9194
012026021808RSID3       010ROSSI RESID ON      NM   R$  000000000016500000000001650000000000165000000000016500000000001650000000000165000000000017000024000000000000003600000000000000594000000000000000009999123100000010000000000000BRRSIDACNOR8121
012026021808HOOT4       010HOTEIS OTHONPN           R$  000000000071900000000007200000000000700000000000070600000000007170000000000706000000000071500014000000000000003800000000000002686500000000000000009999123100000010000000000000BRHOOTACNPR9015
012026021808BDLL4       010BARDELLA    PN           R$  000000000063600000000006360000000000636000000000063600000000006360000000000636000000000068000002000000000000000200000000000000127200000000000000009999123100000010000000000000BRBDLLACNPR8151
012026021808AMBP3       010AMBIPAR     ON      NM   R$  000000000002700000000000270000000000026000000000002600000000000260000000000026000000000002700761000000000004514800000000000118337000000000000000009999123100000010000000000000BRAMBPACNOR6105
012026021808AMER3       010AMERICANAS  ON      NM   R$  000000000055900000000005700000000000555000000000056300000000005580000000000558000000000056001362000000000000861300000000000485578200000000000000009999123100000010000000000000BRAMERACNOR6103
012026021808AGXY3       010AGROGALAXY  ON      NM   R$  000000000026600000000002660000000000243000000000025000000000002480000000000244000000000024900147000000000000017600000000000004405000000000000000009999123100000010000000000000BRAGXYACNOR4104
012026021808PMAM3       010PARANAPANEMAON      NM   R$  000000000007200000000000730000000000068000000000007000000000000690000000000069000000000007000386000000000000701700000000000049388700000000000000009999123100000010000000000000BRPMAMACNOR3045
012026021808OSXB3       010OSX BRASIL  ON      NM   R$  000000000017500000000001750000000000175000000000017500000000001750000000000175000000000018400014000000000000002600000000000000455000000000000000009999123100000010000000000000BROSXBACNOR8109
012026021808NEXP3       010NEXPE       ON           R$  000000000028800000000002880000000000285000000000028600000000002850000000000283000000000028500002000000000000000300000000000000085800000000000000009999123100000010000000000000BRNEXPACNOR0101
012026021808BOBR4       010BOMBRIL     PN           R$  000000000012600000000001260000000000126000000000012600000000001260000000000123000000000012600001000000000000000100000000000000012600000000000000009999123100000010000000000000BRBOBRACNPR3128
012026021810ABCB10      010ABC BRASIL  PN  REC N2   R$  000000000262400000000026240000000002450000000000251100000000024810000000002481000000000259900011000000000000001200000000000003013300000000000000009999123100000010000000000000BRABCBR20PR9149
012026021810KDIF12      010KINEA INFRAFDIR          R$  000000000002400000000000240000000000012000000000001700000000000120000000000008000000000001200105000000000000028055000000000000491368000000000000009999123100000010000000000000BRKDIFD01M16161
012026021810HYPE1       010HYPERA      DIR ORD NM   R$  000000000019000000000002150000000000180000000000020000000000002000000000000199000000000020003158000000000001300700000000000260576500000000000000009999123100000010000000000000BRHYPED02OR3149
012026021810PGMN9       010PAGUE MENOS ON  REC NM   R$  000000000070000000000007000000000000700000000000070000000000007000000000000000000000000072000001000000000000000100000000000000070000000000000000009999123100000010000000000000BRPGMNR06OR2105
012026021810BMEB9       010MERCANTIL   ON  REC N1   R$  000000000559900000000056670000000005410000000000548600000000054400000000005440000000000554600012000000000000002400000000000013167700000000000000009999123100000010000000000000BRBMEBR04OR7209
012026021810BMGB2       010BANCO BMG   DIR PRE N1   R$  000000000005500000000000590000000000049000000000005400000000000520000000000052000000000005500179000000000000061500000000000003345000000000000000009999123100000010000000000000BRBMGBD02PR3117
012026021812VISC11      010FII VINCI SCCI           R$  000000001086900000000108980000000010860000000001088100000000108720000000010872000000001087703754000000000000048224000000000524734942000000000000009999123100000010000000000000BRVISCCTF005206
012026021812VIUR11      010FII VINCI IUCI           R$  000000000058100000000005830000000000580000000000058000000000005810000000000581000000000058200996000000000000053591000000000031135064000000000000009999123100000010000000000000BRVIURCTF009157
012026021812XPCI11      010FII XP CRED CI           R$  000000000829000000000083710000000008218000000000825600000000082950000000008266000000000829503559000000000000038572000000000318486480000000000000009999123100000010000000000000BRXPCICTF007177
012026021812XPCM11      010FII XP MACAECI           R$  000000000080000000000008500000000000800000000000082600000000008490000000000810000000000085700156000000000000007230000000000005978843000000000000009999123100000010000000000000BRXPCMCTF009230
012026021812XPIN11      010FII XP INDL CI  ER       R$  000000000718800000000071880000000007025000000000710800000000071300000000007130000000000713901834000000000000020723000000000147308378000000000000009999123100000010000000000000BRXPINCTF004194
012026021812XPLG11      010FII XP LOG  CI  ES       R$  000000001022800000000102490000000010220000000001023100000000102200000000010220000000001022303804000000000000036784000000000376345563000000000000009999123100000010000000000000BRXPLGCTF002200
012026021812XPML11      010FII XP MALLSCI           R$  000000001110000000000111480000000011075000000001110700000000111050000000011105000000001113518209000000000000154308000000001713919333000000000000009999123100000010000000000000BRXPMLCTF000207
012026021812XPSF11      010FII XP SELECCI           R$  000000000068100000000006810000000000672000000000067800000000006790000000000679000000000068102044000000000000083012000000000056305118000000000000009999123100000010000000000000BRXPSFCTF009176
012026021812ZAVC11      010FII ZAVIT C CI           R$  000000000090000000000009060000000000891000000000090200000000009040000000000898000000000090400043000000000000000467000000000000421269000000000000009999123100000010000000000000BRZAVCCTF007123
012026021812ZAVI11      010FII ZAVIT R CI           R$  000000000099900000000010260000000000945000000000095600000000009590000000000959000000000096300545000000000000130056000000000124342849000000000000009999123100000010000000000000BRZAVICTF004142
012026021812EDFO11      010FII OURINVESCI           R$  000000001243000000000134600000000012430000000001294500000000134600000000012500000000001350000002000000000000000002000000000000025890000000000000009999123100000010000000000000BREDFOCTF004344
012026021812EDGA11      010FII GALERIA CI           R$  000000000135100000000014000000000001350000000000137800000000013700000000001375000000000142000017000000000000000304000000000000418930000000000000009999123100000010000000000000BREDGACTF001256
012026021812EGDB11      010FII EGDB    CI           R$  000000012023000000001202300000000120230000000012023000000001202300000000000000000000000000000001000000000000000011000000000001322530000000000000009999123100000010000000000000BREGDBCTF009100
012026021812ABCP11      010FII ABC IMOBCI           R$  000000000816400000000081640000000008002000000000806100000000080720000000008068000000000807200068000000000000000528000000000004256496000000000000009999123100000010000000000000BRABCPCTF000360
012026021812ITIP11      010FII INTER IPCI           R$  000000000663500000000067030000000006622000000000666400000000067020000000006660000000000670200045000000000000000731000000000004871589000000000000009999123100000010000000000000BRITIPCTF002149
012026021812ITIT11      010FII INTER ITCI           R$  000000000729100000000073450000000007291000000000732300000000073450000000007326000000000734500065000000000000000689000000000005045821000000000000009999123100000010000000000000BRITITCTF004149
012026021812ITRI11      010FII ITRI    CI           R$  000000000850000000000085000000000008355000000000842800000000084300000000008430000000000848201328000000000000025014000000000210838418000000000000009999123100000010000000000000BRITRICTF008122
012026021812LVBI11      010FII LVBI VBICI           R$  000000001093700000000109670000000010905000000001093300000000109420000000010942000000001097003295000000000000024098000000000263472814000000000000009999123100000010000000000000BRLVBICTF002189
012026021812MXRF11      010FII MAXI RENCI           R$  000000000097400000000009830000000000971000000000097700000000009830000000000982000000000098348720000000000001825009000000001783472894000000000000009999123100000010000000000000BRMXRFCTF008274
012026021812MAGM11      010FII MAGM    CI  ER       R$  000000000100000000000010000000000000994000000000099900000000010000000000000994000000000100000004000000000000000056000000000000055976000000000000009999123100000010000000000000BRMAGMCTF005105
012026021812MANA11      010FII MANATI  CI           R$  000000000093100000000009370000000000927000000000093100000000009280000000000928000000000093303322000000000000098368000000000091636870000000000000009999123100000010000000000000BRMANACTF006145
012026021812ALZC11      010FII ALIANZACCI           R$  000000000080900000000008170000000000809000000000081300000000008120000000000812000000000081400245000000000000005808000000000004725415000000000000009999123100000010000000000000BRALZCCTF016124
012026021812ALZR11      010FII ALIANZA CI           R$  000000000108200000000010830000000001076000000000108000000000010770000000001077000000000108304858000000000000258370000000000279170510000000000000009999123100000010000000000000BRALZRCTF006203
012026021812CTXT11      010FII C TEXTILCI           R$  000000000052100000000005250000000000503000000000051100000000005250000000000505000000000052500009000000000000000019000000000000009711000000000000009999123100000010000000000000BRCTXTCTF014208
012026021812EMET11      010FII EMET    CI  ER       R$  000000000095300000000009550000000000953000000000095300000000009540000000000953000000000098500007000000000000000047000000000000044801000000000000009999123100000010000000000000BREMETCTF007108
012026021812CXTL11      010FII CX TRX  CI           R$  000000003550000000000355000000000033950000000003447900000000339500000000033950000000003550000003000000000000000003000000000000103439000000000000009999123100000010000000000000BRCXTLCTF003256
012026021812CYCR11      010FII CYRELA  CI           R$  000000000090700000000009120000000000906000000000090800000000009060000000000906000000000091000487000000000000029841000000000027105373000000000000009999123100000010000000000000BRCYCRCTF004159
012026021812EQIR11      010FII EQI RECECI           R$  000000000085900000000008610000000000854000000000085600000000008580000000000858000000000086100159000000000000011429000000000009792002000000000000009999123100000010000000000000BREQIRCTF003152
012026021812CPLG11      010FII CPLG    CI  ER       R$  000000000123600000000012420000000001225000000000122900000000012270000000001225000000000122700135000000000000001559000000000001916604000000000000009999123100000010000000000000BRCPLGCTF006116
012026021812CPSH11      010FII CPSH    CI           R$  000000000109100000000010970000000001085000000000108700000000010880000000001087000000000108803091000000000000080757000000000087832980000000000000009999123100000010000000000000BRCPSHCTF017134
012026021812CPTS11      010FII CAPI SECCI  ER       R$  000000000080000000000008010000000000795000000000079600000000007950000000000795000000000079710884000000000000864017000000000688000933000000000000009999123100000010000000000000BRCPTSCTF004254
012026021812CPUR11      010FII CPHBC URCI           R$  000000000106800000000010680000000001027000000000105500000000010680000000001042000000000109800051000000000000003584000000000003782997000000000000009999123100000010000000000000BRCPURCTF004117
012026021812CRFF11      010FII CX RBRA2CI           R$  000000000764900000000076490000000007549000000000764400000000076490000000007466000000000764900005000000000000000023000000000000175827000000000000009999123100000010000000000000BRCRFFCTF006181
012026021812LMAI11      010LABINAFII   CI           R$  000000000373000000000037400000000003625000000000371000000000037300000000003635000000000373000011000000000000000379000000000001406245000000000000009999123100000010000000000000BRLMAICTF003101
012026021812LRDI11      010FII LEBLON  CI           R$  000000001980000000000198000000000019800000000001980000000000198000000000010000000000001977500001000000000000000001000000000000019800000000000000009999123100000010000000000000BRLRDICTF006105
012026021812SMRE11      010FII SMRE    CI           R$  000000000645000000000064790000000006450000000000645100000000064500000000006450000000000647100011000000000000001612000000000010399742000000000000009999123100000010000000000000BRSMRECTF001123
012026021812SNCI11      010FII SUNO CRICI  ER       R$  000000000904900000000090490000000008756000000000883600000000088150000000008772000000000881500922000000000000011283000000000099698193000000000000009999123100000010000000000000BRSNCICTF002156
012026021812RECM11      010FII RECM    CI  ER       R$  000000000085300000000008540000000000849000000000085300000000008540000000000853000000000085400028000000000000001104000000000000942033000000000000009999123100000010000000000000BRRECMCTF005116
012026021812RECR11      010FII REC RECECI  ER       R$  000000000818000000000081950000000008073000000000812400000000080750000000008075000000000808003451000000000000039840000000000323680845000000000000009999123100000010000000000000BRRECRCTF004172
012026021812RECT11      010FII REC RENDCI  ER       R$  000000000385000000000038760000000003827000000000384900000000038570000000003850000000000385700522000000000000010934000000000042091271000000000000009999123100000010000000000000BRRECTCTF000188
012026021812RELG11      010FII REC LOG CI  ER       R$  000000000647600000000064900000000006423000000000646600000000064850000000006461000000000648500037000000000000000322000000000002082147000000000000009999123100000010000000000000BRRELGCTF008156
012026021812SNEL11      010FII SUNO EL CI  ER       R$  000000000085400000000008550000000000852000000000085400000000008530000000000853000000000085403361000000000000195247000000000166759776000000000000009999123100000010000000000000BRSNELCTF010131
012026021812SNFF11      010FII SUNOFOFICI  ER       R$  000000000776700000000077670000000007621000000000765900000000076610000000007621000000000766101576000000000000005031000000000038533447000000000000009999123100000010000000000000BRSNFFCTF001159
012026021812SNME11      010FII SNME    CI  ER       R$  000000000094900000000009490000000000933000000000094300000000009450000000000939000000000094500582000000000000026065000000000024580055000000000000009999123100000010000000000000BRSNMECTF000127
012026021812TRBL11      010FII SDI LOG CI           R$  000000000700000000000070900000000007000000000000704900000000070400000000007040000000000707000370000000000000008167000000000057573951000000000000009999123100000010000000000000BRTRBLCTF007132
012026021812TRPL11      010FII TRPL    CI           R$  000000000010500000000001050000000000105000000000010500000000001050000000000081000000000010500004000000000000000041000000000000004305000000000000009999123100000010000000000000BRTRPLCTF015100
012026021812TRUE11      010FII TRUEMULTCI           R$  000000000242400000000024510000000002424000000000244900000000024500000000002450000000000249900045000000000000000582000000000001425779000000000000009999123100000010000000000000BRTRUECTF002100
012026021812TRXB11      010FII TRX R IICI           R$  000000001850000000000185000000000017383000000001777700000000179010000000017474000000001790000024000000000000000104000000000001848900000000000000009999123100000010000000000000BRTRXBCTF002173
012026021812TRXF11      010FII TRX REALCI           R$  000000000931900000000093390000000009297000000000931000000000092980000000009298000000000930213668000000000000217362000000002023806500000000000000009999123100000010000000000000BRTRXFCTF003186
012026021812TRXY11      010FII TRXY    CI           R$  000000000095000000000009650000000000944000000000095800000000009650000000000958000000000097000092000000000000005326000000000005105406000000000000009999123100000010000000000000BRTRXYCTF004116
012026021812TVRI11      010FII TIVIO RICI           R$  000000000982500000000099330000000009825000000000987600000000099290000000009910000000000992900834000000000000007989000000000078904916000000000000009999123100000010000000000000BRTVRICTF001128
012026021812JSCR11      010FII JSCR    CI           R$  000000000085500000000008550000000000847000000000084900000000008550000000000849000000000085500240000000000000008181000000000006947450000000000000009999123100000010000000000000BRJSCRCTF001120
012026021812JSRE11      010FII JS REAL CI           R$  000000000676100000000067650000000006600000000000666500000000066840000000006640000000000668402835000000000000032151000000000214308808000000000000009999123100000010000000000000BRJSRECTF007282
012026021812KCRE11      010FII KINEA CRCI           R$  000000000088300000000008830000000000878000000000088000000000008830000000000881000000000088300672000000000000030529000000000026883901000000000000009999123100000010000000000000BRKCRECTF009145
012026021812LASC11      010FII LEGATUS CI           R$  000000001128500000000112850000000011025000000001128000000000112850000000011028000000001128500024000000000000000128000000000001443905000000000000009999123100000010000000000000BRLASCCTF003175
012026021812LIFE11      010FII LIFE    CI           R$  000000000089000000000008970000000000889000000000089300000000008970000000000894000000000089701638000000000000080241000000000071718235000000000000009999123100000010000000000000BRLIFECTF017152
012026021812HBCR11      010FII HBC REN CI           R$  000000001380000000000138000000000013800000000001380000000000138000000000009835000000001380000009000000000000000059000000000000814200000000000000009999123100000010000000000000BRHBCRCTF001161
012026021812HCHG11      010FII HECT CRICI           R$  000000000830000000000083000000000008300000000000830000000000083000000000008102000000000835000001000000000000000013000000000000107900000000000000009999123100000010000000000000BRHCHGCTF001156
